{
	"contracts/ERC721/ERC721Token.sol": {
		"ERC721Token": {
			"abi": [
				{
					"constant": true,
					"inputs": [],
					"name": "name",
					"outputs": [
						{
							"name": "",
							"type": "string"
						}
					],
					"payable": false,
					"stateMutability": "view",
					"type": "function"
				},
				{
					"constant": true,
					"inputs": [
						{
							"name": "_tokenId",
							"type": "uint256"
						}
					],
					"name": "getApproved",
					"outputs": [
						{
							"name": "",
							"type": "address"
						}
					],
					"payable": false,
					"stateMutability": "view",
					"type": "function"
				},
				{
					"constant": false,
					"inputs": [
						{
							"name": "_to",
							"type": "address"
						},
						{
							"name": "_tokenId",
							"type": "uint256"
						}
					],
					"name": "approve",
					"outputs": [],
					"payable": false,
					"stateMutability": "nonpayable",
					"type": "function"
				},
				{
					"constant": true,
					"inputs": [],
					"name": "totalSupply",
					"outputs": [
						{
							"name": "",
							"type": "uint256"
						}
					],
					"payable": false,
					"stateMutability": "view",
					"type": "function"
				},
				{
					"constant": false,
					"inputs": [
						{
							"name": "_from",
							"type": "address"
						},
						{
							"name": "_to",
							"type": "address"
						},
						{
							"name": "_tokenId",
							"type": "uint256"
						}
					],
					"name": "transferFrom",
					"outputs": [],
					"payable": false,
					"stateMutability": "nonpayable",
					"type": "function"
				},
				{
					"constant": true,
					"inputs": [
						{
							"name": "_owner",
							"type": "address"
						},
						{
							"name": "_index",
							"type": "uint256"
						}
					],
					"name": "tokenOfOwnerByIndex",
					"outputs": [
						{
							"name": "",
							"type": "uint256"
						}
					],
					"payable": false,
					"stateMutability": "view",
					"type": "function"
				},
				{
					"constant": false,
					"inputs": [
						{
							"name": "_from",
							"type": "address"
						},
						{
							"name": "_to",
							"type": "address"
						},
						{
							"name": "_tokenId",
							"type": "uint256"
						}
					],
					"name": "safeTransferFrom",
					"outputs": [],
					"payable": false,
					"stateMutability": "nonpayable",
					"type": "function"
				},
				{
					"constant": true,
					"inputs": [
						{
							"name": "_tokenId",
							"type": "uint256"
						}
					],
					"name": "exists",
					"outputs": [
						{
							"name": "",
							"type": "bool"
						}
					],
					"payable": false,
					"stateMutability": "view",
					"type": "function"
				},
				{
					"constant": true,
					"inputs": [
						{
							"name": "_index",
							"type": "uint256"
						}
					],
					"name": "tokenByIndex",
					"outputs": [
						{
							"name": "",
							"type": "uint256"
						}
					],
					"payable": false,
					"stateMutability": "view",
					"type": "function"
				},
				{
					"constant": true,
					"inputs": [
						{
							"name": "_tokenId",
							"type": "uint256"
						}
					],
					"name": "ownerOf",
					"outputs": [
						{
							"name": "",
							"type": "address"
						}
					],
					"payable": false,
					"stateMutability": "view",
					"type": "function"
				},
				{
					"constant": true,
					"inputs": [
						{
							"name": "_owner",
							"type": "address"
						}
					],
					"name": "balanceOf",
					"outputs": [
						{
							"name": "",
							"type": "uint256"
						}
					],
					"payable": false,
					"stateMutability": "view",
					"type": "function"
				},
				{
					"constant": true,
					"inputs": [],
					"name": "symbol",
					"outputs": [
						{
							"name": "",
							"type": "string"
						}
					],
					"payable": false,
					"stateMutability": "view",
					"type": "function"
				},
				{
					"constant": false,
					"inputs": [
						{
							"name": "_to",
							"type": "address"
						},
						{
							"name": "_approved",
							"type": "bool"
						}
					],
					"name": "setApprovalForAll",
					"outputs": [],
					"payable": false,
					"stateMutability": "nonpayable",
					"type": "function"
				},
				{
					"constant": false,
					"inputs": [
						{
							"name": "_from",
							"type": "address"
						},
						{
							"name": "_to",
							"type": "address"
						},
						{
							"name": "_tokenId",
							"type": "uint256"
						},
						{
							"name": "_data",
							"type": "bytes"
						}
					],
					"name": "safeTransferFrom",
					"outputs": [],
					"payable": false,
					"stateMutability": "nonpayable",
					"type": "function"
				},
				{
					"constant": true,
					"inputs": [
						{
							"name": "_tokenId",
							"type": "uint256"
						}
					],
					"name": "tokenURI",
					"outputs": [
						{
							"name": "",
							"type": "string"
						}
					],
					"payable": false,
					"stateMutability": "view",
					"type": "function"
				},
				{
					"constant": true,
					"inputs": [
						{
							"name": "_owner",
							"type": "address"
						},
						{
							"name": "_operator",
							"type": "address"
						}
					],
					"name": "isApprovedForAll",
					"outputs": [
						{
							"name": "",
							"type": "bool"
						}
					],
					"payable": false,
					"stateMutability": "view",
					"type": "function"
				},
				{
					"inputs": [
						{
							"name": "_name",
							"type": "string"
						},
						{
							"name": "_symbol",
							"type": "string"
						}
					],
					"payable": false,
					"stateMutability": "nonpayable",
					"type": "constructor"
				},
				{
					"anonymous": false,
					"inputs": [
						{
							"indexed": true,
							"name": "_from",
							"type": "address"
						},
						{
							"indexed": true,
							"name": "_to",
							"type": "address"
						},
						{
							"indexed": false,
							"name": "_tokenId",
							"type": "uint256"
						}
					],
					"name": "Transfer",
					"type": "event"
				},
				{
					"anonymous": false,
					"inputs": [
						{
							"indexed": true,
							"name": "_owner",
							"type": "address"
						},
						{
							"indexed": true,
							"name": "_approved",
							"type": "address"
						},
						{
							"indexed": false,
							"name": "_tokenId",
							"type": "uint256"
						}
					],
					"name": "Approval",
					"type": "event"
				},
				{
					"anonymous": false,
					"inputs": [
						{
							"indexed": true,
							"name": "_owner",
							"type": "address"
						},
						{
							"indexed": true,
							"name": "_operator",
							"type": "address"
						},
						{
							"indexed": false,
							"name": "_approved",
							"type": "bool"
						}
					],
					"name": "ApprovalForAll",
					"type": "event"
				}
			],
			"devdoc": {
				"methods": {
					"approve(address,uint256)": {
						"details": "Approves another address to transfer the given token ID\rThe zero address indicates there is no approved address.\rThere can only be one approved address per token at a given time.\rCan only be called by the token owner or an approved operator.\r",
						"params": {
							"_to": "address to be approved for the given token ID\r",
							"_tokenId": "uint256 ID of the token to be approved\r"
						}
					},
					"balanceOf(address)": {
						"details": "Gets the balance of the specified address\r",
						"params": {
							"_owner": "address to query the balance of\r"
						},
						"return": "uint256 representing the amount owned by the passed address\r"
					},
					"exists(uint256)": {
						"details": "Returns whether the specified token exists\r",
						"params": {
							"_tokenId": "uint256 ID of the token to query the existance of\r"
						},
						"return": "whether the token exists\r"
					},
					"getApproved(uint256)": {
						"details": "Gets the approved address for a token ID, or zero if no address set\r",
						"params": {
							"_tokenId": "uint256 ID of the token to query the approval of\r"
						},
						"return": "address currently approved for a the given token ID\r"
					},
					"isApprovedForAll(address,address)": {
						"details": "Tells whether an operator is approved by a given owner\r",
						"params": {
							"_operator": "operator address which you want to query the approval of\r",
							"_owner": "owner address which you want to query the approval of\r"
						},
						"return": "bool whether the given operator is approved by the given owner\r"
					},
					"name()": {
						"details": "Gets the token name\r",
						"return": "string representing the token name\r"
					},
					"ownerOf(uint256)": {
						"details": "Gets the owner of the specified token ID\r",
						"params": {
							"_tokenId": "uint256 ID of the token to query the owner of\r"
						},
						"return": "owner address currently marked as the owner of the given token ID\r"
					},
					"safeTransferFrom(address,address,uint256)": {
						"details": "Safely transfers the ownership of a given token ID to another address\rIf the target address is a contract, it must implement `onERC721Received`,\r which is called upon a safe transfer, and return the magic value\r `bytes4(keccak256(\"onERC721Received(address,uint256,bytes)\"))`; otherwise,\r the transfer is reverted.\rRequires the msg sender to be the owner, approved, or operator\r",
						"params": {
							"_from": "current owner of the token\r",
							"_to": "address to receive the ownership of the given token ID\r",
							"_tokenId": "uint256 ID of the token to be transferred\r"
						}
					},
					"safeTransferFrom(address,address,uint256,bytes)": {
						"details": "Safely transfers the ownership of a given token ID to another address\rIf the target address is a contract, it must implement `onERC721Received`,\r which is called upon a safe transfer, and return the magic value\r `bytes4(keccak256(\"onERC721Received(address,uint256,bytes)\"))`; otherwise,\r the transfer is reverted.\rRequires the msg sender to be the owner, approved, or operator\r",
						"params": {
							"_data": "bytes data to send along with a safe transfer check\r",
							"_from": "current owner of the token\r",
							"_to": "address to receive the ownership of the given token ID\r",
							"_tokenId": "uint256 ID of the token to be transferred\r"
						}
					},
					"setApprovalForAll(address,bool)": {
						"details": "Sets or unsets the approval of a given operator\rAn operator is allowed to transfer all tokens of the sender on their behalf\r",
						"params": {
							"_approved": "representing the status of the approval to be set\r",
							"_to": "operator address to set the approval\r"
						}
					},
					"symbol()": {
						"details": "Gets the token symbol\r",
						"return": "string representing the token symbol\r"
					},
					"tokenByIndex(uint256)": {
						"details": "Gets the token ID at a given index of all the tokens in this contract\rReverts if the index is greater or equal to the total number of tokens\r",
						"params": {
							"_index": "uint256 representing the index to be accessed of the tokens list\r"
						},
						"return": "uint256 token ID at the given index of the tokens list\r"
					},
					"tokenOfOwnerByIndex(address,uint256)": {
						"details": "Gets the token ID at a given index of the tokens list of the requested owner\r",
						"params": {
							"_index": "uint256 representing the index to be accessed of the requested tokens list\r",
							"_owner": "address owning the tokens list to be accessed\r"
						},
						"return": "uint256 token ID at the given index of the tokens list owned by the requested address\r"
					},
					"tokenURI(uint256)": {
						"details": "Returns an URI for a given token ID\rThrows if the token ID does not exist. May return an empty string.\r",
						"params": {
							"_tokenId": "uint256 ID of the token to query\r"
						}
					},
					"totalSupply()": {
						"details": "Gets the total amount of tokens stored by the contract\r",
						"return": "uint256 representing the total amount of tokens\r"
					},
					"transferFrom(address,address,uint256)": {
						"details": "Transfers the ownership of a given token ID to another address\rUsage of this method is discouraged, use `safeTransferFrom` whenever possible\rRequires the msg sender to be the owner, approved, or operator\r",
						"params": {
							"_from": "current owner of the token\r",
							"_to": "address to receive the ownership of the given token ID\r",
							"_tokenId": "uint256 ID of the token to be transferred\r"
						}
					}
				},
				"title": "Full ERC721 Token\r This implementation includes all the required and some optional functionality of the ERC721 standard\r Moreover, it includes approve all functionality using operator terminology\r"
			},
			"evm": {
				"assembly": "    /* \"contracts/ERC721/ERC721Token.sol\":421:6491  contract ERC721Token is ERC721, ERC721BasicToken {\r... */\n  mstore(0x40, 0x80)\n    /* \"contracts/ERC721/ERC721Token.sol\":1144:1252  function ERC721Token(string _name, string _symbol) public {\r... */\n  callvalue\n    /* \"--CODEGEN--\":8:17   */\n  dup1\n    /* \"--CODEGEN--\":5:7   */\n  iszero\n  tag_1\n  jumpi\n    /* \"--CODEGEN--\":30:31   */\n  0x0\n    /* \"--CODEGEN--\":27:28   */\n  dup1\n    /* \"--CODEGEN--\":20:32   */\n  revert\n    /* \"--CODEGEN--\":5:7   */\ntag_1:\n    /* \"contracts/ERC721/ERC721Token.sol\":1144:1252  function ERC721Token(string _name, string _symbol) public {\r... */\n  pop\n  mload(0x40)\n  sub(codesize, bytecodeSize)\n  dup1\n  bytecodeSize\n  dup4\n  codecopy\n  dup2\n  add\n  dup1\n  0x40\n  mstore\n  dup2\n  add\n  swap1\n  dup1\n  dup1\n  mload\n  dup3\n  add\n  swap3\n  swap2\n  swap1\n  0x20\n  add\n  dup1\n  mload\n  dup3\n  add\n  swap3\n  swap2\n  swap1\n  pop\n  pop\n  pop\n    /* \"contracts/ERC721/ERC721Token.sol\":1217:1222  _name */\n  dup2\n    /* \"contracts/ERC721/ERC721Token.sol\":1209:1214  name_ */\n  0x4\n    /* \"contracts/ERC721/ERC721Token.sol\":1209:1222  name_ = _name */\n  swap1\n  dup1\n  mload\n  swap1\n  0x20\n  add\n  swap1\n  tag_4\n  swap3\n  swap2\n  swap1\n  jump\t// in(tag_5)\ntag_4:\n  pop\n    /* \"contracts/ERC721/ERC721Token.sol\":1239:1246  _symbol */\n  dup1\n    /* \"contracts/ERC721/ERC721Token.sol\":1229:1236  symbol_ */\n  0x5\n    /* \"contracts/ERC721/ERC721Token.sol\":1229:1246  symbol_ = _symbol */\n  swap1\n  dup1\n  mload\n  swap1\n  0x20\n  add\n  swap1\n  tag_6\n  swap3\n  swap2\n  swap1\n  jump\t// in(tag_5)\ntag_6:\n  pop\n    /* \"contracts/ERC721/ERC721Token.sol\":1144:1252  function ERC721Token(string _name, string _symbol) public {\r... */\n  pop\n  pop\n    /* \"contracts/ERC721/ERC721Token.sol\":421:6491  contract ERC721Token is ERC721, ERC721BasicToken {\r... */\n  jump(tag_7)\ntag_5:\n  dup3\n  dup1\n  sload\n  0x1\n  dup2\n  0x1\n  and\n  iszero\n  0x100\n  mul\n  sub\n  and\n  0x2\n  swap1\n  div\n  swap1\n  0x0\n  mstore\n  keccak256(0x0, 0x20)\n  swap1\n  0x1f\n  add\n  0x20\n  swap1\n  div\n  dup2\n  add\n  swap3\n  dup3\n  0x1f\n  lt\n  tag_9\n  jumpi\n  dup1\n  mload\n  not(0xff)\n  and\n  dup4\n  dup1\n  add\n  or\n  dup6\n  sstore\n  jump(tag_8)\ntag_9:\n  dup3\n  dup1\n  add\n  0x1\n  add\n  dup6\n  sstore\n  dup3\n  iszero\n  tag_8\n  jumpi\n  swap2\n  dup3\n  add\ntag_10:\n  dup3\n  dup2\n  gt\n  iszero\n  tag_11\n  jumpi\n  dup3\n  mload\n  dup3\n  sstore\n  swap2\n  0x20\n  add\n  swap2\n  swap1\n  0x1\n  add\n  swap1\n  jump(tag_10)\ntag_11:\ntag_8:\n  pop\n  swap1\n  pop\n  tag_12\n  swap2\n  swap1\n  jump\t// in(tag_13)\ntag_12:\n  pop\n  swap1\n  jump\t// out\ntag_13:\n  tag_14\n  swap2\n  swap1\ntag_15:\n  dup1\n  dup3\n  gt\n  iszero\n  tag_16\n  jumpi\n  0x0\n  dup2\n  0x0\n  swap1\n  sstore\n  pop\n  0x1\n  add\n  jump(tag_15)\ntag_16:\n  pop\n  swap1\n  jump\ntag_14:\n  swap1\n  jump\t// out\ntag_7:\n  dataSize(sub_0)\n  dup1\n  dataOffset(sub_0)\n  0x0\n  codecopy\n  0x0\n  return\nstop\n\nsub_0: assembly {\n        /* \"contracts/ERC721/ERC721Token.sol\":421:6491  contract ERC721Token is ERC721, ERC721BasicToken {\r... */\n      mstore(0x40, 0x80)\n      jumpi(tag_1, lt(calldatasize, 0x4))\n      calldataload(0x0)\n      0x100000000000000000000000000000000000000000000000000000000\n      swap1\n      div\n      0xffffffff\n      and\n      dup1\n      0x6fdde03\n      eq\n      tag_2\n      jumpi\n      dup1\n      0x81812fc\n      eq\n      tag_3\n      jumpi\n      dup1\n      0x95ea7b3\n      eq\n      tag_4\n      jumpi\n      dup1\n      0x18160ddd\n      eq\n      tag_5\n      jumpi\n      dup1\n      0x23b872dd\n      eq\n      tag_6\n      jumpi\n      dup1\n      0x2f745c59\n      eq\n      tag_7\n      jumpi\n      dup1\n      0x42842e0e\n      eq\n      tag_8\n      jumpi\n      dup1\n      0x4f558e79\n      eq\n      tag_9\n      jumpi\n      dup1\n      0x4f6ccce7\n      eq\n      tag_10\n      jumpi\n      dup1\n      0x6352211e\n      eq\n      tag_11\n      jumpi\n      dup1\n      0x70a08231\n      eq\n      tag_12\n      jumpi\n      dup1\n      0x95d89b41\n      eq\n      tag_13\n      jumpi\n      dup1\n      0xa22cb465\n      eq\n      tag_14\n      jumpi\n      dup1\n      0xb88d4fde\n      eq\n      tag_15\n      jumpi\n      dup1\n      0xc87b56dd\n      eq\n      tag_16\n      jumpi\n      dup1\n      0xe985e9c5\n      eq\n      tag_17\n      jumpi\n    tag_1:\n      0x0\n      dup1\n      revert\n        /* \"contracts/ERC721/ERC721Token.sol\":1349:1419  function name() public view returns (string) {\r... */\n    tag_2:\n      callvalue\n        /* \"--CODEGEN--\":8:17   */\n      dup1\n        /* \"--CODEGEN--\":5:7   */\n      iszero\n      tag_18\n      jumpi\n        /* \"--CODEGEN--\":30:31   */\n      0x0\n        /* \"--CODEGEN--\":27:28   */\n      dup1\n        /* \"--CODEGEN--\":20:32   */\n      revert\n        /* \"--CODEGEN--\":5:7   */\n    tag_18:\n        /* \"contracts/ERC721/ERC721Token.sol\":1349:1419  function name() public view returns (string) {\r... */\n      pop\n      tag_19\n      jump(tag_20)\n    tag_19:\n      mload(0x40)\n      dup1\n      dup1\n      0x20\n      add\n      dup3\n      dup2\n      sub\n      dup3\n      mstore\n      dup4\n      dup2\n      dup2\n      mload\n      dup2\n      mstore\n      0x20\n      add\n      swap2\n      pop\n      dup1\n      mload\n      swap1\n      0x20\n      add\n      swap1\n      dup1\n      dup4\n      dup4\n        /* \"--CODEGEN--\":23:24   */\n      0x0\n        /* \"--CODEGEN--\":8:108   */\n    tag_21:\n        /* \"--CODEGEN--\":33:36   */\n      dup4\n        /* \"--CODEGEN--\":30:31   */\n      dup2\n        /* \"--CODEGEN--\":27:37   */\n      lt\n        /* \"--CODEGEN--\":8:108   */\n      iszero\n      tag_22\n      jumpi\n        /* \"--CODEGEN--\":99:100   */\n      dup1\n        /* \"--CODEGEN--\":94:97   */\n      dup3\n        /* \"--CODEGEN--\":90:101   */\n      add\n        /* \"--CODEGEN--\":84:102   */\n      mload\n        /* \"--CODEGEN--\":80:81   */\n      dup2\n        /* \"--CODEGEN--\":75:78   */\n      dup5\n        /* \"--CODEGEN--\":71:82   */\n      add\n        /* \"--CODEGEN--\":64:103   */\n      mstore\n        /* \"--CODEGEN--\":52:54   */\n      0x20\n        /* \"--CODEGEN--\":49:50   */\n      dup2\n        /* \"--CODEGEN--\":45:55   */\n      add\n        /* \"--CODEGEN--\":40:55   */\n      swap1\n      pop\n        /* \"--CODEGEN--\":8:108   */\n      jump(tag_21)\n    tag_22:\n        /* \"--CODEGEN--\":12:26   */\n      pop\n        /* \"contracts/ERC721/ERC721Token.sol\":1349:1419  function name() public view returns (string) {\r... */\n      pop\n      pop\n      pop\n      swap1\n      pop\n      swap1\n      dup2\n      add\n      swap1\n      0x1f\n      and\n      dup1\n      iszero\n      tag_24\n      jumpi\n      dup1\n      dup3\n      sub\n      dup1\n      mload\n      0x1\n      dup4\n      0x20\n      sub\n      0x100\n      exp\n      sub\n      not\n      and\n      dup2\n      mstore\n      0x20\n      add\n      swap2\n      pop\n    tag_24:\n      pop\n      swap3\n      pop\n      pop\n      pop\n      mload(0x40)\n      dup1\n      swap2\n      sub\n      swap1\n      return\n        /* \"contracts/ERC721/ERC721BasicToken.sol\":3686:3799  function getApproved(uint256 _tokenId) public view returns (address) {\r... */\n    tag_3:\n      callvalue\n        /* \"--CODEGEN--\":8:17   */\n      dup1\n        /* \"--CODEGEN--\":5:7   */\n      iszero\n      tag_25\n      jumpi\n        /* \"--CODEGEN--\":30:31   */\n      0x0\n        /* \"--CODEGEN--\":27:28   */\n      dup1\n        /* \"--CODEGEN--\":20:32   */\n      revert\n        /* \"--CODEGEN--\":5:7   */\n    tag_25:\n        /* \"contracts/ERC721/ERC721BasicToken.sol\":3686:3799  function getApproved(uint256 _tokenId) public view returns (address) {\r... */\n      pop\n      tag_26\n      0x4\n      dup1\n      calldatasize\n      sub\n      dup2\n      add\n      swap1\n      dup1\n      dup1\n      calldataload\n      swap1\n      0x20\n      add\n      swap1\n      swap3\n      swap2\n      swap1\n      pop\n      pop\n      pop\n      jump(tag_27)\n    tag_26:\n      mload(0x40)\n      dup1\n      dup3\n      0xffffffffffffffffffffffffffffffffffffffff\n      and\n      0xffffffffffffffffffffffffffffffffffffffff\n      and\n      dup2\n      mstore\n      0x20\n      add\n      swap2\n      pop\n      pop\n      mload(0x40)\n      dup1\n      swap2\n      sub\n      swap1\n      return\n        /* \"contracts/ERC721/ERC721BasicToken.sol\":3091:3450  function approve(address _to, uint256 _tokenId) public {\r... */\n    tag_4:\n      callvalue\n        /* \"--CODEGEN--\":8:17   */\n      dup1\n        /* \"--CODEGEN--\":5:7   */\n      iszero\n      tag_28\n      jumpi\n        /* \"--CODEGEN--\":30:31   */\n      0x0\n        /* \"--CODEGEN--\":27:28   */\n      dup1\n        /* \"--CODEGEN--\":20:32   */\n      revert\n        /* \"--CODEGEN--\":5:7   */\n    tag_28:\n        /* \"contracts/ERC721/ERC721BasicToken.sol\":3091:3450  function approve(address _to, uint256 _tokenId) public {\r... */\n      pop\n      tag_29\n      0x4\n      dup1\n      calldatasize\n      sub\n      dup2\n      add\n      swap1\n      dup1\n      dup1\n      calldataload\n      0xffffffffffffffffffffffffffffffffffffffff\n      and\n      swap1\n      0x20\n      add\n      swap1\n      swap3\n      swap2\n      swap1\n      dup1\n      calldataload\n      swap1\n      0x20\n      add\n      swap1\n      swap3\n      swap2\n      swap1\n      pop\n      pop\n      pop\n      jump(tag_30)\n    tag_29:\n      stop\n        /* \"contracts/ERC721/ERC721Token.sol\":2615:2704  function totalSupply() public view returns (uint256) {\r... */\n    tag_5:\n      callvalue\n        /* \"--CODEGEN--\":8:17   */\n      dup1\n        /* \"--CODEGEN--\":5:7   */\n      iszero\n      tag_31\n      jumpi\n        /* \"--CODEGEN--\":30:31   */\n      0x0\n        /* \"--CODEGEN--\":27:28   */\n      dup1\n        /* \"--CODEGEN--\":20:32   */\n      revert\n        /* \"--CODEGEN--\":5:7   */\n    tag_31:\n        /* \"contracts/ERC721/ERC721Token.sol\":2615:2704  function totalSupply() public view returns (uint256) {\r... */\n      pop\n      tag_32\n      jump(tag_33)\n    tag_32:\n      mload(0x40)\n      dup1\n      dup3\n      dup2\n      mstore\n      0x20\n      add\n      swap2\n      pop\n      pop\n      mload(0x40)\n      dup1\n      swap2\n      sub\n      swap1\n      return\n        /* \"contracts/ERC721/ERC721BasicToken.sol\":5184:5504  function transferFrom(address _from, address _to, uint256 _tokenId) public canTransfer(_tokenId) {\r... */\n    tag_6:\n      callvalue\n        /* \"--CODEGEN--\":8:17   */\n      dup1\n        /* \"--CODEGEN--\":5:7   */\n      iszero\n      tag_34\n      jumpi\n        /* \"--CODEGEN--\":30:31   */\n      0x0\n        /* \"--CODEGEN--\":27:28   */\n      dup1\n        /* \"--CODEGEN--\":20:32   */\n      revert\n        /* \"--CODEGEN--\":5:7   */\n    tag_34:\n        /* \"contracts/ERC721/ERC721BasicToken.sol\":5184:5504  function transferFrom(address _from, address _to, uint256 _tokenId) public canTransfer(_tokenId) {\r... */\n      pop\n      tag_35\n      0x4\n      dup1\n      calldatasize\n      sub\n      dup2\n      add\n      swap1\n      dup1\n      dup1\n      calldataload\n      0xffffffffffffffffffffffffffffffffffffffff\n      and\n      swap1\n      0x20\n      add\n      swap1\n      swap3\n      swap2\n      swap1\n      dup1\n      calldataload\n      0xffffffffffffffffffffffffffffffffffffffff\n      and\n      swap1\n      0x20\n      add\n      swap1\n      swap3\n      swap2\n      swap1\n      dup1\n      calldataload\n      swap1\n      0x20\n      add\n      swap1\n      swap3\n      swap2\n      swap1\n      pop\n      pop\n      pop\n      jump(tag_36)\n    tag_35:\n      stop\n        /* \"contracts/ERC721/ERC721Token.sol\":2290:2470  function tokenOfOwnerByIndex(address _owner, uint256 _index) public view returns (uint256) {\r... */\n    tag_7:\n      callvalue\n        /* \"--CODEGEN--\":8:17   */\n      dup1\n        /* \"--CODEGEN--\":5:7   */\n      iszero\n      tag_37\n      jumpi\n        /* \"--CODEGEN--\":30:31   */\n      0x0\n        /* \"--CODEGEN--\":27:28   */\n      dup1\n        /* \"--CODEGEN--\":20:32   */\n      revert\n        /* \"--CODEGEN--\":5:7   */\n    tag_37:\n        /* \"contracts/ERC721/ERC721Token.sol\":2290:2470  function tokenOfOwnerByIndex(address _owner, uint256 _index) public view returns (uint256) {\r... */\n      pop\n      tag_38\n      0x4\n      dup1\n      calldatasize\n      sub\n      dup2\n      add\n      swap1\n      dup1\n      dup1\n      calldataload\n      0xffffffffffffffffffffffffffffffffffffffff\n      and\n      swap1\n      0x20\n      add\n      swap1\n      swap3\n      swap2\n      swap1\n      dup1\n      calldataload\n      swap1\n      0x20\n      add\n      swap1\n      swap3\n      swap2\n      swap1\n      pop\n      pop\n      pop\n      jump(tag_39)\n    tag_38:\n      mload(0x40)\n      dup1\n      dup3\n      dup2\n      mstore\n      0x20\n      add\n      swap2\n      pop\n      pop\n      mload(0x40)\n      dup1\n      swap2\n      sub\n      swap1\n      return\n        /* \"contracts/ERC721/ERC721BasicToken.sol\":6124:6313  function safeTransferFrom(\r... */\n    tag_8:\n      callvalue\n        /* \"--CODEGEN--\":8:17   */\n      dup1\n        /* \"--CODEGEN--\":5:7   */\n      iszero\n      tag_40\n      jumpi\n        /* \"--CODEGEN--\":30:31   */\n      0x0\n        /* \"--CODEGEN--\":27:28   */\n      dup1\n        /* \"--CODEGEN--\":20:32   */\n      revert\n        /* \"--CODEGEN--\":5:7   */\n    tag_40:\n        /* \"contracts/ERC721/ERC721BasicToken.sol\":6124:6313  function safeTransferFrom(\r... */\n      pop\n      tag_41\n      0x4\n      dup1\n      calldatasize\n      sub\n      dup2\n      add\n      swap1\n      dup1\n      dup1\n      calldataload\n      0xffffffffffffffffffffffffffffffffffffffff\n      and\n      swap1\n      0x20\n      add\n      swap1\n      swap3\n      swap2\n      swap1\n      dup1\n      calldataload\n      0xffffffffffffffffffffffffffffffffffffffff\n      and\n      swap1\n      0x20\n      add\n      swap1\n      swap3\n      swap2\n      swap1\n      dup1\n      calldataload\n      swap1\n      0x20\n      add\n      swap1\n      swap3\n      swap2\n      swap1\n      pop\n      pop\n      pop\n      jump(tag_42)\n    tag_41:\n      stop\n        /* \"contracts/ERC721/ERC721BasicToken.sol\":2525:2668  function exists(uint256 _tokenId) public view returns (bool) {\r... */\n    tag_9:\n      callvalue\n        /* \"--CODEGEN--\":8:17   */\n      dup1\n        /* \"--CODEGEN--\":5:7   */\n      iszero\n      tag_43\n      jumpi\n        /* \"--CODEGEN--\":30:31   */\n      0x0\n        /* \"--CODEGEN--\":27:28   */\n      dup1\n        /* \"--CODEGEN--\":20:32   */\n      revert\n        /* \"--CODEGEN--\":5:7   */\n    tag_43:\n        /* \"contracts/ERC721/ERC721BasicToken.sol\":2525:2668  function exists(uint256 _tokenId) public view returns (bool) {\r... */\n      pop\n      tag_44\n      0x4\n      dup1\n      calldatasize\n      sub\n      dup2\n      add\n      swap1\n      dup1\n      dup1\n      calldataload\n      swap1\n      0x20\n      add\n      swap1\n      swap3\n      swap2\n      swap1\n      pop\n      pop\n      pop\n      jump(tag_45)\n    tag_44:\n      mload(0x40)\n      dup1\n      dup3\n      iszero\n      iszero\n      iszero\n      iszero\n      dup2\n      mstore\n      0x20\n      add\n      swap2\n      pop\n      pop\n      mload(0x40)\n      dup1\n      swap2\n      sub\n      swap1\n      return\n        /* \"contracts/ERC721/ERC721Token.sol\":3036:3179  function tokenByIndex(uint256 _index) public view returns (uint256) {\r... */\n    tag_10:\n      callvalue\n        /* \"--CODEGEN--\":8:17   */\n      dup1\n        /* \"--CODEGEN--\":5:7   */\n      iszero\n      tag_46\n      jumpi\n        /* \"--CODEGEN--\":30:31   */\n      0x0\n        /* \"--CODEGEN--\":27:28   */\n      dup1\n        /* \"--CODEGEN--\":20:32   */\n      revert\n        /* \"--CODEGEN--\":5:7   */\n    tag_46:\n        /* \"contracts/ERC721/ERC721Token.sol\":3036:3179  function tokenByIndex(uint256 _index) public view returns (uint256) {\r... */\n      pop\n      tag_47\n      0x4\n      dup1\n      calldatasize\n      sub\n      dup2\n      add\n      swap1\n      dup1\n      dup1\n      calldataload\n      swap1\n      0x20\n      add\n      swap1\n      swap3\n      swap2\n      swap1\n      pop\n      pop\n      pop\n      jump(tag_48)\n    tag_47:\n      mload(0x40)\n      dup1\n      dup3\n      dup2\n      mstore\n      0x20\n      add\n      swap2\n      pop\n      pop\n      mload(0x40)\n      dup1\n      swap2\n      sub\n      swap1\n      return\n        /* \"contracts/ERC721/ERC721BasicToken.sol\":2176:2344  function ownerOf(uint256 _tokenId) public view returns (address) {\r... */\n    tag_11:\n      callvalue\n        /* \"--CODEGEN--\":8:17   */\n      dup1\n        /* \"--CODEGEN--\":5:7   */\n      iszero\n      tag_49\n      jumpi\n        /* \"--CODEGEN--\":30:31   */\n      0x0\n        /* \"--CODEGEN--\":27:28   */\n      dup1\n        /* \"--CODEGEN--\":20:32   */\n      revert\n        /* \"--CODEGEN--\":5:7   */\n    tag_49:\n        /* \"contracts/ERC721/ERC721BasicToken.sol\":2176:2344  function ownerOf(uint256 _tokenId) public view returns (address) {\r... */\n      pop\n      tag_50\n      0x4\n      dup1\n      calldatasize\n      sub\n      dup2\n      add\n      swap1\n      dup1\n      dup1\n      calldataload\n      swap1\n      0x20\n      add\n      swap1\n      swap3\n      swap2\n      swap1\n      pop\n      pop\n      pop\n      jump(tag_51)\n    tag_50:\n      mload(0x40)\n      dup1\n      dup3\n      0xffffffffffffffffffffffffffffffffffffffff\n      and\n      0xffffffffffffffffffffffffffffffffffffffff\n      and\n      dup2\n      mstore\n      0x20\n      add\n      swap2\n      pop\n      pop\n      mload(0x40)\n      dup1\n      swap2\n      sub\n      swap1\n      return\n        /* \"contracts/ERC721/ERC721BasicToken.sol\":1815:1960  function balanceOf(address _owner) public view returns (uint256) {\r... */\n    tag_12:\n      callvalue\n        /* \"--CODEGEN--\":8:17   */\n      dup1\n        /* \"--CODEGEN--\":5:7   */\n      iszero\n      tag_52\n      jumpi\n        /* \"--CODEGEN--\":30:31   */\n      0x0\n        /* \"--CODEGEN--\":27:28   */\n      dup1\n        /* \"--CODEGEN--\":20:32   */\n      revert\n        /* \"--CODEGEN--\":5:7   */\n    tag_52:\n        /* \"contracts/ERC721/ERC721BasicToken.sol\":1815:1960  function balanceOf(address _owner) public view returns (uint256) {\r... */\n      pop\n      tag_53\n      0x4\n      dup1\n      calldatasize\n      sub\n      dup2\n      add\n      swap1\n      dup1\n      dup1\n      calldataload\n      0xffffffffffffffffffffffffffffffffffffffff\n      and\n      swap1\n      0x20\n      add\n      swap1\n      swap3\n      swap2\n      swap1\n      pop\n      pop\n      pop\n      jump(tag_54)\n    tag_53:\n      mload(0x40)\n      dup1\n      dup3\n      dup2\n      mstore\n      0x20\n      add\n      swap2\n      pop\n      pop\n      mload(0x40)\n      dup1\n      swap2\n      sub\n      swap1\n      return\n        /* \"contracts/ERC721/ERC721Token.sol\":1520:1594  function symbol() public view returns (string) {\r... */\n    tag_13:\n      callvalue\n        /* \"--CODEGEN--\":8:17   */\n      dup1\n        /* \"--CODEGEN--\":5:7   */\n      iszero\n      tag_55\n      jumpi\n        /* \"--CODEGEN--\":30:31   */\n      0x0\n        /* \"--CODEGEN--\":27:28   */\n      dup1\n        /* \"--CODEGEN--\":20:32   */\n      revert\n        /* \"--CODEGEN--\":5:7   */\n    tag_55:\n        /* \"contracts/ERC721/ERC721Token.sol\":1520:1594  function symbol() public view returns (string) {\r... */\n      pop\n      tag_56\n      jump(tag_57)\n    tag_56:\n      mload(0x40)\n      dup1\n      dup1\n      0x20\n      add\n      dup3\n      dup2\n      sub\n      dup3\n      mstore\n      dup4\n      dup2\n      dup2\n      mload\n      dup2\n      mstore\n      0x20\n      add\n      swap2\n      pop\n      dup1\n      mload\n      swap1\n      0x20\n      add\n      swap1\n      dup1\n      dup4\n      dup4\n        /* \"--CODEGEN--\":23:24   */\n      0x0\n        /* \"--CODEGEN--\":8:108   */\n    tag_58:\n        /* \"--CODEGEN--\":33:36   */\n      dup4\n        /* \"--CODEGEN--\":30:31   */\n      dup2\n        /* \"--CODEGEN--\":27:37   */\n      lt\n        /* \"--CODEGEN--\":8:108   */\n      iszero\n      tag_59\n      jumpi\n        /* \"--CODEGEN--\":99:100   */\n      dup1\n        /* \"--CODEGEN--\":94:97   */\n      dup3\n        /* \"--CODEGEN--\":90:101   */\n      add\n        /* \"--CODEGEN--\":84:102   */\n      mload\n        /* \"--CODEGEN--\":80:81   */\n      dup2\n        /* \"--CODEGEN--\":75:78   */\n      dup5\n        /* \"--CODEGEN--\":71:82   */\n      add\n        /* \"--CODEGEN--\":64:103   */\n      mstore\n        /* \"--CODEGEN--\":52:54   */\n      0x20\n        /* \"--CODEGEN--\":49:50   */\n      dup2\n        /* \"--CODEGEN--\":45:55   */\n      add\n        /* \"--CODEGEN--\":40:55   */\n      swap1\n      pop\n        /* \"--CODEGEN--\":8:108   */\n      jump(tag_58)\n    tag_59:\n        /* \"--CODEGEN--\":12:26   */\n      pop\n        /* \"contracts/ERC721/ERC721Token.sol\":1520:1594  function symbol() public view returns (string) {\r... */\n      pop\n      pop\n      pop\n      swap1\n      pop\n      swap1\n      dup2\n      add\n      swap1\n      0x1f\n      and\n      dup1\n      iszero\n      tag_61\n      jumpi\n      dup1\n      dup3\n      sub\n      dup1\n      mload\n      0x1\n      dup4\n      0x20\n      sub\n      0x100\n      exp\n      sub\n      not\n      and\n      dup2\n      mstore\n      0x20\n      add\n      swap2\n      pop\n    tag_61:\n      pop\n      swap3\n      pop\n      pop\n      pop\n      mload(0x40)\n      dup1\n      swap2\n      sub\n      swap1\n      return\n        /* \"contracts/ERC721/ERC721BasicToken.sol\":4087:4291  function setApprovalForAll(address _to, bool _approved) public {\r... */\n    tag_14:\n      callvalue\n        /* \"--CODEGEN--\":8:17   */\n      dup1\n        /* \"--CODEGEN--\":5:7   */\n      iszero\n      tag_62\n      jumpi\n        /* \"--CODEGEN--\":30:31   */\n      0x0\n        /* \"--CODEGEN--\":27:28   */\n      dup1\n        /* \"--CODEGEN--\":20:32   */\n      revert\n        /* \"--CODEGEN--\":5:7   */\n    tag_62:\n        /* \"contracts/ERC721/ERC721BasicToken.sol\":4087:4291  function setApprovalForAll(address _to, bool _approved) public {\r... */\n      pop\n      tag_63\n      0x4\n      dup1\n      calldatasize\n      sub\n      dup2\n      add\n      swap1\n      dup1\n      dup1\n      calldataload\n      0xffffffffffffffffffffffffffffffffffffffff\n      and\n      swap1\n      0x20\n      add\n      swap1\n      swap3\n      swap2\n      swap1\n      dup1\n      calldataload\n      iszero\n      iszero\n      swap1\n      0x20\n      add\n      swap1\n      swap3\n      swap2\n      swap1\n      pop\n      pop\n      pop\n      jump(tag_64)\n    tag_63:\n      stop\n        /* \"contracts/ERC721/ERC721BasicToken.sol\":7003:7271  function safeTransferFrom(\r... */\n    tag_15:\n      callvalue\n        /* \"--CODEGEN--\":8:17   */\n      dup1\n        /* \"--CODEGEN--\":5:7   */\n      iszero\n      tag_65\n      jumpi\n        /* \"--CODEGEN--\":30:31   */\n      0x0\n        /* \"--CODEGEN--\":27:28   */\n      dup1\n        /* \"--CODEGEN--\":20:32   */\n      revert\n        /* \"--CODEGEN--\":5:7   */\n    tag_65:\n        /* \"contracts/ERC721/ERC721BasicToken.sol\":7003:7271  function safeTransferFrom(\r... */\n      pop\n      tag_66\n      0x4\n      dup1\n      calldatasize\n      sub\n      dup2\n      add\n      swap1\n      dup1\n      dup1\n      calldataload\n      0xffffffffffffffffffffffffffffffffffffffff\n      and\n      swap1\n      0x20\n      add\n      swap1\n      swap3\n      swap2\n      swap1\n      dup1\n      calldataload\n      0xffffffffffffffffffffffffffffffffffffffff\n      and\n      swap1\n      0x20\n      add\n      swap1\n      swap3\n      swap2\n      swap1\n      dup1\n      calldataload\n      swap1\n      0x20\n      add\n      swap1\n      swap3\n      swap2\n      swap1\n      dup1\n      calldataload\n      swap1\n      0x20\n      add\n      swap1\n      dup3\n      add\n      dup1\n      calldataload\n      swap1\n      0x20\n      add\n      swap1\n      dup1\n      dup1\n      0x1f\n      add\n      0x20\n      dup1\n      swap2\n      div\n      mul\n      0x20\n      add\n      mload(0x40)\n      swap1\n      dup2\n      add\n      0x40\n      mstore\n      dup1\n      swap4\n      swap3\n      swap2\n      swap1\n      dup2\n      dup2\n      mstore\n      0x20\n      add\n      dup4\n      dup4\n      dup1\n      dup3\n      dup5\n      calldatacopy\n      dup3\n      add\n      swap2\n      pop\n      pop\n      pop\n      pop\n      pop\n      pop\n      swap2\n      swap3\n      swap2\n      swap3\n      swap1\n      pop\n      pop\n      pop\n      jump(tag_67)\n    tag_66:\n      stop\n        /* \"contracts/ERC721/ERC721Token.sol\":1790:1926  function tokenURI(uint256 _tokenId) public view returns (string) {\r... */\n    tag_16:\n      callvalue\n        /* \"--CODEGEN--\":8:17   */\n      dup1\n        /* \"--CODEGEN--\":5:7   */\n      iszero\n      tag_68\n      jumpi\n        /* \"--CODEGEN--\":30:31   */\n      0x0\n        /* \"--CODEGEN--\":27:28   */\n      dup1\n        /* \"--CODEGEN--\":20:32   */\n      revert\n        /* \"--CODEGEN--\":5:7   */\n    tag_68:\n        /* \"contracts/ERC721/ERC721Token.sol\":1790:1926  function tokenURI(uint256 _tokenId) public view returns (string) {\r... */\n      pop\n      tag_69\n      0x4\n      dup1\n      calldatasize\n      sub\n      dup2\n      add\n      swap1\n      dup1\n      dup1\n      calldataload\n      swap1\n      0x20\n      add\n      swap1\n      swap3\n      swap2\n      swap1\n      pop\n      pop\n      pop\n      jump(tag_70)\n    tag_69:\n      mload(0x40)\n      dup1\n      dup1\n      0x20\n      add\n      dup3\n      dup2\n      sub\n      dup3\n      mstore\n      dup4\n      dup2\n      dup2\n      mload\n      dup2\n      mstore\n      0x20\n      add\n      swap2\n      pop\n      dup1\n      mload\n      swap1\n      0x20\n      add\n      swap1\n      dup1\n      dup4\n      dup4\n        /* \"--CODEGEN--\":23:24   */\n      0x0\n        /* \"--CODEGEN--\":8:108   */\n    tag_71:\n        /* \"--CODEGEN--\":33:36   */\n      dup4\n        /* \"--CODEGEN--\":30:31   */\n      dup2\n        /* \"--CODEGEN--\":27:37   */\n      lt\n        /* \"--CODEGEN--\":8:108   */\n      iszero\n      tag_72\n      jumpi\n        /* \"--CODEGEN--\":99:100   */\n      dup1\n        /* \"--CODEGEN--\":94:97   */\n      dup3\n        /* \"--CODEGEN--\":90:101   */\n      add\n        /* \"--CODEGEN--\":84:102   */\n      mload\n        /* \"--CODEGEN--\":80:81   */\n      dup2\n        /* \"--CODEGEN--\":75:78   */\n      dup5\n        /* \"--CODEGEN--\":71:82   */\n      add\n        /* \"--CODEGEN--\":64:103   */\n      mstore\n        /* \"--CODEGEN--\":52:54   */\n      0x20\n        /* \"--CODEGEN--\":49:50   */\n      dup2\n        /* \"--CODEGEN--\":45:55   */\n      add\n        /* \"--CODEGEN--\":40:55   */\n      swap1\n      pop\n        /* \"--CODEGEN--\":8:108   */\n      jump(tag_71)\n    tag_72:\n        /* \"--CODEGEN--\":12:26   */\n      pop\n        /* \"contracts/ERC721/ERC721Token.sol\":1790:1926  function tokenURI(uint256 _tokenId) public view returns (string) {\r... */\n      pop\n      pop\n      pop\n      swap1\n      pop\n      swap1\n      dup2\n      add\n      swap1\n      0x1f\n      and\n      dup1\n      iszero\n      tag_74\n      jumpi\n      dup1\n      dup3\n      sub\n      dup1\n      mload\n      0x1\n      dup4\n      0x20\n      sub\n      0x100\n      exp\n      sub\n      not\n      and\n      dup2\n      mstore\n      0x20\n      add\n      swap2\n      pop\n    tag_74:\n      pop\n      swap3\n      pop\n      pop\n      pop\n      mload(0x40)\n      dup1\n      swap2\n      sub\n      swap1\n      return\n        /* \"contracts/ERC721/ERC721BasicToken.sol\":4608:4752  function isApprovedForAll(address _owner, address _operator) public view returns (bool) {\r... */\n    tag_17:\n      callvalue\n        /* \"--CODEGEN--\":8:17   */\n      dup1\n        /* \"--CODEGEN--\":5:7   */\n      iszero\n      tag_75\n      jumpi\n        /* \"--CODEGEN--\":30:31   */\n      0x0\n        /* \"--CODEGEN--\":27:28   */\n      dup1\n        /* \"--CODEGEN--\":20:32   */\n      revert\n        /* \"--CODEGEN--\":5:7   */\n    tag_75:\n        /* \"contracts/ERC721/ERC721BasicToken.sol\":4608:4752  function isApprovedForAll(address _owner, address _operator) public view returns (bool) {\r... */\n      pop\n      tag_76\n      0x4\n      dup1\n      calldatasize\n      sub\n      dup2\n      add\n      swap1\n      dup1\n      dup1\n      calldataload\n      0xffffffffffffffffffffffffffffffffffffffff\n      and\n      swap1\n      0x20\n      add\n      swap1\n      swap3\n      swap2\n      swap1\n      dup1\n      calldataload\n      0xffffffffffffffffffffffffffffffffffffffff\n      and\n      swap1\n      0x20\n      add\n      swap1\n      swap3\n      swap2\n      swap1\n      pop\n      pop\n      pop\n      jump(tag_77)\n    tag_76:\n      mload(0x40)\n      dup1\n      dup3\n      iszero\n      iszero\n      iszero\n      iszero\n      dup2\n      mstore\n      0x20\n      add\n      swap2\n      pop\n      pop\n      mload(0x40)\n      dup1\n      swap2\n      sub\n      swap1\n      return\n        /* \"contracts/ERC721/ERC721Token.sol\":1349:1419  function name() public view returns (string) {\r... */\n    tag_20:\n        /* \"contracts/ERC721/ERC721Token.sol\":1386:1392  string */\n      0x60\n        /* \"contracts/ERC721/ERC721Token.sol\":1408:1413  name_ */\n      0x4\n        /* \"contracts/ERC721/ERC721Token.sol\":1401:1413  return name_ */\n      dup1\n      sload\n      0x1\n      dup2\n      0x1\n      and\n      iszero\n      0x100\n      mul\n      sub\n      and\n      0x2\n      swap1\n      div\n      dup1\n      0x1f\n      add\n      0x20\n      dup1\n      swap2\n      div\n      mul\n      0x20\n      add\n      mload(0x40)\n      swap1\n      dup2\n      add\n      0x40\n      mstore\n      dup1\n      swap3\n      swap2\n      swap1\n      dup2\n      dup2\n      mstore\n      0x20\n      add\n      dup3\n      dup1\n      sload\n      0x1\n      dup2\n      0x1\n      and\n      iszero\n      0x100\n      mul\n      sub\n      and\n      0x2\n      swap1\n      div\n      dup1\n      iszero\n      tag_79\n      jumpi\n      dup1\n      0x1f\n      lt\n      tag_80\n      jumpi\n      0x100\n      dup1\n      dup4\n      sload\n      div\n      mul\n      dup4\n      mstore\n      swap2\n      0x20\n      add\n      swap2\n      jump(tag_79)\n    tag_80:\n      dup3\n      add\n      swap2\n      swap1\n      0x0\n      mstore\n      keccak256(0x0, 0x20)\n      swap1\n    tag_81:\n      dup2\n      sload\n      dup2\n      mstore\n      swap1\n      0x1\n      add\n      swap1\n      0x20\n      add\n      dup1\n      dup4\n      gt\n      tag_81\n      jumpi\n      dup3\n      swap1\n      sub\n      0x1f\n      and\n      dup3\n      add\n      swap2\n    tag_79:\n      pop\n      pop\n      pop\n      pop\n      pop\n      swap1\n      pop\n        /* \"contracts/ERC721/ERC721Token.sol\":1349:1419  function name() public view returns (string) {\r... */\n      swap1\n      jump\t// out\n        /* \"contracts/ERC721/ERC721BasicToken.sol\":3686:3799  function getApproved(uint256 _tokenId) public view returns (address) {\r... */\n    tag_27:\n        /* \"contracts/ERC721/ERC721BasicToken.sol\":3746:3753  address */\n      0x0\n        /* \"contracts/ERC721/ERC721BasicToken.sol\":3769:3783  tokenApprovals */\n      0x1\n        /* \"contracts/ERC721/ERC721BasicToken.sol\":3769:3793  tokenApprovals[_tokenId] */\n      0x0\n        /* \"contracts/ERC721/ERC721BasicToken.sol\":3784:3792  _tokenId */\n      dup4\n        /* \"contracts/ERC721/ERC721BasicToken.sol\":3769:3793  tokenApprovals[_tokenId] */\n      dup2\n      mstore\n      0x20\n      add\n      swap1\n      dup2\n      mstore\n      0x20\n      add\n      0x0\n      keccak256\n      0x0\n      swap1\n      sload\n      swap1\n      0x100\n      exp\n      swap1\n      div\n      0xffffffffffffffffffffffffffffffffffffffff\n      and\n        /* \"contracts/ERC721/ERC721BasicToken.sol\":3762:3793  return tokenApprovals[_tokenId] */\n      swap1\n      pop\n        /* \"contracts/ERC721/ERC721BasicToken.sol\":3686:3799  function getApproved(uint256 _tokenId) public view returns (address) {\r... */\n      swap2\n      swap1\n      pop\n      jump\t// out\n        /* \"contracts/ERC721/ERC721BasicToken.sol\":3091:3450  function approve(address _to, uint256 _tokenId) public {\r... */\n    tag_30:\n        /* \"contracts/ERC721/ERC721BasicToken.sol\":3153:3166  address owner */\n      0x0\n        /* \"contracts/ERC721/ERC721BasicToken.sol\":3169:3186  ownerOf(_tokenId) */\n      tag_84\n        /* \"contracts/ERC721/ERC721BasicToken.sol\":3177:3185  _tokenId */\n      dup3\n        /* \"contracts/ERC721/ERC721BasicToken.sol\":3169:3176  ownerOf */\n      tag_51\n        /* \"contracts/ERC721/ERC721BasicToken.sol\":3169:3186  ownerOf(_tokenId) */\n      jump\t// in\n    tag_84:\n        /* \"contracts/ERC721/ERC721BasicToken.sol\":3153:3186  address owner = ownerOf(_tokenId) */\n      swap1\n      pop\n        /* \"contracts/ERC721/ERC721BasicToken.sol\":3208:3213  owner */\n      dup1\n        /* \"contracts/ERC721/ERC721BasicToken.sol\":3201:3213  _to != owner */\n      0xffffffffffffffffffffffffffffffffffffffff\n      and\n        /* \"contracts/ERC721/ERC721BasicToken.sol\":3201:3204  _to */\n      dup4\n        /* \"contracts/ERC721/ERC721BasicToken.sol\":3201:3213  _to != owner */\n      0xffffffffffffffffffffffffffffffffffffffff\n      and\n      eq\n      iszero\n        /* \"contracts/ERC721/ERC721BasicToken.sol\":3193:3214  require(_to != owner) */\n      iszero\n      iszero\n      tag_85\n      jumpi\n      0x0\n      dup1\n      revert\n    tag_85:\n        /* \"contracts/ERC721/ERC721BasicToken.sol\":3243:3248  owner */\n      dup1\n        /* \"contracts/ERC721/ERC721BasicToken.sol\":3229:3248  msg.sender == owner */\n      0xffffffffffffffffffffffffffffffffffffffff\n      and\n        /* \"contracts/ERC721/ERC721BasicToken.sol\":3229:3239  msg.sender */\n      caller\n        /* \"contracts/ERC721/ERC721BasicToken.sol\":3229:3248  msg.sender == owner */\n      0xffffffffffffffffffffffffffffffffffffffff\n      and\n      eq\n        /* \"contracts/ERC721/ERC721BasicToken.sol\":3229:3287  msg.sender == owner || isApprovedForAll(owner, msg.sender) */\n      dup1\n      tag_86\n      jumpi\n      pop\n        /* \"contracts/ERC721/ERC721BasicToken.sol\":3252:3287  isApprovedForAll(owner, msg.sender) */\n      tag_87\n        /* \"contracts/ERC721/ERC721BasicToken.sol\":3269:3274  owner */\n      dup2\n        /* \"contracts/ERC721/ERC721BasicToken.sol\":3276:3286  msg.sender */\n      caller\n        /* \"contracts/ERC721/ERC721BasicToken.sol\":3252:3268  isApprovedForAll */\n      tag_77\n        /* \"contracts/ERC721/ERC721BasicToken.sol\":3252:3287  isApprovedForAll(owner, msg.sender) */\n      jump\t// in\n    tag_87:\n        /* \"contracts/ERC721/ERC721BasicToken.sol\":3229:3287  msg.sender == owner || isApprovedForAll(owner, msg.sender) */\n    tag_86:\n        /* \"contracts/ERC721/ERC721BasicToken.sol\":3221:3288  require(msg.sender == owner || isApprovedForAll(owner, msg.sender)) */\n      iszero\n      iszero\n      tag_88\n      jumpi\n      0x0\n      dup1\n      revert\n    tag_88:\n        /* \"contracts/ERC721/ERC721BasicToken.sol\":3334:3335  0 */\n      0x0\n        /* \"contracts/ERC721/ERC721BasicToken.sol\":3301:3336  getApproved(_tokenId) != address(0) */\n      0xffffffffffffffffffffffffffffffffffffffff\n      and\n        /* \"contracts/ERC721/ERC721BasicToken.sol\":3301:3322  getApproved(_tokenId) */\n      tag_89\n        /* \"contracts/ERC721/ERC721BasicToken.sol\":3313:3321  _tokenId */\n      dup4\n        /* \"contracts/ERC721/ERC721BasicToken.sol\":3301:3312  getApproved */\n      tag_27\n        /* \"contracts/ERC721/ERC721BasicToken.sol\":3301:3322  getApproved(_tokenId) */\n      jump\t// in\n    tag_89:\n        /* \"contracts/ERC721/ERC721BasicToken.sol\":3301:3336  getApproved(_tokenId) != address(0) */\n      0xffffffffffffffffffffffffffffffffffffffff\n      and\n      eq\n      iszero\n        /* \"contracts/ERC721/ERC721BasicToken.sol\":3301:3357  getApproved(_tokenId) != address(0) || _to != address(0) */\n      dup1\n      tag_90\n      jumpi\n      pop\n        /* \"contracts/ERC721/ERC721BasicToken.sol\":3355:3356  0 */\n      0x0\n        /* \"contracts/ERC721/ERC721BasicToken.sol\":3340:3357  _to != address(0) */\n      0xffffffffffffffffffffffffffffffffffffffff\n      and\n        /* \"contracts/ERC721/ERC721BasicToken.sol\":3340:3343  _to */\n      dup4\n        /* \"contracts/ERC721/ERC721BasicToken.sol\":3340:3357  _to != address(0) */\n      0xffffffffffffffffffffffffffffffffffffffff\n      and\n      eq\n      iszero\n        /* \"contracts/ERC721/ERC721BasicToken.sol\":3301:3357  getApproved(_tokenId) != address(0) || _to != address(0) */\n    tag_90:\n        /* \"contracts/ERC721/ERC721BasicToken.sol\":3297:3445  if (getApproved(_tokenId) != address(0) || _to != address(0)) {\r... */\n      iszero\n      tag_91\n      jumpi\n        /* \"contracts/ERC721/ERC721BasicToken.sol\":3395:3398  _to */\n      dup3\n        /* \"contracts/ERC721/ERC721BasicToken.sol\":3368:3382  tokenApprovals */\n      0x1\n        /* \"contracts/ERC721/ERC721BasicToken.sol\":3368:3392  tokenApprovals[_tokenId] */\n      0x0\n        /* \"contracts/ERC721/ERC721BasicToken.sol\":3383:3391  _tokenId */\n      dup5\n        /* \"contracts/ERC721/ERC721BasicToken.sol\":3368:3392  tokenApprovals[_tokenId] */\n      dup2\n      mstore\n      0x20\n      add\n      swap1\n      dup2\n      mstore\n      0x20\n      add\n      0x0\n      keccak256\n      0x0\n        /* \"contracts/ERC721/ERC721BasicToken.sol\":3368:3398  tokenApprovals[_tokenId] = _to */\n      0x100\n      exp\n      dup2\n      sload\n      dup2\n      0xffffffffffffffffffffffffffffffffffffffff\n      mul\n      not\n      and\n      swap1\n      dup4\n      0xffffffffffffffffffffffffffffffffffffffff\n      and\n      mul\n      or\n      swap1\n      sstore\n      pop\n        /* \"contracts/ERC721/ERC721BasicToken.sol\":3423:3426  _to */\n      dup3\n        /* \"contracts/ERC721/ERC721BasicToken.sol\":3407:3437  Approval(owner, _to, _tokenId) */\n      0xffffffffffffffffffffffffffffffffffffffff\n      and\n        /* \"contracts/ERC721/ERC721BasicToken.sol\":3416:3421  owner */\n      dup2\n        /* \"contracts/ERC721/ERC721BasicToken.sol\":3407:3437  Approval(owner, _to, _tokenId) */\n      0xffffffffffffffffffffffffffffffffffffffff\n      and\n      0x8c5be1e5ebec7d5bd14f71427d1e84f3dd0314c0f7b2291e5b200ac8c7c3b925\n        /* \"contracts/ERC721/ERC721BasicToken.sol\":3428:3436  _tokenId */\n      dup5\n        /* \"contracts/ERC721/ERC721BasicToken.sol\":3407:3437  Approval(owner, _to, _tokenId) */\n      mload(0x40)\n      dup1\n      dup3\n      dup2\n      mstore\n      0x20\n      add\n      swap2\n      pop\n      pop\n      mload(0x40)\n      dup1\n      swap2\n      sub\n      swap1\n      log3\n        /* \"contracts/ERC721/ERC721BasicToken.sol\":3297:3445  if (getApproved(_tokenId) != address(0) || _to != address(0)) {\r... */\n    tag_91:\n        /* \"contracts/ERC721/ERC721BasicToken.sol\":3091:3450  function approve(address _to, uint256 _tokenId) public {\r... */\n      pop\n      pop\n      pop\n      jump\t// out\n        /* \"contracts/ERC721/ERC721Token.sol\":2615:2704  function totalSupply() public view returns (uint256) {\r... */\n    tag_33:\n        /* \"contracts/ERC721/ERC721Token.sol\":2659:2666  uint256 */\n      0x0\n        /* \"contracts/ERC721/ERC721Token.sol\":2682:2691  allTokens */\n      0x8\n        /* \"contracts/ERC721/ERC721Token.sol\":2682:2698  allTokens.length */\n      dup1\n      sload\n      swap1\n      pop\n        /* \"contracts/ERC721/ERC721Token.sol\":2675:2698  return allTokens.length */\n      swap1\n      pop\n        /* \"contracts/ERC721/ERC721Token.sol\":2615:2704  function totalSupply() public view returns (uint256) {\r... */\n      swap1\n      jump\t// out\n        /* \"contracts/ERC721/ERC721BasicToken.sol\":5184:5504  function transferFrom(address _from, address _to, uint256 _tokenId) public canTransfer(_tokenId) {\r... */\n    tag_36:\n        /* \"contracts/ERC721/ERC721BasicToken.sol\":5271:5279  _tokenId */\n      dup1\n        /* \"contracts/ERC721/ERC721BasicToken.sol\":1566:1605  isApprovedOrOwner(msg.sender, _tokenId) */\n      tag_94\n        /* \"contracts/ERC721/ERC721BasicToken.sol\":1584:1594  msg.sender */\n      caller\n        /* \"contracts/ERC721/ERC721BasicToken.sol\":1596:1604  _tokenId */\n      dup3\n        /* \"contracts/ERC721/ERC721BasicToken.sol\":1566:1583  isApprovedOrOwner */\n      tag_95\n        /* \"contracts/ERC721/ERC721BasicToken.sol\":1566:1605  isApprovedOrOwner(msg.sender, _tokenId) */\n      jump\t// in\n    tag_94:\n        /* \"contracts/ERC721/ERC721BasicToken.sol\":1558:1606  require(isApprovedOrOwner(msg.sender, _tokenId)) */\n      iszero\n      iszero\n      tag_96\n      jumpi\n      0x0\n      dup1\n      revert\n    tag_96:\n        /* \"contracts/ERC721/ERC721BasicToken.sol\":5313:5314  0 */\n      0x0\n        /* \"contracts/ERC721/ERC721BasicToken.sol\":5296:5315  _from != address(0) */\n      0xffffffffffffffffffffffffffffffffffffffff\n      and\n        /* \"contracts/ERC721/ERC721BasicToken.sol\":5296:5301  _from */\n      dup5\n        /* \"contracts/ERC721/ERC721BasicToken.sol\":5296:5315  _from != address(0) */\n      0xffffffffffffffffffffffffffffffffffffffff\n      and\n      eq\n      iszero\n        /* \"contracts/ERC721/ERC721BasicToken.sol\":5288:5316  require(_from != address(0)) */\n      iszero\n      iszero\n      tag_98\n      jumpi\n      0x0\n      dup1\n      revert\n    tag_98:\n        /* \"contracts/ERC721/ERC721BasicToken.sol\":5346:5347  0 */\n      0x0\n        /* \"contracts/ERC721/ERC721BasicToken.sol\":5331:5348  _to != address(0) */\n      0xffffffffffffffffffffffffffffffffffffffff\n      and\n        /* \"contracts/ERC721/ERC721BasicToken.sol\":5331:5334  _to */\n      dup4\n        /* \"contracts/ERC721/ERC721BasicToken.sol\":5331:5348  _to != address(0) */\n      0xffffffffffffffffffffffffffffffffffffffff\n      and\n      eq\n      iszero\n        /* \"contracts/ERC721/ERC721BasicToken.sol\":5323:5349  require(_to != address(0)) */\n      iszero\n      iszero\n      tag_99\n      jumpi\n      0x0\n      dup1\n      revert\n    tag_99:\n        /* \"contracts/ERC721/ERC721BasicToken.sol\":5358:5388  clearApproval(_from, _tokenId) */\n      tag_100\n        /* \"contracts/ERC721/ERC721BasicToken.sol\":5372:5377  _from */\n      dup5\n        /* \"contracts/ERC721/ERC721BasicToken.sol\":5379:5387  _tokenId */\n      dup4\n        /* \"contracts/ERC721/ERC721BasicToken.sol\":5358:5371  clearApproval */\n      tag_101\n        /* \"contracts/ERC721/ERC721BasicToken.sol\":5358:5388  clearApproval(_from, _tokenId) */\n      jump\t// in\n    tag_100:\n        /* \"contracts/ERC721/ERC721BasicToken.sol\":5395:5427  removeTokenFrom(_from, _tokenId) */\n      tag_102\n        /* \"contracts/ERC721/ERC721BasicToken.sol\":5411:5416  _from */\n      dup5\n        /* \"contracts/ERC721/ERC721BasicToken.sol\":5418:5426  _tokenId */\n      dup4\n        /* \"contracts/ERC721/ERC721BasicToken.sol\":5395:5410  removeTokenFrom */\n      tag_103\n        /* \"contracts/ERC721/ERC721BasicToken.sol\":5395:5427  removeTokenFrom(_from, _tokenId) */\n      jump\t// in\n    tag_102:\n        /* \"contracts/ERC721/ERC721BasicToken.sol\":5434:5459  addTokenTo(_to, _tokenId) */\n      tag_104\n        /* \"contracts/ERC721/ERC721BasicToken.sol\":5445:5448  _to */\n      dup4\n        /* \"contracts/ERC721/ERC721BasicToken.sol\":5450:5458  _tokenId */\n      dup4\n        /* \"contracts/ERC721/ERC721BasicToken.sol\":5434:5444  addTokenTo */\n      tag_105\n        /* \"contracts/ERC721/ERC721BasicToken.sol\":5434:5459  addTokenTo(_to, _tokenId) */\n      jump\t// in\n    tag_104:\n        /* \"contracts/ERC721/ERC721BasicToken.sol\":5484:5487  _to */\n      dup3\n        /* \"contracts/ERC721/ERC721BasicToken.sol\":5468:5498  Transfer(_from, _to, _tokenId) */\n      0xffffffffffffffffffffffffffffffffffffffff\n      and\n        /* \"contracts/ERC721/ERC721BasicToken.sol\":5477:5482  _from */\n      dup5\n        /* \"contracts/ERC721/ERC721BasicToken.sol\":5468:5498  Transfer(_from, _to, _tokenId) */\n      0xffffffffffffffffffffffffffffffffffffffff\n      and\n      0xddf252ad1be2c89b69c2b068fc378daa952ba7f163c4a11628f55a4df523b3ef\n        /* \"contracts/ERC721/ERC721BasicToken.sol\":5489:5497  _tokenId */\n      dup5\n        /* \"contracts/ERC721/ERC721BasicToken.sol\":5468:5498  Transfer(_from, _to, _tokenId) */\n      mload(0x40)\n      dup1\n      dup3\n      dup2\n      mstore\n      0x20\n      add\n      swap2\n      pop\n      pop\n      mload(0x40)\n      dup1\n      swap2\n      sub\n      swap1\n      log3\n        /* \"contracts/ERC721/ERC721BasicToken.sol\":5184:5504  function transferFrom(address _from, address _to, uint256 _tokenId) public canTransfer(_tokenId) {\r... */\n      pop\n      pop\n      pop\n      pop\n      jump\t// out\n        /* \"contracts/ERC721/ERC721Token.sol\":2290:2470  function tokenOfOwnerByIndex(address _owner, uint256 _index) public view returns (uint256) {\r... */\n    tag_39:\n        /* \"contracts/ERC721/ERC721Token.sol\":2372:2379  uint256 */\n      0x0\n        /* \"contracts/ERC721/ERC721Token.sol\":2405:2422  balanceOf(_owner) */\n      tag_107\n        /* \"contracts/ERC721/ERC721Token.sol\":2415:2421  _owner */\n      dup4\n        /* \"contracts/ERC721/ERC721Token.sol\":2405:2414  balanceOf */\n      tag_54\n        /* \"contracts/ERC721/ERC721Token.sol\":2405:2422  balanceOf(_owner) */\n      jump\t// in\n    tag_107:\n        /* \"contracts/ERC721/ERC721Token.sol\":2396:2402  _index */\n      dup3\n        /* \"contracts/ERC721/ERC721Token.sol\":2396:2422  _index < balanceOf(_owner) */\n      lt\n        /* \"contracts/ERC721/ERC721Token.sol\":2388:2423  require(_index < balanceOf(_owner)) */\n      iszero\n      iszero\n      tag_108\n      jumpi\n      0x0\n      dup1\n      revert\n    tag_108:\n        /* \"contracts/ERC721/ERC721Token.sol\":2437:2448  ownedTokens */\n      0x6\n        /* \"contracts/ERC721/ERC721Token.sol\":2437:2456  ownedTokens[_owner] */\n      0x0\n        /* \"contracts/ERC721/ERC721Token.sol\":2449:2455  _owner */\n      dup5\n        /* \"contracts/ERC721/ERC721Token.sol\":2437:2456  ownedTokens[_owner] */\n      0xffffffffffffffffffffffffffffffffffffffff\n      and\n      0xffffffffffffffffffffffffffffffffffffffff\n      and\n      dup2\n      mstore\n      0x20\n      add\n      swap1\n      dup2\n      mstore\n      0x20\n      add\n      0x0\n      keccak256\n        /* \"contracts/ERC721/ERC721Token.sol\":2457:2463  _index */\n      dup3\n        /* \"contracts/ERC721/ERC721Token.sol\":2437:2464  ownedTokens[_owner][_index] */\n      dup2\n      sload\n      dup2\n      lt\n      iszero\n      iszero\n      tag_109\n      jumpi\n      invalid\n    tag_109:\n      swap1\n      0x0\n      mstore\n      keccak256(0x0, 0x20)\n      add\n      sload\n        /* \"contracts/ERC721/ERC721Token.sol\":2430:2464  return ownedTokens[_owner][_index] */\n      swap1\n      pop\n        /* \"contracts/ERC721/ERC721Token.sol\":2290:2470  function tokenOfOwnerByIndex(address _owner, uint256 _index) public view returns (uint256) {\r... */\n      swap3\n      swap2\n      pop\n      pop\n      jump\t// out\n        /* \"contracts/ERC721/ERC721BasicToken.sol\":6124:6313  function safeTransferFrom(\r... */\n    tag_42:\n        /* \"contracts/ERC721/ERC721BasicToken.sol\":6245:6253  _tokenId */\n      dup1\n        /* \"contracts/ERC721/ERC721BasicToken.sol\":1566:1605  isApprovedOrOwner(msg.sender, _tokenId) */\n      tag_112\n        /* \"contracts/ERC721/ERC721BasicToken.sol\":1584:1594  msg.sender */\n      caller\n        /* \"contracts/ERC721/ERC721BasicToken.sol\":1596:1604  _tokenId */\n      dup3\n        /* \"contracts/ERC721/ERC721BasicToken.sol\":1566:1583  isApprovedOrOwner */\n      tag_95\n        /* \"contracts/ERC721/ERC721BasicToken.sol\":1566:1605  isApprovedOrOwner(msg.sender, _tokenId) */\n      jump\t// in\n    tag_112:\n        /* \"contracts/ERC721/ERC721BasicToken.sol\":1558:1606  require(isApprovedOrOwner(msg.sender, _tokenId)) */\n      iszero\n      iszero\n      tag_113\n      jumpi\n      0x0\n      dup1\n      revert\n    tag_113:\n        /* \"contracts/ERC721/ERC721BasicToken.sol\":6265:6307  safeTransferFrom(_from, _to, _tokenId, \"\") */\n      tag_115\n        /* \"contracts/ERC721/ERC721BasicToken.sol\":6282:6287  _from */\n      dup5\n        /* \"contracts/ERC721/ERC721BasicToken.sol\":6289:6292  _to */\n      dup5\n        /* \"contracts/ERC721/ERC721BasicToken.sol\":6294:6302  _tokenId */\n      dup5\n        /* \"contracts/ERC721/ERC721BasicToken.sol\":6265:6307  safeTransferFrom(_from, _to, _tokenId, \"\") */\n      0x20\n      mload(0x40)\n      swap1\n      dup2\n      add\n      0x40\n      mstore\n      dup1\n      0x0\n      dup2\n      mstore\n      pop\n        /* \"contracts/ERC721/ERC721BasicToken.sol\":6265:6281  safeTransferFrom */\n      tag_67\n        /* \"contracts/ERC721/ERC721BasicToken.sol\":6265:6307  safeTransferFrom(_from, _to, _tokenId, \"\") */\n      jump\t// in\n    tag_115:\n        /* \"contracts/ERC721/ERC721BasicToken.sol\":6124:6313  function safeTransferFrom(\r... */\n      pop\n      pop\n      pop\n      pop\n      jump\t// out\n        /* \"contracts/ERC721/ERC721BasicToken.sol\":2525:2668  function exists(uint256 _tokenId) public view returns (bool) {\r... */\n    tag_45:\n        /* \"contracts/ERC721/ERC721BasicToken.sol\":2580:2584  bool */\n      0x0\n        /* \"contracts/ERC721/ERC721BasicToken.sol\":2593:2606  address owner */\n      dup1\n        /* \"contracts/ERC721/ERC721BasicToken.sol\":2609:2619  tokenOwner */\n      0x0\n        /* \"contracts/ERC721/ERC721BasicToken.sol\":2609:2629  tokenOwner[_tokenId] */\n      dup1\n        /* \"contracts/ERC721/ERC721BasicToken.sol\":2620:2628  _tokenId */\n      dup5\n        /* \"contracts/ERC721/ERC721BasicToken.sol\":2609:2629  tokenOwner[_tokenId] */\n      dup2\n      mstore\n      0x20\n      add\n      swap1\n      dup2\n      mstore\n      0x20\n      add\n      0x0\n      keccak256\n      0x0\n      swap1\n      sload\n      swap1\n      0x100\n      exp\n      swap1\n      div\n      0xffffffffffffffffffffffffffffffffffffffff\n      and\n        /* \"contracts/ERC721/ERC721BasicToken.sol\":2593:2629  address owner = tokenOwner[_tokenId] */\n      swap1\n      pop\n        /* \"contracts/ERC721/ERC721BasicToken.sol\":2660:2661  0 */\n      0x0\n        /* \"contracts/ERC721/ERC721BasicToken.sol\":2643:2662  owner != address(0) */\n      0xffffffffffffffffffffffffffffffffffffffff\n      and\n        /* \"contracts/ERC721/ERC721BasicToken.sol\":2643:2648  owner */\n      dup2\n        /* \"contracts/ERC721/ERC721BasicToken.sol\":2643:2662  owner != address(0) */\n      0xffffffffffffffffffffffffffffffffffffffff\n      and\n      eq\n      iszero\n        /* \"contracts/ERC721/ERC721BasicToken.sol\":2636:2662  return owner != address(0) */\n      swap2\n      pop\n        /* \"contracts/ERC721/ERC721BasicToken.sol\":2525:2668  function exists(uint256 _tokenId) public view returns (bool) {\r... */\n      pop\n      swap2\n      swap1\n      pop\n      jump\t// out\n        /* \"contracts/ERC721/ERC721Token.sol\":3036:3179  function tokenByIndex(uint256 _index) public view returns (uint256) {\r... */\n    tag_48:\n        /* \"contracts/ERC721/ERC721Token.sol\":3095:3102  uint256 */\n      0x0\n        /* \"contracts/ERC721/ERC721Token.sol\":3128:3141  totalSupply() */\n      tag_118\n        /* \"contracts/ERC721/ERC721Token.sol\":3128:3139  totalSupply */\n      tag_33\n        /* \"contracts/ERC721/ERC721Token.sol\":3128:3141  totalSupply() */\n      jump\t// in\n    tag_118:\n        /* \"contracts/ERC721/ERC721Token.sol\":3119:3125  _index */\n      dup3\n        /* \"contracts/ERC721/ERC721Token.sol\":3119:3141  _index < totalSupply() */\n      lt\n        /* \"contracts/ERC721/ERC721Token.sol\":3111:3142  require(_index < totalSupply()) */\n      iszero\n      iszero\n      tag_119\n      jumpi\n      0x0\n      dup1\n      revert\n    tag_119:\n        /* \"contracts/ERC721/ERC721Token.sol\":3156:3165  allTokens */\n      0x8\n        /* \"contracts/ERC721/ERC721Token.sol\":3166:3172  _index */\n      dup3\n        /* \"contracts/ERC721/ERC721Token.sol\":3156:3173  allTokens[_index] */\n      dup2\n      sload\n      dup2\n      lt\n      iszero\n      iszero\n      tag_120\n      jumpi\n      invalid\n    tag_120:\n      swap1\n      0x0\n      mstore\n      keccak256(0x0, 0x20)\n      add\n      sload\n        /* \"contracts/ERC721/ERC721Token.sol\":3149:3173  return allTokens[_index] */\n      swap1\n      pop\n        /* \"contracts/ERC721/ERC721Token.sol\":3036:3179  function tokenByIndex(uint256 _index) public view returns (uint256) {\r... */\n      swap2\n      swap1\n      pop\n      jump\t// out\n        /* \"contracts/ERC721/ERC721BasicToken.sol\":2176:2344  function ownerOf(uint256 _tokenId) public view returns (address) {\r... */\n    tag_51:\n        /* \"contracts/ERC721/ERC721BasicToken.sol\":2232:2239  address */\n      0x0\n        /* \"contracts/ERC721/ERC721BasicToken.sol\":2248:2261  address owner */\n      dup1\n        /* \"contracts/ERC721/ERC721BasicToken.sol\":2264:2274  tokenOwner */\n      0x0\n        /* \"contracts/ERC721/ERC721BasicToken.sol\":2264:2284  tokenOwner[_tokenId] */\n      dup1\n        /* \"contracts/ERC721/ERC721BasicToken.sol\":2275:2283  _tokenId */\n      dup5\n        /* \"contracts/ERC721/ERC721BasicToken.sol\":2264:2284  tokenOwner[_tokenId] */\n      dup2\n      mstore\n      0x20\n      add\n      swap1\n      dup2\n      mstore\n      0x20\n      add\n      0x0\n      keccak256\n      0x0\n      swap1\n      sload\n      swap1\n      0x100\n      exp\n      swap1\n      div\n      0xffffffffffffffffffffffffffffffffffffffff\n      and\n        /* \"contracts/ERC721/ERC721BasicToken.sol\":2248:2284  address owner = tokenOwner[_tokenId] */\n      swap1\n      pop\n        /* \"contracts/ERC721/ERC721BasicToken.sol\":2316:2317  0 */\n      0x0\n        /* \"contracts/ERC721/ERC721BasicToken.sol\":2299:2318  owner != address(0) */\n      0xffffffffffffffffffffffffffffffffffffffff\n      and\n        /* \"contracts/ERC721/ERC721BasicToken.sol\":2299:2304  owner */\n      dup2\n        /* \"contracts/ERC721/ERC721BasicToken.sol\":2299:2318  owner != address(0) */\n      0xffffffffffffffffffffffffffffffffffffffff\n      and\n      eq\n      iszero\n        /* \"contracts/ERC721/ERC721BasicToken.sol\":2291:2319  require(owner != address(0)) */\n      iszero\n      iszero\n      tag_123\n      jumpi\n      0x0\n      dup1\n      revert\n    tag_123:\n        /* \"contracts/ERC721/ERC721BasicToken.sol\":2333:2338  owner */\n      dup1\n        /* \"contracts/ERC721/ERC721BasicToken.sol\":2326:2338  return owner */\n      swap2\n      pop\n        /* \"contracts/ERC721/ERC721BasicToken.sol\":2176:2344  function ownerOf(uint256 _tokenId) public view returns (address) {\r... */\n      pop\n      swap2\n      swap1\n      pop\n      jump\t// out\n        /* \"contracts/ERC721/ERC721BasicToken.sol\":1815:1960  function balanceOf(address _owner) public view returns (uint256) {\r... */\n    tag_54:\n        /* \"contracts/ERC721/ERC721BasicToken.sol\":1871:1878  uint256 */\n      0x0\n        /* \"contracts/ERC721/ERC721BasicToken.sol\":1913:1914  0 */\n      dup1\n        /* \"contracts/ERC721/ERC721BasicToken.sol\":1895:1915  _owner != address(0) */\n      0xffffffffffffffffffffffffffffffffffffffff\n      and\n        /* \"contracts/ERC721/ERC721BasicToken.sol\":1895:1901  _owner */\n      dup3\n        /* \"contracts/ERC721/ERC721BasicToken.sol\":1895:1915  _owner != address(0) */\n      0xffffffffffffffffffffffffffffffffffffffff\n      and\n      eq\n      iszero\n        /* \"contracts/ERC721/ERC721BasicToken.sol\":1887:1916  require(_owner != address(0)) */\n      iszero\n      iszero\n      tag_125\n      jumpi\n      0x0\n      dup1\n      revert\n    tag_125:\n        /* \"contracts/ERC721/ERC721BasicToken.sol\":1930:1946  ownedTokensCount */\n      0x2\n        /* \"contracts/ERC721/ERC721BasicToken.sol\":1930:1954  ownedTokensCount[_owner] */\n      0x0\n        /* \"contracts/ERC721/ERC721BasicToken.sol\":1947:1953  _owner */\n      dup4\n        /* \"contracts/ERC721/ERC721BasicToken.sol\":1930:1954  ownedTokensCount[_owner] */\n      0xffffffffffffffffffffffffffffffffffffffff\n      and\n      0xffffffffffffffffffffffffffffffffffffffff\n      and\n      dup2\n      mstore\n      0x20\n      add\n      swap1\n      dup2\n      mstore\n      0x20\n      add\n      0x0\n      keccak256\n      sload\n        /* \"contracts/ERC721/ERC721BasicToken.sol\":1923:1954  return ownedTokensCount[_owner] */\n      swap1\n      pop\n        /* \"contracts/ERC721/ERC721BasicToken.sol\":1815:1960  function balanceOf(address _owner) public view returns (uint256) {\r... */\n      swap2\n      swap1\n      pop\n      jump\t// out\n        /* \"contracts/ERC721/ERC721Token.sol\":1520:1594  function symbol() public view returns (string) {\r... */\n    tag_57:\n        /* \"contracts/ERC721/ERC721Token.sol\":1559:1565  string */\n      0x60\n        /* \"contracts/ERC721/ERC721Token.sol\":1581:1588  symbol_ */\n      0x5\n        /* \"contracts/ERC721/ERC721Token.sol\":1574:1588  return symbol_ */\n      dup1\n      sload\n      0x1\n      dup2\n      0x1\n      and\n      iszero\n      0x100\n      mul\n      sub\n      and\n      0x2\n      swap1\n      div\n      dup1\n      0x1f\n      add\n      0x20\n      dup1\n      swap2\n      div\n      mul\n      0x20\n      add\n      mload(0x40)\n      swap1\n      dup2\n      add\n      0x40\n      mstore\n      dup1\n      swap3\n      swap2\n      swap1\n      dup2\n      dup2\n      mstore\n      0x20\n      add\n      dup3\n      dup1\n      sload\n      0x1\n      dup2\n      0x1\n      and\n      iszero\n      0x100\n      mul\n      sub\n      and\n      0x2\n      swap1\n      div\n      dup1\n      iszero\n      tag_127\n      jumpi\n      dup1\n      0x1f\n      lt\n      tag_128\n      jumpi\n      0x100\n      dup1\n      dup4\n      sload\n      div\n      mul\n      dup4\n      mstore\n      swap2\n      0x20\n      add\n      swap2\n      jump(tag_127)\n    tag_128:\n      dup3\n      add\n      swap2\n      swap1\n      0x0\n      mstore\n      keccak256(0x0, 0x20)\n      swap1\n    tag_129:\n      dup2\n      sload\n      dup2\n      mstore\n      swap1\n      0x1\n      add\n      swap1\n      0x20\n      add\n      dup1\n      dup4\n      gt\n      tag_129\n      jumpi\n      dup3\n      swap1\n      sub\n      0x1f\n      and\n      dup3\n      add\n      swap2\n    tag_127:\n      pop\n      pop\n      pop\n      pop\n      pop\n      swap1\n      pop\n        /* \"contracts/ERC721/ERC721Token.sol\":1520:1594  function symbol() public view returns (string) {\r... */\n      swap1\n      jump\t// out\n        /* \"contracts/ERC721/ERC721BasicToken.sol\":4087:4291  function setApprovalForAll(address _to, bool _approved) public {\r... */\n    tag_64:\n        /* \"contracts/ERC721/ERC721BasicToken.sol\":4172:4182  msg.sender */\n      caller\n        /* \"contracts/ERC721/ERC721BasicToken.sol\":4165:4182  _to != msg.sender */\n      0xffffffffffffffffffffffffffffffffffffffff\n      and\n        /* \"contracts/ERC721/ERC721BasicToken.sol\":4165:4168  _to */\n      dup3\n        /* \"contracts/ERC721/ERC721BasicToken.sol\":4165:4182  _to != msg.sender */\n      0xffffffffffffffffffffffffffffffffffffffff\n      and\n      eq\n      iszero\n        /* \"contracts/ERC721/ERC721BasicToken.sol\":4157:4183  require(_to != msg.sender) */\n      iszero\n      iszero\n      tag_131\n      jumpi\n      0x0\n      dup1\n      revert\n    tag_131:\n        /* \"contracts/ERC721/ERC721BasicToken.sol\":4227:4236  _approved */\n      dup1\n        /* \"contracts/ERC721/ERC721BasicToken.sol\":4190:4207  operatorApprovals */\n      0x3\n        /* \"contracts/ERC721/ERC721BasicToken.sol\":4190:4219  operatorApprovals[msg.sender] */\n      0x0\n        /* \"contracts/ERC721/ERC721BasicToken.sol\":4208:4218  msg.sender */\n      caller\n        /* \"contracts/ERC721/ERC721BasicToken.sol\":4190:4219  operatorApprovals[msg.sender] */\n      0xffffffffffffffffffffffffffffffffffffffff\n      and\n      0xffffffffffffffffffffffffffffffffffffffff\n      and\n      dup2\n      mstore\n      0x20\n      add\n      swap1\n      dup2\n      mstore\n      0x20\n      add\n      0x0\n      keccak256\n        /* \"contracts/ERC721/ERC721BasicToken.sol\":4190:4224  operatorApprovals[msg.sender][_to] */\n      0x0\n        /* \"contracts/ERC721/ERC721BasicToken.sol\":4220:4223  _to */\n      dup5\n        /* \"contracts/ERC721/ERC721BasicToken.sol\":4190:4224  operatorApprovals[msg.sender][_to] */\n      0xffffffffffffffffffffffffffffffffffffffff\n      and\n      0xffffffffffffffffffffffffffffffffffffffff\n      and\n      dup2\n      mstore\n      0x20\n      add\n      swap1\n      dup2\n      mstore\n      0x20\n      add\n      0x0\n      keccak256\n      0x0\n        /* \"contracts/ERC721/ERC721BasicToken.sol\":4190:4236  operatorApprovals[msg.sender][_to] = _approved */\n      0x100\n      exp\n      dup2\n      sload\n      dup2\n      0xff\n      mul\n      not\n      and\n      swap1\n      dup4\n      iszero\n      iszero\n      mul\n      or\n      swap1\n      sstore\n      pop\n        /* \"contracts/ERC721/ERC721BasicToken.sol\":4270:4273  _to */\n      dup2\n        /* \"contracts/ERC721/ERC721BasicToken.sol\":4243:4285  ApprovalForAll(msg.sender, _to, _approved) */\n      0xffffffffffffffffffffffffffffffffffffffff\n      and\n        /* \"contracts/ERC721/ERC721BasicToken.sol\":4258:4268  msg.sender */\n      caller\n        /* \"contracts/ERC721/ERC721BasicToken.sol\":4243:4285  ApprovalForAll(msg.sender, _to, _approved) */\n      0xffffffffffffffffffffffffffffffffffffffff\n      and\n      0x17307eab39ab6107e8899845ad3d59bd9653f200f220920489ca2b5937696c31\n        /* \"contracts/ERC721/ERC721BasicToken.sol\":4275:4284  _approved */\n      dup4\n        /* \"contracts/ERC721/ERC721BasicToken.sol\":4243:4285  ApprovalForAll(msg.sender, _to, _approved) */\n      mload(0x40)\n      dup1\n      dup3\n      iszero\n      iszero\n      iszero\n      iszero\n      dup2\n      mstore\n      0x20\n      add\n      swap2\n      pop\n      pop\n      mload(0x40)\n      dup1\n      swap2\n      sub\n      swap1\n      log3\n        /* \"contracts/ERC721/ERC721BasicToken.sol\":4087:4291  function setApprovalForAll(address _to, bool _approved) public {\r... */\n      pop\n      pop\n      jump\t// out\n        /* \"contracts/ERC721/ERC721BasicToken.sol\":7003:7271  function safeTransferFrom(\r... */\n    tag_67:\n        /* \"contracts/ERC721/ERC721BasicToken.sol\":7142:7150  _tokenId */\n      dup2\n        /* \"contracts/ERC721/ERC721BasicToken.sol\":1566:1605  isApprovedOrOwner(msg.sender, _tokenId) */\n      tag_133\n        /* \"contracts/ERC721/ERC721BasicToken.sol\":1584:1594  msg.sender */\n      caller\n        /* \"contracts/ERC721/ERC721BasicToken.sol\":1596:1604  _tokenId */\n      dup3\n        /* \"contracts/ERC721/ERC721BasicToken.sol\":1566:1583  isApprovedOrOwner */\n      tag_95\n        /* \"contracts/ERC721/ERC721BasicToken.sol\":1566:1605  isApprovedOrOwner(msg.sender, _tokenId) */\n      jump\t// in\n    tag_133:\n        /* \"contracts/ERC721/ERC721BasicToken.sol\":1558:1606  require(isApprovedOrOwner(msg.sender, _tokenId)) */\n      iszero\n      iszero\n      tag_134\n      jumpi\n      0x0\n      dup1\n      revert\n    tag_134:\n        /* \"contracts/ERC721/ERC721BasicToken.sol\":7162:7196  transferFrom(_from, _to, _tokenId) */\n      tag_136\n        /* \"contracts/ERC721/ERC721BasicToken.sol\":7175:7180  _from */\n      dup6\n        /* \"contracts/ERC721/ERC721BasicToken.sol\":7182:7185  _to */\n      dup6\n        /* \"contracts/ERC721/ERC721BasicToken.sol\":7187:7195  _tokenId */\n      dup6\n        /* \"contracts/ERC721/ERC721BasicToken.sol\":7162:7174  transferFrom */\n      tag_36\n        /* \"contracts/ERC721/ERC721BasicToken.sol\":7162:7196  transferFrom(_from, _to, _tokenId) */\n      jump\t// in\n    tag_136:\n        /* \"contracts/ERC721/ERC721BasicToken.sol\":7211:7264  checkAndCallSafeTransfer(_from, _to, _tokenId, _data) */\n      tag_137\n        /* \"contracts/ERC721/ERC721BasicToken.sol\":7236:7241  _from */\n      dup6\n        /* \"contracts/ERC721/ERC721BasicToken.sol\":7243:7246  _to */\n      dup6\n        /* \"contracts/ERC721/ERC721BasicToken.sol\":7248:7256  _tokenId */\n      dup6\n        /* \"contracts/ERC721/ERC721BasicToken.sol\":7258:7263  _data */\n      dup6\n        /* \"contracts/ERC721/ERC721BasicToken.sol\":7211:7235  checkAndCallSafeTransfer */\n      tag_138\n        /* \"contracts/ERC721/ERC721BasicToken.sol\":7211:7264  checkAndCallSafeTransfer(_from, _to, _tokenId, _data) */\n      jump\t// in\n    tag_137:\n        /* \"contracts/ERC721/ERC721BasicToken.sol\":7203:7265  require(checkAndCallSafeTransfer(_from, _to, _tokenId, _data)) */\n      iszero\n      iszero\n      tag_139\n      jumpi\n      0x0\n      dup1\n      revert\n    tag_139:\n        /* \"contracts/ERC721/ERC721BasicToken.sol\":7003:7271  function safeTransferFrom(\r... */\n      pop\n      pop\n      pop\n      pop\n      pop\n      jump\t// out\n        /* \"contracts/ERC721/ERC721Token.sol\":1790:1926  function tokenURI(uint256 _tokenId) public view returns (string) {\r... */\n    tag_70:\n        /* \"contracts/ERC721/ERC721Token.sol\":1847:1853  string */\n      0x60\n        /* \"contracts/ERC721/ERC721Token.sol\":1870:1886  exists(_tokenId) */\n      tag_141\n        /* \"contracts/ERC721/ERC721Token.sol\":1877:1885  _tokenId */\n      dup3\n        /* \"contracts/ERC721/ERC721Token.sol\":1870:1876  exists */\n      tag_45\n        /* \"contracts/ERC721/ERC721Token.sol\":1870:1886  exists(_tokenId) */\n      jump\t// in\n    tag_141:\n        /* \"contracts/ERC721/ERC721Token.sol\":1862:1887  require(exists(_tokenId)) */\n      iszero\n      iszero\n      tag_142\n      jumpi\n      0x0\n      dup1\n      revert\n    tag_142:\n        /* \"contracts/ERC721/ERC721Token.sol\":1901:1910  tokenURIs */\n      0xa\n        /* \"contracts/ERC721/ERC721Token.sol\":1901:1920  tokenURIs[_tokenId] */\n      0x0\n        /* \"contracts/ERC721/ERC721Token.sol\":1911:1919  _tokenId */\n      dup4\n        /* \"contracts/ERC721/ERC721Token.sol\":1901:1920  tokenURIs[_tokenId] */\n      dup2\n      mstore\n      0x20\n      add\n      swap1\n      dup2\n      mstore\n      0x20\n      add\n      0x0\n      keccak256\n        /* \"contracts/ERC721/ERC721Token.sol\":1894:1920  return tokenURIs[_tokenId] */\n      dup1\n      sload\n      0x1\n      dup2\n      0x1\n      and\n      iszero\n      0x100\n      mul\n      sub\n      and\n      0x2\n      swap1\n      div\n      dup1\n      0x1f\n      add\n      0x20\n      dup1\n      swap2\n      div\n      mul\n      0x20\n      add\n      mload(0x40)\n      swap1\n      dup2\n      add\n      0x40\n      mstore\n      dup1\n      swap3\n      swap2\n      swap1\n      dup2\n      dup2\n      mstore\n      0x20\n      add\n      dup3\n      dup1\n      sload\n      0x1\n      dup2\n      0x1\n      and\n      iszero\n      0x100\n      mul\n      sub\n      and\n      0x2\n      swap1\n      div\n      dup1\n      iszero\n      tag_143\n      jumpi\n      dup1\n      0x1f\n      lt\n      tag_144\n      jumpi\n      0x100\n      dup1\n      dup4\n      sload\n      div\n      mul\n      dup4\n      mstore\n      swap2\n      0x20\n      add\n      swap2\n      jump(tag_143)\n    tag_144:\n      dup3\n      add\n      swap2\n      swap1\n      0x0\n      mstore\n      keccak256(0x0, 0x20)\n      swap1\n    tag_145:\n      dup2\n      sload\n      dup2\n      mstore\n      swap1\n      0x1\n      add\n      swap1\n      0x20\n      add\n      dup1\n      dup4\n      gt\n      tag_145\n      jumpi\n      dup3\n      swap1\n      sub\n      0x1f\n      and\n      dup3\n      add\n      swap2\n    tag_143:\n      pop\n      pop\n      pop\n      pop\n      pop\n      swap1\n      pop\n        /* \"contracts/ERC721/ERC721Token.sol\":1790:1926  function tokenURI(uint256 _tokenId) public view returns (string) {\r... */\n      swap2\n      swap1\n      pop\n      jump\t// out\n        /* \"contracts/ERC721/ERC721BasicToken.sol\":4608:4752  function isApprovedForAll(address _owner, address _operator) public view returns (bool) {\r... */\n    tag_77:\n        /* \"contracts/ERC721/ERC721BasicToken.sol\":4690:4694  bool */\n      0x0\n        /* \"contracts/ERC721/ERC721BasicToken.sol\":4710:4727  operatorApprovals */\n      0x3\n        /* \"contracts/ERC721/ERC721BasicToken.sol\":4710:4735  operatorApprovals[_owner] */\n      0x0\n        /* \"contracts/ERC721/ERC721BasicToken.sol\":4728:4734  _owner */\n      dup5\n        /* \"contracts/ERC721/ERC721BasicToken.sol\":4710:4735  operatorApprovals[_owner] */\n      0xffffffffffffffffffffffffffffffffffffffff\n      and\n      0xffffffffffffffffffffffffffffffffffffffff\n      and\n      dup2\n      mstore\n      0x20\n      add\n      swap1\n      dup2\n      mstore\n      0x20\n      add\n      0x0\n      keccak256\n        /* \"contracts/ERC721/ERC721BasicToken.sol\":4710:4746  operatorApprovals[_owner][_operator] */\n      0x0\n        /* \"contracts/ERC721/ERC721BasicToken.sol\":4736:4745  _operator */\n      dup4\n        /* \"contracts/ERC721/ERC721BasicToken.sol\":4710:4746  operatorApprovals[_owner][_operator] */\n      0xffffffffffffffffffffffffffffffffffffffff\n      and\n      0xffffffffffffffffffffffffffffffffffffffff\n      and\n      dup2\n      mstore\n      0x20\n      add\n      swap1\n      dup2\n      mstore\n      0x20\n      add\n      0x0\n      keccak256\n      0x0\n      swap1\n      sload\n      swap1\n      0x100\n      exp\n      swap1\n      div\n      0xff\n      and\n        /* \"contracts/ERC721/ERC721BasicToken.sol\":4703:4746  return operatorApprovals[_owner][_operator] */\n      swap1\n      pop\n        /* \"contracts/ERC721/ERC721BasicToken.sol\":4608:4752  function isApprovedForAll(address _owner, address _operator) public view returns (bool) {\r... */\n      swap3\n      swap2\n      pop\n      pop\n      jump\t// out\n        /* \"contracts/ERC721/ERC721BasicToken.sol\":7627:7870  function isApprovedOrOwner(address _spender, uint256 _tokenId) internal view returns (bool) {\r... */\n    tag_95:\n        /* \"contracts/ERC721/ERC721BasicToken.sol\":7713:7717  bool */\n      0x0\n        /* \"contracts/ERC721/ERC721BasicToken.sol\":7726:7739  address owner */\n      dup1\n        /* \"contracts/ERC721/ERC721BasicToken.sol\":7742:7759  ownerOf(_tokenId) */\n      tag_148\n        /* \"contracts/ERC721/ERC721BasicToken.sol\":7750:7758  _tokenId */\n      dup4\n        /* \"contracts/ERC721/ERC721BasicToken.sol\":7742:7749  ownerOf */\n      tag_51\n        /* \"contracts/ERC721/ERC721BasicToken.sol\":7742:7759  ownerOf(_tokenId) */\n      jump\t// in\n    tag_148:\n        /* \"contracts/ERC721/ERC721BasicToken.sol\":7726:7759  address owner = ownerOf(_tokenId) */\n      swap1\n      pop\n        /* \"contracts/ERC721/ERC721BasicToken.sol\":7785:7790  owner */\n      dup1\n        /* \"contracts/ERC721/ERC721BasicToken.sol\":7773:7790  _spender == owner */\n      0xffffffffffffffffffffffffffffffffffffffff\n      and\n        /* \"contracts/ERC721/ERC721BasicToken.sol\":7773:7781  _spender */\n      dup5\n        /* \"contracts/ERC721/ERC721BasicToken.sol\":7773:7790  _spender == owner */\n      0xffffffffffffffffffffffffffffffffffffffff\n      and\n      eq\n        /* \"contracts/ERC721/ERC721BasicToken.sol\":7773:7827  _spender == owner || getApproved(_tokenId) == _spender */\n      dup1\n      tag_149\n      jumpi\n      pop\n        /* \"contracts/ERC721/ERC721BasicToken.sol\":7819:7827  _spender */\n      dup4\n        /* \"contracts/ERC721/ERC721BasicToken.sol\":7794:7827  getApproved(_tokenId) == _spender */\n      0xffffffffffffffffffffffffffffffffffffffff\n      and\n        /* \"contracts/ERC721/ERC721BasicToken.sol\":7794:7815  getApproved(_tokenId) */\n      tag_150\n        /* \"contracts/ERC721/ERC721BasicToken.sol\":7806:7814  _tokenId */\n      dup5\n        /* \"contracts/ERC721/ERC721BasicToken.sol\":7794:7805  getApproved */\n      tag_27\n        /* \"contracts/ERC721/ERC721BasicToken.sol\":7794:7815  getApproved(_tokenId) */\n      jump\t// in\n    tag_150:\n        /* \"contracts/ERC721/ERC721BasicToken.sol\":7794:7827  getApproved(_tokenId) == _spender */\n      0xffffffffffffffffffffffffffffffffffffffff\n      and\n      eq\n        /* \"contracts/ERC721/ERC721BasicToken.sol\":7773:7827  _spender == owner || getApproved(_tokenId) == _spender */\n    tag_149:\n        /* \"contracts/ERC721/ERC721BasicToken.sol\":7773:7864  _spender == owner || getApproved(_tokenId) == _spender || isApprovedForAll(owner, _spender) */\n      dup1\n      tag_151\n      jumpi\n      pop\n        /* \"contracts/ERC721/ERC721BasicToken.sol\":7831:7864  isApprovedForAll(owner, _spender) */\n      tag_152\n        /* \"contracts/ERC721/ERC721BasicToken.sol\":7848:7853  owner */\n      dup2\n        /* \"contracts/ERC721/ERC721BasicToken.sol\":7855:7863  _spender */\n      dup6\n        /* \"contracts/ERC721/ERC721BasicToken.sol\":7831:7847  isApprovedForAll */\n      tag_77\n        /* \"contracts/ERC721/ERC721BasicToken.sol\":7831:7864  isApprovedForAll(owner, _spender) */\n      jump\t// in\n    tag_152:\n        /* \"contracts/ERC721/ERC721BasicToken.sol\":7773:7864  _spender == owner || getApproved(_tokenId) == _spender || isApprovedForAll(owner, _spender) */\n    tag_151:\n        /* \"contracts/ERC721/ERC721BasicToken.sol\":7766:7864  return _spender == owner || getApproved(_tokenId) == _spender || isApprovedForAll(owner, _spender) */\n      swap2\n      pop\n        /* \"contracts/ERC721/ERC721BasicToken.sol\":7627:7870  function isApprovedOrOwner(address _spender, uint256 _tokenId) internal view returns (bool) {\r... */\n      pop\n      swap3\n      swap2\n      pop\n      pop\n      jump\t// out\n        /* \"contracts/ERC721/ERC721BasicToken.sol\":8946:9212  function clearApproval(address _owner, uint256 _tokenId) internal {\r... */\n    tag_101:\n        /* \"contracts/ERC721/ERC721BasicToken.sol\":9048:9054  _owner */\n      dup2\n        /* \"contracts/ERC721/ERC721BasicToken.sol\":9027:9054  ownerOf(_tokenId) == _owner */\n      0xffffffffffffffffffffffffffffffffffffffff\n      and\n        /* \"contracts/ERC721/ERC721BasicToken.sol\":9027:9044  ownerOf(_tokenId) */\n      tag_154\n        /* \"contracts/ERC721/ERC721BasicToken.sol\":9035:9043  _tokenId */\n      dup3\n        /* \"contracts/ERC721/ERC721BasicToken.sol\":9027:9034  ownerOf */\n      tag_51\n        /* \"contracts/ERC721/ERC721BasicToken.sol\":9027:9044  ownerOf(_tokenId) */\n      jump\t// in\n    tag_154:\n        /* \"contracts/ERC721/ERC721BasicToken.sol\":9027:9054  ownerOf(_tokenId) == _owner */\n      0xffffffffffffffffffffffffffffffffffffffff\n      and\n      eq\n        /* \"contracts/ERC721/ERC721BasicToken.sol\":9019:9055  require(ownerOf(_tokenId) == _owner) */\n      iszero\n      iszero\n      tag_155\n      jumpi\n      0x0\n      dup1\n      revert\n    tag_155:\n        /* \"contracts/ERC721/ERC721BasicToken.sol\":9102:9103  0 */\n      0x0\n        /* \"contracts/ERC721/ERC721BasicToken.sol\":9066:9104  tokenApprovals[_tokenId] != address(0) */\n      0xffffffffffffffffffffffffffffffffffffffff\n      and\n        /* \"contracts/ERC721/ERC721BasicToken.sol\":9066:9080  tokenApprovals */\n      0x1\n        /* \"contracts/ERC721/ERC721BasicToken.sol\":9066:9090  tokenApprovals[_tokenId] */\n      0x0\n        /* \"contracts/ERC721/ERC721BasicToken.sol\":9081:9089  _tokenId */\n      dup4\n        /* \"contracts/ERC721/ERC721BasicToken.sol\":9066:9090  tokenApprovals[_tokenId] */\n      dup2\n      mstore\n      0x20\n      add\n      swap1\n      dup2\n      mstore\n      0x20\n      add\n      0x0\n      keccak256\n      0x0\n      swap1\n      sload\n      swap1\n      0x100\n      exp\n      swap1\n      div\n      0xffffffffffffffffffffffffffffffffffffffff\n      and\n        /* \"contracts/ERC721/ERC721BasicToken.sol\":9066:9104  tokenApprovals[_tokenId] != address(0) */\n      0xffffffffffffffffffffffffffffffffffffffff\n      and\n      eq\n      iszero\n        /* \"contracts/ERC721/ERC721BasicToken.sol\":9062:9207  if (tokenApprovals[_tokenId] != address(0)) {\r... */\n      iszero\n      tag_156\n      jumpi\n        /* \"contracts/ERC721/ERC721BasicToken.sol\":9150:9151  0 */\n      0x0\n        /* \"contracts/ERC721/ERC721BasicToken.sol\":9115:9129  tokenApprovals */\n      0x1\n        /* \"contracts/ERC721/ERC721BasicToken.sol\":9115:9139  tokenApprovals[_tokenId] */\n      0x0\n        /* \"contracts/ERC721/ERC721BasicToken.sol\":9130:9138  _tokenId */\n      dup4\n        /* \"contracts/ERC721/ERC721BasicToken.sol\":9115:9139  tokenApprovals[_tokenId] */\n      dup2\n      mstore\n      0x20\n      add\n      swap1\n      dup2\n      mstore\n      0x20\n      add\n      0x0\n      keccak256\n      0x0\n        /* \"contracts/ERC721/ERC721BasicToken.sol\":9115:9152  tokenApprovals[_tokenId] = address(0) */\n      0x100\n      exp\n      dup2\n      sload\n      dup2\n      0xffffffffffffffffffffffffffffffffffffffff\n      mul\n      not\n      and\n      swap1\n      dup4\n      0xffffffffffffffffffffffffffffffffffffffff\n      and\n      mul\n      or\n      swap1\n      sstore\n      pop\n        /* \"contracts/ERC721/ERC721BasicToken.sol\":9186:9187  0 */\n      0x0\n        /* \"contracts/ERC721/ERC721BasicToken.sol\":9161:9199  Approval(_owner, address(0), _tokenId) */\n      0xffffffffffffffffffffffffffffffffffffffff\n      and\n        /* \"contracts/ERC721/ERC721BasicToken.sol\":9170:9176  _owner */\n      dup3\n        /* \"contracts/ERC721/ERC721BasicToken.sol\":9161:9199  Approval(_owner, address(0), _tokenId) */\n      0xffffffffffffffffffffffffffffffffffffffff\n      and\n      0x8c5be1e5ebec7d5bd14f71427d1e84f3dd0314c0f7b2291e5b200ac8c7c3b925\n        /* \"contracts/ERC721/ERC721BasicToken.sol\":9190:9198  _tokenId */\n      dup4\n        /* \"contracts/ERC721/ERC721BasicToken.sol\":9161:9199  Approval(_owner, address(0), _tokenId) */\n      mload(0x40)\n      dup1\n      dup3\n      dup2\n      mstore\n      0x20\n      add\n      swap2\n      pop\n      pop\n      mload(0x40)\n      dup1\n      swap2\n      sub\n      swap1\n      log3\n        /* \"contracts/ERC721/ERC721BasicToken.sol\":9062:9207  if (tokenApprovals[_tokenId] != address(0)) {\r... */\n    tag_156:\n        /* \"contracts/ERC721/ERC721BasicToken.sol\":8946:9212  function clearApproval(address _owner, uint256 _tokenId) internal {\r... */\n      pop\n      pop\n      jump\t// out\n        /* \"contracts/ERC721/ERC721Token.sol\":4324:5196  function removeTokenFrom(address _from, uint256 _tokenId) internal {\r... */\n    tag_103:\n        /* \"contracts/ERC721/ERC721Token.sol\":4445:4463  uint256 tokenIndex */\n      0x0\n        /* \"contracts/ERC721/ERC721Token.sol\":4499:4521  uint256 lastTokenIndex */\n      dup1\n        /* \"contracts/ERC721/ERC721Token.sol\":4563:4580  uint256 lastToken */\n      0x0\n        /* \"contracts/ERC721/ERC721Token.sol\":4398:4436  super.removeTokenFrom(_from, _tokenId) */\n      tag_158\n        /* \"contracts/ERC721/ERC721Token.sol\":4420:4425  _from */\n      dup6\n        /* \"contracts/ERC721/ERC721Token.sol\":4427:4435  _tokenId */\n      dup6\n        /* \"contracts/ERC721/ERC721Token.sol\":4398:4419  super.removeTokenFrom */\n      tag_159\n        /* \"contracts/ERC721/ERC721Token.sol\":4398:4436  super.removeTokenFrom(_from, _tokenId) */\n      jump\t// in\n    tag_158:\n        /* \"contracts/ERC721/ERC721Token.sol\":4466:4482  ownedTokensIndex */\n      0x7\n        /* \"contracts/ERC721/ERC721Token.sol\":4466:4492  ownedTokensIndex[_tokenId] */\n      0x0\n        /* \"contracts/ERC721/ERC721Token.sol\":4483:4491  _tokenId */\n      dup6\n        /* \"contracts/ERC721/ERC721Token.sol\":4466:4492  ownedTokensIndex[_tokenId] */\n      dup2\n      mstore\n      0x20\n      add\n      swap1\n      dup2\n      mstore\n      0x20\n      add\n      0x0\n      keccak256\n      sload\n        /* \"contracts/ERC721/ERC721Token.sol\":4445:4492  uint256 tokenIndex = ownedTokensIndex[_tokenId] */\n      swap3\n      pop\n        /* \"contracts/ERC721/ERC721Token.sol\":4524:4556  ownedTokens[_from].length.sub(1) */\n      tag_160\n        /* \"contracts/ERC721/ERC721Token.sol\":4554:4555  1 */\n      0x1\n        /* \"contracts/ERC721/ERC721Token.sol\":4524:4535  ownedTokens */\n      0x6\n        /* \"contracts/ERC721/ERC721Token.sol\":4524:4542  ownedTokens[_from] */\n      0x0\n        /* \"contracts/ERC721/ERC721Token.sol\":4536:4541  _from */\n      dup9\n        /* \"contracts/ERC721/ERC721Token.sol\":4524:4542  ownedTokens[_from] */\n      0xffffffffffffffffffffffffffffffffffffffff\n      and\n      0xffffffffffffffffffffffffffffffffffffffff\n      and\n      dup2\n      mstore\n      0x20\n      add\n      swap1\n      dup2\n      mstore\n      0x20\n      add\n      0x0\n      keccak256\n        /* \"contracts/ERC721/ERC721Token.sol\":4524:4549  ownedTokens[_from].length */\n      dup1\n      sload\n      swap1\n      pop\n        /* \"contracts/ERC721/ERC721Token.sol\":4524:4553  ownedTokens[_from].length.sub */\n      tag_161\n      swap1\n        /* \"contracts/ERC721/ERC721Token.sol\":4524:4556  ownedTokens[_from].length.sub(1) */\n      swap2\n      swap1\n      0xffffffff\n      and\n      jump\t// in\n    tag_160:\n        /* \"contracts/ERC721/ERC721Token.sol\":4499:4556  uint256 lastTokenIndex = ownedTokens[_from].length.sub(1) */\n      swap2\n      pop\n        /* \"contracts/ERC721/ERC721Token.sol\":4583:4594  ownedTokens */\n      0x6\n        /* \"contracts/ERC721/ERC721Token.sol\":4583:4601  ownedTokens[_from] */\n      0x0\n        /* \"contracts/ERC721/ERC721Token.sol\":4595:4600  _from */\n      dup7\n        /* \"contracts/ERC721/ERC721Token.sol\":4583:4601  ownedTokens[_from] */\n      0xffffffffffffffffffffffffffffffffffffffff\n      and\n      0xffffffffffffffffffffffffffffffffffffffff\n      and\n      dup2\n      mstore\n      0x20\n      add\n      swap1\n      dup2\n      mstore\n      0x20\n      add\n      0x0\n      keccak256\n        /* \"contracts/ERC721/ERC721Token.sol\":4602:4616  lastTokenIndex */\n      dup3\n        /* \"contracts/ERC721/ERC721Token.sol\":4583:4617  ownedTokens[_from][lastTokenIndex] */\n      dup2\n      sload\n      dup2\n      lt\n      iszero\n      iszero\n      tag_162\n      jumpi\n      invalid\n    tag_162:\n      swap1\n      0x0\n      mstore\n      keccak256(0x0, 0x20)\n      add\n      sload\n        /* \"contracts/ERC721/ERC721Token.sol\":4563:4617  uint256 lastToken = ownedTokens[_from][lastTokenIndex] */\n      swap1\n      pop\n        /* \"contracts/ERC721/ERC721Token.sol\":4659:4668  lastToken */\n      dup1\n        /* \"contracts/ERC721/ERC721Token.sol\":4626:4637  ownedTokens */\n      0x6\n        /* \"contracts/ERC721/ERC721Token.sol\":4626:4644  ownedTokens[_from] */\n      0x0\n        /* \"contracts/ERC721/ERC721Token.sol\":4638:4643  _from */\n      dup8\n        /* \"contracts/ERC721/ERC721Token.sol\":4626:4644  ownedTokens[_from] */\n      0xffffffffffffffffffffffffffffffffffffffff\n      and\n      0xffffffffffffffffffffffffffffffffffffffff\n      and\n      dup2\n      mstore\n      0x20\n      add\n      swap1\n      dup2\n      mstore\n      0x20\n      add\n      0x0\n      keccak256\n        /* \"contracts/ERC721/ERC721Token.sol\":4645:4655  tokenIndex */\n      dup5\n        /* \"contracts/ERC721/ERC721Token.sol\":4626:4656  ownedTokens[_from][tokenIndex] */\n      dup2\n      sload\n      dup2\n      lt\n      iszero\n      iszero\n      tag_164\n      jumpi\n      invalid\n    tag_164:\n      swap1\n      0x0\n      mstore\n      keccak256(0x0, 0x20)\n      add\n        /* \"contracts/ERC721/ERC721Token.sol\":4626:4668  ownedTokens[_from][tokenIndex] = lastToken */\n      dup2\n      swap1\n      sstore\n      pop\n        /* \"contracts/ERC721/ERC721Token.sol\":4712:4713  0 */\n      0x0\n        /* \"contracts/ERC721/ERC721Token.sol\":4675:4686  ownedTokens */\n      0x6\n        /* \"contracts/ERC721/ERC721Token.sol\":4675:4693  ownedTokens[_from] */\n      0x0\n        /* \"contracts/ERC721/ERC721Token.sol\":4687:4692  _from */\n      dup8\n        /* \"contracts/ERC721/ERC721Token.sol\":4675:4693  ownedTokens[_from] */\n      0xffffffffffffffffffffffffffffffffffffffff\n      and\n      0xffffffffffffffffffffffffffffffffffffffff\n      and\n      dup2\n      mstore\n      0x20\n      add\n      swap1\n      dup2\n      mstore\n      0x20\n      add\n      0x0\n      keccak256\n        /* \"contracts/ERC721/ERC721Token.sol\":4694:4708  lastTokenIndex */\n      dup4\n        /* \"contracts/ERC721/ERC721Token.sol\":4675:4709  ownedTokens[_from][lastTokenIndex] */\n      dup2\n      sload\n      dup2\n      lt\n      iszero\n      iszero\n      tag_166\n      jumpi\n      invalid\n    tag_166:\n      swap1\n      0x0\n      mstore\n      keccak256(0x0, 0x20)\n      add\n        /* \"contracts/ERC721/ERC721Token.sol\":4675:4713  ownedTokens[_from][lastTokenIndex] = 0 */\n      dup2\n      swap1\n      sstore\n      pop\n        /* \"contracts/ERC721/ERC721Token.sol\":5079:5090  ownedTokens */\n      0x6\n        /* \"contracts/ERC721/ERC721Token.sol\":5079:5097  ownedTokens[_from] */\n      0x0\n        /* \"contracts/ERC721/ERC721Token.sol\":5091:5096  _from */\n      dup7\n        /* \"contracts/ERC721/ERC721Token.sol\":5079:5097  ownedTokens[_from] */\n      0xffffffffffffffffffffffffffffffffffffffff\n      and\n      0xffffffffffffffffffffffffffffffffffffffff\n      and\n      dup2\n      mstore\n      0x20\n      add\n      swap1\n      dup2\n      mstore\n      0x20\n      add\n      0x0\n      keccak256\n        /* \"contracts/ERC721/ERC721Token.sol\":5079:5106  ownedTokens[_from].length-- */\n      dup1\n      sload\n      dup1\n      swap2\n      swap1\n      0x1\n      swap1\n      sub\n      tag_168\n      swap2\n      swap1\n      jump\t// in(tag_169)\n    tag_168:\n      pop\n        /* \"contracts/ERC721/ERC721Token.sol\":5142:5143  0 */\n      0x0\n        /* \"contracts/ERC721/ERC721Token.sol\":5113:5129  ownedTokensIndex */\n      0x7\n        /* \"contracts/ERC721/ERC721Token.sol\":5113:5139  ownedTokensIndex[_tokenId] */\n      0x0\n        /* \"contracts/ERC721/ERC721Token.sol\":5130:5138  _tokenId */\n      dup7\n        /* \"contracts/ERC721/ERC721Token.sol\":5113:5139  ownedTokensIndex[_tokenId] */\n      dup2\n      mstore\n      0x20\n      add\n      swap1\n      dup2\n      mstore\n      0x20\n      add\n      0x0\n      keccak256\n        /* \"contracts/ERC721/ERC721Token.sol\":5113:5143  ownedTokensIndex[_tokenId] = 0 */\n      dup2\n      swap1\n      sstore\n      pop\n        /* \"contracts/ERC721/ERC721Token.sol\":5180:5190  tokenIndex */\n      dup3\n        /* \"contracts/ERC721/ERC721Token.sol\":5150:5166  ownedTokensIndex */\n      0x7\n        /* \"contracts/ERC721/ERC721Token.sol\":5150:5177  ownedTokensIndex[lastToken] */\n      0x0\n        /* \"contracts/ERC721/ERC721Token.sol\":5167:5176  lastToken */\n      dup4\n        /* \"contracts/ERC721/ERC721Token.sol\":5150:5177  ownedTokensIndex[lastToken] */\n      dup2\n      mstore\n      0x20\n      add\n      swap1\n      dup2\n      mstore\n      0x20\n      add\n      0x0\n      keccak256\n        /* \"contracts/ERC721/ERC721Token.sol\":5150:5190  ownedTokensIndex[lastToken] = tokenIndex */\n      dup2\n      swap1\n      sstore\n      pop\n        /* \"contracts/ERC721/ERC721Token.sol\":4324:5196  function removeTokenFrom(address _from, uint256 _tokenId) internal {\r... */\n      pop\n      pop\n      pop\n      pop\n      pop\n      jump\t// out\n        /* \"contracts/ERC721/ERC721Token.sol\":3811:4042  function addTokenTo(address _to, uint256 _tokenId) internal {\r... */\n    tag_105:\n        /* \"contracts/ERC721/ERC721Token.sol\":3916:3930  uint256 length */\n      0x0\n        /* \"contracts/ERC721/ERC721Token.sol\":3878:3909  super.addTokenTo(_to, _tokenId) */\n      tag_171\n        /* \"contracts/ERC721/ERC721Token.sol\":3895:3898  _to */\n      dup4\n        /* \"contracts/ERC721/ERC721Token.sol\":3900:3908  _tokenId */\n      dup4\n        /* \"contracts/ERC721/ERC721Token.sol\":3878:3894  super.addTokenTo */\n      tag_172\n        /* \"contracts/ERC721/ERC721Token.sol\":3878:3909  super.addTokenTo(_to, _tokenId) */\n      jump\t// in\n    tag_171:\n        /* \"contracts/ERC721/ERC721Token.sol\":3933:3944  ownedTokens */\n      0x6\n        /* \"contracts/ERC721/ERC721Token.sol\":3933:3949  ownedTokens[_to] */\n      0x0\n        /* \"contracts/ERC721/ERC721Token.sol\":3945:3948  _to */\n      dup5\n        /* \"contracts/ERC721/ERC721Token.sol\":3933:3949  ownedTokens[_to] */\n      0xffffffffffffffffffffffffffffffffffffffff\n      and\n      0xffffffffffffffffffffffffffffffffffffffff\n      and\n      dup2\n      mstore\n      0x20\n      add\n      swap1\n      dup2\n      mstore\n      0x20\n      add\n      0x0\n      keccak256\n        /* \"contracts/ERC721/ERC721Token.sol\":3933:3956  ownedTokens[_to].length */\n      dup1\n      sload\n      swap1\n      pop\n        /* \"contracts/ERC721/ERC721Token.sol\":3916:3956  uint256 length = ownedTokens[_to].length */\n      swap1\n      pop\n        /* \"contracts/ERC721/ERC721Token.sol\":3963:3974  ownedTokens */\n      0x6\n        /* \"contracts/ERC721/ERC721Token.sol\":3963:3979  ownedTokens[_to] */\n      0x0\n        /* \"contracts/ERC721/ERC721Token.sol\":3975:3978  _to */\n      dup5\n        /* \"contracts/ERC721/ERC721Token.sol\":3963:3979  ownedTokens[_to] */\n      0xffffffffffffffffffffffffffffffffffffffff\n      and\n      0xffffffffffffffffffffffffffffffffffffffff\n      and\n      dup2\n      mstore\n      0x20\n      add\n      swap1\n      dup2\n      mstore\n      0x20\n      add\n      0x0\n      keccak256\n        /* \"contracts/ERC721/ERC721Token.sol\":3985:3993  _tokenId */\n      dup3\n        /* \"contracts/ERC721/ERC721Token.sol\":3963:3994  ownedTokens[_to].push(_tokenId) */\n      swap1\n      dup1\n        /* \"--CODEGEN--\":39:40   */\n      0x1\n        /* \"--CODEGEN--\":33:36   */\n      dup2\n        /* \"--CODEGEN--\":27:37   */\n      sload\n        /* \"--CODEGEN--\":23:41   */\n      add\n        /* \"--CODEGEN--\":57:67   */\n      dup1\n        /* \"--CODEGEN--\":52:55   */\n      dup3\n        /* \"--CODEGEN--\":45:68   */\n      sstore\n        /* \"--CODEGEN--\":79:89   */\n      dup1\n        /* \"--CODEGEN--\":72:89   */\n      swap2\n      pop\n        /* \"--CODEGEN--\":0:93   */\n      pop\n        /* \"contracts/ERC721/ERC721Token.sol\":3963:3994  ownedTokens[_to].push(_tokenId) */\n      swap1\n      0x1\n      dup3\n      sub\n      swap1\n      0x0\n      mstore\n      keccak256(0x0, 0x20)\n      add\n      0x0\n      swap1\n      swap2\n      swap3\n      swap1\n      swap2\n      swap1\n      swap2\n      pop\n      sstore\n      pop\n        /* \"contracts/ERC721/ERC721Token.sol\":4030:4036  length */\n      dup1\n        /* \"contracts/ERC721/ERC721Token.sol\":4001:4017  ownedTokensIndex */\n      0x7\n        /* \"contracts/ERC721/ERC721Token.sol\":4001:4027  ownedTokensIndex[_tokenId] */\n      0x0\n        /* \"contracts/ERC721/ERC721Token.sol\":4018:4026  _tokenId */\n      dup5\n        /* \"contracts/ERC721/ERC721Token.sol\":4001:4027  ownedTokensIndex[_tokenId] */\n      dup2\n      mstore\n      0x20\n      add\n      swap1\n      dup2\n      mstore\n      0x20\n      add\n      0x0\n      keccak256\n        /* \"contracts/ERC721/ERC721Token.sol\":4001:4036  ownedTokensIndex[_tokenId] = length */\n      dup2\n      swap1\n      sstore\n      pop\n        /* \"contracts/ERC721/ERC721Token.sol\":3811:4042  function addTokenTo(address _to, uint256 _tokenId) internal {\r... */\n      pop\n      pop\n      pop\n      jump\t// out\n        /* \"contracts/ERC721/ERC721BasicToken.sol\":10700:11042  function checkAndCallSafeTransfer(\r... */\n    tag_138:\n        /* \"contracts/ERC721/ERC721BasicToken.sol\":10846:10850  bool */\n      0x0\n        /* \"contracts/ERC721/ERC721BasicToken.sol\":10919:10932  bytes4 retval */\n      dup1\n        /* \"contracts/ERC721/ERC721BasicToken.sol\":10867:10883  _to.isContract() */\n      tag_175\n        /* \"contracts/ERC721/ERC721BasicToken.sol\":10867:10870  _to */\n      dup6\n        /* \"contracts/ERC721/ERC721BasicToken.sol\":10867:10881  _to.isContract */\n      0xffffffffffffffffffffffffffffffffffffffff\n      and\n      tag_176\n        /* \"contracts/ERC721/ERC721BasicToken.sol\":10867:10883  _to.isContract() */\n      jump\t// in\n    tag_175:\n        /* \"contracts/ERC721/ERC721BasicToken.sol\":10866:10883  !_to.isContract() */\n      iszero\n        /* \"contracts/ERC721/ERC721BasicToken.sol\":10862:10913  if (!_to.isContract()) {\r... */\n      iszero\n      tag_177\n      jumpi\n        /* \"contracts/ERC721/ERC721BasicToken.sol\":10901:10905  true */\n      0x1\n        /* \"contracts/ERC721/ERC721BasicToken.sol\":10894:10905  return true */\n      swap2\n      pop\n      jump(tag_174)\n        /* \"contracts/ERC721/ERC721BasicToken.sol\":10862:10913  if (!_to.isContract()) {\r... */\n    tag_177:\n        /* \"contracts/ERC721/ERC721BasicToken.sol\":10950:10953  _to */\n      dup5\n        /* \"contracts/ERC721/ERC721BasicToken.sol\":10935:10971  ERC721Receiver(_to).onERC721Received */\n      0xffffffffffffffffffffffffffffffffffffffff\n      and\n      0xf0b9e5ba\n        /* \"contracts/ERC721/ERC721BasicToken.sol\":10972:10977  _from */\n      dup8\n        /* \"contracts/ERC721/ERC721BasicToken.sol\":10979:10987  _tokenId */\n      dup7\n        /* \"contracts/ERC721/ERC721BasicToken.sol\":10989:10994  _data */\n      dup7\n        /* \"contracts/ERC721/ERC721BasicToken.sol\":10935:10995  ERC721Receiver(_to).onERC721Received(_from, _tokenId, _data) */\n      mload(0x40)\n      dup5\n      0xffffffff\n      and\n      0x100000000000000000000000000000000000000000000000000000000\n      mul\n      dup2\n      mstore\n      0x4\n      add\n      dup1\n      dup5\n      0xffffffffffffffffffffffffffffffffffffffff\n      and\n      0xffffffffffffffffffffffffffffffffffffffff\n      and\n      dup2\n      mstore\n      0x20\n      add\n      dup4\n      dup2\n      mstore\n      0x20\n      add\n      dup1\n      0x20\n      add\n      dup3\n      dup2\n      sub\n      dup3\n      mstore\n      dup4\n      dup2\n      dup2\n      mload\n      dup2\n      mstore\n      0x20\n      add\n      swap2\n      pop\n      dup1\n      mload\n      swap1\n      0x20\n      add\n      swap1\n      dup1\n      dup4\n      dup4\n        /* \"--CODEGEN--\":23:24   */\n      0x0\n        /* \"--CODEGEN--\":8:108   */\n    tag_178:\n        /* \"--CODEGEN--\":33:36   */\n      dup4\n        /* \"--CODEGEN--\":30:31   */\n      dup2\n        /* \"--CODEGEN--\":27:37   */\n      lt\n        /* \"--CODEGEN--\":8:108   */\n      iszero\n      tag_179\n      jumpi\n        /* \"--CODEGEN--\":99:100   */\n      dup1\n        /* \"--CODEGEN--\":94:97   */\n      dup3\n        /* \"--CODEGEN--\":90:101   */\n      add\n        /* \"--CODEGEN--\":84:102   */\n      mload\n        /* \"--CODEGEN--\":80:81   */\n      dup2\n        /* \"--CODEGEN--\":75:78   */\n      dup5\n        /* \"--CODEGEN--\":71:82   */\n      add\n        /* \"--CODEGEN--\":64:103   */\n      mstore\n        /* \"--CODEGEN--\":52:54   */\n      0x20\n        /* \"--CODEGEN--\":49:50   */\n      dup2\n        /* \"--CODEGEN--\":45:55   */\n      add\n        /* \"--CODEGEN--\":40:55   */\n      swap1\n      pop\n        /* \"--CODEGEN--\":8:108   */\n      jump(tag_178)\n    tag_179:\n        /* \"--CODEGEN--\":12:26   */\n      pop\n        /* \"contracts/ERC721/ERC721BasicToken.sol\":10935:10995  ERC721Receiver(_to).onERC721Received(_from, _tokenId, _data) */\n      pop\n      pop\n      pop\n      swap1\n      pop\n      swap1\n      dup2\n      add\n      swap1\n      0x1f\n      and\n      dup1\n      iszero\n      tag_181\n      jumpi\n      dup1\n      dup3\n      sub\n      dup1\n      mload\n      0x1\n      dup4\n      0x20\n      sub\n      0x100\n      exp\n      sub\n      not\n      and\n      dup2\n      mstore\n      0x20\n      add\n      swap2\n      pop\n    tag_181:\n      pop\n      swap5\n      pop\n      pop\n      pop\n      pop\n      pop\n      0x20\n      mload(0x40)\n      dup1\n      dup4\n      sub\n      dup2\n      0x0\n      dup8\n      dup1\n      extcodesize\n      iszero\n        /* \"--CODEGEN--\":8:17   */\n      dup1\n        /* \"--CODEGEN--\":5:7   */\n      iszero\n      tag_182\n      jumpi\n        /* \"--CODEGEN--\":30:31   */\n      0x0\n        /* \"--CODEGEN--\":27:28   */\n      dup1\n        /* \"--CODEGEN--\":20:32   */\n      revert\n        /* \"--CODEGEN--\":5:7   */\n    tag_182:\n        /* \"contracts/ERC721/ERC721BasicToken.sol\":10935:10995  ERC721Receiver(_to).onERC721Received(_from, _tokenId, _data) */\n      pop\n      gas\n      call\n      iszero\n        /* \"--CODEGEN--\":8:17   */\n      dup1\n        /* \"--CODEGEN--\":5:7   */\n      iszero\n      tag_183\n      jumpi\n        /* \"--CODEGEN--\":45:61   */\n      returndatasize\n        /* \"--CODEGEN--\":42:43   */\n      0x0\n        /* \"--CODEGEN--\":39:40   */\n      dup1\n        /* \"--CODEGEN--\":24:62   */\n      returndatacopy\n        /* \"--CODEGEN--\":77:93   */\n      returndatasize\n        /* \"--CODEGEN--\":74:75   */\n      0x0\n        /* \"--CODEGEN--\":67:94   */\n      revert\n        /* \"--CODEGEN--\":5:7   */\n    tag_183:\n        /* \"contracts/ERC721/ERC721BasicToken.sol\":10935:10995  ERC721Receiver(_to).onERC721Received(_from, _tokenId, _data) */\n      pop\n      pop\n      pop\n      pop\n      mload(0x40)\n      returndatasize\n        /* \"--CODEGEN--\":13:15   */\n      0x20\n        /* \"--CODEGEN--\":8:11   */\n      dup2\n        /* \"--CODEGEN--\":5:16   */\n      lt\n        /* \"--CODEGEN--\":2:4   */\n      iszero\n      tag_184\n      jumpi\n        /* \"--CODEGEN--\":29:30   */\n      0x0\n        /* \"--CODEGEN--\":26:27   */\n      dup1\n        /* \"--CODEGEN--\":19:31   */\n      revert\n        /* \"--CODEGEN--\":2:4   */\n    tag_184:\n        /* \"contracts/ERC721/ERC721BasicToken.sol\":10935:10995  ERC721Receiver(_to).onERC721Received(_from, _tokenId, _data) */\n      dup2\n      add\n      swap1\n      dup1\n      dup1\n      mload\n      swap1\n      0x20\n      add\n      swap1\n      swap3\n      swap2\n      swap1\n      pop\n      pop\n      pop\n        /* \"contracts/ERC721/ERC721BasicToken.sol\":10919:10995  bytes4 retval = ERC721Receiver(_to).onERC721Received(_from, _tokenId, _data) */\n      swap1\n      pop\n        /* \"contracts/ERC721/ERC721BasicToken.sol\":628:638  0xf0b9e5ba */\n      0xf0b9e5ba\n        /* \"contracts/ERC721/ERC721BasicToken.sol\":11020:11035  ERC721_RECEIVED */\n      0x100000000000000000000000000000000000000000000000000000000\n      mul\n        /* \"contracts/ERC721/ERC721BasicToken.sol\":11010:11035  retval == ERC721_RECEIVED */\n      not(0xffffffffffffffffffffffffffffffffffffffffffffffffffffffff)\n      and\n        /* \"contracts/ERC721/ERC721BasicToken.sol\":11010:11016  retval */\n      dup2\n        /* \"contracts/ERC721/ERC721BasicToken.sol\":11010:11035  retval == ERC721_RECEIVED */\n      not(0xffffffffffffffffffffffffffffffffffffffffffffffffffffffff)\n      and\n      eq\n        /* \"contracts/ERC721/ERC721BasicToken.sol\":11002:11036  return (retval == ERC721_RECEIVED) */\n      swap2\n      pop\n        /* \"contracts/ERC721/ERC721BasicToken.sol\":10700:11042  function checkAndCallSafeTransfer(\r... */\n    tag_174:\n      pop\n      swap5\n      swap4\n      pop\n      pop\n      pop\n      pop\n      jump\t// out\n        /* \"contracts/ERC721/ERC721BasicToken.sol\":9968:10186  function removeTokenFrom(address _from, uint256 _tokenId) internal {\r... */\n    tag_159:\n        /* \"contracts/ERC721/ERC721BasicToken.sol\":10071:10076  _from */\n      dup2\n        /* \"contracts/ERC721/ERC721BasicToken.sol\":10050:10076  ownerOf(_tokenId) == _from */\n      0xffffffffffffffffffffffffffffffffffffffff\n      and\n        /* \"contracts/ERC721/ERC721BasicToken.sol\":10050:10067  ownerOf(_tokenId) */\n      tag_186\n        /* \"contracts/ERC721/ERC721BasicToken.sol\":10058:10066  _tokenId */\n      dup3\n        /* \"contracts/ERC721/ERC721BasicToken.sol\":10050:10057  ownerOf */\n      tag_51\n        /* \"contracts/ERC721/ERC721BasicToken.sol\":10050:10067  ownerOf(_tokenId) */\n      jump\t// in\n    tag_186:\n        /* \"contracts/ERC721/ERC721BasicToken.sol\":10050:10076  ownerOf(_tokenId) == _from */\n      0xffffffffffffffffffffffffffffffffffffffff\n      and\n      eq\n        /* \"contracts/ERC721/ERC721BasicToken.sol\":10042:10077  require(ownerOf(_tokenId) == _from) */\n      iszero\n      iszero\n      tag_187\n      jumpi\n      0x0\n      dup1\n      revert\n    tag_187:\n        /* \"contracts/ERC721/ERC721BasicToken.sol\":10110:10140  ownedTokensCount[_from].sub(1) */\n      tag_188\n        /* \"contracts/ERC721/ERC721BasicToken.sol\":10138:10139  1 */\n      0x1\n        /* \"contracts/ERC721/ERC721BasicToken.sol\":10110:10126  ownedTokensCount */\n      0x2\n        /* \"contracts/ERC721/ERC721BasicToken.sol\":10110:10133  ownedTokensCount[_from] */\n      0x0\n        /* \"contracts/ERC721/ERC721BasicToken.sol\":10127:10132  _from */\n      dup6\n        /* \"contracts/ERC721/ERC721BasicToken.sol\":10110:10133  ownedTokensCount[_from] */\n      0xffffffffffffffffffffffffffffffffffffffff\n      and\n      0xffffffffffffffffffffffffffffffffffffffff\n      and\n      dup2\n      mstore\n      0x20\n      add\n      swap1\n      dup2\n      mstore\n      0x20\n      add\n      0x0\n      keccak256\n      sload\n        /* \"contracts/ERC721/ERC721BasicToken.sol\":10110:10137  ownedTokensCount[_from].sub */\n      tag_161\n      swap1\n        /* \"contracts/ERC721/ERC721BasicToken.sol\":10110:10140  ownedTokensCount[_from].sub(1) */\n      swap2\n      swap1\n      0xffffffff\n      and\n      jump\t// in\n    tag_188:\n        /* \"contracts/ERC721/ERC721BasicToken.sol\":10084:10100  ownedTokensCount */\n      0x2\n        /* \"contracts/ERC721/ERC721BasicToken.sol\":10084:10107  ownedTokensCount[_from] */\n      0x0\n        /* \"contracts/ERC721/ERC721BasicToken.sol\":10101:10106  _from */\n      dup5\n        /* \"contracts/ERC721/ERC721BasicToken.sol\":10084:10107  ownedTokensCount[_from] */\n      0xffffffffffffffffffffffffffffffffffffffff\n      and\n      0xffffffffffffffffffffffffffffffffffffffff\n      and\n      dup2\n      mstore\n      0x20\n      add\n      swap1\n      dup2\n      mstore\n      0x20\n      add\n      0x0\n      keccak256\n        /* \"contracts/ERC721/ERC721BasicToken.sol\":10084:10140  ownedTokensCount[_from] = ownedTokensCount[_from].sub(1) */\n      dup2\n      swap1\n      sstore\n      pop\n        /* \"contracts/ERC721/ERC721BasicToken.sol\":10178:10179  0 */\n      0x0\n        /* \"contracts/ERC721/ERC721BasicToken.sol\":10147:10157  tokenOwner */\n      dup1\n        /* \"contracts/ERC721/ERC721BasicToken.sol\":10147:10167  tokenOwner[_tokenId] */\n      0x0\n        /* \"contracts/ERC721/ERC721BasicToken.sol\":10158:10166  _tokenId */\n      dup4\n        /* \"contracts/ERC721/ERC721BasicToken.sol\":10147:10167  tokenOwner[_tokenId] */\n      dup2\n      mstore\n      0x20\n      add\n      swap1\n      dup2\n      mstore\n      0x20\n      add\n      0x0\n      keccak256\n      0x0\n        /* \"contracts/ERC721/ERC721BasicToken.sol\":10147:10180  tokenOwner[_tokenId] = address(0) */\n      0x100\n      exp\n      dup2\n      sload\n      dup2\n      0xffffffffffffffffffffffffffffffffffffffff\n      mul\n      not\n      and\n      swap1\n      dup4\n      0xffffffffffffffffffffffffffffffffffffffff\n      and\n      mul\n      or\n      swap1\n      sstore\n      pop\n        /* \"contracts/ERC721/ERC721BasicToken.sol\":9968:10186  function removeTokenFrom(address _from, uint256 _tokenId) internal {\r... */\n      pop\n      pop\n      jump\t// out\n        /* \"contracts/utils/math/SafeMath.sol\":876:989  function sub(uint256 a, uint256 b) internal pure returns (uint256) {\r... */\n    tag_161:\n        /* \"contracts/utils/math/SafeMath.sol\":934:941  uint256 */\n      0x0\n        /* \"contracts/utils/math/SafeMath.sol\":962:963  a */\n      dup3\n        /* \"contracts/utils/math/SafeMath.sol\":957:958  b */\n      dup3\n        /* \"contracts/utils/math/SafeMath.sol\":957:963  b <= a */\n      gt\n      iszero\n        /* \"contracts/utils/math/SafeMath.sol\":950:964  assert(b <= a) */\n      iszero\n      iszero\n      tag_190\n      jumpi\n      invalid\n    tag_190:\n        /* \"contracts/utils/math/SafeMath.sol\":982:983  b */\n      dup2\n        /* \"contracts/utils/math/SafeMath.sol\":978:979  a */\n      dup4\n        /* \"contracts/utils/math/SafeMath.sol\":978:983  a - b */\n      sub\n        /* \"contracts/utils/math/SafeMath.sol\":971:983  return a - b */\n      swap1\n      pop\n        /* \"contracts/utils/math/SafeMath.sol\":876:989  function sub(uint256 a, uint256 b) internal pure returns (uint256) {\r... */\n      swap3\n      swap2\n      pop\n      pop\n      jump\t// out\n        /* \"contracts/ERC721/ERC721BasicToken.sol\":9478:9686  function addTokenTo(address _to, uint256 _tokenId) internal {\r... */\n    tag_172:\n        /* \"contracts/ERC721/ERC721BasicToken.sol\":9585:9586  0 */\n      0x0\n        /* \"contracts/ERC721/ERC721BasicToken.sol\":9553:9587  tokenOwner[_tokenId] == address(0) */\n      0xffffffffffffffffffffffffffffffffffffffff\n      and\n        /* \"contracts/ERC721/ERC721BasicToken.sol\":9553:9563  tokenOwner */\n      0x0\n        /* \"contracts/ERC721/ERC721BasicToken.sol\":9553:9573  tokenOwner[_tokenId] */\n      dup1\n        /* \"contracts/ERC721/ERC721BasicToken.sol\":9564:9572  _tokenId */\n      dup4\n        /* \"contracts/ERC721/ERC721BasicToken.sol\":9553:9573  tokenOwner[_tokenId] */\n      dup2\n      mstore\n      0x20\n      add\n      swap1\n      dup2\n      mstore\n      0x20\n      add\n      0x0\n      keccak256\n      0x0\n      swap1\n      sload\n      swap1\n      0x100\n      exp\n      swap1\n      div\n      0xffffffffffffffffffffffffffffffffffffffff\n      and\n        /* \"contracts/ERC721/ERC721BasicToken.sol\":9553:9587  tokenOwner[_tokenId] == address(0) */\n      0xffffffffffffffffffffffffffffffffffffffff\n      and\n      eq\n        /* \"contracts/ERC721/ERC721BasicToken.sol\":9545:9588  require(tokenOwner[_tokenId] == address(0)) */\n      iszero\n      iszero\n      tag_192\n      jumpi\n      0x0\n      dup1\n      revert\n    tag_192:\n        /* \"contracts/ERC721/ERC721BasicToken.sol\":9618:9621  _to */\n      dup2\n        /* \"contracts/ERC721/ERC721BasicToken.sol\":9595:9605  tokenOwner */\n      0x0\n        /* \"contracts/ERC721/ERC721BasicToken.sol\":9595:9615  tokenOwner[_tokenId] */\n      dup1\n        /* \"contracts/ERC721/ERC721BasicToken.sol\":9606:9614  _tokenId */\n      dup4\n        /* \"contracts/ERC721/ERC721BasicToken.sol\":9595:9615  tokenOwner[_tokenId] */\n      dup2\n      mstore\n      0x20\n      add\n      swap1\n      dup2\n      mstore\n      0x20\n      add\n      0x0\n      keccak256\n      0x0\n        /* \"contracts/ERC721/ERC721BasicToken.sol\":9595:9621  tokenOwner[_tokenId] = _to */\n      0x100\n      exp\n      dup2\n      sload\n      dup2\n      0xffffffffffffffffffffffffffffffffffffffff\n      mul\n      not\n      and\n      swap1\n      dup4\n      0xffffffffffffffffffffffffffffffffffffffff\n      and\n      mul\n      or\n      swap1\n      sstore\n      pop\n        /* \"contracts/ERC721/ERC721BasicToken.sol\":9652:9680  ownedTokensCount[_to].add(1) */\n      tag_193\n        /* \"contracts/ERC721/ERC721BasicToken.sol\":9678:9679  1 */\n      0x1\n        /* \"contracts/ERC721/ERC721BasicToken.sol\":9652:9668  ownedTokensCount */\n      0x2\n        /* \"contracts/ERC721/ERC721BasicToken.sol\":9652:9673  ownedTokensCount[_to] */\n      0x0\n        /* \"contracts/ERC721/ERC721BasicToken.sol\":9669:9672  _to */\n      dup6\n        /* \"contracts/ERC721/ERC721BasicToken.sol\":9652:9673  ownedTokensCount[_to] */\n      0xffffffffffffffffffffffffffffffffffffffff\n      and\n      0xffffffffffffffffffffffffffffffffffffffff\n      and\n      dup2\n      mstore\n      0x20\n      add\n      swap1\n      dup2\n      mstore\n      0x20\n      add\n      0x0\n      keccak256\n      sload\n        /* \"contracts/ERC721/ERC721BasicToken.sol\":9652:9677  ownedTokensCount[_to].add */\n      tag_194\n      swap1\n        /* \"contracts/ERC721/ERC721BasicToken.sol\":9652:9680  ownedTokensCount[_to].add(1) */\n      swap2\n      swap1\n      0xffffffff\n      and\n      jump\t// in\n    tag_193:\n        /* \"contracts/ERC721/ERC721BasicToken.sol\":9628:9644  ownedTokensCount */\n      0x2\n        /* \"contracts/ERC721/ERC721BasicToken.sol\":9628:9649  ownedTokensCount[_to] */\n      0x0\n        /* \"contracts/ERC721/ERC721BasicToken.sol\":9645:9648  _to */\n      dup5\n        /* \"contracts/ERC721/ERC721BasicToken.sol\":9628:9649  ownedTokensCount[_to] */\n      0xffffffffffffffffffffffffffffffffffffffff\n      and\n      0xffffffffffffffffffffffffffffffffffffffff\n      and\n      dup2\n      mstore\n      0x20\n      add\n      swap1\n      dup2\n      mstore\n      0x20\n      add\n      0x0\n      keccak256\n        /* \"contracts/ERC721/ERC721BasicToken.sol\":9628:9680  ownedTokensCount[_to] = ownedTokensCount[_to].add(1) */\n      dup2\n      swap1\n      sstore\n      pop\n        /* \"contracts/ERC721/ERC721BasicToken.sol\":9478:9686  function addTokenTo(address _to, uint256 _tokenId) internal {\r... */\n      pop\n      pop\n      jump\t// out\n        /* \"contracts/utils/AddressUtils.sol\":453:1031  function isContract(address addr) internal view returns (bool) {\r... */\n    tag_176:\n        /* \"contracts/utils/AddressUtils.sol\":510:514  bool */\n      0x0\n        /* \"contracts/utils/AddressUtils.sol\":523:535  uint256 size */\n      dup1\n        /* \"contracts/utils/AddressUtils.sol\":945:949  addr */\n      dup3\n        /* \"contracts/utils/AddressUtils.sol\":933:950  extcodesize(addr) */\n      extcodesize\n        /* \"contracts/utils/AddressUtils.sol\":925:950  size := extcodesize(addr) */\n      swap1\n      pop\n        /* \"contracts/utils/AddressUtils.sol\":1024:1025  0 */\n      0x0\n        /* \"contracts/utils/AddressUtils.sol\":1017:1021  size */\n      dup2\n        /* \"contracts/utils/AddressUtils.sol\":1017:1025  size > 0 */\n      gt\n        /* \"contracts/utils/AddressUtils.sol\":1010:1025  return size > 0 */\n      swap2\n      pop\n        /* \"contracts/utils/AddressUtils.sol\":453:1031  function isContract(address addr) internal view returns (bool) {\r... */\n      pop\n      swap2\n      swap1\n      pop\n      jump\t// out\n        /* \"contracts/utils/math/SafeMath.sol\":1056:1189  function add(uint256 a, uint256 b) internal pure returns (uint256) {\r... */\n    tag_194:\n        /* \"contracts/utils/math/SafeMath.sol\":1114:1121  uint256 */\n      0x0\n        /* \"contracts/utils/math/SafeMath.sol\":1130:1139  uint256 c */\n      dup1\n        /* \"contracts/utils/math/SafeMath.sol\":1146:1147  b */\n      dup3\n        /* \"contracts/utils/math/SafeMath.sol\":1142:1143  a */\n      dup5\n        /* \"contracts/utils/math/SafeMath.sol\":1142:1147  a + b */\n      add\n        /* \"contracts/utils/math/SafeMath.sol\":1130:1147  uint256 c = a + b */\n      swap1\n      pop\n        /* \"contracts/utils/math/SafeMath.sol\":1166:1167  a */\n      dup4\n        /* \"contracts/utils/math/SafeMath.sol\":1161:1162  c */\n      dup2\n        /* \"contracts/utils/math/SafeMath.sol\":1161:1167  c >= a */\n      lt\n      iszero\n        /* \"contracts/utils/math/SafeMath.sol\":1154:1168  assert(c >= a) */\n      iszero\n      iszero\n      tag_197\n      jumpi\n      invalid\n    tag_197:\n        /* \"contracts/utils/math/SafeMath.sol\":1182:1183  c */\n      dup1\n        /* \"contracts/utils/math/SafeMath.sol\":1175:1183  return c */\n      swap2\n      pop\n        /* \"contracts/utils/math/SafeMath.sol\":1056:1189  function add(uint256 a, uint256 b) internal pure returns (uint256) {\r... */\n      pop\n      swap3\n      swap2\n      pop\n      pop\n      jump\t// out\n        /* \"contracts/ERC721/ERC721Token.sol\":421:6491  contract ERC721Token is ERC721, ERC721BasicToken {\r... */\n    tag_169:\n      dup2\n      sload\n      dup2\n      dup4\n      sstore\n      dup2\n      dup2\n      gt\n      iszero\n      tag_198\n      jumpi\n      dup2\n      dup4\n      0x0\n      mstore\n      keccak256(0x0, 0x20)\n      swap2\n      dup3\n      add\n      swap2\n      add\n      tag_199\n      swap2\n      swap1\n      jump\t// in(tag_200)\n    tag_199:\n    tag_198:\n      pop\n      pop\n      pop\n      jump\t// out\n    tag_200:\n      tag_201\n      swap2\n      swap1\n    tag_202:\n      dup1\n      dup3\n      gt\n      iszero\n      tag_203\n      jumpi\n      0x0\n      dup2\n      0x0\n      swap1\n      sstore\n      pop\n      0x1\n      add\n      jump(tag_202)\n    tag_203:\n      pop\n      swap1\n      jump\n    tag_201:\n      swap1\n      jump\t// out\n\n    auxdata: 0xa165627a7a723058204eff0626466477ba3df34d9fe6a1615f04ea8a02dc83759a00d24252a4eeda1c0029\n}\n",
				"bytecode": {
					"linkReferences": {},
					"object": "60806040523480156200001157600080fd5b5060405162001c9538038062001c9583398101806040528101908080518201929190602001805182019291905050508160049080519060200190620000589291906200007a565b508060059080519060200190620000719291906200007a565b50505062000129565b828054600181600116156101000203166002900490600052602060002090601f016020900481019282601f10620000bd57805160ff1916838001178555620000ee565b82800160010185558215620000ee579182015b82811115620000ed578251825591602001919060010190620000d0565b5b509050620000fd919062000101565b5090565b6200012691905b808211156200012257600081600090555060010162000108565b5090565b90565b611b5c80620001396000396000f3006080604052600436106100e6576000357c0100000000000000000000000000000000000000000000000000000000900463ffffffff16806306fdde03146100eb578063081812fc1461017b578063095ea7b3146101e857806318160ddd1461023557806323b872dd146102605780632f745c59146102cd57806342842e0e1461032e5780634f558e791461039b5780634f6ccce7146103e05780636352211e1461042157806370a082311461048e57806395d89b41146104e5578063a22cb46514610575578063b88d4fde146105c4578063c87b56dd14610677578063e985e9c51461071d575b600080fd5b3480156100f757600080fd5b50610100610798565b6040518080602001828103825283818151815260200191508051906020019080838360005b83811015610140578082015181840152602081019050610125565b50505050905090810190601f16801561016d5780820380516001836020036101000a031916815260200191505b509250505060405180910390f35b34801561018757600080fd5b506101a66004803603810190808035906020019092919050505061083a565b604051808273ffffffffffffffffffffffffffffffffffffffff1673ffffffffffffffffffffffffffffffffffffffff16815260200191505060405180910390f35b3480156101f457600080fd5b50610233600480360381019080803573ffffffffffffffffffffffffffffffffffffffff16906020019092919080359060200190929190505050610877565b005b34801561024157600080fd5b5061024a610a3d565b6040518082815260200191505060405180910390f35b34801561026c57600080fd5b506102cb600480360381019080803573ffffffffffffffffffffffffffffffffffffffff169060200190929190803573ffffffffffffffffffffffffffffffffffffffff16906020019092919080359060200190929190505050610a4a565b005b3480156102d957600080fd5b50610318600480360381019080803573ffffffffffffffffffffffffffffffffffffffff16906020019092919080359060200190929190505050610b61565b6040518082815260200191505060405180910390f35b34801561033a57600080fd5b50610399600480360381019080803573ffffffffffffffffffffffffffffffffffffffff169060200190929190803573ffffffffffffffffffffffffffffffffffffffff16906020019092919080359060200190929190505050610bd8565b005b3480156103a757600080fd5b506103c660048036038101908080359060200190929190505050610c10565b604051808215151515815260200191505060405180910390f35b3480156103ec57600080fd5b5061040b60048036038101908080359060200190929190505050610c81565b6040518082815260200191505060405180910390f35b34801561042d57600080fd5b5061044c60048036038101908080359060200190929190505050610cb9565b604051808273ffffffffffffffffffffffffffffffffffffffff1673ffffffffffffffffffffffffffffffffffffffff16815260200191505060405180910390f35b34801561049a57600080fd5b506104cf600480360381019080803573ffffffffffffffffffffffffffffffffffffffff169060200190929190505050610d36565b6040518082815260200191505060405180910390f35b3480156104f157600080fd5b506104fa610dba565b6040518080602001828103825283818151815260200191508051906020019080838360005b8381101561053a57808201518184015260208101905061051f565b50505050905090810190601f1680156105675780820380516001836020036101000a031916815260200191505b509250505060405180910390f35b34801561058157600080fd5b506105c2600480360381019080803573ffffffffffffffffffffffffffffffffffffffff169060200190929190803515159060200190929190505050610e5c565b005b3480156105d057600080fd5b50610675600480360381019080803573ffffffffffffffffffffffffffffffffffffffff169060200190929190803573ffffffffffffffffffffffffffffffffffffffff16906020019092919080359060200190929190803590602001908201803590602001908080601f0160208091040260200160405190810160405280939291908181526020018383808284378201915050505050509192919290505050610f98565b005b34801561068357600080fd5b506106a260048036038101908080359060200190929190505050610fd7565b6040518080602001828103825283818151815260200191508051906020019080838360005b838110156106e25780820151818401526020810190506106c7565b50505050905090810190601f16801561070f5780820380516001836020036101000a031916815260200191505b509250505060405180910390f35b34801561072957600080fd5b5061077e600480360381019080803573ffffffffffffffffffffffffffffffffffffffff169060200190929190803573ffffffffffffffffffffffffffffffffffffffff1690602001909291905050506110a0565b604051808215151515815260200191505060405180910390f35b606060048054600181600116156101000203166002900480601f0160208091040260200160405190810160405280929190818152602001828054600181600116156101000203166002900480156108305780601f1061080557610100808354040283529160200191610830565b820191906000526020600020905b81548152906001019060200180831161081357829003601f168201915b5050505050905090565b60006001600083815260200190815260200160002060009054906101000a900473ffffffffffffffffffffffffffffffffffffffff169050919050565b600061088282610cb9565b90508073ffffffffffffffffffffffffffffffffffffffff168373ffffffffffffffffffffffffffffffffffffffff16141515156108bf57600080fd5b8073ffffffffffffffffffffffffffffffffffffffff163373ffffffffffffffffffffffffffffffffffffffff1614806108ff57506108fe81336110a0565b5b151561090a57600080fd5b600073ffffffffffffffffffffffffffffffffffffffff1661092b8361083a565b73ffffffffffffffffffffffffffffffffffffffff1614158061097b5750600073ffffffffffffffffffffffffffffffffffffffff168373ffffffffffffffffffffffffffffffffffffffff1614155b15610a3857826001600084815260200190815260200160002060006101000a81548173ffffffffffffffffffffffffffffffffffffffff021916908373ffffffffffffffffffffffffffffffffffffffff1602179055508273ffffffffffffffffffffffffffffffffffffffff168173ffffffffffffffffffffffffffffffffffffffff167f8c5be1e5ebec7d5bd14f71427d1e84f3dd0314c0f7b2291e5b200ac8c7c3b925846040518082815260200191505060405180910390a35b505050565b6000600880549050905090565b80610a553382611134565b1515610a6057600080fd5b600073ffffffffffffffffffffffffffffffffffffffff168473ffffffffffffffffffffffffffffffffffffffff1614151515610a9c57600080fd5b600073ffffffffffffffffffffffffffffffffffffffff168373ffffffffffffffffffffffffffffffffffffffff1614151515610ad857600080fd5b610ae284836111c9565b610aec8483611332565b610af6838361154a565b8273ffffffffffffffffffffffffffffffffffffffff168473ffffffffffffffffffffffffffffffffffffffff167fddf252ad1be2c89b69c2b068fc378daa952ba7f163c4a11628f55a4df523b3ef846040518082815260200191505060405180910390a350505050565b6000610b6c83610d36565b82101515610b7957600080fd5b600660008473ffffffffffffffffffffffffffffffffffffffff1673ffffffffffffffffffffffffffffffffffffffff16815260200190815260200160002082815481101515610bc557fe5b9060005260206000200154905092915050565b80610be33382611134565b1515610bee57600080fd5b610c0a8484846020604051908101604052806000815250610f98565b50505050565b60008060008084815260200190815260200160002060009054906101000a900473ffffffffffffffffffffffffffffffffffffffff169050600073ffffffffffffffffffffffffffffffffffffffff168173ffffffffffffffffffffffffffffffffffffffff161415915050919050565b6000610c8b610a3d565b82101515610c9857600080fd5b600882815481101515610ca757fe5b90600052602060002001549050919050565b60008060008084815260200190815260200160002060009054906101000a900473ffffffffffffffffffffffffffffffffffffffff169050600073ffffffffffffffffffffffffffffffffffffffff168173ffffffffffffffffffffffffffffffffffffffff1614151515610d2d57600080fd5b80915050919050565b60008073ffffffffffffffffffffffffffffffffffffffff168273ffffffffffffffffffffffffffffffffffffffff1614151515610d7357600080fd5b600260008373ffffffffffffffffffffffffffffffffffffffff1673ffffffffffffffffffffffffffffffffffffffff168152602001908152602001600020549050919050565b606060058054600181600116156101000203166002900480601f016020809104026020016040519081016040528092919081815260200182805460018160011615610100020316600290048015610e525780601f10610e2757610100808354040283529160200191610e52565b820191906000526020600020905b815481529060010190602001808311610e3557829003601f168201915b5050505050905090565b3373ffffffffffffffffffffffffffffffffffffffff168273ffffffffffffffffffffffffffffffffffffffff1614151515610e9757600080fd5b80600360003373ffffffffffffffffffffffffffffffffffffffff1673ffffffffffffffffffffffffffffffffffffffff16815260200190815260200160002060008473ffffffffffffffffffffffffffffffffffffffff1673ffffffffffffffffffffffffffffffffffffffff16815260200190815260200160002060006101000a81548160ff0219169083151502179055508173ffffffffffffffffffffffffffffffffffffffff163373ffffffffffffffffffffffffffffffffffffffff167f17307eab39ab6107e8899845ad3d59bd9653f200f220920489ca2b5937696c3183604051808215151515815260200191505060405180910390a35050565b81610fa33382611134565b1515610fae57600080fd5b610fb9858585610a4a565b610fc585858585611621565b1515610fd057600080fd5b5050505050565b6060610fe282610c10565b1515610fed57600080fd5b600a60008381526020019081526020016000208054600181600116156101000203166002900480601f0160208091040260200160405190810160405280929190818152602001828054600181600116156101000203166002900480156110945780601f1061106957610100808354040283529160200191611094565b820191906000526020600020905b81548152906001019060200180831161107757829003601f168201915b50505050509050919050565b6000600360008473ffffffffffffffffffffffffffffffffffffffff1673ffffffffffffffffffffffffffffffffffffffff16815260200190815260200160002060008373ffffffffffffffffffffffffffffffffffffffff1673ffffffffffffffffffffffffffffffffffffffff16815260200190815260200160002060009054906101000a900460ff16905092915050565b60008061114083610cb9565b90508073ffffffffffffffffffffffffffffffffffffffff168473ffffffffffffffffffffffffffffffffffffffff1614806111af57508373ffffffffffffffffffffffffffffffffffffffff166111978461083a565b73ffffffffffffffffffffffffffffffffffffffff16145b806111c057506111bf81856110a0565b5b91505092915050565b8173ffffffffffffffffffffffffffffffffffffffff166111e982610cb9565b73ffffffffffffffffffffffffffffffffffffffff1614151561120b57600080fd5b600073ffffffffffffffffffffffffffffffffffffffff166001600083815260200190815260200160002060009054906101000a900473ffffffffffffffffffffffffffffffffffffffff1673ffffffffffffffffffffffffffffffffffffffff1614151561132e5760006001600083815260200190815260200160002060006101000a81548173ffffffffffffffffffffffffffffffffffffffff021916908373ffffffffffffffffffffffffffffffffffffffff160217905550600073ffffffffffffffffffffffffffffffffffffffff168273ffffffffffffffffffffffffffffffffffffffff167f8c5be1e5ebec7d5bd14f71427d1e84f3dd0314c0f7b2291e5b200ac8c7c3b925836040518082815260200191505060405180910390a35b5050565b6000806000611341858561180f565b600760008581526020019081526020016000205492506113ad6001600660008873ffffffffffffffffffffffffffffffffffffffff1673ffffffffffffffffffffffffffffffffffffffff1681526020019081526020016000208054905061193d90919063ffffffff16565b9150600660008673ffffffffffffffffffffffffffffffffffffffff1673ffffffffffffffffffffffffffffffffffffffff168152602001908152602001600020828154811015156113fb57fe5b9060005260206000200154905080600660008773ffffffffffffffffffffffffffffffffffffffff1673ffffffffffffffffffffffffffffffffffffffff1681526020019081526020016000208481548110151561145557fe5b90600052602060002001819055506000600660008773ffffffffffffffffffffffffffffffffffffffff1673ffffffffffffffffffffffffffffffffffffffff168152602001908152602001600020838154811015156114b157fe5b9060005260206000200181905550600660008673ffffffffffffffffffffffffffffffffffffffff1673ffffffffffffffffffffffffffffffffffffffff1681526020019081526020016000208054809190600190036115119190611adf565b50600060076000868152602001908152602001600020819055508260076000838152602001908152602001600020819055505050505050565b60006115568383611956565b600660008473ffffffffffffffffffffffffffffffffffffffff1673ffffffffffffffffffffffffffffffffffffffff168152602001908152602001600020805490509050600660008473ffffffffffffffffffffffffffffffffffffffff1673ffffffffffffffffffffffffffffffffffffffff168152602001908152602001600020829080600181540180825580915050906001820390600052602060002001600090919290919091505550806007600084815260200190815260200160002081905550505050565b6000806116438573ffffffffffffffffffffffffffffffffffffffff16611aae565b15156116525760019150611806565b8473ffffffffffffffffffffffffffffffffffffffff1663f0b9e5ba8786866040518463ffffffff167c0100000000000000000000000000000000000000000000000000000000028152600401808473ffffffffffffffffffffffffffffffffffffffff1673ffffffffffffffffffffffffffffffffffffffff16815260200183815260200180602001828103825283818151815260200191508051906020019080838360005b838110156117145780820151818401526020810190506116f9565b50505050905090810190601f1680156117415780820380516001836020036101000a031916815260200191505b50945050505050602060405180830381600087803b15801561176257600080fd5b505af1158015611776573d6000803e3d6000fd5b505050506040513d602081101561178c57600080fd5b8101908080519060200190929190505050905063f0b9e5ba7c0100000000000000000000000000000000000000000000000000000000027bffffffffffffffffffffffffffffffffffffffffffffffffffffffff1916817bffffffffffffffffffffffffffffffffffffffffffffffffffffffff19161491505b50949350505050565b8173ffffffffffffffffffffffffffffffffffffffff1661182f82610cb9565b73ffffffffffffffffffffffffffffffffffffffff1614151561185157600080fd5b6118a46001600260008573ffffffffffffffffffffffffffffffffffffffff1673ffffffffffffffffffffffffffffffffffffffff1681526020019081526020016000205461193d90919063ffffffff16565b600260008473ffffffffffffffffffffffffffffffffffffffff1673ffffffffffffffffffffffffffffffffffffffff16815260200190815260200160002081905550600080600083815260200190815260200160002060006101000a81548173ffffffffffffffffffffffffffffffffffffffff021916908373ffffffffffffffffffffffffffffffffffffffff1602179055505050565b600082821115151561194b57fe5b818303905092915050565b600073ffffffffffffffffffffffffffffffffffffffff1660008083815260200190815260200160002060009054906101000a900473ffffffffffffffffffffffffffffffffffffffff1673ffffffffffffffffffffffffffffffffffffffff161415156119c357600080fd5b8160008083815260200190815260200160002060006101000a81548173ffffffffffffffffffffffffffffffffffffffff021916908373ffffffffffffffffffffffffffffffffffffffff160217905550611a676001600260008573ffffffffffffffffffffffffffffffffffffffff1673ffffffffffffffffffffffffffffffffffffffff16815260200190815260200160002054611ac190919063ffffffff16565b600260008473ffffffffffffffffffffffffffffffffffffffff1673ffffffffffffffffffffffffffffffffffffffff168152602001908152602001600020819055505050565b600080823b905060008111915050919050565b6000808284019050838110151515611ad557fe5b8091505092915050565b815481835581811115611b0657818360005260206000209182019101611b059190611b0b565b5b505050565b611b2d91905b80821115611b29576000816000905550600101611b11565b5090565b905600a165627a7a723058204eff0626466477ba3df34d9fe6a1615f04ea8a02dc83759a00d24252a4eeda1c0029",
					"opcodes": "PUSH1 0x80 PUSH1 0x40 MSTORE CALLVALUE DUP1 ISZERO PUSH3 0x11 JUMPI PUSH1 0x0 DUP1 REVERT JUMPDEST POP PUSH1 0x40 MLOAD PUSH3 0x1C95 CODESIZE SUB DUP1 PUSH3 0x1C95 DUP4 CODECOPY DUP2 ADD DUP1 PUSH1 0x40 MSTORE DUP2 ADD SWAP1 DUP1 DUP1 MLOAD DUP3 ADD SWAP3 SWAP2 SWAP1 PUSH1 0x20 ADD DUP1 MLOAD DUP3 ADD SWAP3 SWAP2 SWAP1 POP POP POP DUP2 PUSH1 0x4 SWAP1 DUP1 MLOAD SWAP1 PUSH1 0x20 ADD SWAP1 PUSH3 0x58 SWAP3 SWAP2 SWAP1 PUSH3 0x7A JUMP JUMPDEST POP DUP1 PUSH1 0x5 SWAP1 DUP1 MLOAD SWAP1 PUSH1 0x20 ADD SWAP1 PUSH3 0x71 SWAP3 SWAP2 SWAP1 PUSH3 0x7A JUMP JUMPDEST POP POP POP PUSH3 0x129 JUMP JUMPDEST DUP3 DUP1 SLOAD PUSH1 0x1 DUP2 PUSH1 0x1 AND ISZERO PUSH2 0x100 MUL SUB AND PUSH1 0x2 SWAP1 DIV SWAP1 PUSH1 0x0 MSTORE PUSH1 0x20 PUSH1 0x0 KECCAK256 SWAP1 PUSH1 0x1F ADD PUSH1 0x20 SWAP1 DIV DUP2 ADD SWAP3 DUP3 PUSH1 0x1F LT PUSH3 0xBD JUMPI DUP1 MLOAD PUSH1 0xFF NOT AND DUP4 DUP1 ADD OR DUP6 SSTORE PUSH3 0xEE JUMP JUMPDEST DUP3 DUP1 ADD PUSH1 0x1 ADD DUP6 SSTORE DUP3 ISZERO PUSH3 0xEE JUMPI SWAP2 DUP3 ADD JUMPDEST DUP3 DUP2 GT ISZERO PUSH3 0xED JUMPI DUP3 MLOAD DUP3 SSTORE SWAP2 PUSH1 0x20 ADD SWAP2 SWAP1 PUSH1 0x1 ADD SWAP1 PUSH3 0xD0 JUMP JUMPDEST JUMPDEST POP SWAP1 POP PUSH3 0xFD SWAP2 SWAP1 PUSH3 0x101 JUMP JUMPDEST POP SWAP1 JUMP JUMPDEST PUSH3 0x126 SWAP2 SWAP1 JUMPDEST DUP1 DUP3 GT ISZERO PUSH3 0x122 JUMPI PUSH1 0x0 DUP2 PUSH1 0x0 SWAP1 SSTORE POP PUSH1 0x1 ADD PUSH3 0x108 JUMP JUMPDEST POP SWAP1 JUMP JUMPDEST SWAP1 JUMP JUMPDEST PUSH2 0x1B5C DUP1 PUSH3 0x139 PUSH1 0x0 CODECOPY PUSH1 0x0 RETURN STOP PUSH1 0x80 PUSH1 0x40 MSTORE PUSH1 0x4 CALLDATASIZE LT PUSH2 0xE6 JUMPI PUSH1 0x0 CALLDATALOAD PUSH29 0x100000000000000000000000000000000000000000000000000000000 SWAP1 DIV PUSH4 0xFFFFFFFF AND DUP1 PUSH4 0x6FDDE03 EQ PUSH2 0xEB JUMPI DUP1 PUSH4 0x81812FC EQ PUSH2 0x17B JUMPI DUP1 PUSH4 0x95EA7B3 EQ PUSH2 0x1E8 JUMPI DUP1 PUSH4 0x18160DDD EQ PUSH2 0x235 JUMPI DUP1 PUSH4 0x23B872DD EQ PUSH2 0x260 JUMPI DUP1 PUSH4 0x2F745C59 EQ PUSH2 0x2CD JUMPI DUP1 PUSH4 0x42842E0E EQ PUSH2 0x32E JUMPI DUP1 PUSH4 0x4F558E79 EQ PUSH2 0x39B JUMPI DUP1 PUSH4 0x4F6CCCE7 EQ PUSH2 0x3E0 JUMPI DUP1 PUSH4 0x6352211E EQ PUSH2 0x421 JUMPI DUP1 PUSH4 0x70A08231 EQ PUSH2 0x48E JUMPI DUP1 PUSH4 0x95D89B41 EQ PUSH2 0x4E5 JUMPI DUP1 PUSH4 0xA22CB465 EQ PUSH2 0x575 JUMPI DUP1 PUSH4 0xB88D4FDE EQ PUSH2 0x5C4 JUMPI DUP1 PUSH4 0xC87B56DD EQ PUSH2 0x677 JUMPI DUP1 PUSH4 0xE985E9C5 EQ PUSH2 0x71D JUMPI JUMPDEST PUSH1 0x0 DUP1 REVERT JUMPDEST CALLVALUE DUP1 ISZERO PUSH2 0xF7 JUMPI PUSH1 0x0 DUP1 REVERT JUMPDEST POP PUSH2 0x100 PUSH2 0x798 JUMP JUMPDEST PUSH1 0x40 MLOAD DUP1 DUP1 PUSH1 0x20 ADD DUP3 DUP2 SUB DUP3 MSTORE DUP4 DUP2 DUP2 MLOAD DUP2 MSTORE PUSH1 0x20 ADD SWAP2 POP DUP1 MLOAD SWAP1 PUSH1 0x20 ADD SWAP1 DUP1 DUP4 DUP4 PUSH1 0x0 JUMPDEST DUP4 DUP2 LT ISZERO PUSH2 0x140 JUMPI DUP1 DUP3 ADD MLOAD DUP2 DUP5 ADD MSTORE PUSH1 0x20 DUP2 ADD SWAP1 POP PUSH2 0x125 JUMP JUMPDEST POP POP POP POP SWAP1 POP SWAP1 DUP2 ADD SWAP1 PUSH1 0x1F AND DUP1 ISZERO PUSH2 0x16D JUMPI DUP1 DUP3 SUB DUP1 MLOAD PUSH1 0x1 DUP4 PUSH1 0x20 SUB PUSH2 0x100 EXP SUB NOT AND DUP2 MSTORE PUSH1 0x20 ADD SWAP2 POP JUMPDEST POP SWAP3 POP POP POP PUSH1 0x40 MLOAD DUP1 SWAP2 SUB SWAP1 RETURN JUMPDEST CALLVALUE DUP1 ISZERO PUSH2 0x187 JUMPI PUSH1 0x0 DUP1 REVERT JUMPDEST POP PUSH2 0x1A6 PUSH1 0x4 DUP1 CALLDATASIZE SUB DUP2 ADD SWAP1 DUP1 DUP1 CALLDATALOAD SWAP1 PUSH1 0x20 ADD SWAP1 SWAP3 SWAP2 SWAP1 POP POP POP PUSH2 0x83A JUMP JUMPDEST PUSH1 0x40 MLOAD DUP1 DUP3 PUSH20 0xFFFFFFFFFFFFFFFFFFFFFFFFFFFFFFFFFFFFFFFF AND PUSH20 0xFFFFFFFFFFFFFFFFFFFFFFFFFFFFFFFFFFFFFFFF AND DUP2 MSTORE PUSH1 0x20 ADD SWAP2 POP POP PUSH1 0x40 MLOAD DUP1 SWAP2 SUB SWAP1 RETURN JUMPDEST CALLVALUE DUP1 ISZERO PUSH2 0x1F4 JUMPI PUSH1 0x0 DUP1 REVERT JUMPDEST POP PUSH2 0x233 PUSH1 0x4 DUP1 CALLDATASIZE SUB DUP2 ADD SWAP1 DUP1 DUP1 CALLDATALOAD PUSH20 0xFFFFFFFFFFFFFFFFFFFFFFFFFFFFFFFFFFFFFFFF AND SWAP1 PUSH1 0x20 ADD SWAP1 SWAP3 SWAP2 SWAP1 DUP1 CALLDATALOAD SWAP1 PUSH1 0x20 ADD SWAP1 SWAP3 SWAP2 SWAP1 POP POP POP PUSH2 0x877 JUMP JUMPDEST STOP JUMPDEST CALLVALUE DUP1 ISZERO PUSH2 0x241 JUMPI PUSH1 0x0 DUP1 REVERT JUMPDEST POP PUSH2 0x24A PUSH2 0xA3D JUMP JUMPDEST PUSH1 0x40 MLOAD DUP1 DUP3 DUP2 MSTORE PUSH1 0x20 ADD SWAP2 POP POP PUSH1 0x40 MLOAD DUP1 SWAP2 SUB SWAP1 RETURN JUMPDEST CALLVALUE DUP1 ISZERO PUSH2 0x26C JUMPI PUSH1 0x0 DUP1 REVERT JUMPDEST POP PUSH2 0x2CB PUSH1 0x4 DUP1 CALLDATASIZE SUB DUP2 ADD SWAP1 DUP1 DUP1 CALLDATALOAD PUSH20 0xFFFFFFFFFFFFFFFFFFFFFFFFFFFFFFFFFFFFFFFF AND SWAP1 PUSH1 0x20 ADD SWAP1 SWAP3 SWAP2 SWAP1 DUP1 CALLDATALOAD PUSH20 0xFFFFFFFFFFFFFFFFFFFFFFFFFFFFFFFFFFFFFFFF AND SWAP1 PUSH1 0x20 ADD SWAP1 SWAP3 SWAP2 SWAP1 DUP1 CALLDATALOAD SWAP1 PUSH1 0x20 ADD SWAP1 SWAP3 SWAP2 SWAP1 POP POP POP PUSH2 0xA4A JUMP JUMPDEST STOP JUMPDEST CALLVALUE DUP1 ISZERO PUSH2 0x2D9 JUMPI PUSH1 0x0 DUP1 REVERT JUMPDEST POP PUSH2 0x318 PUSH1 0x4 DUP1 CALLDATASIZE SUB DUP2 ADD SWAP1 DUP1 DUP1 CALLDATALOAD PUSH20 0xFFFFFFFFFFFFFFFFFFFFFFFFFFFFFFFFFFFFFFFF AND SWAP1 PUSH1 0x20 ADD SWAP1 SWAP3 SWAP2 SWAP1 DUP1 CALLDATALOAD SWAP1 PUSH1 0x20 ADD SWAP1 SWAP3 SWAP2 SWAP1 POP POP POP PUSH2 0xB61 JUMP JUMPDEST PUSH1 0x40 MLOAD DUP1 DUP3 DUP2 MSTORE PUSH1 0x20 ADD SWAP2 POP POP PUSH1 0x40 MLOAD DUP1 SWAP2 SUB SWAP1 RETURN JUMPDEST CALLVALUE DUP1 ISZERO PUSH2 0x33A JUMPI PUSH1 0x0 DUP1 REVERT JUMPDEST POP PUSH2 0x399 PUSH1 0x4 DUP1 CALLDATASIZE SUB DUP2 ADD SWAP1 DUP1 DUP1 CALLDATALOAD PUSH20 0xFFFFFFFFFFFFFFFFFFFFFFFFFFFFFFFFFFFFFFFF AND SWAP1 PUSH1 0x20 ADD SWAP1 SWAP3 SWAP2 SWAP1 DUP1 CALLDATALOAD PUSH20 0xFFFFFFFFFFFFFFFFFFFFFFFFFFFFFFFFFFFFFFFF AND SWAP1 PUSH1 0x20 ADD SWAP1 SWAP3 SWAP2 SWAP1 DUP1 CALLDATALOAD SWAP1 PUSH1 0x20 ADD SWAP1 SWAP3 SWAP2 SWAP1 POP POP POP PUSH2 0xBD8 JUMP JUMPDEST STOP JUMPDEST CALLVALUE DUP1 ISZERO PUSH2 0x3A7 JUMPI PUSH1 0x0 DUP1 REVERT JUMPDEST POP PUSH2 0x3C6 PUSH1 0x4 DUP1 CALLDATASIZE SUB DUP2 ADD SWAP1 DUP1 DUP1 CALLDATALOAD SWAP1 PUSH1 0x20 ADD SWAP1 SWAP3 SWAP2 SWAP1 POP POP POP PUSH2 0xC10 JUMP JUMPDEST PUSH1 0x40 MLOAD DUP1 DUP3 ISZERO ISZERO ISZERO ISZERO DUP2 MSTORE PUSH1 0x20 ADD SWAP2 POP POP PUSH1 0x40 MLOAD DUP1 SWAP2 SUB SWAP1 RETURN JUMPDEST CALLVALUE DUP1 ISZERO PUSH2 0x3EC JUMPI PUSH1 0x0 DUP1 REVERT JUMPDEST POP PUSH2 0x40B PUSH1 0x4 DUP1 CALLDATASIZE SUB DUP2 ADD SWAP1 DUP1 DUP1 CALLDATALOAD SWAP1 PUSH1 0x20 ADD SWAP1 SWAP3 SWAP2 SWAP1 POP POP POP PUSH2 0xC81 JUMP JUMPDEST PUSH1 0x40 MLOAD DUP1 DUP3 DUP2 MSTORE PUSH1 0x20 ADD SWAP2 POP POP PUSH1 0x40 MLOAD DUP1 SWAP2 SUB SWAP1 RETURN JUMPDEST CALLVALUE DUP1 ISZERO PUSH2 0x42D JUMPI PUSH1 0x0 DUP1 REVERT JUMPDEST POP PUSH2 0x44C PUSH1 0x4 DUP1 CALLDATASIZE SUB DUP2 ADD SWAP1 DUP1 DUP1 CALLDATALOAD SWAP1 PUSH1 0x20 ADD SWAP1 SWAP3 SWAP2 SWAP1 POP POP POP PUSH2 0xCB9 JUMP JUMPDEST PUSH1 0x40 MLOAD DUP1 DUP3 PUSH20 0xFFFFFFFFFFFFFFFFFFFFFFFFFFFFFFFFFFFFFFFF AND PUSH20 0xFFFFFFFFFFFFFFFFFFFFFFFFFFFFFFFFFFFFFFFF AND DUP2 MSTORE PUSH1 0x20 ADD SWAP2 POP POP PUSH1 0x40 MLOAD DUP1 SWAP2 SUB SWAP1 RETURN JUMPDEST CALLVALUE DUP1 ISZERO PUSH2 0x49A JUMPI PUSH1 0x0 DUP1 REVERT JUMPDEST POP PUSH2 0x4CF PUSH1 0x4 DUP1 CALLDATASIZE SUB DUP2 ADD SWAP1 DUP1 DUP1 CALLDATALOAD PUSH20 0xFFFFFFFFFFFFFFFFFFFFFFFFFFFFFFFFFFFFFFFF AND SWAP1 PUSH1 0x20 ADD SWAP1 SWAP3 SWAP2 SWAP1 POP POP POP PUSH2 0xD36 JUMP JUMPDEST PUSH1 0x40 MLOAD DUP1 DUP3 DUP2 MSTORE PUSH1 0x20 ADD SWAP2 POP POP PUSH1 0x40 MLOAD DUP1 SWAP2 SUB SWAP1 RETURN JUMPDEST CALLVALUE DUP1 ISZERO PUSH2 0x4F1 JUMPI PUSH1 0x0 DUP1 REVERT JUMPDEST POP PUSH2 0x4FA PUSH2 0xDBA JUMP JUMPDEST PUSH1 0x40 MLOAD DUP1 DUP1 PUSH1 0x20 ADD DUP3 DUP2 SUB DUP3 MSTORE DUP4 DUP2 DUP2 MLOAD DUP2 MSTORE PUSH1 0x20 ADD SWAP2 POP DUP1 MLOAD SWAP1 PUSH1 0x20 ADD SWAP1 DUP1 DUP4 DUP4 PUSH1 0x0 JUMPDEST DUP4 DUP2 LT ISZERO PUSH2 0x53A JUMPI DUP1 DUP3 ADD MLOAD DUP2 DUP5 ADD MSTORE PUSH1 0x20 DUP2 ADD SWAP1 POP PUSH2 0x51F JUMP JUMPDEST POP POP POP POP SWAP1 POP SWAP1 DUP2 ADD SWAP1 PUSH1 0x1F AND DUP1 ISZERO PUSH2 0x567 JUMPI DUP1 DUP3 SUB DUP1 MLOAD PUSH1 0x1 DUP4 PUSH1 0x20 SUB PUSH2 0x100 EXP SUB NOT AND DUP2 MSTORE PUSH1 0x20 ADD SWAP2 POP JUMPDEST POP SWAP3 POP POP POP PUSH1 0x40 MLOAD DUP1 SWAP2 SUB SWAP1 RETURN JUMPDEST CALLVALUE DUP1 ISZERO PUSH2 0x581 JUMPI PUSH1 0x0 DUP1 REVERT JUMPDEST POP PUSH2 0x5C2 PUSH1 0x4 DUP1 CALLDATASIZE SUB DUP2 ADD SWAP1 DUP1 DUP1 CALLDATALOAD PUSH20 0xFFFFFFFFFFFFFFFFFFFFFFFFFFFFFFFFFFFFFFFF AND SWAP1 PUSH1 0x20 ADD SWAP1 SWAP3 SWAP2 SWAP1 DUP1 CALLDATALOAD ISZERO ISZERO SWAP1 PUSH1 0x20 ADD SWAP1 SWAP3 SWAP2 SWAP1 POP POP POP PUSH2 0xE5C JUMP JUMPDEST STOP JUMPDEST CALLVALUE DUP1 ISZERO PUSH2 0x5D0 JUMPI PUSH1 0x0 DUP1 REVERT JUMPDEST POP PUSH2 0x675 PUSH1 0x4 DUP1 CALLDATASIZE SUB DUP2 ADD SWAP1 DUP1 DUP1 CALLDATALOAD PUSH20 0xFFFFFFFFFFFFFFFFFFFFFFFFFFFFFFFFFFFFFFFF AND SWAP1 PUSH1 0x20 ADD SWAP1 SWAP3 SWAP2 SWAP1 DUP1 CALLDATALOAD PUSH20 0xFFFFFFFFFFFFFFFFFFFFFFFFFFFFFFFFFFFFFFFF AND SWAP1 PUSH1 0x20 ADD SWAP1 SWAP3 SWAP2 SWAP1 DUP1 CALLDATALOAD SWAP1 PUSH1 0x20 ADD SWAP1 SWAP3 SWAP2 SWAP1 DUP1 CALLDATALOAD SWAP1 PUSH1 0x20 ADD SWAP1 DUP3 ADD DUP1 CALLDATALOAD SWAP1 PUSH1 0x20 ADD SWAP1 DUP1 DUP1 PUSH1 0x1F ADD PUSH1 0x20 DUP1 SWAP2 DIV MUL PUSH1 0x20 ADD PUSH1 0x40 MLOAD SWAP1 DUP2 ADD PUSH1 0x40 MSTORE DUP1 SWAP4 SWAP3 SWAP2 SWAP1 DUP2 DUP2 MSTORE PUSH1 0x20 ADD DUP4 DUP4 DUP1 DUP3 DUP5 CALLDATACOPY DUP3 ADD SWAP2 POP POP POP POP POP POP SWAP2 SWAP3 SWAP2 SWAP3 SWAP1 POP POP POP PUSH2 0xF98 JUMP JUMPDEST STOP JUMPDEST CALLVALUE DUP1 ISZERO PUSH2 0x683 JUMPI PUSH1 0x0 DUP1 REVERT JUMPDEST POP PUSH2 0x6A2 PUSH1 0x4 DUP1 CALLDATASIZE SUB DUP2 ADD SWAP1 DUP1 DUP1 CALLDATALOAD SWAP1 PUSH1 0x20 ADD SWAP1 SWAP3 SWAP2 SWAP1 POP POP POP PUSH2 0xFD7 JUMP JUMPDEST PUSH1 0x40 MLOAD DUP1 DUP1 PUSH1 0x20 ADD DUP3 DUP2 SUB DUP3 MSTORE DUP4 DUP2 DUP2 MLOAD DUP2 MSTORE PUSH1 0x20 ADD SWAP2 POP DUP1 MLOAD SWAP1 PUSH1 0x20 ADD SWAP1 DUP1 DUP4 DUP4 PUSH1 0x0 JUMPDEST DUP4 DUP2 LT ISZERO PUSH2 0x6E2 JUMPI DUP1 DUP3 ADD MLOAD DUP2 DUP5 ADD MSTORE PUSH1 0x20 DUP2 ADD SWAP1 POP PUSH2 0x6C7 JUMP JUMPDEST POP POP POP POP SWAP1 POP SWAP1 DUP2 ADD SWAP1 PUSH1 0x1F AND DUP1 ISZERO PUSH2 0x70F JUMPI DUP1 DUP3 SUB DUP1 MLOAD PUSH1 0x1 DUP4 PUSH1 0x20 SUB PUSH2 0x100 EXP SUB NOT AND DUP2 MSTORE PUSH1 0x20 ADD SWAP2 POP JUMPDEST POP SWAP3 POP POP POP PUSH1 0x40 MLOAD DUP1 SWAP2 SUB SWAP1 RETURN JUMPDEST CALLVALUE DUP1 ISZERO PUSH2 0x729 JUMPI PUSH1 0x0 DUP1 REVERT JUMPDEST POP PUSH2 0x77E PUSH1 0x4 DUP1 CALLDATASIZE SUB DUP2 ADD SWAP1 DUP1 DUP1 CALLDATALOAD PUSH20 0xFFFFFFFFFFFFFFFFFFFFFFFFFFFFFFFFFFFFFFFF AND SWAP1 PUSH1 0x20 ADD SWAP1 SWAP3 SWAP2 SWAP1 DUP1 CALLDATALOAD PUSH20 0xFFFFFFFFFFFFFFFFFFFFFFFFFFFFFFFFFFFFFFFF AND SWAP1 PUSH1 0x20 ADD SWAP1 SWAP3 SWAP2 SWAP1 POP POP POP PUSH2 0x10A0 JUMP JUMPDEST PUSH1 0x40 MLOAD DUP1 DUP3 ISZERO ISZERO ISZERO ISZERO DUP2 MSTORE PUSH1 0x20 ADD SWAP2 POP POP PUSH1 0x40 MLOAD DUP1 SWAP2 SUB SWAP1 RETURN JUMPDEST PUSH1 0x60 PUSH1 0x4 DUP1 SLOAD PUSH1 0x1 DUP2 PUSH1 0x1 AND ISZERO PUSH2 0x100 MUL SUB AND PUSH1 0x2 SWAP1 DIV DUP1 PUSH1 0x1F ADD PUSH1 0x20 DUP1 SWAP2 DIV MUL PUSH1 0x20 ADD PUSH1 0x40 MLOAD SWAP1 DUP2 ADD PUSH1 0x40 MSTORE DUP1 SWAP3 SWAP2 SWAP1 DUP2 DUP2 MSTORE PUSH1 0x20 ADD DUP3 DUP1 SLOAD PUSH1 0x1 DUP2 PUSH1 0x1 AND ISZERO PUSH2 0x100 MUL SUB AND PUSH1 0x2 SWAP1 DIV DUP1 ISZERO PUSH2 0x830 JUMPI DUP1 PUSH1 0x1F LT PUSH2 0x805 JUMPI PUSH2 0x100 DUP1 DUP4 SLOAD DIV MUL DUP4 MSTORE SWAP2 PUSH1 0x20 ADD SWAP2 PUSH2 0x830 JUMP JUMPDEST DUP3 ADD SWAP2 SWAP1 PUSH1 0x0 MSTORE PUSH1 0x20 PUSH1 0x0 KECCAK256 SWAP1 JUMPDEST DUP2 SLOAD DUP2 MSTORE SWAP1 PUSH1 0x1 ADD SWAP1 PUSH1 0x20 ADD DUP1 DUP4 GT PUSH2 0x813 JUMPI DUP3 SWAP1 SUB PUSH1 0x1F AND DUP3 ADD SWAP2 JUMPDEST POP POP POP POP POP SWAP1 POP SWAP1 JUMP JUMPDEST PUSH1 0x0 PUSH1 0x1 PUSH1 0x0 DUP4 DUP2 MSTORE PUSH1 0x20 ADD SWAP1 DUP2 MSTORE PUSH1 0x20 ADD PUSH1 0x0 KECCAK256 PUSH1 0x0 SWAP1 SLOAD SWAP1 PUSH2 0x100 EXP SWAP1 DIV PUSH20 0xFFFFFFFFFFFFFFFFFFFFFFFFFFFFFFFFFFFFFFFF AND SWAP1 POP SWAP2 SWAP1 POP JUMP JUMPDEST PUSH1 0x0 PUSH2 0x882 DUP3 PUSH2 0xCB9 JUMP JUMPDEST SWAP1 POP DUP1 PUSH20 0xFFFFFFFFFFFFFFFFFFFFFFFFFFFFFFFFFFFFFFFF AND DUP4 PUSH20 0xFFFFFFFFFFFFFFFFFFFFFFFFFFFFFFFFFFFFFFFF AND EQ ISZERO ISZERO ISZERO PUSH2 0x8BF JUMPI PUSH1 0x0 DUP1 REVERT JUMPDEST DUP1 PUSH20 0xFFFFFFFFFFFFFFFFFFFFFFFFFFFFFFFFFFFFFFFF AND CALLER PUSH20 0xFFFFFFFFFFFFFFFFFFFFFFFFFFFFFFFFFFFFFFFF AND EQ DUP1 PUSH2 0x8FF JUMPI POP PUSH2 0x8FE DUP2 CALLER PUSH2 0x10A0 JUMP JUMPDEST JUMPDEST ISZERO ISZERO PUSH2 0x90A JUMPI PUSH1 0x0 DUP1 REVERT JUMPDEST PUSH1 0x0 PUSH20 0xFFFFFFFFFFFFFFFFFFFFFFFFFFFFFFFFFFFFFFFF AND PUSH2 0x92B DUP4 PUSH2 0x83A JUMP JUMPDEST PUSH20 0xFFFFFFFFFFFFFFFFFFFFFFFFFFFFFFFFFFFFFFFF AND EQ ISZERO DUP1 PUSH2 0x97B JUMPI POP PUSH1 0x0 PUSH20 0xFFFFFFFFFFFFFFFFFFFFFFFFFFFFFFFFFFFFFFFF AND DUP4 PUSH20 0xFFFFFFFFFFFFFFFFFFFFFFFFFFFFFFFFFFFFFFFF AND EQ ISZERO JUMPDEST ISZERO PUSH2 0xA38 JUMPI DUP3 PUSH1 0x1 PUSH1 0x0 DUP5 DUP2 MSTORE PUSH1 0x20 ADD SWAP1 DUP2 MSTORE PUSH1 0x20 ADD PUSH1 0x0 KECCAK256 PUSH1 0x0 PUSH2 0x100 EXP DUP2 SLOAD DUP2 PUSH20 0xFFFFFFFFFFFFFFFFFFFFFFFFFFFFFFFFFFFFFFFF MUL NOT AND SWAP1 DUP4 PUSH20 0xFFFFFFFFFFFFFFFFFFFFFFFFFFFFFFFFFFFFFFFF AND MUL OR SWAP1 SSTORE POP DUP3 PUSH20 0xFFFFFFFFFFFFFFFFFFFFFFFFFFFFFFFFFFFFFFFF AND DUP2 PUSH20 0xFFFFFFFFFFFFFFFFFFFFFFFFFFFFFFFFFFFFFFFF AND PUSH32 0x8C5BE1E5EBEC7D5BD14F71427D1E84F3DD0314C0F7B2291E5B200AC8C7C3B925 DUP5 PUSH1 0x40 MLOAD DUP1 DUP3 DUP2 MSTORE PUSH1 0x20 ADD SWAP2 POP POP PUSH1 0x40 MLOAD DUP1 SWAP2 SUB SWAP1 LOG3 JUMPDEST POP POP POP JUMP JUMPDEST PUSH1 0x0 PUSH1 0x8 DUP1 SLOAD SWAP1 POP SWAP1 POP SWAP1 JUMP JUMPDEST DUP1 PUSH2 0xA55 CALLER DUP3 PUSH2 0x1134 JUMP JUMPDEST ISZERO ISZERO PUSH2 0xA60 JUMPI PUSH1 0x0 DUP1 REVERT JUMPDEST PUSH1 0x0 PUSH20 0xFFFFFFFFFFFFFFFFFFFFFFFFFFFFFFFFFFFFFFFF AND DUP5 PUSH20 0xFFFFFFFFFFFFFFFFFFFFFFFFFFFFFFFFFFFFFFFF AND EQ ISZERO ISZERO ISZERO PUSH2 0xA9C JUMPI PUSH1 0x0 DUP1 REVERT JUMPDEST PUSH1 0x0 PUSH20 0xFFFFFFFFFFFFFFFFFFFFFFFFFFFFFFFFFFFFFFFF AND DUP4 PUSH20 0xFFFFFFFFFFFFFFFFFFFFFFFFFFFFFFFFFFFFFFFF AND EQ ISZERO ISZERO ISZERO PUSH2 0xAD8 JUMPI PUSH1 0x0 DUP1 REVERT JUMPDEST PUSH2 0xAE2 DUP5 DUP4 PUSH2 0x11C9 JUMP JUMPDEST PUSH2 0xAEC DUP5 DUP4 PUSH2 0x1332 JUMP JUMPDEST PUSH2 0xAF6 DUP4 DUP4 PUSH2 0x154A JUMP JUMPDEST DUP3 PUSH20 0xFFFFFFFFFFFFFFFFFFFFFFFFFFFFFFFFFFFFFFFF AND DUP5 PUSH20 0xFFFFFFFFFFFFFFFFFFFFFFFFFFFFFFFFFFFFFFFF AND PUSH32 0xDDF252AD1BE2C89B69C2B068FC378DAA952BA7F163C4A11628F55A4DF523B3EF DUP5 PUSH1 0x40 MLOAD DUP1 DUP3 DUP2 MSTORE PUSH1 0x20 ADD SWAP2 POP POP PUSH1 0x40 MLOAD DUP1 SWAP2 SUB SWAP1 LOG3 POP POP POP POP JUMP JUMPDEST PUSH1 0x0 PUSH2 0xB6C DUP4 PUSH2 0xD36 JUMP JUMPDEST DUP3 LT ISZERO ISZERO PUSH2 0xB79 JUMPI PUSH1 0x0 DUP1 REVERT JUMPDEST PUSH1 0x6 PUSH1 0x0 DUP5 PUSH20 0xFFFFFFFFFFFFFFFFFFFFFFFFFFFFFFFFFFFFFFFF AND PUSH20 0xFFFFFFFFFFFFFFFFFFFFFFFFFFFFFFFFFFFFFFFF AND DUP2 MSTORE PUSH1 0x20 ADD SWAP1 DUP2 MSTORE PUSH1 0x20 ADD PUSH1 0x0 KECCAK256 DUP3 DUP2 SLOAD DUP2 LT ISZERO ISZERO PUSH2 0xBC5 JUMPI INVALID JUMPDEST SWAP1 PUSH1 0x0 MSTORE PUSH1 0x20 PUSH1 0x0 KECCAK256 ADD SLOAD SWAP1 POP SWAP3 SWAP2 POP POP JUMP JUMPDEST DUP1 PUSH2 0xBE3 CALLER DUP3 PUSH2 0x1134 JUMP JUMPDEST ISZERO ISZERO PUSH2 0xBEE JUMPI PUSH1 0x0 DUP1 REVERT JUMPDEST PUSH2 0xC0A DUP5 DUP5 DUP5 PUSH1 0x20 PUSH1 0x40 MLOAD SWAP1 DUP2 ADD PUSH1 0x40 MSTORE DUP1 PUSH1 0x0 DUP2 MSTORE POP PUSH2 0xF98 JUMP JUMPDEST POP POP POP POP JUMP JUMPDEST PUSH1 0x0 DUP1 PUSH1 0x0 DUP1 DUP5 DUP2 MSTORE PUSH1 0x20 ADD SWAP1 DUP2 MSTORE PUSH1 0x20 ADD PUSH1 0x0 KECCAK256 PUSH1 0x0 SWAP1 SLOAD SWAP1 PUSH2 0x100 EXP SWAP1 DIV PUSH20 0xFFFFFFFFFFFFFFFFFFFFFFFFFFFFFFFFFFFFFFFF AND SWAP1 POP PUSH1 0x0 PUSH20 0xFFFFFFFFFFFFFFFFFFFFFFFFFFFFFFFFFFFFFFFF AND DUP2 PUSH20 0xFFFFFFFFFFFFFFFFFFFFFFFFFFFFFFFFFFFFFFFF AND EQ ISZERO SWAP2 POP POP SWAP2 SWAP1 POP JUMP JUMPDEST PUSH1 0x0 PUSH2 0xC8B PUSH2 0xA3D JUMP JUMPDEST DUP3 LT ISZERO ISZERO PUSH2 0xC98 JUMPI PUSH1 0x0 DUP1 REVERT JUMPDEST PUSH1 0x8 DUP3 DUP2 SLOAD DUP2 LT ISZERO ISZERO PUSH2 0xCA7 JUMPI INVALID JUMPDEST SWAP1 PUSH1 0x0 MSTORE PUSH1 0x20 PUSH1 0x0 KECCAK256 ADD SLOAD SWAP1 POP SWAP2 SWAP1 POP JUMP JUMPDEST PUSH1 0x0 DUP1 PUSH1 0x0 DUP1 DUP5 DUP2 MSTORE PUSH1 0x20 ADD SWAP1 DUP2 MSTORE PUSH1 0x20 ADD PUSH1 0x0 KECCAK256 PUSH1 0x0 SWAP1 SLOAD SWAP1 PUSH2 0x100 EXP SWAP1 DIV PUSH20 0xFFFFFFFFFFFFFFFFFFFFFFFFFFFFFFFFFFFFFFFF AND SWAP1 POP PUSH1 0x0 PUSH20 0xFFFFFFFFFFFFFFFFFFFFFFFFFFFFFFFFFFFFFFFF AND DUP2 PUSH20 0xFFFFFFFFFFFFFFFFFFFFFFFFFFFFFFFFFFFFFFFF AND EQ ISZERO ISZERO ISZERO PUSH2 0xD2D JUMPI PUSH1 0x0 DUP1 REVERT JUMPDEST DUP1 SWAP2 POP POP SWAP2 SWAP1 POP JUMP JUMPDEST PUSH1 0x0 DUP1 PUSH20 0xFFFFFFFFFFFFFFFFFFFFFFFFFFFFFFFFFFFFFFFF AND DUP3 PUSH20 0xFFFFFFFFFFFFFFFFFFFFFFFFFFFFFFFFFFFFFFFF AND EQ ISZERO ISZERO ISZERO PUSH2 0xD73 JUMPI PUSH1 0x0 DUP1 REVERT JUMPDEST PUSH1 0x2 PUSH1 0x0 DUP4 PUSH20 0xFFFFFFFFFFFFFFFFFFFFFFFFFFFFFFFFFFFFFFFF AND PUSH20 0xFFFFFFFFFFFFFFFFFFFFFFFFFFFFFFFFFFFFFFFF AND DUP2 MSTORE PUSH1 0x20 ADD SWAP1 DUP2 MSTORE PUSH1 0x20 ADD PUSH1 0x0 KECCAK256 SLOAD SWAP1 POP SWAP2 SWAP1 POP JUMP JUMPDEST PUSH1 0x60 PUSH1 0x5 DUP1 SLOAD PUSH1 0x1 DUP2 PUSH1 0x1 AND ISZERO PUSH2 0x100 MUL SUB AND PUSH1 0x2 SWAP1 DIV DUP1 PUSH1 0x1F ADD PUSH1 0x20 DUP1 SWAP2 DIV MUL PUSH1 0x20 ADD PUSH1 0x40 MLOAD SWAP1 DUP2 ADD PUSH1 0x40 MSTORE DUP1 SWAP3 SWAP2 SWAP1 DUP2 DUP2 MSTORE PUSH1 0x20 ADD DUP3 DUP1 SLOAD PUSH1 0x1 DUP2 PUSH1 0x1 AND ISZERO PUSH2 0x100 MUL SUB AND PUSH1 0x2 SWAP1 DIV DUP1 ISZERO PUSH2 0xE52 JUMPI DUP1 PUSH1 0x1F LT PUSH2 0xE27 JUMPI PUSH2 0x100 DUP1 DUP4 SLOAD DIV MUL DUP4 MSTORE SWAP2 PUSH1 0x20 ADD SWAP2 PUSH2 0xE52 JUMP JUMPDEST DUP3 ADD SWAP2 SWAP1 PUSH1 0x0 MSTORE PUSH1 0x20 PUSH1 0x0 KECCAK256 SWAP1 JUMPDEST DUP2 SLOAD DUP2 MSTORE SWAP1 PUSH1 0x1 ADD SWAP1 PUSH1 0x20 ADD DUP1 DUP4 GT PUSH2 0xE35 JUMPI DUP3 SWAP1 SUB PUSH1 0x1F AND DUP3 ADD SWAP2 JUMPDEST POP POP POP POP POP SWAP1 POP SWAP1 JUMP JUMPDEST CALLER PUSH20 0xFFFFFFFFFFFFFFFFFFFFFFFFFFFFFFFFFFFFFFFF AND DUP3 PUSH20 0xFFFFFFFFFFFFFFFFFFFFFFFFFFFFFFFFFFFFFFFF AND EQ ISZERO ISZERO ISZERO PUSH2 0xE97 JUMPI PUSH1 0x0 DUP1 REVERT JUMPDEST DUP1 PUSH1 0x3 PUSH1 0x0 CALLER PUSH20 0xFFFFFFFFFFFFFFFFFFFFFFFFFFFFFFFFFFFFFFFF AND PUSH20 0xFFFFFFFFFFFFFFFFFFFFFFFFFFFFFFFFFFFFFFFF AND DUP2 MSTORE PUSH1 0x20 ADD SWAP1 DUP2 MSTORE PUSH1 0x20 ADD PUSH1 0x0 KECCAK256 PUSH1 0x0 DUP5 PUSH20 0xFFFFFFFFFFFFFFFFFFFFFFFFFFFFFFFFFFFFFFFF AND PUSH20 0xFFFFFFFFFFFFFFFFFFFFFFFFFFFFFFFFFFFFFFFF AND DUP2 MSTORE PUSH1 0x20 ADD SWAP1 DUP2 MSTORE PUSH1 0x20 ADD PUSH1 0x0 KECCAK256 PUSH1 0x0 PUSH2 0x100 EXP DUP2 SLOAD DUP2 PUSH1 0xFF MUL NOT AND SWAP1 DUP4 ISZERO ISZERO MUL OR SWAP1 SSTORE POP DUP2 PUSH20 0xFFFFFFFFFFFFFFFFFFFFFFFFFFFFFFFFFFFFFFFF AND CALLER PUSH20 0xFFFFFFFFFFFFFFFFFFFFFFFFFFFFFFFFFFFFFFFF AND PUSH32 0x17307EAB39AB6107E8899845AD3D59BD9653F200F220920489CA2B5937696C31 DUP4 PUSH1 0x40 MLOAD DUP1 DUP3 ISZERO ISZERO ISZERO ISZERO DUP2 MSTORE PUSH1 0x20 ADD SWAP2 POP POP PUSH1 0x40 MLOAD DUP1 SWAP2 SUB SWAP1 LOG3 POP POP JUMP JUMPDEST DUP2 PUSH2 0xFA3 CALLER DUP3 PUSH2 0x1134 JUMP JUMPDEST ISZERO ISZERO PUSH2 0xFAE JUMPI PUSH1 0x0 DUP1 REVERT JUMPDEST PUSH2 0xFB9 DUP6 DUP6 DUP6 PUSH2 0xA4A JUMP JUMPDEST PUSH2 0xFC5 DUP6 DUP6 DUP6 DUP6 PUSH2 0x1621 JUMP JUMPDEST ISZERO ISZERO PUSH2 0xFD0 JUMPI PUSH1 0x0 DUP1 REVERT JUMPDEST POP POP POP POP POP JUMP JUMPDEST PUSH1 0x60 PUSH2 0xFE2 DUP3 PUSH2 0xC10 JUMP JUMPDEST ISZERO ISZERO PUSH2 0xFED JUMPI PUSH1 0x0 DUP1 REVERT JUMPDEST PUSH1 0xA PUSH1 0x0 DUP4 DUP2 MSTORE PUSH1 0x20 ADD SWAP1 DUP2 MSTORE PUSH1 0x20 ADD PUSH1 0x0 KECCAK256 DUP1 SLOAD PUSH1 0x1 DUP2 PUSH1 0x1 AND ISZERO PUSH2 0x100 MUL SUB AND PUSH1 0x2 SWAP1 DIV DUP1 PUSH1 0x1F ADD PUSH1 0x20 DUP1 SWAP2 DIV MUL PUSH1 0x20 ADD PUSH1 0x40 MLOAD SWAP1 DUP2 ADD PUSH1 0x40 MSTORE DUP1 SWAP3 SWAP2 SWAP1 DUP2 DUP2 MSTORE PUSH1 0x20 ADD DUP3 DUP1 SLOAD PUSH1 0x1 DUP2 PUSH1 0x1 AND ISZERO PUSH2 0x100 MUL SUB AND PUSH1 0x2 SWAP1 DIV DUP1 ISZERO PUSH2 0x1094 JUMPI DUP1 PUSH1 0x1F LT PUSH2 0x1069 JUMPI PUSH2 0x100 DUP1 DUP4 SLOAD DIV MUL DUP4 MSTORE SWAP2 PUSH1 0x20 ADD SWAP2 PUSH2 0x1094 JUMP JUMPDEST DUP3 ADD SWAP2 SWAP1 PUSH1 0x0 MSTORE PUSH1 0x20 PUSH1 0x0 KECCAK256 SWAP1 JUMPDEST DUP2 SLOAD DUP2 MSTORE SWAP1 PUSH1 0x1 ADD SWAP1 PUSH1 0x20 ADD DUP1 DUP4 GT PUSH2 0x1077 JUMPI DUP3 SWAP1 SUB PUSH1 0x1F AND DUP3 ADD SWAP2 JUMPDEST POP POP POP POP POP SWAP1 POP SWAP2 SWAP1 POP JUMP JUMPDEST PUSH1 0x0 PUSH1 0x3 PUSH1 0x0 DUP5 PUSH20 0xFFFFFFFFFFFFFFFFFFFFFFFFFFFFFFFFFFFFFFFF AND PUSH20 0xFFFFFFFFFFFFFFFFFFFFFFFFFFFFFFFFFFFFFFFF AND DUP2 MSTORE PUSH1 0x20 ADD SWAP1 DUP2 MSTORE PUSH1 0x20 ADD PUSH1 0x0 KECCAK256 PUSH1 0x0 DUP4 PUSH20 0xFFFFFFFFFFFFFFFFFFFFFFFFFFFFFFFFFFFFFFFF AND PUSH20 0xFFFFFFFFFFFFFFFFFFFFFFFFFFFFFFFFFFFFFFFF AND DUP2 MSTORE PUSH1 0x20 ADD SWAP1 DUP2 MSTORE PUSH1 0x20 ADD PUSH1 0x0 KECCAK256 PUSH1 0x0 SWAP1 SLOAD SWAP1 PUSH2 0x100 EXP SWAP1 DIV PUSH1 0xFF AND SWAP1 POP SWAP3 SWAP2 POP POP JUMP JUMPDEST PUSH1 0x0 DUP1 PUSH2 0x1140 DUP4 PUSH2 0xCB9 JUMP JUMPDEST SWAP1 POP DUP1 PUSH20 0xFFFFFFFFFFFFFFFFFFFFFFFFFFFFFFFFFFFFFFFF AND DUP5 PUSH20 0xFFFFFFFFFFFFFFFFFFFFFFFFFFFFFFFFFFFFFFFF AND EQ DUP1 PUSH2 0x11AF JUMPI POP DUP4 PUSH20 0xFFFFFFFFFFFFFFFFFFFFFFFFFFFFFFFFFFFFFFFF AND PUSH2 0x1197 DUP5 PUSH2 0x83A JUMP JUMPDEST PUSH20 0xFFFFFFFFFFFFFFFFFFFFFFFFFFFFFFFFFFFFFFFF AND EQ JUMPDEST DUP1 PUSH2 0x11C0 JUMPI POP PUSH2 0x11BF DUP2 DUP6 PUSH2 0x10A0 JUMP JUMPDEST JUMPDEST SWAP2 POP POP SWAP3 SWAP2 POP POP JUMP JUMPDEST DUP2 PUSH20 0xFFFFFFFFFFFFFFFFFFFFFFFFFFFFFFFFFFFFFFFF AND PUSH2 0x11E9 DUP3 PUSH2 0xCB9 JUMP JUMPDEST PUSH20 0xFFFFFFFFFFFFFFFFFFFFFFFFFFFFFFFFFFFFFFFF AND EQ ISZERO ISZERO PUSH2 0x120B JUMPI PUSH1 0x0 DUP1 REVERT JUMPDEST PUSH1 0x0 PUSH20 0xFFFFFFFFFFFFFFFFFFFFFFFFFFFFFFFFFFFFFFFF AND PUSH1 0x1 PUSH1 0x0 DUP4 DUP2 MSTORE PUSH1 0x20 ADD SWAP1 DUP2 MSTORE PUSH1 0x20 ADD PUSH1 0x0 KECCAK256 PUSH1 0x0 SWAP1 SLOAD SWAP1 PUSH2 0x100 EXP SWAP1 DIV PUSH20 0xFFFFFFFFFFFFFFFFFFFFFFFFFFFFFFFFFFFFFFFF AND PUSH20 0xFFFFFFFFFFFFFFFFFFFFFFFFFFFFFFFFFFFFFFFF AND EQ ISZERO ISZERO PUSH2 0x132E JUMPI PUSH1 0x0 PUSH1 0x1 PUSH1 0x0 DUP4 DUP2 MSTORE PUSH1 0x20 ADD SWAP1 DUP2 MSTORE PUSH1 0x20 ADD PUSH1 0x0 KECCAK256 PUSH1 0x0 PUSH2 0x100 EXP DUP2 SLOAD DUP2 PUSH20 0xFFFFFFFFFFFFFFFFFFFFFFFFFFFFFFFFFFFFFFFF MUL NOT AND SWAP1 DUP4 PUSH20 0xFFFFFFFFFFFFFFFFFFFFFFFFFFFFFFFFFFFFFFFF AND MUL OR SWAP1 SSTORE POP PUSH1 0x0 PUSH20 0xFFFFFFFFFFFFFFFFFFFFFFFFFFFFFFFFFFFFFFFF AND DUP3 PUSH20 0xFFFFFFFFFFFFFFFFFFFFFFFFFFFFFFFFFFFFFFFF AND PUSH32 0x8C5BE1E5EBEC7D5BD14F71427D1E84F3DD0314C0F7B2291E5B200AC8C7C3B925 DUP4 PUSH1 0x40 MLOAD DUP1 DUP3 DUP2 MSTORE PUSH1 0x20 ADD SWAP2 POP POP PUSH1 0x40 MLOAD DUP1 SWAP2 SUB SWAP1 LOG3 JUMPDEST POP POP JUMP JUMPDEST PUSH1 0x0 DUP1 PUSH1 0x0 PUSH2 0x1341 DUP6 DUP6 PUSH2 0x180F JUMP JUMPDEST PUSH1 0x7 PUSH1 0x0 DUP6 DUP2 MSTORE PUSH1 0x20 ADD SWAP1 DUP2 MSTORE PUSH1 0x20 ADD PUSH1 0x0 KECCAK256 SLOAD SWAP3 POP PUSH2 0x13AD PUSH1 0x1 PUSH1 0x6 PUSH1 0x0 DUP9 PUSH20 0xFFFFFFFFFFFFFFFFFFFFFFFFFFFFFFFFFFFFFFFF AND PUSH20 0xFFFFFFFFFFFFFFFFFFFFFFFFFFFFFFFFFFFFFFFF AND DUP2 MSTORE PUSH1 0x20 ADD SWAP1 DUP2 MSTORE PUSH1 0x20 ADD PUSH1 0x0 KECCAK256 DUP1 SLOAD SWAP1 POP PUSH2 0x193D SWAP1 SWAP2 SWAP1 PUSH4 0xFFFFFFFF AND JUMP JUMPDEST SWAP2 POP PUSH1 0x6 PUSH1 0x0 DUP7 PUSH20 0xFFFFFFFFFFFFFFFFFFFFFFFFFFFFFFFFFFFFFFFF AND PUSH20 0xFFFFFFFFFFFFFFFFFFFFFFFFFFFFFFFFFFFFFFFF AND DUP2 MSTORE PUSH1 0x20 ADD SWAP1 DUP2 MSTORE PUSH1 0x20 ADD PUSH1 0x0 KECCAK256 DUP3 DUP2 SLOAD DUP2 LT ISZERO ISZERO PUSH2 0x13FB JUMPI INVALID JUMPDEST SWAP1 PUSH1 0x0 MSTORE PUSH1 0x20 PUSH1 0x0 KECCAK256 ADD SLOAD SWAP1 POP DUP1 PUSH1 0x6 PUSH1 0x0 DUP8 PUSH20 0xFFFFFFFFFFFFFFFFFFFFFFFFFFFFFFFFFFFFFFFF AND PUSH20 0xFFFFFFFFFFFFFFFFFFFFFFFFFFFFFFFFFFFFFFFF AND DUP2 MSTORE PUSH1 0x20 ADD SWAP1 DUP2 MSTORE PUSH1 0x20 ADD PUSH1 0x0 KECCAK256 DUP5 DUP2 SLOAD DUP2 LT ISZERO ISZERO PUSH2 0x1455 JUMPI INVALID JUMPDEST SWAP1 PUSH1 0x0 MSTORE PUSH1 0x20 PUSH1 0x0 KECCAK256 ADD DUP2 SWAP1 SSTORE POP PUSH1 0x0 PUSH1 0x6 PUSH1 0x0 DUP8 PUSH20 0xFFFFFFFFFFFFFFFFFFFFFFFFFFFFFFFFFFFFFFFF AND PUSH20 0xFFFFFFFFFFFFFFFFFFFFFFFFFFFFFFFFFFFFFFFF AND DUP2 MSTORE PUSH1 0x20 ADD SWAP1 DUP2 MSTORE PUSH1 0x20 ADD PUSH1 0x0 KECCAK256 DUP4 DUP2 SLOAD DUP2 LT ISZERO ISZERO PUSH2 0x14B1 JUMPI INVALID JUMPDEST SWAP1 PUSH1 0x0 MSTORE PUSH1 0x20 PUSH1 0x0 KECCAK256 ADD DUP2 SWAP1 SSTORE POP PUSH1 0x6 PUSH1 0x0 DUP7 PUSH20 0xFFFFFFFFFFFFFFFFFFFFFFFFFFFFFFFFFFFFFFFF AND PUSH20 0xFFFFFFFFFFFFFFFFFFFFFFFFFFFFFFFFFFFFFFFF AND DUP2 MSTORE PUSH1 0x20 ADD SWAP1 DUP2 MSTORE PUSH1 0x20 ADD PUSH1 0x0 KECCAK256 DUP1 SLOAD DUP1 SWAP2 SWAP1 PUSH1 0x1 SWAP1 SUB PUSH2 0x1511 SWAP2 SWAP1 PUSH2 0x1ADF JUMP JUMPDEST POP PUSH1 0x0 PUSH1 0x7 PUSH1 0x0 DUP7 DUP2 MSTORE PUSH1 0x20 ADD SWAP1 DUP2 MSTORE PUSH1 0x20 ADD PUSH1 0x0 KECCAK256 DUP2 SWAP1 SSTORE POP DUP3 PUSH1 0x7 PUSH1 0x0 DUP4 DUP2 MSTORE PUSH1 0x20 ADD SWAP1 DUP2 MSTORE PUSH1 0x20 ADD PUSH1 0x0 KECCAK256 DUP2 SWAP1 SSTORE POP POP POP POP POP POP JUMP JUMPDEST PUSH1 0x0 PUSH2 0x1556 DUP4 DUP4 PUSH2 0x1956 JUMP JUMPDEST PUSH1 0x6 PUSH1 0x0 DUP5 PUSH20 0xFFFFFFFFFFFFFFFFFFFFFFFFFFFFFFFFFFFFFFFF AND PUSH20 0xFFFFFFFFFFFFFFFFFFFFFFFFFFFFFFFFFFFFFFFF AND DUP2 MSTORE PUSH1 0x20 ADD SWAP1 DUP2 MSTORE PUSH1 0x20 ADD PUSH1 0x0 KECCAK256 DUP1 SLOAD SWAP1 POP SWAP1 POP PUSH1 0x6 PUSH1 0x0 DUP5 PUSH20 0xFFFFFFFFFFFFFFFFFFFFFFFFFFFFFFFFFFFFFFFF AND PUSH20 0xFFFFFFFFFFFFFFFFFFFFFFFFFFFFFFFFFFFFFFFF AND DUP2 MSTORE PUSH1 0x20 ADD SWAP1 DUP2 MSTORE PUSH1 0x20 ADD PUSH1 0x0 KECCAK256 DUP3 SWAP1 DUP1 PUSH1 0x1 DUP2 SLOAD ADD DUP1 DUP3 SSTORE DUP1 SWAP2 POP POP SWAP1 PUSH1 0x1 DUP3 SUB SWAP1 PUSH1 0x0 MSTORE PUSH1 0x20 PUSH1 0x0 KECCAK256 ADD PUSH1 0x0 SWAP1 SWAP2 SWAP3 SWAP1 SWAP2 SWAP1 SWAP2 POP SSTORE POP DUP1 PUSH1 0x7 PUSH1 0x0 DUP5 DUP2 MSTORE PUSH1 0x20 ADD SWAP1 DUP2 MSTORE PUSH1 0x20 ADD PUSH1 0x0 KECCAK256 DUP2 SWAP1 SSTORE POP POP POP POP JUMP JUMPDEST PUSH1 0x0 DUP1 PUSH2 0x1643 DUP6 PUSH20 0xFFFFFFFFFFFFFFFFFFFFFFFFFFFFFFFFFFFFFFFF AND PUSH2 0x1AAE JUMP JUMPDEST ISZERO ISZERO PUSH2 0x1652 JUMPI PUSH1 0x1 SWAP2 POP PUSH2 0x1806 JUMP JUMPDEST DUP5 PUSH20 0xFFFFFFFFFFFFFFFFFFFFFFFFFFFFFFFFFFFFFFFF AND PUSH4 0xF0B9E5BA DUP8 DUP7 DUP7 PUSH1 0x40 MLOAD DUP5 PUSH4 0xFFFFFFFF AND PUSH29 0x100000000000000000000000000000000000000000000000000000000 MUL DUP2 MSTORE PUSH1 0x4 ADD DUP1 DUP5 PUSH20 0xFFFFFFFFFFFFFFFFFFFFFFFFFFFFFFFFFFFFFFFF AND PUSH20 0xFFFFFFFFFFFFFFFFFFFFFFFFFFFFFFFFFFFFFFFF AND DUP2 MSTORE PUSH1 0x20 ADD DUP4 DUP2 MSTORE PUSH1 0x20 ADD DUP1 PUSH1 0x20 ADD DUP3 DUP2 SUB DUP3 MSTORE DUP4 DUP2 DUP2 MLOAD DUP2 MSTORE PUSH1 0x20 ADD SWAP2 POP DUP1 MLOAD SWAP1 PUSH1 0x20 ADD SWAP1 DUP1 DUP4 DUP4 PUSH1 0x0 JUMPDEST DUP4 DUP2 LT ISZERO PUSH2 0x1714 JUMPI DUP1 DUP3 ADD MLOAD DUP2 DUP5 ADD MSTORE PUSH1 0x20 DUP2 ADD SWAP1 POP PUSH2 0x16F9 JUMP JUMPDEST POP POP POP POP SWAP1 POP SWAP1 DUP2 ADD SWAP1 PUSH1 0x1F AND DUP1 ISZERO PUSH2 0x1741 JUMPI DUP1 DUP3 SUB DUP1 MLOAD PUSH1 0x1 DUP4 PUSH1 0x20 SUB PUSH2 0x100 EXP SUB NOT AND DUP2 MSTORE PUSH1 0x20 ADD SWAP2 POP JUMPDEST POP SWAP5 POP POP POP POP POP PUSH1 0x20 PUSH1 0x40 MLOAD DUP1 DUP4 SUB DUP2 PUSH1 0x0 DUP8 DUP1 EXTCODESIZE ISZERO DUP1 ISZERO PUSH2 0x1762 JUMPI PUSH1 0x0 DUP1 REVERT JUMPDEST POP GAS CALL ISZERO DUP1 ISZERO PUSH2 0x1776 JUMPI RETURNDATASIZE PUSH1 0x0 DUP1 RETURNDATACOPY RETURNDATASIZE PUSH1 0x0 REVERT JUMPDEST POP POP POP POP PUSH1 0x40 MLOAD RETURNDATASIZE PUSH1 0x20 DUP2 LT ISZERO PUSH2 0x178C JUMPI PUSH1 0x0 DUP1 REVERT JUMPDEST DUP2 ADD SWAP1 DUP1 DUP1 MLOAD SWAP1 PUSH1 0x20 ADD SWAP1 SWAP3 SWAP2 SWAP1 POP POP POP SWAP1 POP PUSH4 0xF0B9E5BA PUSH29 0x100000000000000000000000000000000000000000000000000000000 MUL PUSH28 0xFFFFFFFFFFFFFFFFFFFFFFFFFFFFFFFFFFFFFFFFFFFFFFFFFFFFFFFF NOT AND DUP2 PUSH28 0xFFFFFFFFFFFFFFFFFFFFFFFFFFFFFFFFFFFFFFFFFFFFFFFFFFFFFFFF NOT AND EQ SWAP2 POP JUMPDEST POP SWAP5 SWAP4 POP POP POP POP JUMP JUMPDEST DUP2 PUSH20 0xFFFFFFFFFFFFFFFFFFFFFFFFFFFFFFFFFFFFFFFF AND PUSH2 0x182F DUP3 PUSH2 0xCB9 JUMP JUMPDEST PUSH20 0xFFFFFFFFFFFFFFFFFFFFFFFFFFFFFFFFFFFFFFFF AND EQ ISZERO ISZERO PUSH2 0x1851 JUMPI PUSH1 0x0 DUP1 REVERT JUMPDEST PUSH2 0x18A4 PUSH1 0x1 PUSH1 0x2 PUSH1 0x0 DUP6 PUSH20 0xFFFFFFFFFFFFFFFFFFFFFFFFFFFFFFFFFFFFFFFF AND PUSH20 0xFFFFFFFFFFFFFFFFFFFFFFFFFFFFFFFFFFFFFFFF AND DUP2 MSTORE PUSH1 0x20 ADD SWAP1 DUP2 MSTORE PUSH1 0x20 ADD PUSH1 0x0 KECCAK256 SLOAD PUSH2 0x193D SWAP1 SWAP2 SWAP1 PUSH4 0xFFFFFFFF AND JUMP JUMPDEST PUSH1 0x2 PUSH1 0x0 DUP5 PUSH20 0xFFFFFFFFFFFFFFFFFFFFFFFFFFFFFFFFFFFFFFFF AND PUSH20 0xFFFFFFFFFFFFFFFFFFFFFFFFFFFFFFFFFFFFFFFF AND DUP2 MSTORE PUSH1 0x20 ADD SWAP1 DUP2 MSTORE PUSH1 0x20 ADD PUSH1 0x0 KECCAK256 DUP2 SWAP1 SSTORE POP PUSH1 0x0 DUP1 PUSH1 0x0 DUP4 DUP2 MSTORE PUSH1 0x20 ADD SWAP1 DUP2 MSTORE PUSH1 0x20 ADD PUSH1 0x0 KECCAK256 PUSH1 0x0 PUSH2 0x100 EXP DUP2 SLOAD DUP2 PUSH20 0xFFFFFFFFFFFFFFFFFFFFFFFFFFFFFFFFFFFFFFFF MUL NOT AND SWAP1 DUP4 PUSH20 0xFFFFFFFFFFFFFFFFFFFFFFFFFFFFFFFFFFFFFFFF AND MUL OR SWAP1 SSTORE POP POP POP JUMP JUMPDEST PUSH1 0x0 DUP3 DUP3 GT ISZERO ISZERO ISZERO PUSH2 0x194B JUMPI INVALID JUMPDEST DUP2 DUP4 SUB SWAP1 POP SWAP3 SWAP2 POP POP JUMP JUMPDEST PUSH1 0x0 PUSH20 0xFFFFFFFFFFFFFFFFFFFFFFFFFFFFFFFFFFFFFFFF AND PUSH1 0x0 DUP1 DUP4 DUP2 MSTORE PUSH1 0x20 ADD SWAP1 DUP2 MSTORE PUSH1 0x20 ADD PUSH1 0x0 KECCAK256 PUSH1 0x0 SWAP1 SLOAD SWAP1 PUSH2 0x100 EXP SWAP1 DIV PUSH20 0xFFFFFFFFFFFFFFFFFFFFFFFFFFFFFFFFFFFFFFFF AND PUSH20 0xFFFFFFFFFFFFFFFFFFFFFFFFFFFFFFFFFFFFFFFF AND EQ ISZERO ISZERO PUSH2 0x19C3 JUMPI PUSH1 0x0 DUP1 REVERT JUMPDEST DUP2 PUSH1 0x0 DUP1 DUP4 DUP2 MSTORE PUSH1 0x20 ADD SWAP1 DUP2 MSTORE PUSH1 0x20 ADD PUSH1 0x0 KECCAK256 PUSH1 0x0 PUSH2 0x100 EXP DUP2 SLOAD DUP2 PUSH20 0xFFFFFFFFFFFFFFFFFFFFFFFFFFFFFFFFFFFFFFFF MUL NOT AND SWAP1 DUP4 PUSH20 0xFFFFFFFFFFFFFFFFFFFFFFFFFFFFFFFFFFFFFFFF AND MUL OR SWAP1 SSTORE POP PUSH2 0x1A67 PUSH1 0x1 PUSH1 0x2 PUSH1 0x0 DUP6 PUSH20 0xFFFFFFFFFFFFFFFFFFFFFFFFFFFFFFFFFFFFFFFF AND PUSH20 0xFFFFFFFFFFFFFFFFFFFFFFFFFFFFFFFFFFFFFFFF AND DUP2 MSTORE PUSH1 0x20 ADD SWAP1 DUP2 MSTORE PUSH1 0x20 ADD PUSH1 0x0 KECCAK256 SLOAD PUSH2 0x1AC1 SWAP1 SWAP2 SWAP1 PUSH4 0xFFFFFFFF AND JUMP JUMPDEST PUSH1 0x2 PUSH1 0x0 DUP5 PUSH20 0xFFFFFFFFFFFFFFFFFFFFFFFFFFFFFFFFFFFFFFFF AND PUSH20 0xFFFFFFFFFFFFFFFFFFFFFFFFFFFFFFFFFFFFFFFF AND DUP2 MSTORE PUSH1 0x20 ADD SWAP1 DUP2 MSTORE PUSH1 0x20 ADD PUSH1 0x0 KECCAK256 DUP2 SWAP1 SSTORE POP POP POP JUMP JUMPDEST PUSH1 0x0 DUP1 DUP3 EXTCODESIZE SWAP1 POP PUSH1 0x0 DUP2 GT SWAP2 POP POP SWAP2 SWAP1 POP JUMP JUMPDEST PUSH1 0x0 DUP1 DUP3 DUP5 ADD SWAP1 POP DUP4 DUP2 LT ISZERO ISZERO ISZERO PUSH2 0x1AD5 JUMPI INVALID JUMPDEST DUP1 SWAP2 POP POP SWAP3 SWAP2 POP POP JUMP JUMPDEST DUP2 SLOAD DUP2 DUP4 SSTORE DUP2 DUP2 GT ISZERO PUSH2 0x1B06 JUMPI DUP2 DUP4 PUSH1 0x0 MSTORE PUSH1 0x20 PUSH1 0x0 KECCAK256 SWAP2 DUP3 ADD SWAP2 ADD PUSH2 0x1B05 SWAP2 SWAP1 PUSH2 0x1B0B JUMP JUMPDEST JUMPDEST POP POP POP JUMP JUMPDEST PUSH2 0x1B2D SWAP2 SWAP1 JUMPDEST DUP1 DUP3 GT ISZERO PUSH2 0x1B29 JUMPI PUSH1 0x0 DUP2 PUSH1 0x0 SWAP1 SSTORE POP PUSH1 0x1 ADD PUSH2 0x1B11 JUMP JUMPDEST POP SWAP1 JUMP JUMPDEST SWAP1 JUMP STOP LOG1 PUSH6 0x627A7A723058 KECCAK256 0x4e SELFDESTRUCT MOD 0x26 0x46 PUSH5 0x77BA3DF34D SWAP16 0xe6 LOG1 PUSH2 0x5F04 0xea DUP11 MUL 0xdc DUP4 PUSH22 0x9A00D24252A4EEDA1C00290000000000000000000000 "
				},
				"gasEstimates": {
					"creation": {
						"codeDepositCost": "1400800",
						"executionCost": "infinite",
						"totalCost": "infinite"
					},
					"external": {
						"approve(address,uint256)": "23887",
						"balanceOf(address)": "823",
						"exists(uint256)": "777",
						"getApproved(uint256)": "611",
						"isApprovedForAll(address,address)": "1062",
						"name()": "infinite",
						"ownerOf(uint256)": "844",
						"safeTransferFrom(address,address,uint256)": "infinite",
						"safeTransferFrom(address,address,uint256,bytes)": "infinite",
						"setApprovalForAll(address,bool)": "22831",
						"symbol()": "infinite",
						"tokenByIndex(uint256)": "1197",
						"tokenOfOwnerByIndex(address,uint256)": "1390",
						"tokenURI(uint256)": "infinite",
						"totalSupply()": "476",
						"transferFrom(address,address,uint256)": "infinite"
					},
					"internal": {
						"_burn(address,uint256)": "infinite",
						"_mint(address,uint256)": "infinite",
						"_setTokenURI(uint256,string memory)": "infinite",
						"addTokenTo(address,uint256)": "infinite",
						"removeTokenFrom(address,uint256)": "infinite"
					}
				},
				"methodIdentifiers": {
					"approve(address,uint256)": "095ea7b3",
					"balanceOf(address)": "70a08231",
					"exists(uint256)": "4f558e79",
					"getApproved(uint256)": "081812fc",
					"isApprovedForAll(address,address)": "e985e9c5",
					"name()": "06fdde03",
					"ownerOf(uint256)": "6352211e",
					"safeTransferFrom(address,address,uint256)": "42842e0e",
					"safeTransferFrom(address,address,uint256,bytes)": "b88d4fde",
					"setApprovalForAll(address,bool)": "a22cb465",
					"symbol()": "95d89b41",
					"tokenByIndex(uint256)": "4f6ccce7",
					"tokenOfOwnerByIndex(address,uint256)": "2f745c59",
					"tokenURI(uint256)": "c87b56dd",
					"totalSupply()": "18160ddd",
					"transferFrom(address,address,uint256)": "23b872dd"
				}
			},
			"userdoc": {
				"methods": {}
			}
		}
	}
}