{
	"contracts/ERC721/ERC721BasicToken.sol": {
		"ERC721BasicToken": {
			"abi": [
				{
					"constant": true,
					"inputs": [
						{
							"name": "_tokenId",
							"type": "uint256"
						}
					],
					"name": "getApproved",
					"outputs": [
						{
							"name": "",
							"type": "address"
						}
					],
					"payable": false,
					"stateMutability": "view",
					"type": "function"
				},
				{
					"constant": false,
					"inputs": [
						{
							"name": "_to",
							"type": "address"
						},
						{
							"name": "_tokenId",
							"type": "uint256"
						}
					],
					"name": "approve",
					"outputs": [],
					"payable": false,
					"stateMutability": "nonpayable",
					"type": "function"
				},
				{
					"constant": false,
					"inputs": [
						{
							"name": "_from",
							"type": "address"
						},
						{
							"name": "_to",
							"type": "address"
						},
						{
							"name": "_tokenId",
							"type": "uint256"
						}
					],
					"name": "transferFrom",
					"outputs": [],
					"payable": false,
					"stateMutability": "nonpayable",
					"type": "function"
				},
				{
					"constant": false,
					"inputs": [
						{
							"name": "_from",
							"type": "address"
						},
						{
							"name": "_to",
							"type": "address"
						},
						{
							"name": "_tokenId",
							"type": "uint256"
						}
					],
					"name": "safeTransferFrom",
					"outputs": [],
					"payable": false,
					"stateMutability": "nonpayable",
					"type": "function"
				},
				{
					"constant": true,
					"inputs": [
						{
							"name": "_tokenId",
							"type": "uint256"
						}
					],
					"name": "exists",
					"outputs": [
						{
							"name": "",
							"type": "bool"
						}
					],
					"payable": false,
					"stateMutability": "view",
					"type": "function"
				},
				{
					"constant": true,
					"inputs": [
						{
							"name": "_tokenId",
							"type": "uint256"
						}
					],
					"name": "ownerOf",
					"outputs": [
						{
							"name": "",
							"type": "address"
						}
					],
					"payable": false,
					"stateMutability": "view",
					"type": "function"
				},
				{
					"constant": true,
					"inputs": [
						{
							"name": "_owner",
							"type": "address"
						}
					],
					"name": "balanceOf",
					"outputs": [
						{
							"name": "",
							"type": "uint256"
						}
					],
					"payable": false,
					"stateMutability": "view",
					"type": "function"
				},
				{
					"constant": false,
					"inputs": [
						{
							"name": "_to",
							"type": "address"
						},
						{
							"name": "_approved",
							"type": "bool"
						}
					],
					"name": "setApprovalForAll",
					"outputs": [],
					"payable": false,
					"stateMutability": "nonpayable",
					"type": "function"
				},
				{
					"constant": false,
					"inputs": [
						{
							"name": "_from",
							"type": "address"
						},
						{
							"name": "_to",
							"type": "address"
						},
						{
							"name": "_tokenId",
							"type": "uint256"
						},
						{
							"name": "_data",
							"type": "bytes"
						}
					],
					"name": "safeTransferFrom",
					"outputs": [],
					"payable": false,
					"stateMutability": "nonpayable",
					"type": "function"
				},
				{
					"constant": true,
					"inputs": [
						{
							"name": "_owner",
							"type": "address"
						},
						{
							"name": "_operator",
							"type": "address"
						}
					],
					"name": "isApprovedForAll",
					"outputs": [
						{
							"name": "",
							"type": "bool"
						}
					],
					"payable": false,
					"stateMutability": "view",
					"type": "function"
				},
				{
					"anonymous": false,
					"inputs": [
						{
							"indexed": true,
							"name": "_from",
							"type": "address"
						},
						{
							"indexed": true,
							"name": "_to",
							"type": "address"
						},
						{
							"indexed": false,
							"name": "_tokenId",
							"type": "uint256"
						}
					],
					"name": "Transfer",
					"type": "event"
				},
				{
					"anonymous": false,
					"inputs": [
						{
							"indexed": true,
							"name": "_owner",
							"type": "address"
						},
						{
							"indexed": true,
							"name": "_approved",
							"type": "address"
						},
						{
							"indexed": false,
							"name": "_tokenId",
							"type": "uint256"
						}
					],
					"name": "Approval",
					"type": "event"
				},
				{
					"anonymous": false,
					"inputs": [
						{
							"indexed": true,
							"name": "_owner",
							"type": "address"
						},
						{
							"indexed": true,
							"name": "_operator",
							"type": "address"
						},
						{
							"indexed": false,
							"name": "_approved",
							"type": "bool"
						}
					],
					"name": "ApprovalForAll",
					"type": "event"
				}
			],
			"devdoc": {
				"methods": {
					"approve(address,uint256)": {
						"details": "Approves another address to transfer the given token ID\rThe zero address indicates there is no approved address.\rThere can only be one approved address per token at a given time.\rCan only be called by the token owner or an approved operator.\r",
						"params": {
							"_to": "address to be approved for the given token ID\r",
							"_tokenId": "uint256 ID of the token to be approved\r"
						}
					},
					"balanceOf(address)": {
						"details": "Gets the balance of the specified address\r",
						"params": {
							"_owner": "address to query the balance of\r"
						},
						"return": "uint256 representing the amount owned by the passed address\r"
					},
					"exists(uint256)": {
						"details": "Returns whether the specified token exists\r",
						"params": {
							"_tokenId": "uint256 ID of the token to query the existance of\r"
						},
						"return": "whether the token exists\r"
					},
					"getApproved(uint256)": {
						"details": "Gets the approved address for a token ID, or zero if no address set\r",
						"params": {
							"_tokenId": "uint256 ID of the token to query the approval of\r"
						},
						"return": "address currently approved for a the given token ID\r"
					},
					"isApprovedForAll(address,address)": {
						"details": "Tells whether an operator is approved by a given owner\r",
						"params": {
							"_operator": "operator address which you want to query the approval of\r",
							"_owner": "owner address which you want to query the approval of\r"
						},
						"return": "bool whether the given operator is approved by the given owner\r"
					},
					"ownerOf(uint256)": {
						"details": "Gets the owner of the specified token ID\r",
						"params": {
							"_tokenId": "uint256 ID of the token to query the owner of\r"
						},
						"return": "owner address currently marked as the owner of the given token ID\r"
					},
					"safeTransferFrom(address,address,uint256)": {
						"details": "Safely transfers the ownership of a given token ID to another address\rIf the target address is a contract, it must implement `onERC721Received`,\r which is called upon a safe transfer, and return the magic value\r `bytes4(keccak256(\"onERC721Received(address,uint256,bytes)\"))`; otherwise,\r the transfer is reverted.\rRequires the msg sender to be the owner, approved, or operator\r",
						"params": {
							"_from": "current owner of the token\r",
							"_to": "address to receive the ownership of the given token ID\r",
							"_tokenId": "uint256 ID of the token to be transferred\r"
						}
					},
					"safeTransferFrom(address,address,uint256,bytes)": {
						"details": "Safely transfers the ownership of a given token ID to another address\rIf the target address is a contract, it must implement `onERC721Received`,\r which is called upon a safe transfer, and return the magic value\r `bytes4(keccak256(\"onERC721Received(address,uint256,bytes)\"))`; otherwise,\r the transfer is reverted.\rRequires the msg sender to be the owner, approved, or operator\r",
						"params": {
							"_data": "bytes data to send along with a safe transfer check\r",
							"_from": "current owner of the token\r",
							"_to": "address to receive the ownership of the given token ID\r",
							"_tokenId": "uint256 ID of the token to be transferred\r"
						}
					},
					"setApprovalForAll(address,bool)": {
						"details": "Sets or unsets the approval of a given operator\rAn operator is allowed to transfer all tokens of the sender on their behalf\r",
						"params": {
							"_approved": "representing the status of the approval to be set\r",
							"_to": "operator address to set the approval\r"
						}
					},
					"transferFrom(address,address,uint256)": {
						"details": "Transfers the ownership of a given token ID to another address\rUsage of this method is discouraged, use `safeTransferFrom` whenever possible\rRequires the msg sender to be the owner, approved, or operator\r",
						"params": {
							"_from": "current owner of the token\r",
							"_to": "address to receive the ownership of the given token ID\r",
							"_tokenId": "uint256 ID of the token to be transferred\r"
						}
					}
				},
				"title": "ERC721 Non-Fungible Token Standard basic implementation\r"
			},
			"evm": {
				"assembly": "    /* \"contracts/ERC721/ERC721BasicToken.sol\":319:11045  contract ERC721BasicToken is ERC721Basic {\r... */\n  mstore(0x40, 0x80)\n  callvalue\n    /* \"--CODEGEN--\":8:17   */\n  dup1\n    /* \"--CODEGEN--\":5:7   */\n  iszero\n  tag_1\n  jumpi\n    /* \"--CODEGEN--\":30:31   */\n  0x0\n    /* \"--CODEGEN--\":27:28   */\n  dup1\n    /* \"--CODEGEN--\":20:32   */\n  revert\n    /* \"--CODEGEN--\":5:7   */\ntag_1:\n    /* \"contracts/ERC721/ERC721BasicToken.sol\":319:11045  contract ERC721BasicToken is ERC721Basic {\r... */\n  pop\n  dataSize(sub_0)\n  dup1\n  dataOffset(sub_0)\n  0x0\n  codecopy\n  0x0\n  return\nstop\n\nsub_0: assembly {\n        /* \"contracts/ERC721/ERC721BasicToken.sol\":319:11045  contract ERC721BasicToken is ERC721Basic {\r... */\n      mstore(0x40, 0x80)\n      jumpi(tag_1, lt(calldatasize, 0x4))\n      calldataload(0x0)\n      0x100000000000000000000000000000000000000000000000000000000\n      swap1\n      div\n      0xffffffff\n      and\n      dup1\n      0x81812fc\n      eq\n      tag_2\n      jumpi\n      dup1\n      0x95ea7b3\n      eq\n      tag_3\n      jumpi\n      dup1\n      0x23b872dd\n      eq\n      tag_4\n      jumpi\n      dup1\n      0x42842e0e\n      eq\n      tag_5\n      jumpi\n      dup1\n      0x4f558e79\n      eq\n      tag_6\n      jumpi\n      dup1\n      0x6352211e\n      eq\n      tag_7\n      jumpi\n      dup1\n      0x70a08231\n      eq\n      tag_8\n      jumpi\n      dup1\n      0xa22cb465\n      eq\n      tag_9\n      jumpi\n      dup1\n      0xb88d4fde\n      eq\n      tag_10\n      jumpi\n      dup1\n      0xe985e9c5\n      eq\n      tag_11\n      jumpi\n    tag_1:\n      0x0\n      dup1\n      revert\n        /* \"contracts/ERC721/ERC721BasicToken.sol\":3686:3799  function getApproved(uint256 _tokenId) public view returns (address) {\r... */\n    tag_2:\n      callvalue\n        /* \"--CODEGEN--\":8:17   */\n      dup1\n        /* \"--CODEGEN--\":5:7   */\n      iszero\n      tag_12\n      jumpi\n        /* \"--CODEGEN--\":30:31   */\n      0x0\n        /* \"--CODEGEN--\":27:28   */\n      dup1\n        /* \"--CODEGEN--\":20:32   */\n      revert\n        /* \"--CODEGEN--\":5:7   */\n    tag_12:\n        /* \"contracts/ERC721/ERC721BasicToken.sol\":3686:3799  function getApproved(uint256 _tokenId) public view returns (address) {\r... */\n      pop\n      tag_13\n      0x4\n      dup1\n      calldatasize\n      sub\n      dup2\n      add\n      swap1\n      dup1\n      dup1\n      calldataload\n      swap1\n      0x20\n      add\n      swap1\n      swap3\n      swap2\n      swap1\n      pop\n      pop\n      pop\n      jump(tag_14)\n    tag_13:\n      mload(0x40)\n      dup1\n      dup3\n      0xffffffffffffffffffffffffffffffffffffffff\n      and\n      0xffffffffffffffffffffffffffffffffffffffff\n      and\n      dup2\n      mstore\n      0x20\n      add\n      swap2\n      pop\n      pop\n      mload(0x40)\n      dup1\n      swap2\n      sub\n      swap1\n      return\n        /* \"contracts/ERC721/ERC721BasicToken.sol\":3091:3450  function approve(address _to, uint256 _tokenId) public {\r... */\n    tag_3:\n      callvalue\n        /* \"--CODEGEN--\":8:17   */\n      dup1\n        /* \"--CODEGEN--\":5:7   */\n      iszero\n      tag_15\n      jumpi\n        /* \"--CODEGEN--\":30:31   */\n      0x0\n        /* \"--CODEGEN--\":27:28   */\n      dup1\n        /* \"--CODEGEN--\":20:32   */\n      revert\n        /* \"--CODEGEN--\":5:7   */\n    tag_15:\n        /* \"contracts/ERC721/ERC721BasicToken.sol\":3091:3450  function approve(address _to, uint256 _tokenId) public {\r... */\n      pop\n      tag_16\n      0x4\n      dup1\n      calldatasize\n      sub\n      dup2\n      add\n      swap1\n      dup1\n      dup1\n      calldataload\n      0xffffffffffffffffffffffffffffffffffffffff\n      and\n      swap1\n      0x20\n      add\n      swap1\n      swap3\n      swap2\n      swap1\n      dup1\n      calldataload\n      swap1\n      0x20\n      add\n      swap1\n      swap3\n      swap2\n      swap1\n      pop\n      pop\n      pop\n      jump(tag_17)\n    tag_16:\n      stop\n        /* \"contracts/ERC721/ERC721BasicToken.sol\":5184:5504  function transferFrom(address _from, address _to, uint256 _tokenId) public canTransfer(_tokenId) {\r... */\n    tag_4:\n      callvalue\n        /* \"--CODEGEN--\":8:17   */\n      dup1\n        /* \"--CODEGEN--\":5:7   */\n      iszero\n      tag_18\n      jumpi\n        /* \"--CODEGEN--\":30:31   */\n      0x0\n        /* \"--CODEGEN--\":27:28   */\n      dup1\n        /* \"--CODEGEN--\":20:32   */\n      revert\n        /* \"--CODEGEN--\":5:7   */\n    tag_18:\n        /* \"contracts/ERC721/ERC721BasicToken.sol\":5184:5504  function transferFrom(address _from, address _to, uint256 _tokenId) public canTransfer(_tokenId) {\r... */\n      pop\n      tag_19\n      0x4\n      dup1\n      calldatasize\n      sub\n      dup2\n      add\n      swap1\n      dup1\n      dup1\n      calldataload\n      0xffffffffffffffffffffffffffffffffffffffff\n      and\n      swap1\n      0x20\n      add\n      swap1\n      swap3\n      swap2\n      swap1\n      dup1\n      calldataload\n      0xffffffffffffffffffffffffffffffffffffffff\n      and\n      swap1\n      0x20\n      add\n      swap1\n      swap3\n      swap2\n      swap1\n      dup1\n      calldataload\n      swap1\n      0x20\n      add\n      swap1\n      swap3\n      swap2\n      swap1\n      pop\n      pop\n      pop\n      jump(tag_20)\n    tag_19:\n      stop\n        /* \"contracts/ERC721/ERC721BasicToken.sol\":6124:6313  function safeTransferFrom(\r... */\n    tag_5:\n      callvalue\n        /* \"--CODEGEN--\":8:17   */\n      dup1\n        /* \"--CODEGEN--\":5:7   */\n      iszero\n      tag_21\n      jumpi\n        /* \"--CODEGEN--\":30:31   */\n      0x0\n        /* \"--CODEGEN--\":27:28   */\n      dup1\n        /* \"--CODEGEN--\":20:32   */\n      revert\n        /* \"--CODEGEN--\":5:7   */\n    tag_21:\n        /* \"contracts/ERC721/ERC721BasicToken.sol\":6124:6313  function safeTransferFrom(\r... */\n      pop\n      tag_22\n      0x4\n      dup1\n      calldatasize\n      sub\n      dup2\n      add\n      swap1\n      dup1\n      dup1\n      calldataload\n      0xffffffffffffffffffffffffffffffffffffffff\n      and\n      swap1\n      0x20\n      add\n      swap1\n      swap3\n      swap2\n      swap1\n      dup1\n      calldataload\n      0xffffffffffffffffffffffffffffffffffffffff\n      and\n      swap1\n      0x20\n      add\n      swap1\n      swap3\n      swap2\n      swap1\n      dup1\n      calldataload\n      swap1\n      0x20\n      add\n      swap1\n      swap3\n      swap2\n      swap1\n      pop\n      pop\n      pop\n      jump(tag_23)\n    tag_22:\n      stop\n        /* \"contracts/ERC721/ERC721BasicToken.sol\":2525:2668  function exists(uint256 _tokenId) public view returns (bool) {\r... */\n    tag_6:\n      callvalue\n        /* \"--CODEGEN--\":8:17   */\n      dup1\n        /* \"--CODEGEN--\":5:7   */\n      iszero\n      tag_24\n      jumpi\n        /* \"--CODEGEN--\":30:31   */\n      0x0\n        /* \"--CODEGEN--\":27:28   */\n      dup1\n        /* \"--CODEGEN--\":20:32   */\n      revert\n        /* \"--CODEGEN--\":5:7   */\n    tag_24:\n        /* \"contracts/ERC721/ERC721BasicToken.sol\":2525:2668  function exists(uint256 _tokenId) public view returns (bool) {\r... */\n      pop\n      tag_25\n      0x4\n      dup1\n      calldatasize\n      sub\n      dup2\n      add\n      swap1\n      dup1\n      dup1\n      calldataload\n      swap1\n      0x20\n      add\n      swap1\n      swap3\n      swap2\n      swap1\n      pop\n      pop\n      pop\n      jump(tag_26)\n    tag_25:\n      mload(0x40)\n      dup1\n      dup3\n      iszero\n      iszero\n      iszero\n      iszero\n      dup2\n      mstore\n      0x20\n      add\n      swap2\n      pop\n      pop\n      mload(0x40)\n      dup1\n      swap2\n      sub\n      swap1\n      return\n        /* \"contracts/ERC721/ERC721BasicToken.sol\":2176:2344  function ownerOf(uint256 _tokenId) public view returns (address) {\r... */\n    tag_7:\n      callvalue\n        /* \"--CODEGEN--\":8:17   */\n      dup1\n        /* \"--CODEGEN--\":5:7   */\n      iszero\n      tag_27\n      jumpi\n        /* \"--CODEGEN--\":30:31   */\n      0x0\n        /* \"--CODEGEN--\":27:28   */\n      dup1\n        /* \"--CODEGEN--\":20:32   */\n      revert\n        /* \"--CODEGEN--\":5:7   */\n    tag_27:\n        /* \"contracts/ERC721/ERC721BasicToken.sol\":2176:2344  function ownerOf(uint256 _tokenId) public view returns (address) {\r... */\n      pop\n      tag_28\n      0x4\n      dup1\n      calldatasize\n      sub\n      dup2\n      add\n      swap1\n      dup1\n      dup1\n      calldataload\n      swap1\n      0x20\n      add\n      swap1\n      swap3\n      swap2\n      swap1\n      pop\n      pop\n      pop\n      jump(tag_29)\n    tag_28:\n      mload(0x40)\n      dup1\n      dup3\n      0xffffffffffffffffffffffffffffffffffffffff\n      and\n      0xffffffffffffffffffffffffffffffffffffffff\n      and\n      dup2\n      mstore\n      0x20\n      add\n      swap2\n      pop\n      pop\n      mload(0x40)\n      dup1\n      swap2\n      sub\n      swap1\n      return\n        /* \"contracts/ERC721/ERC721BasicToken.sol\":1815:1960  function balanceOf(address _owner) public view returns (uint256) {\r... */\n    tag_8:\n      callvalue\n        /* \"--CODEGEN--\":8:17   */\n      dup1\n        /* \"--CODEGEN--\":5:7   */\n      iszero\n      tag_30\n      jumpi\n        /* \"--CODEGEN--\":30:31   */\n      0x0\n        /* \"--CODEGEN--\":27:28   */\n      dup1\n        /* \"--CODEGEN--\":20:32   */\n      revert\n        /* \"--CODEGEN--\":5:7   */\n    tag_30:\n        /* \"contracts/ERC721/ERC721BasicToken.sol\":1815:1960  function balanceOf(address _owner) public view returns (uint256) {\r... */\n      pop\n      tag_31\n      0x4\n      dup1\n      calldatasize\n      sub\n      dup2\n      add\n      swap1\n      dup1\n      dup1\n      calldataload\n      0xffffffffffffffffffffffffffffffffffffffff\n      and\n      swap1\n      0x20\n      add\n      swap1\n      swap3\n      swap2\n      swap1\n      pop\n      pop\n      pop\n      jump(tag_32)\n    tag_31:\n      mload(0x40)\n      dup1\n      dup3\n      dup2\n      mstore\n      0x20\n      add\n      swap2\n      pop\n      pop\n      mload(0x40)\n      dup1\n      swap2\n      sub\n      swap1\n      return\n        /* \"contracts/ERC721/ERC721BasicToken.sol\":4087:4291  function setApprovalForAll(address _to, bool _approved) public {\r... */\n    tag_9:\n      callvalue\n        /* \"--CODEGEN--\":8:17   */\n      dup1\n        /* \"--CODEGEN--\":5:7   */\n      iszero\n      tag_33\n      jumpi\n        /* \"--CODEGEN--\":30:31   */\n      0x0\n        /* \"--CODEGEN--\":27:28   */\n      dup1\n        /* \"--CODEGEN--\":20:32   */\n      revert\n        /* \"--CODEGEN--\":5:7   */\n    tag_33:\n        /* \"contracts/ERC721/ERC721BasicToken.sol\":4087:4291  function setApprovalForAll(address _to, bool _approved) public {\r... */\n      pop\n      tag_34\n      0x4\n      dup1\n      calldatasize\n      sub\n      dup2\n      add\n      swap1\n      dup1\n      dup1\n      calldataload\n      0xffffffffffffffffffffffffffffffffffffffff\n      and\n      swap1\n      0x20\n      add\n      swap1\n      swap3\n      swap2\n      swap1\n      dup1\n      calldataload\n      iszero\n      iszero\n      swap1\n      0x20\n      add\n      swap1\n      swap3\n      swap2\n      swap1\n      pop\n      pop\n      pop\n      jump(tag_35)\n    tag_34:\n      stop\n        /* \"contracts/ERC721/ERC721BasicToken.sol\":7003:7271  function safeTransferFrom(\r... */\n    tag_10:\n      callvalue\n        /* \"--CODEGEN--\":8:17   */\n      dup1\n        /* \"--CODEGEN--\":5:7   */\n      iszero\n      tag_36\n      jumpi\n        /* \"--CODEGEN--\":30:31   */\n      0x0\n        /* \"--CODEGEN--\":27:28   */\n      dup1\n        /* \"--CODEGEN--\":20:32   */\n      revert\n        /* \"--CODEGEN--\":5:7   */\n    tag_36:\n        /* \"contracts/ERC721/ERC721BasicToken.sol\":7003:7271  function safeTransferFrom(\r... */\n      pop\n      tag_37\n      0x4\n      dup1\n      calldatasize\n      sub\n      dup2\n      add\n      swap1\n      dup1\n      dup1\n      calldataload\n      0xffffffffffffffffffffffffffffffffffffffff\n      and\n      swap1\n      0x20\n      add\n      swap1\n      swap3\n      swap2\n      swap1\n      dup1\n      calldataload\n      0xffffffffffffffffffffffffffffffffffffffff\n      and\n      swap1\n      0x20\n      add\n      swap1\n      swap3\n      swap2\n      swap1\n      dup1\n      calldataload\n      swap1\n      0x20\n      add\n      swap1\n      swap3\n      swap2\n      swap1\n      dup1\n      calldataload\n      swap1\n      0x20\n      add\n      swap1\n      dup3\n      add\n      dup1\n      calldataload\n      swap1\n      0x20\n      add\n      swap1\n      dup1\n      dup1\n      0x1f\n      add\n      0x20\n      dup1\n      swap2\n      div\n      mul\n      0x20\n      add\n      mload(0x40)\n      swap1\n      dup2\n      add\n      0x40\n      mstore\n      dup1\n      swap4\n      swap3\n      swap2\n      swap1\n      dup2\n      dup2\n      mstore\n      0x20\n      add\n      dup4\n      dup4\n      dup1\n      dup3\n      dup5\n      calldatacopy\n      dup3\n      add\n      swap2\n      pop\n      pop\n      pop\n      pop\n      pop\n      pop\n      swap2\n      swap3\n      swap2\n      swap3\n      swap1\n      pop\n      pop\n      pop\n      jump(tag_38)\n    tag_37:\n      stop\n        /* \"contracts/ERC721/ERC721BasicToken.sol\":4608:4752  function isApprovedForAll(address _owner, address _operator) public view returns (bool) {\r... */\n    tag_11:\n      callvalue\n        /* \"--CODEGEN--\":8:17   */\n      dup1\n        /* \"--CODEGEN--\":5:7   */\n      iszero\n      tag_39\n      jumpi\n        /* \"--CODEGEN--\":30:31   */\n      0x0\n        /* \"--CODEGEN--\":27:28   */\n      dup1\n        /* \"--CODEGEN--\":20:32   */\n      revert\n        /* \"--CODEGEN--\":5:7   */\n    tag_39:\n        /* \"contracts/ERC721/ERC721BasicToken.sol\":4608:4752  function isApprovedForAll(address _owner, address _operator) public view returns (bool) {\r... */\n      pop\n      tag_40\n      0x4\n      dup1\n      calldatasize\n      sub\n      dup2\n      add\n      swap1\n      dup1\n      dup1\n      calldataload\n      0xffffffffffffffffffffffffffffffffffffffff\n      and\n      swap1\n      0x20\n      add\n      swap1\n      swap3\n      swap2\n      swap1\n      dup1\n      calldataload\n      0xffffffffffffffffffffffffffffffffffffffff\n      and\n      swap1\n      0x20\n      add\n      swap1\n      swap3\n      swap2\n      swap1\n      pop\n      pop\n      pop\n      jump(tag_41)\n    tag_40:\n      mload(0x40)\n      dup1\n      dup3\n      iszero\n      iszero\n      iszero\n      iszero\n      dup2\n      mstore\n      0x20\n      add\n      swap2\n      pop\n      pop\n      mload(0x40)\n      dup1\n      swap2\n      sub\n      swap1\n      return\n        /* \"contracts/ERC721/ERC721BasicToken.sol\":3686:3799  function getApproved(uint256 _tokenId) public view returns (address) {\r... */\n    tag_14:\n        /* \"contracts/ERC721/ERC721BasicToken.sol\":3746:3753  address */\n      0x0\n        /* \"contracts/ERC721/ERC721BasicToken.sol\":3769:3783  tokenApprovals */\n      0x1\n        /* \"contracts/ERC721/ERC721BasicToken.sol\":3769:3793  tokenApprovals[_tokenId] */\n      0x0\n        /* \"contracts/ERC721/ERC721BasicToken.sol\":3784:3792  _tokenId */\n      dup4\n        /* \"contracts/ERC721/ERC721BasicToken.sol\":3769:3793  tokenApprovals[_tokenId] */\n      dup2\n      mstore\n      0x20\n      add\n      swap1\n      dup2\n      mstore\n      0x20\n      add\n      0x0\n      keccak256\n      0x0\n      swap1\n      sload\n      swap1\n      0x100\n      exp\n      swap1\n      div\n      0xffffffffffffffffffffffffffffffffffffffff\n      and\n        /* \"contracts/ERC721/ERC721BasicToken.sol\":3762:3793  return tokenApprovals[_tokenId] */\n      swap1\n      pop\n        /* \"contracts/ERC721/ERC721BasicToken.sol\":3686:3799  function getApproved(uint256 _tokenId) public view returns (address) {\r... */\n      swap2\n      swap1\n      pop\n      jump\t// out\n        /* \"contracts/ERC721/ERC721BasicToken.sol\":3091:3450  function approve(address _to, uint256 _tokenId) public {\r... */\n    tag_17:\n        /* \"contracts/ERC721/ERC721BasicToken.sol\":3153:3166  address owner */\n      0x0\n        /* \"contracts/ERC721/ERC721BasicToken.sol\":3169:3186  ownerOf(_tokenId) */\n      tag_44\n        /* \"contracts/ERC721/ERC721BasicToken.sol\":3177:3185  _tokenId */\n      dup3\n        /* \"contracts/ERC721/ERC721BasicToken.sol\":3169:3176  ownerOf */\n      tag_29\n        /* \"contracts/ERC721/ERC721BasicToken.sol\":3169:3186  ownerOf(_tokenId) */\n      jump\t// in\n    tag_44:\n        /* \"contracts/ERC721/ERC721BasicToken.sol\":3153:3186  address owner = ownerOf(_tokenId) */\n      swap1\n      pop\n        /* \"contracts/ERC721/ERC721BasicToken.sol\":3208:3213  owner */\n      dup1\n        /* \"contracts/ERC721/ERC721BasicToken.sol\":3201:3213  _to != owner */\n      0xffffffffffffffffffffffffffffffffffffffff\n      and\n        /* \"contracts/ERC721/ERC721BasicToken.sol\":3201:3204  _to */\n      dup4\n        /* \"contracts/ERC721/ERC721BasicToken.sol\":3201:3213  _to != owner */\n      0xffffffffffffffffffffffffffffffffffffffff\n      and\n      eq\n      iszero\n        /* \"contracts/ERC721/ERC721BasicToken.sol\":3193:3214  require(_to != owner) */\n      iszero\n      iszero\n      tag_45\n      jumpi\n      0x0\n      dup1\n      revert\n    tag_45:\n        /* \"contracts/ERC721/ERC721BasicToken.sol\":3243:3248  owner */\n      dup1\n        /* \"contracts/ERC721/ERC721BasicToken.sol\":3229:3248  msg.sender == owner */\n      0xffffffffffffffffffffffffffffffffffffffff\n      and\n        /* \"contracts/ERC721/ERC721BasicToken.sol\":3229:3239  msg.sender */\n      caller\n        /* \"contracts/ERC721/ERC721BasicToken.sol\":3229:3248  msg.sender == owner */\n      0xffffffffffffffffffffffffffffffffffffffff\n      and\n      eq\n        /* \"contracts/ERC721/ERC721BasicToken.sol\":3229:3287  msg.sender == owner || isApprovedForAll(owner, msg.sender) */\n      dup1\n      tag_46\n      jumpi\n      pop\n        /* \"contracts/ERC721/ERC721BasicToken.sol\":3252:3287  isApprovedForAll(owner, msg.sender) */\n      tag_47\n        /* \"contracts/ERC721/ERC721BasicToken.sol\":3269:3274  owner */\n      dup2\n        /* \"contracts/ERC721/ERC721BasicToken.sol\":3276:3286  msg.sender */\n      caller\n        /* \"contracts/ERC721/ERC721BasicToken.sol\":3252:3268  isApprovedForAll */\n      tag_41\n        /* \"contracts/ERC721/ERC721BasicToken.sol\":3252:3287  isApprovedForAll(owner, msg.sender) */\n      jump\t// in\n    tag_47:\n        /* \"contracts/ERC721/ERC721BasicToken.sol\":3229:3287  msg.sender == owner || isApprovedForAll(owner, msg.sender) */\n    tag_46:\n        /* \"contracts/ERC721/ERC721BasicToken.sol\":3221:3288  require(msg.sender == owner || isApprovedForAll(owner, msg.sender)) */\n      iszero\n      iszero\n      tag_48\n      jumpi\n      0x0\n      dup1\n      revert\n    tag_48:\n        /* \"contracts/ERC721/ERC721BasicToken.sol\":3334:3335  0 */\n      0x0\n        /* \"contracts/ERC721/ERC721BasicToken.sol\":3301:3336  getApproved(_tokenId) != address(0) */\n      0xffffffffffffffffffffffffffffffffffffffff\n      and\n        /* \"contracts/ERC721/ERC721BasicToken.sol\":3301:3322  getApproved(_tokenId) */\n      tag_49\n        /* \"contracts/ERC721/ERC721BasicToken.sol\":3313:3321  _tokenId */\n      dup4\n        /* \"contracts/ERC721/ERC721BasicToken.sol\":3301:3312  getApproved */\n      tag_14\n        /* \"contracts/ERC721/ERC721BasicToken.sol\":3301:3322  getApproved(_tokenId) */\n      jump\t// in\n    tag_49:\n        /* \"contracts/ERC721/ERC721BasicToken.sol\":3301:3336  getApproved(_tokenId) != address(0) */\n      0xffffffffffffffffffffffffffffffffffffffff\n      and\n      eq\n      iszero\n        /* \"contracts/ERC721/ERC721BasicToken.sol\":3301:3357  getApproved(_tokenId) != address(0) || _to != address(0) */\n      dup1\n      tag_50\n      jumpi\n      pop\n        /* \"contracts/ERC721/ERC721BasicToken.sol\":3355:3356  0 */\n      0x0\n        /* \"contracts/ERC721/ERC721BasicToken.sol\":3340:3357  _to != address(0) */\n      0xffffffffffffffffffffffffffffffffffffffff\n      and\n        /* \"contracts/ERC721/ERC721BasicToken.sol\":3340:3343  _to */\n      dup4\n        /* \"contracts/ERC721/ERC721BasicToken.sol\":3340:3357  _to != address(0) */\n      0xffffffffffffffffffffffffffffffffffffffff\n      and\n      eq\n      iszero\n        /* \"contracts/ERC721/ERC721BasicToken.sol\":3301:3357  getApproved(_tokenId) != address(0) || _to != address(0) */\n    tag_50:\n        /* \"contracts/ERC721/ERC721BasicToken.sol\":3297:3445  if (getApproved(_tokenId) != address(0) || _to != address(0)) {\r... */\n      iszero\n      tag_51\n      jumpi\n        /* \"contracts/ERC721/ERC721BasicToken.sol\":3395:3398  _to */\n      dup3\n        /* \"contracts/ERC721/ERC721BasicToken.sol\":3368:3382  tokenApprovals */\n      0x1\n        /* \"contracts/ERC721/ERC721BasicToken.sol\":3368:3392  tokenApprovals[_tokenId] */\n      0x0\n        /* \"contracts/ERC721/ERC721BasicToken.sol\":3383:3391  _tokenId */\n      dup5\n        /* \"contracts/ERC721/ERC721BasicToken.sol\":3368:3392  tokenApprovals[_tokenId] */\n      dup2\n      mstore\n      0x20\n      add\n      swap1\n      dup2\n      mstore\n      0x20\n      add\n      0x0\n      keccak256\n      0x0\n        /* \"contracts/ERC721/ERC721BasicToken.sol\":3368:3398  tokenApprovals[_tokenId] = _to */\n      0x100\n      exp\n      dup2\n      sload\n      dup2\n      0xffffffffffffffffffffffffffffffffffffffff\n      mul\n      not\n      and\n      swap1\n      dup4\n      0xffffffffffffffffffffffffffffffffffffffff\n      and\n      mul\n      or\n      swap1\n      sstore\n      pop\n        /* \"contracts/ERC721/ERC721BasicToken.sol\":3423:3426  _to */\n      dup3\n        /* \"contracts/ERC721/ERC721BasicToken.sol\":3407:3437  Approval(owner, _to, _tokenId) */\n      0xffffffffffffffffffffffffffffffffffffffff\n      and\n        /* \"contracts/ERC721/ERC721BasicToken.sol\":3416:3421  owner */\n      dup2\n        /* \"contracts/ERC721/ERC721BasicToken.sol\":3407:3437  Approval(owner, _to, _tokenId) */\n      0xffffffffffffffffffffffffffffffffffffffff\n      and\n      0x8c5be1e5ebec7d5bd14f71427d1e84f3dd0314c0f7b2291e5b200ac8c7c3b925\n        /* \"contracts/ERC721/ERC721BasicToken.sol\":3428:3436  _tokenId */\n      dup5\n        /* \"contracts/ERC721/ERC721BasicToken.sol\":3407:3437  Approval(owner, _to, _tokenId) */\n      mload(0x40)\n      dup1\n      dup3\n      dup2\n      mstore\n      0x20\n      add\n      swap2\n      pop\n      pop\n      mload(0x40)\n      dup1\n      swap2\n      sub\n      swap1\n      log3\n        /* \"contracts/ERC721/ERC721BasicToken.sol\":3297:3445  if (getApproved(_tokenId) != address(0) || _to != address(0)) {\r... */\n    tag_51:\n        /* \"contracts/ERC721/ERC721BasicToken.sol\":3091:3450  function approve(address _to, uint256 _tokenId) public {\r... */\n      pop\n      pop\n      pop\n      jump\t// out\n        /* \"contracts/ERC721/ERC721BasicToken.sol\":5184:5504  function transferFrom(address _from, address _to, uint256 _tokenId) public canTransfer(_tokenId) {\r... */\n    tag_20:\n        /* \"contracts/ERC721/ERC721BasicToken.sol\":5271:5279  _tokenId */\n      dup1\n        /* \"contracts/ERC721/ERC721BasicToken.sol\":1566:1605  isApprovedOrOwner(msg.sender, _tokenId) */\n      tag_53\n        /* \"contracts/ERC721/ERC721BasicToken.sol\":1584:1594  msg.sender */\n      caller\n        /* \"contracts/ERC721/ERC721BasicToken.sol\":1596:1604  _tokenId */\n      dup3\n        /* \"contracts/ERC721/ERC721BasicToken.sol\":1566:1583  isApprovedOrOwner */\n      tag_54\n        /* \"contracts/ERC721/ERC721BasicToken.sol\":1566:1605  isApprovedOrOwner(msg.sender, _tokenId) */\n      jump\t// in\n    tag_53:\n        /* \"contracts/ERC721/ERC721BasicToken.sol\":1558:1606  require(isApprovedOrOwner(msg.sender, _tokenId)) */\n      iszero\n      iszero\n      tag_55\n      jumpi\n      0x0\n      dup1\n      revert\n    tag_55:\n        /* \"contracts/ERC721/ERC721BasicToken.sol\":5313:5314  0 */\n      0x0\n        /* \"contracts/ERC721/ERC721BasicToken.sol\":5296:5315  _from != address(0) */\n      0xffffffffffffffffffffffffffffffffffffffff\n      and\n        /* \"contracts/ERC721/ERC721BasicToken.sol\":5296:5301  _from */\n      dup5\n        /* \"contracts/ERC721/ERC721BasicToken.sol\":5296:5315  _from != address(0) */\n      0xffffffffffffffffffffffffffffffffffffffff\n      and\n      eq\n      iszero\n        /* \"contracts/ERC721/ERC721BasicToken.sol\":5288:5316  require(_from != address(0)) */\n      iszero\n      iszero\n      tag_57\n      jumpi\n      0x0\n      dup1\n      revert\n    tag_57:\n        /* \"contracts/ERC721/ERC721BasicToken.sol\":5346:5347  0 */\n      0x0\n        /* \"contracts/ERC721/ERC721BasicToken.sol\":5331:5348  _to != address(0) */\n      0xffffffffffffffffffffffffffffffffffffffff\n      and\n        /* \"contracts/ERC721/ERC721BasicToken.sol\":5331:5334  _to */\n      dup4\n        /* \"contracts/ERC721/ERC721BasicToken.sol\":5331:5348  _to != address(0) */\n      0xffffffffffffffffffffffffffffffffffffffff\n      and\n      eq\n      iszero\n        /* \"contracts/ERC721/ERC721BasicToken.sol\":5323:5349  require(_to != address(0)) */\n      iszero\n      iszero\n      tag_58\n      jumpi\n      0x0\n      dup1\n      revert\n    tag_58:\n        /* \"contracts/ERC721/ERC721BasicToken.sol\":5358:5388  clearApproval(_from, _tokenId) */\n      tag_59\n        /* \"contracts/ERC721/ERC721BasicToken.sol\":5372:5377  _from */\n      dup5\n        /* \"contracts/ERC721/ERC721BasicToken.sol\":5379:5387  _tokenId */\n      dup4\n        /* \"contracts/ERC721/ERC721BasicToken.sol\":5358:5371  clearApproval */\n      tag_60\n        /* \"contracts/ERC721/ERC721BasicToken.sol\":5358:5388  clearApproval(_from, _tokenId) */\n      jump\t// in\n    tag_59:\n        /* \"contracts/ERC721/ERC721BasicToken.sol\":5395:5427  removeTokenFrom(_from, _tokenId) */\n      tag_61\n        /* \"contracts/ERC721/ERC721BasicToken.sol\":5411:5416  _from */\n      dup5\n        /* \"contracts/ERC721/ERC721BasicToken.sol\":5418:5426  _tokenId */\n      dup4\n        /* \"contracts/ERC721/ERC721BasicToken.sol\":5395:5410  removeTokenFrom */\n      tag_62\n        /* \"contracts/ERC721/ERC721BasicToken.sol\":5395:5427  removeTokenFrom(_from, _tokenId) */\n      jump\t// in\n    tag_61:\n        /* \"contracts/ERC721/ERC721BasicToken.sol\":5434:5459  addTokenTo(_to, _tokenId) */\n      tag_63\n        /* \"contracts/ERC721/ERC721BasicToken.sol\":5445:5448  _to */\n      dup4\n        /* \"contracts/ERC721/ERC721BasicToken.sol\":5450:5458  _tokenId */\n      dup4\n        /* \"contracts/ERC721/ERC721BasicToken.sol\":5434:5444  addTokenTo */\n      tag_64\n        /* \"contracts/ERC721/ERC721BasicToken.sol\":5434:5459  addTokenTo(_to, _tokenId) */\n      jump\t// in\n    tag_63:\n        /* \"contracts/ERC721/ERC721BasicToken.sol\":5484:5487  _to */\n      dup3\n        /* \"contracts/ERC721/ERC721BasicToken.sol\":5468:5498  Transfer(_from, _to, _tokenId) */\n      0xffffffffffffffffffffffffffffffffffffffff\n      and\n        /* \"contracts/ERC721/ERC721BasicToken.sol\":5477:5482  _from */\n      dup5\n        /* \"contracts/ERC721/ERC721BasicToken.sol\":5468:5498  Transfer(_from, _to, _tokenId) */\n      0xffffffffffffffffffffffffffffffffffffffff\n      and\n      0xddf252ad1be2c89b69c2b068fc378daa952ba7f163c4a11628f55a4df523b3ef\n        /* \"contracts/ERC721/ERC721BasicToken.sol\":5489:5497  _tokenId */\n      dup5\n        /* \"contracts/ERC721/ERC721BasicToken.sol\":5468:5498  Transfer(_from, _to, _tokenId) */\n      mload(0x40)\n      dup1\n      dup3\n      dup2\n      mstore\n      0x20\n      add\n      swap2\n      pop\n      pop\n      mload(0x40)\n      dup1\n      swap2\n      sub\n      swap1\n      log3\n        /* \"contracts/ERC721/ERC721BasicToken.sol\":5184:5504  function transferFrom(address _from, address _to, uint256 _tokenId) public canTransfer(_tokenId) {\r... */\n      pop\n      pop\n      pop\n      pop\n      jump\t// out\n        /* \"contracts/ERC721/ERC721BasicToken.sol\":6124:6313  function safeTransferFrom(\r... */\n    tag_23:\n        /* \"contracts/ERC721/ERC721BasicToken.sol\":6245:6253  _tokenId */\n      dup1\n        /* \"contracts/ERC721/ERC721BasicToken.sol\":1566:1605  isApprovedOrOwner(msg.sender, _tokenId) */\n      tag_66\n        /* \"contracts/ERC721/ERC721BasicToken.sol\":1584:1594  msg.sender */\n      caller\n        /* \"contracts/ERC721/ERC721BasicToken.sol\":1596:1604  _tokenId */\n      dup3\n        /* \"contracts/ERC721/ERC721BasicToken.sol\":1566:1583  isApprovedOrOwner */\n      tag_54\n        /* \"contracts/ERC721/ERC721BasicToken.sol\":1566:1605  isApprovedOrOwner(msg.sender, _tokenId) */\n      jump\t// in\n    tag_66:\n        /* \"contracts/ERC721/ERC721BasicToken.sol\":1558:1606  require(isApprovedOrOwner(msg.sender, _tokenId)) */\n      iszero\n      iszero\n      tag_67\n      jumpi\n      0x0\n      dup1\n      revert\n    tag_67:\n        /* \"contracts/ERC721/ERC721BasicToken.sol\":6265:6307  safeTransferFrom(_from, _to, _tokenId, \"\") */\n      tag_69\n        /* \"contracts/ERC721/ERC721BasicToken.sol\":6282:6287  _from */\n      dup5\n        /* \"contracts/ERC721/ERC721BasicToken.sol\":6289:6292  _to */\n      dup5\n        /* \"contracts/ERC721/ERC721BasicToken.sol\":6294:6302  _tokenId */\n      dup5\n        /* \"contracts/ERC721/ERC721BasicToken.sol\":6265:6307  safeTransferFrom(_from, _to, _tokenId, \"\") */\n      0x20\n      mload(0x40)\n      swap1\n      dup2\n      add\n      0x40\n      mstore\n      dup1\n      0x0\n      dup2\n      mstore\n      pop\n        /* \"contracts/ERC721/ERC721BasicToken.sol\":6265:6281  safeTransferFrom */\n      tag_38\n        /* \"contracts/ERC721/ERC721BasicToken.sol\":6265:6307  safeTransferFrom(_from, _to, _tokenId, \"\") */\n      jump\t// in\n    tag_69:\n        /* \"contracts/ERC721/ERC721BasicToken.sol\":6124:6313  function safeTransferFrom(\r... */\n      pop\n      pop\n      pop\n      pop\n      jump\t// out\n        /* \"contracts/ERC721/ERC721BasicToken.sol\":2525:2668  function exists(uint256 _tokenId) public view returns (bool) {\r... */\n    tag_26:\n        /* \"contracts/ERC721/ERC721BasicToken.sol\":2580:2584  bool */\n      0x0\n        /* \"contracts/ERC721/ERC721BasicToken.sol\":2593:2606  address owner */\n      dup1\n        /* \"contracts/ERC721/ERC721BasicToken.sol\":2609:2619  tokenOwner */\n      0x0\n        /* \"contracts/ERC721/ERC721BasicToken.sol\":2609:2629  tokenOwner[_tokenId] */\n      dup1\n        /* \"contracts/ERC721/ERC721BasicToken.sol\":2620:2628  _tokenId */\n      dup5\n        /* \"contracts/ERC721/ERC721BasicToken.sol\":2609:2629  tokenOwner[_tokenId] */\n      dup2\n      mstore\n      0x20\n      add\n      swap1\n      dup2\n      mstore\n      0x20\n      add\n      0x0\n      keccak256\n      0x0\n      swap1\n      sload\n      swap1\n      0x100\n      exp\n      swap1\n      div\n      0xffffffffffffffffffffffffffffffffffffffff\n      and\n        /* \"contracts/ERC721/ERC721BasicToken.sol\":2593:2629  address owner = tokenOwner[_tokenId] */\n      swap1\n      pop\n        /* \"contracts/ERC721/ERC721BasicToken.sol\":2660:2661  0 */\n      0x0\n        /* \"contracts/ERC721/ERC721BasicToken.sol\":2643:2662  owner != address(0) */\n      0xffffffffffffffffffffffffffffffffffffffff\n      and\n        /* \"contracts/ERC721/ERC721BasicToken.sol\":2643:2648  owner */\n      dup2\n        /* \"contracts/ERC721/ERC721BasicToken.sol\":2643:2662  owner != address(0) */\n      0xffffffffffffffffffffffffffffffffffffffff\n      and\n      eq\n      iszero\n        /* \"contracts/ERC721/ERC721BasicToken.sol\":2636:2662  return owner != address(0) */\n      swap2\n      pop\n        /* \"contracts/ERC721/ERC721BasicToken.sol\":2525:2668  function exists(uint256 _tokenId) public view returns (bool) {\r... */\n      pop\n      swap2\n      swap1\n      pop\n      jump\t// out\n        /* \"contracts/ERC721/ERC721BasicToken.sol\":2176:2344  function ownerOf(uint256 _tokenId) public view returns (address) {\r... */\n    tag_29:\n        /* \"contracts/ERC721/ERC721BasicToken.sol\":2232:2239  address */\n      0x0\n        /* \"contracts/ERC721/ERC721BasicToken.sol\":2248:2261  address owner */\n      dup1\n        /* \"contracts/ERC721/ERC721BasicToken.sol\":2264:2274  tokenOwner */\n      0x0\n        /* \"contracts/ERC721/ERC721BasicToken.sol\":2264:2284  tokenOwner[_tokenId] */\n      dup1\n        /* \"contracts/ERC721/ERC721BasicToken.sol\":2275:2283  _tokenId */\n      dup5\n        /* \"contracts/ERC721/ERC721BasicToken.sol\":2264:2284  tokenOwner[_tokenId] */\n      dup2\n      mstore\n      0x20\n      add\n      swap1\n      dup2\n      mstore\n      0x20\n      add\n      0x0\n      keccak256\n      0x0\n      swap1\n      sload\n      swap1\n      0x100\n      exp\n      swap1\n      div\n      0xffffffffffffffffffffffffffffffffffffffff\n      and\n        /* \"contracts/ERC721/ERC721BasicToken.sol\":2248:2284  address owner = tokenOwner[_tokenId] */\n      swap1\n      pop\n        /* \"contracts/ERC721/ERC721BasicToken.sol\":2316:2317  0 */\n      0x0\n        /* \"contracts/ERC721/ERC721BasicToken.sol\":2299:2318  owner != address(0) */\n      0xffffffffffffffffffffffffffffffffffffffff\n      and\n        /* \"contracts/ERC721/ERC721BasicToken.sol\":2299:2304  owner */\n      dup2\n        /* \"contracts/ERC721/ERC721BasicToken.sol\":2299:2318  owner != address(0) */\n      0xffffffffffffffffffffffffffffffffffffffff\n      and\n      eq\n      iszero\n        /* \"contracts/ERC721/ERC721BasicToken.sol\":2291:2319  require(owner != address(0)) */\n      iszero\n      iszero\n      tag_72\n      jumpi\n      0x0\n      dup1\n      revert\n    tag_72:\n        /* \"contracts/ERC721/ERC721BasicToken.sol\":2333:2338  owner */\n      dup1\n        /* \"contracts/ERC721/ERC721BasicToken.sol\":2326:2338  return owner */\n      swap2\n      pop\n        /* \"contracts/ERC721/ERC721BasicToken.sol\":2176:2344  function ownerOf(uint256 _tokenId) public view returns (address) {\r... */\n      pop\n      swap2\n      swap1\n      pop\n      jump\t// out\n        /* \"contracts/ERC721/ERC721BasicToken.sol\":1815:1960  function balanceOf(address _owner) public view returns (uint256) {\r... */\n    tag_32:\n        /* \"contracts/ERC721/ERC721BasicToken.sol\":1871:1878  uint256 */\n      0x0\n        /* \"contracts/ERC721/ERC721BasicToken.sol\":1913:1914  0 */\n      dup1\n        /* \"contracts/ERC721/ERC721BasicToken.sol\":1895:1915  _owner != address(0) */\n      0xffffffffffffffffffffffffffffffffffffffff\n      and\n        /* \"contracts/ERC721/ERC721BasicToken.sol\":1895:1901  _owner */\n      dup3\n        /* \"contracts/ERC721/ERC721BasicToken.sol\":1895:1915  _owner != address(0) */\n      0xffffffffffffffffffffffffffffffffffffffff\n      and\n      eq\n      iszero\n        /* \"contracts/ERC721/ERC721BasicToken.sol\":1887:1916  require(_owner != address(0)) */\n      iszero\n      iszero\n      tag_74\n      jumpi\n      0x0\n      dup1\n      revert\n    tag_74:\n        /* \"contracts/ERC721/ERC721BasicToken.sol\":1930:1946  ownedTokensCount */\n      0x2\n        /* \"contracts/ERC721/ERC721BasicToken.sol\":1930:1954  ownedTokensCount[_owner] */\n      0x0\n        /* \"contracts/ERC721/ERC721BasicToken.sol\":1947:1953  _owner */\n      dup4\n        /* \"contracts/ERC721/ERC721BasicToken.sol\":1930:1954  ownedTokensCount[_owner] */\n      0xffffffffffffffffffffffffffffffffffffffff\n      and\n      0xffffffffffffffffffffffffffffffffffffffff\n      and\n      dup2\n      mstore\n      0x20\n      add\n      swap1\n      dup2\n      mstore\n      0x20\n      add\n      0x0\n      keccak256\n      sload\n        /* \"contracts/ERC721/ERC721BasicToken.sol\":1923:1954  return ownedTokensCount[_owner] */\n      swap1\n      pop\n        /* \"contracts/ERC721/ERC721BasicToken.sol\":1815:1960  function balanceOf(address _owner) public view returns (uint256) {\r... */\n      swap2\n      swap1\n      pop\n      jump\t// out\n        /* \"contracts/ERC721/ERC721BasicToken.sol\":4087:4291  function setApprovalForAll(address _to, bool _approved) public {\r... */\n    tag_35:\n        /* \"contracts/ERC721/ERC721BasicToken.sol\":4172:4182  msg.sender */\n      caller\n        /* \"contracts/ERC721/ERC721BasicToken.sol\":4165:4182  _to != msg.sender */\n      0xffffffffffffffffffffffffffffffffffffffff\n      and\n        /* \"contracts/ERC721/ERC721BasicToken.sol\":4165:4168  _to */\n      dup3\n        /* \"contracts/ERC721/ERC721BasicToken.sol\":4165:4182  _to != msg.sender */\n      0xffffffffffffffffffffffffffffffffffffffff\n      and\n      eq\n      iszero\n        /* \"contracts/ERC721/ERC721BasicToken.sol\":4157:4183  require(_to != msg.sender) */\n      iszero\n      iszero\n      tag_76\n      jumpi\n      0x0\n      dup1\n      revert\n    tag_76:\n        /* \"contracts/ERC721/ERC721BasicToken.sol\":4227:4236  _approved */\n      dup1\n        /* \"contracts/ERC721/ERC721BasicToken.sol\":4190:4207  operatorApprovals */\n      0x3\n        /* \"contracts/ERC721/ERC721BasicToken.sol\":4190:4219  operatorApprovals[msg.sender] */\n      0x0\n        /* \"contracts/ERC721/ERC721BasicToken.sol\":4208:4218  msg.sender */\n      caller\n        /* \"contracts/ERC721/ERC721BasicToken.sol\":4190:4219  operatorApprovals[msg.sender] */\n      0xffffffffffffffffffffffffffffffffffffffff\n      and\n      0xffffffffffffffffffffffffffffffffffffffff\n      and\n      dup2\n      mstore\n      0x20\n      add\n      swap1\n      dup2\n      mstore\n      0x20\n      add\n      0x0\n      keccak256\n        /* \"contracts/ERC721/ERC721BasicToken.sol\":4190:4224  operatorApprovals[msg.sender][_to] */\n      0x0\n        /* \"contracts/ERC721/ERC721BasicToken.sol\":4220:4223  _to */\n      dup5\n        /* \"contracts/ERC721/ERC721BasicToken.sol\":4190:4224  operatorApprovals[msg.sender][_to] */\n      0xffffffffffffffffffffffffffffffffffffffff\n      and\n      0xffffffffffffffffffffffffffffffffffffffff\n      and\n      dup2\n      mstore\n      0x20\n      add\n      swap1\n      dup2\n      mstore\n      0x20\n      add\n      0x0\n      keccak256\n      0x0\n        /* \"contracts/ERC721/ERC721BasicToken.sol\":4190:4236  operatorApprovals[msg.sender][_to] = _approved */\n      0x100\n      exp\n      dup2\n      sload\n      dup2\n      0xff\n      mul\n      not\n      and\n      swap1\n      dup4\n      iszero\n      iszero\n      mul\n      or\n      swap1\n      sstore\n      pop\n        /* \"contracts/ERC721/ERC721BasicToken.sol\":4270:4273  _to */\n      dup2\n        /* \"contracts/ERC721/ERC721BasicToken.sol\":4243:4285  ApprovalForAll(msg.sender, _to, _approved) */\n      0xffffffffffffffffffffffffffffffffffffffff\n      and\n        /* \"contracts/ERC721/ERC721BasicToken.sol\":4258:4268  msg.sender */\n      caller\n        /* \"contracts/ERC721/ERC721BasicToken.sol\":4243:4285  ApprovalForAll(msg.sender, _to, _approved) */\n      0xffffffffffffffffffffffffffffffffffffffff\n      and\n      0x17307eab39ab6107e8899845ad3d59bd9653f200f220920489ca2b5937696c31\n        /* \"contracts/ERC721/ERC721BasicToken.sol\":4275:4284  _approved */\n      dup4\n        /* \"contracts/ERC721/ERC721BasicToken.sol\":4243:4285  ApprovalForAll(msg.sender, _to, _approved) */\n      mload(0x40)\n      dup1\n      dup3\n      iszero\n      iszero\n      iszero\n      iszero\n      dup2\n      mstore\n      0x20\n      add\n      swap2\n      pop\n      pop\n      mload(0x40)\n      dup1\n      swap2\n      sub\n      swap1\n      log3\n        /* \"contracts/ERC721/ERC721BasicToken.sol\":4087:4291  function setApprovalForAll(address _to, bool _approved) public {\r... */\n      pop\n      pop\n      jump\t// out\n        /* \"contracts/ERC721/ERC721BasicToken.sol\":7003:7271  function safeTransferFrom(\r... */\n    tag_38:\n        /* \"contracts/ERC721/ERC721BasicToken.sol\":7142:7150  _tokenId */\n      dup2\n        /* \"contracts/ERC721/ERC721BasicToken.sol\":1566:1605  isApprovedOrOwner(msg.sender, _tokenId) */\n      tag_78\n        /* \"contracts/ERC721/ERC721BasicToken.sol\":1584:1594  msg.sender */\n      caller\n        /* \"contracts/ERC721/ERC721BasicToken.sol\":1596:1604  _tokenId */\n      dup3\n        /* \"contracts/ERC721/ERC721BasicToken.sol\":1566:1583  isApprovedOrOwner */\n      tag_54\n        /* \"contracts/ERC721/ERC721BasicToken.sol\":1566:1605  isApprovedOrOwner(msg.sender, _tokenId) */\n      jump\t// in\n    tag_78:\n        /* \"contracts/ERC721/ERC721BasicToken.sol\":1558:1606  require(isApprovedOrOwner(msg.sender, _tokenId)) */\n      iszero\n      iszero\n      tag_79\n      jumpi\n      0x0\n      dup1\n      revert\n    tag_79:\n        /* \"contracts/ERC721/ERC721BasicToken.sol\":7162:7196  transferFrom(_from, _to, _tokenId) */\n      tag_81\n        /* \"contracts/ERC721/ERC721BasicToken.sol\":7175:7180  _from */\n      dup6\n        /* \"contracts/ERC721/ERC721BasicToken.sol\":7182:7185  _to */\n      dup6\n        /* \"contracts/ERC721/ERC721BasicToken.sol\":7187:7195  _tokenId */\n      dup6\n        /* \"contracts/ERC721/ERC721BasicToken.sol\":7162:7174  transferFrom */\n      tag_20\n        /* \"contracts/ERC721/ERC721BasicToken.sol\":7162:7196  transferFrom(_from, _to, _tokenId) */\n      jump\t// in\n    tag_81:\n        /* \"contracts/ERC721/ERC721BasicToken.sol\":7211:7264  checkAndCallSafeTransfer(_from, _to, _tokenId, _data) */\n      tag_82\n        /* \"contracts/ERC721/ERC721BasicToken.sol\":7236:7241  _from */\n      dup6\n        /* \"contracts/ERC721/ERC721BasicToken.sol\":7243:7246  _to */\n      dup6\n        /* \"contracts/ERC721/ERC721BasicToken.sol\":7248:7256  _tokenId */\n      dup6\n        /* \"contracts/ERC721/ERC721BasicToken.sol\":7258:7263  _data */\n      dup6\n        /* \"contracts/ERC721/ERC721BasicToken.sol\":7211:7235  checkAndCallSafeTransfer */\n      tag_83\n        /* \"contracts/ERC721/ERC721BasicToken.sol\":7211:7264  checkAndCallSafeTransfer(_from, _to, _tokenId, _data) */\n      jump\t// in\n    tag_82:\n        /* \"contracts/ERC721/ERC721BasicToken.sol\":7203:7265  require(checkAndCallSafeTransfer(_from, _to, _tokenId, _data)) */\n      iszero\n      iszero\n      tag_84\n      jumpi\n      0x0\n      dup1\n      revert\n    tag_84:\n        /* \"contracts/ERC721/ERC721BasicToken.sol\":7003:7271  function safeTransferFrom(\r... */\n      pop\n      pop\n      pop\n      pop\n      pop\n      jump\t// out\n        /* \"contracts/ERC721/ERC721BasicToken.sol\":4608:4752  function isApprovedForAll(address _owner, address _operator) public view returns (bool) {\r... */\n    tag_41:\n        /* \"contracts/ERC721/ERC721BasicToken.sol\":4690:4694  bool */\n      0x0\n        /* \"contracts/ERC721/ERC721BasicToken.sol\":4710:4727  operatorApprovals */\n      0x3\n        /* \"contracts/ERC721/ERC721BasicToken.sol\":4710:4735  operatorApprovals[_owner] */\n      0x0\n        /* \"contracts/ERC721/ERC721BasicToken.sol\":4728:4734  _owner */\n      dup5\n        /* \"contracts/ERC721/ERC721BasicToken.sol\":4710:4735  operatorApprovals[_owner] */\n      0xffffffffffffffffffffffffffffffffffffffff\n      and\n      0xffffffffffffffffffffffffffffffffffffffff\n      and\n      dup2\n      mstore\n      0x20\n      add\n      swap1\n      dup2\n      mstore\n      0x20\n      add\n      0x0\n      keccak256\n        /* \"contracts/ERC721/ERC721BasicToken.sol\":4710:4746  operatorApprovals[_owner][_operator] */\n      0x0\n        /* \"contracts/ERC721/ERC721BasicToken.sol\":4736:4745  _operator */\n      dup4\n        /* \"contracts/ERC721/ERC721BasicToken.sol\":4710:4746  operatorApprovals[_owner][_operator] */\n      0xffffffffffffffffffffffffffffffffffffffff\n      and\n      0xffffffffffffffffffffffffffffffffffffffff\n      and\n      dup2\n      mstore\n      0x20\n      add\n      swap1\n      dup2\n      mstore\n      0x20\n      add\n      0x0\n      keccak256\n      0x0\n      swap1\n      sload\n      swap1\n      0x100\n      exp\n      swap1\n      div\n      0xff\n      and\n        /* \"contracts/ERC721/ERC721BasicToken.sol\":4703:4746  return operatorApprovals[_owner][_operator] */\n      swap1\n      pop\n        /* \"contracts/ERC721/ERC721BasicToken.sol\":4608:4752  function isApprovedForAll(address _owner, address _operator) public view returns (bool) {\r... */\n      swap3\n      swap2\n      pop\n      pop\n      jump\t// out\n        /* \"contracts/ERC721/ERC721BasicToken.sol\":7627:7870  function isApprovedOrOwner(address _spender, uint256 _tokenId) internal view returns (bool) {\r... */\n    tag_54:\n        /* \"contracts/ERC721/ERC721BasicToken.sol\":7713:7717  bool */\n      0x0\n        /* \"contracts/ERC721/ERC721BasicToken.sol\":7726:7739  address owner */\n      dup1\n        /* \"contracts/ERC721/ERC721BasicToken.sol\":7742:7759  ownerOf(_tokenId) */\n      tag_87\n        /* \"contracts/ERC721/ERC721BasicToken.sol\":7750:7758  _tokenId */\n      dup4\n        /* \"contracts/ERC721/ERC721BasicToken.sol\":7742:7749  ownerOf */\n      tag_29\n        /* \"contracts/ERC721/ERC721BasicToken.sol\":7742:7759  ownerOf(_tokenId) */\n      jump\t// in\n    tag_87:\n        /* \"contracts/ERC721/ERC721BasicToken.sol\":7726:7759  address owner = ownerOf(_tokenId) */\n      swap1\n      pop\n        /* \"contracts/ERC721/ERC721BasicToken.sol\":7785:7790  owner */\n      dup1\n        /* \"contracts/ERC721/ERC721BasicToken.sol\":7773:7790  _spender == owner */\n      0xffffffffffffffffffffffffffffffffffffffff\n      and\n        /* \"contracts/ERC721/ERC721BasicToken.sol\":7773:7781  _spender */\n      dup5\n        /* \"contracts/ERC721/ERC721BasicToken.sol\":7773:7790  _spender == owner */\n      0xffffffffffffffffffffffffffffffffffffffff\n      and\n      eq\n        /* \"contracts/ERC721/ERC721BasicToken.sol\":7773:7827  _spender == owner || getApproved(_tokenId) == _spender */\n      dup1\n      tag_88\n      jumpi\n      pop\n        /* \"contracts/ERC721/ERC721BasicToken.sol\":7819:7827  _spender */\n      dup4\n        /* \"contracts/ERC721/ERC721BasicToken.sol\":7794:7827  getApproved(_tokenId) == _spender */\n      0xffffffffffffffffffffffffffffffffffffffff\n      and\n        /* \"contracts/ERC721/ERC721BasicToken.sol\":7794:7815  getApproved(_tokenId) */\n      tag_89\n        /* \"contracts/ERC721/ERC721BasicToken.sol\":7806:7814  _tokenId */\n      dup5\n        /* \"contracts/ERC721/ERC721BasicToken.sol\":7794:7805  getApproved */\n      tag_14\n        /* \"contracts/ERC721/ERC721BasicToken.sol\":7794:7815  getApproved(_tokenId) */\n      jump\t// in\n    tag_89:\n        /* \"contracts/ERC721/ERC721BasicToken.sol\":7794:7827  getApproved(_tokenId) == _spender */\n      0xffffffffffffffffffffffffffffffffffffffff\n      and\n      eq\n        /* \"contracts/ERC721/ERC721BasicToken.sol\":7773:7827  _spender == owner || getApproved(_tokenId) == _spender */\n    tag_88:\n        /* \"contracts/ERC721/ERC721BasicToken.sol\":7773:7864  _spender == owner || getApproved(_tokenId) == _spender || isApprovedForAll(owner, _spender) */\n      dup1\n      tag_90\n      jumpi\n      pop\n        /* \"contracts/ERC721/ERC721BasicToken.sol\":7831:7864  isApprovedForAll(owner, _spender) */\n      tag_91\n        /* \"contracts/ERC721/ERC721BasicToken.sol\":7848:7853  owner */\n      dup2\n        /* \"contracts/ERC721/ERC721BasicToken.sol\":7855:7863  _spender */\n      dup6\n        /* \"contracts/ERC721/ERC721BasicToken.sol\":7831:7847  isApprovedForAll */\n      tag_41\n        /* \"contracts/ERC721/ERC721BasicToken.sol\":7831:7864  isApprovedForAll(owner, _spender) */\n      jump\t// in\n    tag_91:\n        /* \"contracts/ERC721/ERC721BasicToken.sol\":7773:7864  _spender == owner || getApproved(_tokenId) == _spender || isApprovedForAll(owner, _spender) */\n    tag_90:\n        /* \"contracts/ERC721/ERC721BasicToken.sol\":7766:7864  return _spender == owner || getApproved(_tokenId) == _spender || isApprovedForAll(owner, _spender) */\n      swap2\n      pop\n        /* \"contracts/ERC721/ERC721BasicToken.sol\":7627:7870  function isApprovedOrOwner(address _spender, uint256 _tokenId) internal view returns (bool) {\r... */\n      pop\n      swap3\n      swap2\n      pop\n      pop\n      jump\t// out\n        /* \"contracts/ERC721/ERC721BasicToken.sol\":8946:9212  function clearApproval(address _owner, uint256 _tokenId) internal {\r... */\n    tag_60:\n        /* \"contracts/ERC721/ERC721BasicToken.sol\":9048:9054  _owner */\n      dup2\n        /* \"contracts/ERC721/ERC721BasicToken.sol\":9027:9054  ownerOf(_tokenId) == _owner */\n      0xffffffffffffffffffffffffffffffffffffffff\n      and\n        /* \"contracts/ERC721/ERC721BasicToken.sol\":9027:9044  ownerOf(_tokenId) */\n      tag_93\n        /* \"contracts/ERC721/ERC721BasicToken.sol\":9035:9043  _tokenId */\n      dup3\n        /* \"contracts/ERC721/ERC721BasicToken.sol\":9027:9034  ownerOf */\n      tag_29\n        /* \"contracts/ERC721/ERC721BasicToken.sol\":9027:9044  ownerOf(_tokenId) */\n      jump\t// in\n    tag_93:\n        /* \"contracts/ERC721/ERC721BasicToken.sol\":9027:9054  ownerOf(_tokenId) == _owner */\n      0xffffffffffffffffffffffffffffffffffffffff\n      and\n      eq\n        /* \"contracts/ERC721/ERC721BasicToken.sol\":9019:9055  require(ownerOf(_tokenId) == _owner) */\n      iszero\n      iszero\n      tag_94\n      jumpi\n      0x0\n      dup1\n      revert\n    tag_94:\n        /* \"contracts/ERC721/ERC721BasicToken.sol\":9102:9103  0 */\n      0x0\n        /* \"contracts/ERC721/ERC721BasicToken.sol\":9066:9104  tokenApprovals[_tokenId] != address(0) */\n      0xffffffffffffffffffffffffffffffffffffffff\n      and\n        /* \"contracts/ERC721/ERC721BasicToken.sol\":9066:9080  tokenApprovals */\n      0x1\n        /* \"contracts/ERC721/ERC721BasicToken.sol\":9066:9090  tokenApprovals[_tokenId] */\n      0x0\n        /* \"contracts/ERC721/ERC721BasicToken.sol\":9081:9089  _tokenId */\n      dup4\n        /* \"contracts/ERC721/ERC721BasicToken.sol\":9066:9090  tokenApprovals[_tokenId] */\n      dup2\n      mstore\n      0x20\n      add\n      swap1\n      dup2\n      mstore\n      0x20\n      add\n      0x0\n      keccak256\n      0x0\n      swap1\n      sload\n      swap1\n      0x100\n      exp\n      swap1\n      div\n      0xffffffffffffffffffffffffffffffffffffffff\n      and\n        /* \"contracts/ERC721/ERC721BasicToken.sol\":9066:9104  tokenApprovals[_tokenId] != address(0) */\n      0xffffffffffffffffffffffffffffffffffffffff\n      and\n      eq\n      iszero\n        /* \"contracts/ERC721/ERC721BasicToken.sol\":9062:9207  if (tokenApprovals[_tokenId] != address(0)) {\r... */\n      iszero\n      tag_95\n      jumpi\n        /* \"contracts/ERC721/ERC721BasicToken.sol\":9150:9151  0 */\n      0x0\n        /* \"contracts/ERC721/ERC721BasicToken.sol\":9115:9129  tokenApprovals */\n      0x1\n        /* \"contracts/ERC721/ERC721BasicToken.sol\":9115:9139  tokenApprovals[_tokenId] */\n      0x0\n        /* \"contracts/ERC721/ERC721BasicToken.sol\":9130:9138  _tokenId */\n      dup4\n        /* \"contracts/ERC721/ERC721BasicToken.sol\":9115:9139  tokenApprovals[_tokenId] */\n      dup2\n      mstore\n      0x20\n      add\n      swap1\n      dup2\n      mstore\n      0x20\n      add\n      0x0\n      keccak256\n      0x0\n        /* \"contracts/ERC721/ERC721BasicToken.sol\":9115:9152  tokenApprovals[_tokenId] = address(0) */\n      0x100\n      exp\n      dup2\n      sload\n      dup2\n      0xffffffffffffffffffffffffffffffffffffffff\n      mul\n      not\n      and\n      swap1\n      dup4\n      0xffffffffffffffffffffffffffffffffffffffff\n      and\n      mul\n      or\n      swap1\n      sstore\n      pop\n        /* \"contracts/ERC721/ERC721BasicToken.sol\":9186:9187  0 */\n      0x0\n        /* \"contracts/ERC721/ERC721BasicToken.sol\":9161:9199  Approval(_owner, address(0), _tokenId) */\n      0xffffffffffffffffffffffffffffffffffffffff\n      and\n        /* \"contracts/ERC721/ERC721BasicToken.sol\":9170:9176  _owner */\n      dup3\n        /* \"contracts/ERC721/ERC721BasicToken.sol\":9161:9199  Approval(_owner, address(0), _tokenId) */\n      0xffffffffffffffffffffffffffffffffffffffff\n      and\n      0x8c5be1e5ebec7d5bd14f71427d1e84f3dd0314c0f7b2291e5b200ac8c7c3b925\n        /* \"contracts/ERC721/ERC721BasicToken.sol\":9190:9198  _tokenId */\n      dup4\n        /* \"contracts/ERC721/ERC721BasicToken.sol\":9161:9199  Approval(_owner, address(0), _tokenId) */\n      mload(0x40)\n      dup1\n      dup3\n      dup2\n      mstore\n      0x20\n      add\n      swap2\n      pop\n      pop\n      mload(0x40)\n      dup1\n      swap2\n      sub\n      swap1\n      log3\n        /* \"contracts/ERC721/ERC721BasicToken.sol\":9062:9207  if (tokenApprovals[_tokenId] != address(0)) {\r... */\n    tag_95:\n        /* \"contracts/ERC721/ERC721BasicToken.sol\":8946:9212  function clearApproval(address _owner, uint256 _tokenId) internal {\r... */\n      pop\n      pop\n      jump\t// out\n        /* \"contracts/ERC721/ERC721BasicToken.sol\":9968:10186  function removeTokenFrom(address _from, uint256 _tokenId) internal {\r... */\n    tag_62:\n        /* \"contracts/ERC721/ERC721BasicToken.sol\":10071:10076  _from */\n      dup2\n        /* \"contracts/ERC721/ERC721BasicToken.sol\":10050:10076  ownerOf(_tokenId) == _from */\n      0xffffffffffffffffffffffffffffffffffffffff\n      and\n        /* \"contracts/ERC721/ERC721BasicToken.sol\":10050:10067  ownerOf(_tokenId) */\n      tag_97\n        /* \"contracts/ERC721/ERC721BasicToken.sol\":10058:10066  _tokenId */\n      dup3\n        /* \"contracts/ERC721/ERC721BasicToken.sol\":10050:10057  ownerOf */\n      tag_29\n        /* \"contracts/ERC721/ERC721BasicToken.sol\":10050:10067  ownerOf(_tokenId) */\n      jump\t// in\n    tag_97:\n        /* \"contracts/ERC721/ERC721BasicToken.sol\":10050:10076  ownerOf(_tokenId) == _from */\n      0xffffffffffffffffffffffffffffffffffffffff\n      and\n      eq\n        /* \"contracts/ERC721/ERC721BasicToken.sol\":10042:10077  require(ownerOf(_tokenId) == _from) */\n      iszero\n      iszero\n      tag_98\n      jumpi\n      0x0\n      dup1\n      revert\n    tag_98:\n        /* \"contracts/ERC721/ERC721BasicToken.sol\":10110:10140  ownedTokensCount[_from].sub(1) */\n      tag_99\n        /* \"contracts/ERC721/ERC721BasicToken.sol\":10138:10139  1 */\n      0x1\n        /* \"contracts/ERC721/ERC721BasicToken.sol\":10110:10126  ownedTokensCount */\n      0x2\n        /* \"contracts/ERC721/ERC721BasicToken.sol\":10110:10133  ownedTokensCount[_from] */\n      0x0\n        /* \"contracts/ERC721/ERC721BasicToken.sol\":10127:10132  _from */\n      dup6\n        /* \"contracts/ERC721/ERC721BasicToken.sol\":10110:10133  ownedTokensCount[_from] */\n      0xffffffffffffffffffffffffffffffffffffffff\n      and\n      0xffffffffffffffffffffffffffffffffffffffff\n      and\n      dup2\n      mstore\n      0x20\n      add\n      swap1\n      dup2\n      mstore\n      0x20\n      add\n      0x0\n      keccak256\n      sload\n        /* \"contracts/ERC721/ERC721BasicToken.sol\":10110:10137  ownedTokensCount[_from].sub */\n      tag_100\n      swap1\n        /* \"contracts/ERC721/ERC721BasicToken.sol\":10110:10140  ownedTokensCount[_from].sub(1) */\n      swap2\n      swap1\n      0xffffffff\n      and\n      jump\t// in\n    tag_99:\n        /* \"contracts/ERC721/ERC721BasicToken.sol\":10084:10100  ownedTokensCount */\n      0x2\n        /* \"contracts/ERC721/ERC721BasicToken.sol\":10084:10107  ownedTokensCount[_from] */\n      0x0\n        /* \"contracts/ERC721/ERC721BasicToken.sol\":10101:10106  _from */\n      dup5\n        /* \"contracts/ERC721/ERC721BasicToken.sol\":10084:10107  ownedTokensCount[_from] */\n      0xffffffffffffffffffffffffffffffffffffffff\n      and\n      0xffffffffffffffffffffffffffffffffffffffff\n      and\n      dup2\n      mstore\n      0x20\n      add\n      swap1\n      dup2\n      mstore\n      0x20\n      add\n      0x0\n      keccak256\n        /* \"contracts/ERC721/ERC721BasicToken.sol\":10084:10140  ownedTokensCount[_from] = ownedTokensCount[_from].sub(1) */\n      dup2\n      swap1\n      sstore\n      pop\n        /* \"contracts/ERC721/ERC721BasicToken.sol\":10178:10179  0 */\n      0x0\n        /* \"contracts/ERC721/ERC721BasicToken.sol\":10147:10157  tokenOwner */\n      dup1\n        /* \"contracts/ERC721/ERC721BasicToken.sol\":10147:10167  tokenOwner[_tokenId] */\n      0x0\n        /* \"contracts/ERC721/ERC721BasicToken.sol\":10158:10166  _tokenId */\n      dup4\n        /* \"contracts/ERC721/ERC721BasicToken.sol\":10147:10167  tokenOwner[_tokenId] */\n      dup2\n      mstore\n      0x20\n      add\n      swap1\n      dup2\n      mstore\n      0x20\n      add\n      0x0\n      keccak256\n      0x0\n        /* \"contracts/ERC721/ERC721BasicToken.sol\":10147:10180  tokenOwner[_tokenId] = address(0) */\n      0x100\n      exp\n      dup2\n      sload\n      dup2\n      0xffffffffffffffffffffffffffffffffffffffff\n      mul\n      not\n      and\n      swap1\n      dup4\n      0xffffffffffffffffffffffffffffffffffffffff\n      and\n      mul\n      or\n      swap1\n      sstore\n      pop\n        /* \"contracts/ERC721/ERC721BasicToken.sol\":9968:10186  function removeTokenFrom(address _from, uint256 _tokenId) internal {\r... */\n      pop\n      pop\n      jump\t// out\n        /* \"contracts/ERC721/ERC721BasicToken.sol\":9478:9686  function addTokenTo(address _to, uint256 _tokenId) internal {\r... */\n    tag_64:\n        /* \"contracts/ERC721/ERC721BasicToken.sol\":9585:9586  0 */\n      0x0\n        /* \"contracts/ERC721/ERC721BasicToken.sol\":9553:9587  tokenOwner[_tokenId] == address(0) */\n      0xffffffffffffffffffffffffffffffffffffffff\n      and\n        /* \"contracts/ERC721/ERC721BasicToken.sol\":9553:9563  tokenOwner */\n      0x0\n        /* \"contracts/ERC721/ERC721BasicToken.sol\":9553:9573  tokenOwner[_tokenId] */\n      dup1\n        /* \"contracts/ERC721/ERC721BasicToken.sol\":9564:9572  _tokenId */\n      dup4\n        /* \"contracts/ERC721/ERC721BasicToken.sol\":9553:9573  tokenOwner[_tokenId] */\n      dup2\n      mstore\n      0x20\n      add\n      swap1\n      dup2\n      mstore\n      0x20\n      add\n      0x0\n      keccak256\n      0x0\n      swap1\n      sload\n      swap1\n      0x100\n      exp\n      swap1\n      div\n      0xffffffffffffffffffffffffffffffffffffffff\n      and\n        /* \"contracts/ERC721/ERC721BasicToken.sol\":9553:9587  tokenOwner[_tokenId] == address(0) */\n      0xffffffffffffffffffffffffffffffffffffffff\n      and\n      eq\n        /* \"contracts/ERC721/ERC721BasicToken.sol\":9545:9588  require(tokenOwner[_tokenId] == address(0)) */\n      iszero\n      iszero\n      tag_102\n      jumpi\n      0x0\n      dup1\n      revert\n    tag_102:\n        /* \"contracts/ERC721/ERC721BasicToken.sol\":9618:9621  _to */\n      dup2\n        /* \"contracts/ERC721/ERC721BasicToken.sol\":9595:9605  tokenOwner */\n      0x0\n        /* \"contracts/ERC721/ERC721BasicToken.sol\":9595:9615  tokenOwner[_tokenId] */\n      dup1\n        /* \"contracts/ERC721/ERC721BasicToken.sol\":9606:9614  _tokenId */\n      dup4\n        /* \"contracts/ERC721/ERC721BasicToken.sol\":9595:9615  tokenOwner[_tokenId] */\n      dup2\n      mstore\n      0x20\n      add\n      swap1\n      dup2\n      mstore\n      0x20\n      add\n      0x0\n      keccak256\n      0x0\n        /* \"contracts/ERC721/ERC721BasicToken.sol\":9595:9621  tokenOwner[_tokenId] = _to */\n      0x100\n      exp\n      dup2\n      sload\n      dup2\n      0xffffffffffffffffffffffffffffffffffffffff\n      mul\n      not\n      and\n      swap1\n      dup4\n      0xffffffffffffffffffffffffffffffffffffffff\n      and\n      mul\n      or\n      swap1\n      sstore\n      pop\n        /* \"contracts/ERC721/ERC721BasicToken.sol\":9652:9680  ownedTokensCount[_to].add(1) */\n      tag_103\n        /* \"contracts/ERC721/ERC721BasicToken.sol\":9678:9679  1 */\n      0x1\n        /* \"contracts/ERC721/ERC721BasicToken.sol\":9652:9668  ownedTokensCount */\n      0x2\n        /* \"contracts/ERC721/ERC721BasicToken.sol\":9652:9673  ownedTokensCount[_to] */\n      0x0\n        /* \"contracts/ERC721/ERC721BasicToken.sol\":9669:9672  _to */\n      dup6\n        /* \"contracts/ERC721/ERC721BasicToken.sol\":9652:9673  ownedTokensCount[_to] */\n      0xffffffffffffffffffffffffffffffffffffffff\n      and\n      0xffffffffffffffffffffffffffffffffffffffff\n      and\n      dup2\n      mstore\n      0x20\n      add\n      swap1\n      dup2\n      mstore\n      0x20\n      add\n      0x0\n      keccak256\n      sload\n        /* \"contracts/ERC721/ERC721BasicToken.sol\":9652:9677  ownedTokensCount[_to].add */\n      tag_104\n      swap1\n        /* \"contracts/ERC721/ERC721BasicToken.sol\":9652:9680  ownedTokensCount[_to].add(1) */\n      swap2\n      swap1\n      0xffffffff\n      and\n      jump\t// in\n    tag_103:\n        /* \"contracts/ERC721/ERC721BasicToken.sol\":9628:9644  ownedTokensCount */\n      0x2\n        /* \"contracts/ERC721/ERC721BasicToken.sol\":9628:9649  ownedTokensCount[_to] */\n      0x0\n        /* \"contracts/ERC721/ERC721BasicToken.sol\":9645:9648  _to */\n      dup5\n        /* \"contracts/ERC721/ERC721BasicToken.sol\":9628:9649  ownedTokensCount[_to] */\n      0xffffffffffffffffffffffffffffffffffffffff\n      and\n      0xffffffffffffffffffffffffffffffffffffffff\n      and\n      dup2\n      mstore\n      0x20\n      add\n      swap1\n      dup2\n      mstore\n      0x20\n      add\n      0x0\n      keccak256\n        /* \"contracts/ERC721/ERC721BasicToken.sol\":9628:9680  ownedTokensCount[_to] = ownedTokensCount[_to].add(1) */\n      dup2\n      swap1\n      sstore\n      pop\n        /* \"contracts/ERC721/ERC721BasicToken.sol\":9478:9686  function addTokenTo(address _to, uint256 _tokenId) internal {\r... */\n      pop\n      pop\n      jump\t// out\n        /* \"contracts/ERC721/ERC721BasicToken.sol\":10700:11042  function checkAndCallSafeTransfer(\r... */\n    tag_83:\n        /* \"contracts/ERC721/ERC721BasicToken.sol\":10846:10850  bool */\n      0x0\n        /* \"contracts/ERC721/ERC721BasicToken.sol\":10919:10932  bytes4 retval */\n      dup1\n        /* \"contracts/ERC721/ERC721BasicToken.sol\":10867:10883  _to.isContract() */\n      tag_106\n        /* \"contracts/ERC721/ERC721BasicToken.sol\":10867:10870  _to */\n      dup6\n        /* \"contracts/ERC721/ERC721BasicToken.sol\":10867:10881  _to.isContract */\n      0xffffffffffffffffffffffffffffffffffffffff\n      and\n      tag_107\n        /* \"contracts/ERC721/ERC721BasicToken.sol\":10867:10883  _to.isContract() */\n      jump\t// in\n    tag_106:\n        /* \"contracts/ERC721/ERC721BasicToken.sol\":10866:10883  !_to.isContract() */\n      iszero\n        /* \"contracts/ERC721/ERC721BasicToken.sol\":10862:10913  if (!_to.isContract()) {\r... */\n      iszero\n      tag_108\n      jumpi\n        /* \"contracts/ERC721/ERC721BasicToken.sol\":10901:10905  true */\n      0x1\n        /* \"contracts/ERC721/ERC721BasicToken.sol\":10894:10905  return true */\n      swap2\n      pop\n      jump(tag_105)\n        /* \"contracts/ERC721/ERC721BasicToken.sol\":10862:10913  if (!_to.isContract()) {\r... */\n    tag_108:\n        /* \"contracts/ERC721/ERC721BasicToken.sol\":10950:10953  _to */\n      dup5\n        /* \"contracts/ERC721/ERC721BasicToken.sol\":10935:10971  ERC721Receiver(_to).onERC721Received */\n      0xffffffffffffffffffffffffffffffffffffffff\n      and\n      0xf0b9e5ba\n        /* \"contracts/ERC721/ERC721BasicToken.sol\":10972:10977  _from */\n      dup8\n        /* \"contracts/ERC721/ERC721BasicToken.sol\":10979:10987  _tokenId */\n      dup7\n        /* \"contracts/ERC721/ERC721BasicToken.sol\":10989:10994  _data */\n      dup7\n        /* \"contracts/ERC721/ERC721BasicToken.sol\":10935:10995  ERC721Receiver(_to).onERC721Received(_from, _tokenId, _data) */\n      mload(0x40)\n      dup5\n      0xffffffff\n      and\n      0x100000000000000000000000000000000000000000000000000000000\n      mul\n      dup2\n      mstore\n      0x4\n      add\n      dup1\n      dup5\n      0xffffffffffffffffffffffffffffffffffffffff\n      and\n      0xffffffffffffffffffffffffffffffffffffffff\n      and\n      dup2\n      mstore\n      0x20\n      add\n      dup4\n      dup2\n      mstore\n      0x20\n      add\n      dup1\n      0x20\n      add\n      dup3\n      dup2\n      sub\n      dup3\n      mstore\n      dup4\n      dup2\n      dup2\n      mload\n      dup2\n      mstore\n      0x20\n      add\n      swap2\n      pop\n      dup1\n      mload\n      swap1\n      0x20\n      add\n      swap1\n      dup1\n      dup4\n      dup4\n        /* \"--CODEGEN--\":23:24   */\n      0x0\n        /* \"--CODEGEN--\":8:108   */\n    tag_109:\n        /* \"--CODEGEN--\":33:36   */\n      dup4\n        /* \"--CODEGEN--\":30:31   */\n      dup2\n        /* \"--CODEGEN--\":27:37   */\n      lt\n        /* \"--CODEGEN--\":8:108   */\n      iszero\n      tag_110\n      jumpi\n        /* \"--CODEGEN--\":99:100   */\n      dup1\n        /* \"--CODEGEN--\":94:97   */\n      dup3\n        /* \"--CODEGEN--\":90:101   */\n      add\n        /* \"--CODEGEN--\":84:102   */\n      mload\n        /* \"--CODEGEN--\":80:81   */\n      dup2\n        /* \"--CODEGEN--\":75:78   */\n      dup5\n        /* \"--CODEGEN--\":71:82   */\n      add\n        /* \"--CODEGEN--\":64:103   */\n      mstore\n        /* \"--CODEGEN--\":52:54   */\n      0x20\n        /* \"--CODEGEN--\":49:50   */\n      dup2\n        /* \"--CODEGEN--\":45:55   */\n      add\n        /* \"--CODEGEN--\":40:55   */\n      swap1\n      pop\n        /* \"--CODEGEN--\":8:108   */\n      jump(tag_109)\n    tag_110:\n        /* \"--CODEGEN--\":12:26   */\n      pop\n        /* \"contracts/ERC721/ERC721BasicToken.sol\":10935:10995  ERC721Receiver(_to).onERC721Received(_from, _tokenId, _data) */\n      pop\n      pop\n      pop\n      swap1\n      pop\n      swap1\n      dup2\n      add\n      swap1\n      0x1f\n      and\n      dup1\n      iszero\n      tag_112\n      jumpi\n      dup1\n      dup3\n      sub\n      dup1\n      mload\n      0x1\n      dup4\n      0x20\n      sub\n      0x100\n      exp\n      sub\n      not\n      and\n      dup2\n      mstore\n      0x20\n      add\n      swap2\n      pop\n    tag_112:\n      pop\n      swap5\n      pop\n      pop\n      pop\n      pop\n      pop\n      0x20\n      mload(0x40)\n      dup1\n      dup4\n      sub\n      dup2\n      0x0\n      dup8\n      dup1\n      extcodesize\n      iszero\n        /* \"--CODEGEN--\":8:17   */\n      dup1\n        /* \"--CODEGEN--\":5:7   */\n      iszero\n      tag_113\n      jumpi\n        /* \"--CODEGEN--\":30:31   */\n      0x0\n        /* \"--CODEGEN--\":27:28   */\n      dup1\n        /* \"--CODEGEN--\":20:32   */\n      revert\n        /* \"--CODEGEN--\":5:7   */\n    tag_113:\n        /* \"contracts/ERC721/ERC721BasicToken.sol\":10935:10995  ERC721Receiver(_to).onERC721Received(_from, _tokenId, _data) */\n      pop\n      gas\n      call\n      iszero\n        /* \"--CODEGEN--\":8:17   */\n      dup1\n        /* \"--CODEGEN--\":5:7   */\n      iszero\n      tag_114\n      jumpi\n        /* \"--CODEGEN--\":45:61   */\n      returndatasize\n        /* \"--CODEGEN--\":42:43   */\n      0x0\n        /* \"--CODEGEN--\":39:40   */\n      dup1\n        /* \"--CODEGEN--\":24:62   */\n      returndatacopy\n        /* \"--CODEGEN--\":77:93   */\n      returndatasize\n        /* \"--CODEGEN--\":74:75   */\n      0x0\n        /* \"--CODEGEN--\":67:94   */\n      revert\n        /* \"--CODEGEN--\":5:7   */\n    tag_114:\n        /* \"contracts/ERC721/ERC721BasicToken.sol\":10935:10995  ERC721Receiver(_to).onERC721Received(_from, _tokenId, _data) */\n      pop\n      pop\n      pop\n      pop\n      mload(0x40)\n      returndatasize\n        /* \"--CODEGEN--\":13:15   */\n      0x20\n        /* \"--CODEGEN--\":8:11   */\n      dup2\n        /* \"--CODEGEN--\":5:16   */\n      lt\n        /* \"--CODEGEN--\":2:4   */\n      iszero\n      tag_115\n      jumpi\n        /* \"--CODEGEN--\":29:30   */\n      0x0\n        /* \"--CODEGEN--\":26:27   */\n      dup1\n        /* \"--CODEGEN--\":19:31   */\n      revert\n        /* \"--CODEGEN--\":2:4   */\n    tag_115:\n        /* \"contracts/ERC721/ERC721BasicToken.sol\":10935:10995  ERC721Receiver(_to).onERC721Received(_from, _tokenId, _data) */\n      dup2\n      add\n      swap1\n      dup1\n      dup1\n      mload\n      swap1\n      0x20\n      add\n      swap1\n      swap3\n      swap2\n      swap1\n      pop\n      pop\n      pop\n        /* \"contracts/ERC721/ERC721BasicToken.sol\":10919:10995  bytes4 retval = ERC721Receiver(_to).onERC721Received(_from, _tokenId, _data) */\n      swap1\n      pop\n        /* \"contracts/ERC721/ERC721BasicToken.sol\":628:638  0xf0b9e5ba */\n      0xf0b9e5ba\n        /* \"contracts/ERC721/ERC721BasicToken.sol\":11020:11035  ERC721_RECEIVED */\n      0x100000000000000000000000000000000000000000000000000000000\n      mul\n        /* \"contracts/ERC721/ERC721BasicToken.sol\":11010:11035  retval == ERC721_RECEIVED */\n      not(0xffffffffffffffffffffffffffffffffffffffffffffffffffffffff)\n      and\n        /* \"contracts/ERC721/ERC721BasicToken.sol\":11010:11016  retval */\n      dup2\n        /* \"contracts/ERC721/ERC721BasicToken.sol\":11010:11035  retval == ERC721_RECEIVED */\n      not(0xffffffffffffffffffffffffffffffffffffffffffffffffffffffff)\n      and\n      eq\n        /* \"contracts/ERC721/ERC721BasicToken.sol\":11002:11036  return (retval == ERC721_RECEIVED) */\n      swap2\n      pop\n        /* \"contracts/ERC721/ERC721BasicToken.sol\":10700:11042  function checkAndCallSafeTransfer(\r... */\n    tag_105:\n      pop\n      swap5\n      swap4\n      pop\n      pop\n      pop\n      pop\n      jump\t// out\n        /* \"contracts/utils/math/SafeMath.sol\":876:989  function sub(uint256 a, uint256 b) internal pure returns (uint256) {\r... */\n    tag_100:\n        /* \"contracts/utils/math/SafeMath.sol\":934:941  uint256 */\n      0x0\n        /* \"contracts/utils/math/SafeMath.sol\":962:963  a */\n      dup3\n        /* \"contracts/utils/math/SafeMath.sol\":957:958  b */\n      dup3\n        /* \"contracts/utils/math/SafeMath.sol\":957:963  b <= a */\n      gt\n      iszero\n        /* \"contracts/utils/math/SafeMath.sol\":950:964  assert(b <= a) */\n      iszero\n      iszero\n      tag_117\n      jumpi\n      invalid\n    tag_117:\n        /* \"contracts/utils/math/SafeMath.sol\":982:983  b */\n      dup2\n        /* \"contracts/utils/math/SafeMath.sol\":978:979  a */\n      dup4\n        /* \"contracts/utils/math/SafeMath.sol\":978:983  a - b */\n      sub\n        /* \"contracts/utils/math/SafeMath.sol\":971:983  return a - b */\n      swap1\n      pop\n        /* \"contracts/utils/math/SafeMath.sol\":876:989  function sub(uint256 a, uint256 b) internal pure returns (uint256) {\r... */\n      swap3\n      swap2\n      pop\n      pop\n      jump\t// out\n        /* \"contracts/utils/math/SafeMath.sol\":1056:1189  function add(uint256 a, uint256 b) internal pure returns (uint256) {\r... */\n    tag_104:\n        /* \"contracts/utils/math/SafeMath.sol\":1114:1121  uint256 */\n      0x0\n        /* \"contracts/utils/math/SafeMath.sol\":1130:1139  uint256 c */\n      dup1\n        /* \"contracts/utils/math/SafeMath.sol\":1146:1147  b */\n      dup3\n        /* \"contracts/utils/math/SafeMath.sol\":1142:1143  a */\n      dup5\n        /* \"contracts/utils/math/SafeMath.sol\":1142:1147  a + b */\n      add\n        /* \"contracts/utils/math/SafeMath.sol\":1130:1147  uint256 c = a + b */\n      swap1\n      pop\n        /* \"contracts/utils/math/SafeMath.sol\":1166:1167  a */\n      dup4\n        /* \"contracts/utils/math/SafeMath.sol\":1161:1162  c */\n      dup2\n        /* \"contracts/utils/math/SafeMath.sol\":1161:1167  c >= a */\n      lt\n      iszero\n        /* \"contracts/utils/math/SafeMath.sol\":1154:1168  assert(c >= a) */\n      iszero\n      iszero\n      tag_119\n      jumpi\n      invalid\n    tag_119:\n        /* \"contracts/utils/math/SafeMath.sol\":1182:1183  c */\n      dup1\n        /* \"contracts/utils/math/SafeMath.sol\":1175:1183  return c */\n      swap2\n      pop\n        /* \"contracts/utils/math/SafeMath.sol\":1056:1189  function add(uint256 a, uint256 b) internal pure returns (uint256) {\r... */\n      pop\n      swap3\n      swap2\n      pop\n      pop\n      jump\t// out\n        /* \"contracts/utils/AddressUtils.sol\":453:1031  function isContract(address addr) internal view returns (bool) {\r... */\n    tag_107:\n        /* \"contracts/utils/AddressUtils.sol\":510:514  bool */\n      0x0\n        /* \"contracts/utils/AddressUtils.sol\":523:535  uint256 size */\n      dup1\n        /* \"contracts/utils/AddressUtils.sol\":945:949  addr */\n      dup3\n        /* \"contracts/utils/AddressUtils.sol\":933:950  extcodesize(addr) */\n      extcodesize\n        /* \"contracts/utils/AddressUtils.sol\":925:950  size := extcodesize(addr) */\n      swap1\n      pop\n        /* \"contracts/utils/AddressUtils.sol\":1024:1025  0 */\n      0x0\n        /* \"contracts/utils/AddressUtils.sol\":1017:1021  size */\n      dup2\n        /* \"contracts/utils/AddressUtils.sol\":1017:1025  size > 0 */\n      gt\n        /* \"contracts/utils/AddressUtils.sol\":1010:1025  return size > 0 */\n      swap2\n      pop\n        /* \"contracts/utils/AddressUtils.sol\":453:1031  function isContract(address addr) internal view returns (bool) {\r... */\n      pop\n      swap2\n      swap1\n      pop\n      jump\t// out\n\n    auxdata: 0xa165627a7a7230582063755ad0d688727beef12cb85199773136352475174c817be3fc7b0732ff440d0029\n}\n",
				"bytecode": {
					"linkReferences": {},
					"object": "608060405234801561001057600080fd5b5061127e806100206000396000f3006080604052600436106100a4576000357c0100000000000000000000000000000000000000000000000000000000900463ffffffff168063081812fc146100a9578063095ea7b31461011657806323b872dd1461016357806342842e0e146101d05780634f558e791461023d5780636352211e1461028257806370a08231146102ef578063a22cb46514610346578063b88d4fde14610395578063e985e9c514610448575b600080fd5b3480156100b557600080fd5b506100d4600480360381019080803590602001909291905050506104c3565b604051808273ffffffffffffffffffffffffffffffffffffffff1673ffffffffffffffffffffffffffffffffffffffff16815260200191505060405180910390f35b34801561012257600080fd5b50610161600480360381019080803573ffffffffffffffffffffffffffffffffffffffff16906020019092919080359060200190929190505050610500565b005b34801561016f57600080fd5b506101ce600480360381019080803573ffffffffffffffffffffffffffffffffffffffff169060200190929190803573ffffffffffffffffffffffffffffffffffffffff169060200190929190803590602001909291905050506106c6565b005b3480156101dc57600080fd5b5061023b600480360381019080803573ffffffffffffffffffffffffffffffffffffffff169060200190929190803573ffffffffffffffffffffffffffffffffffffffff169060200190929190803590602001909291905050506107dd565b005b34801561024957600080fd5b5061026860048036038101908080359060200190929190505050610815565b604051808215151515815260200191505060405180910390f35b34801561028e57600080fd5b506102ad60048036038101908080359060200190929190505050610886565b604051808273ffffffffffffffffffffffffffffffffffffffff1673ffffffffffffffffffffffffffffffffffffffff16815260200191505060405180910390f35b3480156102fb57600080fd5b50610330600480360381019080803573ffffffffffffffffffffffffffffffffffffffff169060200190929190505050610903565b6040518082815260200191505060405180910390f35b34801561035257600080fd5b50610393600480360381019080803573ffffffffffffffffffffffffffffffffffffffff169060200190929190803515159060200190929190505050610987565b005b3480156103a157600080fd5b50610446600480360381019080803573ffffffffffffffffffffffffffffffffffffffff169060200190929190803573ffffffffffffffffffffffffffffffffffffffff16906020019092919080359060200190929190803590602001908201803590602001908080601f0160208091040260200160405190810160405280939291908181526020018383808284378201915050505050509192919290505050610ac3565b005b34801561045457600080fd5b506104a9600480360381019080803573ffffffffffffffffffffffffffffffffffffffff169060200190929190803573ffffffffffffffffffffffffffffffffffffffff169060200190929190505050610b02565b604051808215151515815260200191505060405180910390f35b60006001600083815260200190815260200160002060009054906101000a900473ffffffffffffffffffffffffffffffffffffffff169050919050565b600061050b82610886565b90508073ffffffffffffffffffffffffffffffffffffffff168373ffffffffffffffffffffffffffffffffffffffff161415151561054857600080fd5b8073ffffffffffffffffffffffffffffffffffffffff163373ffffffffffffffffffffffffffffffffffffffff16148061058857506105878133610b02565b5b151561059357600080fd5b600073ffffffffffffffffffffffffffffffffffffffff166105b4836104c3565b73ffffffffffffffffffffffffffffffffffffffff161415806106045750600073ffffffffffffffffffffffffffffffffffffffff168373ffffffffffffffffffffffffffffffffffffffff1614155b156106c157826001600084815260200190815260200160002060006101000a81548173ffffffffffffffffffffffffffffffffffffffff021916908373ffffffffffffffffffffffffffffffffffffffff1602179055508273ffffffffffffffffffffffffffffffffffffffff168173ffffffffffffffffffffffffffffffffffffffff167f8c5be1e5ebec7d5bd14f71427d1e84f3dd0314c0f7b2291e5b200ac8c7c3b925846040518082815260200191505060405180910390a35b505050565b806106d13382610b96565b15156106dc57600080fd5b600073ffffffffffffffffffffffffffffffffffffffff168473ffffffffffffffffffffffffffffffffffffffff161415151561071857600080fd5b600073ffffffffffffffffffffffffffffffffffffffff168373ffffffffffffffffffffffffffffffffffffffff161415151561075457600080fd5b61075e8483610c2b565b6107688483610d94565b6107728383610ec2565b8273ffffffffffffffffffffffffffffffffffffffff168473ffffffffffffffffffffffffffffffffffffffff167fddf252ad1be2c89b69c2b068fc378daa952ba7f163c4a11628f55a4df523b3ef846040518082815260200191505060405180910390a350505050565b806107e83382610b96565b15156107f357600080fd5b61080f8484846020604051908101604052806000815250610ac3565b50505050565b60008060008084815260200190815260200160002060009054906101000a900473ffffffffffffffffffffffffffffffffffffffff169050600073ffffffffffffffffffffffffffffffffffffffff168173ffffffffffffffffffffffffffffffffffffffff161415915050919050565b60008060008084815260200190815260200160002060009054906101000a900473ffffffffffffffffffffffffffffffffffffffff169050600073ffffffffffffffffffffffffffffffffffffffff168173ffffffffffffffffffffffffffffffffffffffff16141515156108fa57600080fd5b80915050919050565b60008073ffffffffffffffffffffffffffffffffffffffff168273ffffffffffffffffffffffffffffffffffffffff161415151561094057600080fd5b600260008373ffffffffffffffffffffffffffffffffffffffff1673ffffffffffffffffffffffffffffffffffffffff168152602001908152602001600020549050919050565b3373ffffffffffffffffffffffffffffffffffffffff168273ffffffffffffffffffffffffffffffffffffffff16141515156109c257600080fd5b80600360003373ffffffffffffffffffffffffffffffffffffffff1673ffffffffffffffffffffffffffffffffffffffff16815260200190815260200160002060008473ffffffffffffffffffffffffffffffffffffffff1673ffffffffffffffffffffffffffffffffffffffff16815260200190815260200160002060006101000a81548160ff0219169083151502179055508173ffffffffffffffffffffffffffffffffffffffff163373ffffffffffffffffffffffffffffffffffffffff167f17307eab39ab6107e8899845ad3d59bd9653f200f220920489ca2b5937696c3183604051808215151515815260200191505060405180910390a35050565b81610ace3382610b96565b1515610ad957600080fd5b610ae48585856106c6565b610af08585858561101a565b1515610afb57600080fd5b5050505050565b6000600360008473ffffffffffffffffffffffffffffffffffffffff1673ffffffffffffffffffffffffffffffffffffffff16815260200190815260200160002060008373ffffffffffffffffffffffffffffffffffffffff1673ffffffffffffffffffffffffffffffffffffffff16815260200190815260200160002060009054906101000a900460ff16905092915050565b600080610ba283610886565b90508073ffffffffffffffffffffffffffffffffffffffff168473ffffffffffffffffffffffffffffffffffffffff161480610c1157508373ffffffffffffffffffffffffffffffffffffffff16610bf9846104c3565b73ffffffffffffffffffffffffffffffffffffffff16145b80610c225750610c218185610b02565b5b91505092915050565b8173ffffffffffffffffffffffffffffffffffffffff16610c4b82610886565b73ffffffffffffffffffffffffffffffffffffffff16141515610c6d57600080fd5b600073ffffffffffffffffffffffffffffffffffffffff166001600083815260200190815260200160002060009054906101000a900473ffffffffffffffffffffffffffffffffffffffff1673ffffffffffffffffffffffffffffffffffffffff16141515610d905760006001600083815260200190815260200160002060006101000a81548173ffffffffffffffffffffffffffffffffffffffff021916908373ffffffffffffffffffffffffffffffffffffffff160217905550600073ffffffffffffffffffffffffffffffffffffffff168273ffffffffffffffffffffffffffffffffffffffff167f8c5be1e5ebec7d5bd14f71427d1e84f3dd0314c0f7b2291e5b200ac8c7c3b925836040518082815260200191505060405180910390a35b5050565b8173ffffffffffffffffffffffffffffffffffffffff16610db482610886565b73ffffffffffffffffffffffffffffffffffffffff16141515610dd657600080fd5b610e296001600260008573ffffffffffffffffffffffffffffffffffffffff1673ffffffffffffffffffffffffffffffffffffffff1681526020019081526020016000205461120890919063ffffffff16565b600260008473ffffffffffffffffffffffffffffffffffffffff1673ffffffffffffffffffffffffffffffffffffffff16815260200190815260200160002081905550600080600083815260200190815260200160002060006101000a81548173ffffffffffffffffffffffffffffffffffffffff021916908373ffffffffffffffffffffffffffffffffffffffff1602179055505050565b600073ffffffffffffffffffffffffffffffffffffffff1660008083815260200190815260200160002060009054906101000a900473ffffffffffffffffffffffffffffffffffffffff1673ffffffffffffffffffffffffffffffffffffffff16141515610f2f57600080fd5b8160008083815260200190815260200160002060006101000a81548173ffffffffffffffffffffffffffffffffffffffff021916908373ffffffffffffffffffffffffffffffffffffffff160217905550610fd36001600260008573ffffffffffffffffffffffffffffffffffffffff1673ffffffffffffffffffffffffffffffffffffffff1681526020019081526020016000205461122190919063ffffffff16565b600260008473ffffffffffffffffffffffffffffffffffffffff1673ffffffffffffffffffffffffffffffffffffffff168152602001908152602001600020819055505050565b60008061103c8573ffffffffffffffffffffffffffffffffffffffff1661123f565b151561104b57600191506111ff565b8473ffffffffffffffffffffffffffffffffffffffff1663f0b9e5ba8786866040518463ffffffff167c0100000000000000000000000000000000000000000000000000000000028152600401808473ffffffffffffffffffffffffffffffffffffffff1673ffffffffffffffffffffffffffffffffffffffff16815260200183815260200180602001828103825283818151815260200191508051906020019080838360005b8381101561110d5780820151818401526020810190506110f2565b50505050905090810190601f16801561113a5780820380516001836020036101000a031916815260200191505b50945050505050602060405180830381600087803b15801561115b57600080fd5b505af115801561116f573d6000803e3d6000fd5b505050506040513d602081101561118557600080fd5b8101908080519060200190929190505050905063f0b9e5ba7c0100000000000000000000000000000000000000000000000000000000027bffffffffffffffffffffffffffffffffffffffffffffffffffffffff1916817bffffffffffffffffffffffffffffffffffffffffffffffffffffffff19161491505b50949350505050565b600082821115151561121657fe5b818303905092915050565b600080828401905083811015151561123557fe5b8091505092915050565b600080823b9050600081119150509190505600a165627a7a7230582063755ad0d688727beef12cb85199773136352475174c817be3fc7b0732ff440d0029",
					"opcodes": "PUSH1 0x80 PUSH1 0x40 MSTORE CALLVALUE DUP1 ISZERO PUSH2 0x10 JUMPI PUSH1 0x0 DUP1 REVERT JUMPDEST POP PUSH2 0x127E DUP1 PUSH2 0x20 PUSH1 0x0 CODECOPY PUSH1 0x0 RETURN STOP PUSH1 0x80 PUSH1 0x40 MSTORE PUSH1 0x4 CALLDATASIZE LT PUSH2 0xA4 JUMPI PUSH1 0x0 CALLDATALOAD PUSH29 0x100000000000000000000000000000000000000000000000000000000 SWAP1 DIV PUSH4 0xFFFFFFFF AND DUP1 PUSH4 0x81812FC EQ PUSH2 0xA9 JUMPI DUP1 PUSH4 0x95EA7B3 EQ PUSH2 0x116 JUMPI DUP1 PUSH4 0x23B872DD EQ PUSH2 0x163 JUMPI DUP1 PUSH4 0x42842E0E EQ PUSH2 0x1D0 JUMPI DUP1 PUSH4 0x4F558E79 EQ PUSH2 0x23D JUMPI DUP1 PUSH4 0x6352211E EQ PUSH2 0x282 JUMPI DUP1 PUSH4 0x70A08231 EQ PUSH2 0x2EF JUMPI DUP1 PUSH4 0xA22CB465 EQ PUSH2 0x346 JUMPI DUP1 PUSH4 0xB88D4FDE EQ PUSH2 0x395 JUMPI DUP1 PUSH4 0xE985E9C5 EQ PUSH2 0x448 JUMPI JUMPDEST PUSH1 0x0 DUP1 REVERT JUMPDEST CALLVALUE DUP1 ISZERO PUSH2 0xB5 JUMPI PUSH1 0x0 DUP1 REVERT JUMPDEST POP PUSH2 0xD4 PUSH1 0x4 DUP1 CALLDATASIZE SUB DUP2 ADD SWAP1 DUP1 DUP1 CALLDATALOAD SWAP1 PUSH1 0x20 ADD SWAP1 SWAP3 SWAP2 SWAP1 POP POP POP PUSH2 0x4C3 JUMP JUMPDEST PUSH1 0x40 MLOAD DUP1 DUP3 PUSH20 0xFFFFFFFFFFFFFFFFFFFFFFFFFFFFFFFFFFFFFFFF AND PUSH20 0xFFFFFFFFFFFFFFFFFFFFFFFFFFFFFFFFFFFFFFFF AND DUP2 MSTORE PUSH1 0x20 ADD SWAP2 POP POP PUSH1 0x40 MLOAD DUP1 SWAP2 SUB SWAP1 RETURN JUMPDEST CALLVALUE DUP1 ISZERO PUSH2 0x122 JUMPI PUSH1 0x0 DUP1 REVERT JUMPDEST POP PUSH2 0x161 PUSH1 0x4 DUP1 CALLDATASIZE SUB DUP2 ADD SWAP1 DUP1 DUP1 CALLDATALOAD PUSH20 0xFFFFFFFFFFFFFFFFFFFFFFFFFFFFFFFFFFFFFFFF AND SWAP1 PUSH1 0x20 ADD SWAP1 SWAP3 SWAP2 SWAP1 DUP1 CALLDATALOAD SWAP1 PUSH1 0x20 ADD SWAP1 SWAP3 SWAP2 SWAP1 POP POP POP PUSH2 0x500 JUMP JUMPDEST STOP JUMPDEST CALLVALUE DUP1 ISZERO PUSH2 0x16F JUMPI PUSH1 0x0 DUP1 REVERT JUMPDEST POP PUSH2 0x1CE PUSH1 0x4 DUP1 CALLDATASIZE SUB DUP2 ADD SWAP1 DUP1 DUP1 CALLDATALOAD PUSH20 0xFFFFFFFFFFFFFFFFFFFFFFFFFFFFFFFFFFFFFFFF AND SWAP1 PUSH1 0x20 ADD SWAP1 SWAP3 SWAP2 SWAP1 DUP1 CALLDATALOAD PUSH20 0xFFFFFFFFFFFFFFFFFFFFFFFFFFFFFFFFFFFFFFFF AND SWAP1 PUSH1 0x20 ADD SWAP1 SWAP3 SWAP2 SWAP1 DUP1 CALLDATALOAD SWAP1 PUSH1 0x20 ADD SWAP1 SWAP3 SWAP2 SWAP1 POP POP POP PUSH2 0x6C6 JUMP JUMPDEST STOP JUMPDEST CALLVALUE DUP1 ISZERO PUSH2 0x1DC JUMPI PUSH1 0x0 DUP1 REVERT JUMPDEST POP PUSH2 0x23B PUSH1 0x4 DUP1 CALLDATASIZE SUB DUP2 ADD SWAP1 DUP1 DUP1 CALLDATALOAD PUSH20 0xFFFFFFFFFFFFFFFFFFFFFFFFFFFFFFFFFFFFFFFF AND SWAP1 PUSH1 0x20 ADD SWAP1 SWAP3 SWAP2 SWAP1 DUP1 CALLDATALOAD PUSH20 0xFFFFFFFFFFFFFFFFFFFFFFFFFFFFFFFFFFFFFFFF AND SWAP1 PUSH1 0x20 ADD SWAP1 SWAP3 SWAP2 SWAP1 DUP1 CALLDATALOAD SWAP1 PUSH1 0x20 ADD SWAP1 SWAP3 SWAP2 SWAP1 POP POP POP PUSH2 0x7DD JUMP JUMPDEST STOP JUMPDEST CALLVALUE DUP1 ISZERO PUSH2 0x249 JUMPI PUSH1 0x0 DUP1 REVERT JUMPDEST POP PUSH2 0x268 PUSH1 0x4 DUP1 CALLDATASIZE SUB DUP2 ADD SWAP1 DUP1 DUP1 CALLDATALOAD SWAP1 PUSH1 0x20 ADD SWAP1 SWAP3 SWAP2 SWAP1 POP POP POP PUSH2 0x815 JUMP JUMPDEST PUSH1 0x40 MLOAD DUP1 DUP3 ISZERO ISZERO ISZERO ISZERO DUP2 MSTORE PUSH1 0x20 ADD SWAP2 POP POP PUSH1 0x40 MLOAD DUP1 SWAP2 SUB SWAP1 RETURN JUMPDEST CALLVALUE DUP1 ISZERO PUSH2 0x28E JUMPI PUSH1 0x0 DUP1 REVERT JUMPDEST POP PUSH2 0x2AD PUSH1 0x4 DUP1 CALLDATASIZE SUB DUP2 ADD SWAP1 DUP1 DUP1 CALLDATALOAD SWAP1 PUSH1 0x20 ADD SWAP1 SWAP3 SWAP2 SWAP1 POP POP POP PUSH2 0x886 JUMP JUMPDEST PUSH1 0x40 MLOAD DUP1 DUP3 PUSH20 0xFFFFFFFFFFFFFFFFFFFFFFFFFFFFFFFFFFFFFFFF AND PUSH20 0xFFFFFFFFFFFFFFFFFFFFFFFFFFFFFFFFFFFFFFFF AND DUP2 MSTORE PUSH1 0x20 ADD SWAP2 POP POP PUSH1 0x40 MLOAD DUP1 SWAP2 SUB SWAP1 RETURN JUMPDEST CALLVALUE DUP1 ISZERO PUSH2 0x2FB JUMPI PUSH1 0x0 DUP1 REVERT JUMPDEST POP PUSH2 0x330 PUSH1 0x4 DUP1 CALLDATASIZE SUB DUP2 ADD SWAP1 DUP1 DUP1 CALLDATALOAD PUSH20 0xFFFFFFFFFFFFFFFFFFFFFFFFFFFFFFFFFFFFFFFF AND SWAP1 PUSH1 0x20 ADD SWAP1 SWAP3 SWAP2 SWAP1 POP POP POP PUSH2 0x903 JUMP JUMPDEST PUSH1 0x40 MLOAD DUP1 DUP3 DUP2 MSTORE PUSH1 0x20 ADD SWAP2 POP POP PUSH1 0x40 MLOAD DUP1 SWAP2 SUB SWAP1 RETURN JUMPDEST CALLVALUE DUP1 ISZERO PUSH2 0x352 JUMPI PUSH1 0x0 DUP1 REVERT JUMPDEST POP PUSH2 0x393 PUSH1 0x4 DUP1 CALLDATASIZE SUB DUP2 ADD SWAP1 DUP1 DUP1 CALLDATALOAD PUSH20 0xFFFFFFFFFFFFFFFFFFFFFFFFFFFFFFFFFFFFFFFF AND SWAP1 PUSH1 0x20 ADD SWAP1 SWAP3 SWAP2 SWAP1 DUP1 CALLDATALOAD ISZERO ISZERO SWAP1 PUSH1 0x20 ADD SWAP1 SWAP3 SWAP2 SWAP1 POP POP POP PUSH2 0x987 JUMP JUMPDEST STOP JUMPDEST CALLVALUE DUP1 ISZERO PUSH2 0x3A1 JUMPI PUSH1 0x0 DUP1 REVERT JUMPDEST POP PUSH2 0x446 PUSH1 0x4 DUP1 CALLDATASIZE SUB DUP2 ADD SWAP1 DUP1 DUP1 CALLDATALOAD PUSH20 0xFFFFFFFFFFFFFFFFFFFFFFFFFFFFFFFFFFFFFFFF AND SWAP1 PUSH1 0x20 ADD SWAP1 SWAP3 SWAP2 SWAP1 DUP1 CALLDATALOAD PUSH20 0xFFFFFFFFFFFFFFFFFFFFFFFFFFFFFFFFFFFFFFFF AND SWAP1 PUSH1 0x20 ADD SWAP1 SWAP3 SWAP2 SWAP1 DUP1 CALLDATALOAD SWAP1 PUSH1 0x20 ADD SWAP1 SWAP3 SWAP2 SWAP1 DUP1 CALLDATALOAD SWAP1 PUSH1 0x20 ADD SWAP1 DUP3 ADD DUP1 CALLDATALOAD SWAP1 PUSH1 0x20 ADD SWAP1 DUP1 DUP1 PUSH1 0x1F ADD PUSH1 0x20 DUP1 SWAP2 DIV MUL PUSH1 0x20 ADD PUSH1 0x40 MLOAD SWAP1 DUP2 ADD PUSH1 0x40 MSTORE DUP1 SWAP4 SWAP3 SWAP2 SWAP1 DUP2 DUP2 MSTORE PUSH1 0x20 ADD DUP4 DUP4 DUP1 DUP3 DUP5 CALLDATACOPY DUP3 ADD SWAP2 POP POP POP POP POP POP SWAP2 SWAP3 SWAP2 SWAP3 SWAP1 POP POP POP PUSH2 0xAC3 JUMP JUMPDEST STOP JUMPDEST CALLVALUE DUP1 ISZERO PUSH2 0x454 JUMPI PUSH1 0x0 DUP1 REVERT JUMPDEST POP PUSH2 0x4A9 PUSH1 0x4 DUP1 CALLDATASIZE SUB DUP2 ADD SWAP1 DUP1 DUP1 CALLDATALOAD PUSH20 0xFFFFFFFFFFFFFFFFFFFFFFFFFFFFFFFFFFFFFFFF AND SWAP1 PUSH1 0x20 ADD SWAP1 SWAP3 SWAP2 SWAP1 DUP1 CALLDATALOAD PUSH20 0xFFFFFFFFFFFFFFFFFFFFFFFFFFFFFFFFFFFFFFFF AND SWAP1 PUSH1 0x20 ADD SWAP1 SWAP3 SWAP2 SWAP1 POP POP POP PUSH2 0xB02 JUMP JUMPDEST PUSH1 0x40 MLOAD DUP1 DUP3 ISZERO ISZERO ISZERO ISZERO DUP2 MSTORE PUSH1 0x20 ADD SWAP2 POP POP PUSH1 0x40 MLOAD DUP1 SWAP2 SUB SWAP1 RETURN JUMPDEST PUSH1 0x0 PUSH1 0x1 PUSH1 0x0 DUP4 DUP2 MSTORE PUSH1 0x20 ADD SWAP1 DUP2 MSTORE PUSH1 0x20 ADD PUSH1 0x0 KECCAK256 PUSH1 0x0 SWAP1 SLOAD SWAP1 PUSH2 0x100 EXP SWAP1 DIV PUSH20 0xFFFFFFFFFFFFFFFFFFFFFFFFFFFFFFFFFFFFFFFF AND SWAP1 POP SWAP2 SWAP1 POP JUMP JUMPDEST PUSH1 0x0 PUSH2 0x50B DUP3 PUSH2 0x886 JUMP JUMPDEST SWAP1 POP DUP1 PUSH20 0xFFFFFFFFFFFFFFFFFFFFFFFFFFFFFFFFFFFFFFFF AND DUP4 PUSH20 0xFFFFFFFFFFFFFFFFFFFFFFFFFFFFFFFFFFFFFFFF AND EQ ISZERO ISZERO ISZERO PUSH2 0x548 JUMPI PUSH1 0x0 DUP1 REVERT JUMPDEST DUP1 PUSH20 0xFFFFFFFFFFFFFFFFFFFFFFFFFFFFFFFFFFFFFFFF AND CALLER PUSH20 0xFFFFFFFFFFFFFFFFFFFFFFFFFFFFFFFFFFFFFFFF AND EQ DUP1 PUSH2 0x588 JUMPI POP PUSH2 0x587 DUP2 CALLER PUSH2 0xB02 JUMP JUMPDEST JUMPDEST ISZERO ISZERO PUSH2 0x593 JUMPI PUSH1 0x0 DUP1 REVERT JUMPDEST PUSH1 0x0 PUSH20 0xFFFFFFFFFFFFFFFFFFFFFFFFFFFFFFFFFFFFFFFF AND PUSH2 0x5B4 DUP4 PUSH2 0x4C3 JUMP JUMPDEST PUSH20 0xFFFFFFFFFFFFFFFFFFFFFFFFFFFFFFFFFFFFFFFF AND EQ ISZERO DUP1 PUSH2 0x604 JUMPI POP PUSH1 0x0 PUSH20 0xFFFFFFFFFFFFFFFFFFFFFFFFFFFFFFFFFFFFFFFF AND DUP4 PUSH20 0xFFFFFFFFFFFFFFFFFFFFFFFFFFFFFFFFFFFFFFFF AND EQ ISZERO JUMPDEST ISZERO PUSH2 0x6C1 JUMPI DUP3 PUSH1 0x1 PUSH1 0x0 DUP5 DUP2 MSTORE PUSH1 0x20 ADD SWAP1 DUP2 MSTORE PUSH1 0x20 ADD PUSH1 0x0 KECCAK256 PUSH1 0x0 PUSH2 0x100 EXP DUP2 SLOAD DUP2 PUSH20 0xFFFFFFFFFFFFFFFFFFFFFFFFFFFFFFFFFFFFFFFF MUL NOT AND SWAP1 DUP4 PUSH20 0xFFFFFFFFFFFFFFFFFFFFFFFFFFFFFFFFFFFFFFFF AND MUL OR SWAP1 SSTORE POP DUP3 PUSH20 0xFFFFFFFFFFFFFFFFFFFFFFFFFFFFFFFFFFFFFFFF AND DUP2 PUSH20 0xFFFFFFFFFFFFFFFFFFFFFFFFFFFFFFFFFFFFFFFF AND PUSH32 0x8C5BE1E5EBEC7D5BD14F71427D1E84F3DD0314C0F7B2291E5B200AC8C7C3B925 DUP5 PUSH1 0x40 MLOAD DUP1 DUP3 DUP2 MSTORE PUSH1 0x20 ADD SWAP2 POP POP PUSH1 0x40 MLOAD DUP1 SWAP2 SUB SWAP1 LOG3 JUMPDEST POP POP POP JUMP JUMPDEST DUP1 PUSH2 0x6D1 CALLER DUP3 PUSH2 0xB96 JUMP JUMPDEST ISZERO ISZERO PUSH2 0x6DC JUMPI PUSH1 0x0 DUP1 REVERT JUMPDEST PUSH1 0x0 PUSH20 0xFFFFFFFFFFFFFFFFFFFFFFFFFFFFFFFFFFFFFFFF AND DUP5 PUSH20 0xFFFFFFFFFFFFFFFFFFFFFFFFFFFFFFFFFFFFFFFF AND EQ ISZERO ISZERO ISZERO PUSH2 0x718 JUMPI PUSH1 0x0 DUP1 REVERT JUMPDEST PUSH1 0x0 PUSH20 0xFFFFFFFFFFFFFFFFFFFFFFFFFFFFFFFFFFFFFFFF AND DUP4 PUSH20 0xFFFFFFFFFFFFFFFFFFFFFFFFFFFFFFFFFFFFFFFF AND EQ ISZERO ISZERO ISZERO PUSH2 0x754 JUMPI PUSH1 0x0 DUP1 REVERT JUMPDEST PUSH2 0x75E DUP5 DUP4 PUSH2 0xC2B JUMP JUMPDEST PUSH2 0x768 DUP5 DUP4 PUSH2 0xD94 JUMP JUMPDEST PUSH2 0x772 DUP4 DUP4 PUSH2 0xEC2 JUMP JUMPDEST DUP3 PUSH20 0xFFFFFFFFFFFFFFFFFFFFFFFFFFFFFFFFFFFFFFFF AND DUP5 PUSH20 0xFFFFFFFFFFFFFFFFFFFFFFFFFFFFFFFFFFFFFFFF AND PUSH32 0xDDF252AD1BE2C89B69C2B068FC378DAA952BA7F163C4A11628F55A4DF523B3EF DUP5 PUSH1 0x40 MLOAD DUP1 DUP3 DUP2 MSTORE PUSH1 0x20 ADD SWAP2 POP POP PUSH1 0x40 MLOAD DUP1 SWAP2 SUB SWAP1 LOG3 POP POP POP POP JUMP JUMPDEST DUP1 PUSH2 0x7E8 CALLER DUP3 PUSH2 0xB96 JUMP JUMPDEST ISZERO ISZERO PUSH2 0x7F3 JUMPI PUSH1 0x0 DUP1 REVERT JUMPDEST PUSH2 0x80F DUP5 DUP5 DUP5 PUSH1 0x20 PUSH1 0x40 MLOAD SWAP1 DUP2 ADD PUSH1 0x40 MSTORE DUP1 PUSH1 0x0 DUP2 MSTORE POP PUSH2 0xAC3 JUMP JUMPDEST POP POP POP POP JUMP JUMPDEST PUSH1 0x0 DUP1 PUSH1 0x0 DUP1 DUP5 DUP2 MSTORE PUSH1 0x20 ADD SWAP1 DUP2 MSTORE PUSH1 0x20 ADD PUSH1 0x0 KECCAK256 PUSH1 0x0 SWAP1 SLOAD SWAP1 PUSH2 0x100 EXP SWAP1 DIV PUSH20 0xFFFFFFFFFFFFFFFFFFFFFFFFFFFFFFFFFFFFFFFF AND SWAP1 POP PUSH1 0x0 PUSH20 0xFFFFFFFFFFFFFFFFFFFFFFFFFFFFFFFFFFFFFFFF AND DUP2 PUSH20 0xFFFFFFFFFFFFFFFFFFFFFFFFFFFFFFFFFFFFFFFF AND EQ ISZERO SWAP2 POP POP SWAP2 SWAP1 POP JUMP JUMPDEST PUSH1 0x0 DUP1 PUSH1 0x0 DUP1 DUP5 DUP2 MSTORE PUSH1 0x20 ADD SWAP1 DUP2 MSTORE PUSH1 0x20 ADD PUSH1 0x0 KECCAK256 PUSH1 0x0 SWAP1 SLOAD SWAP1 PUSH2 0x100 EXP SWAP1 DIV PUSH20 0xFFFFFFFFFFFFFFFFFFFFFFFFFFFFFFFFFFFFFFFF AND SWAP1 POP PUSH1 0x0 PUSH20 0xFFFFFFFFFFFFFFFFFFFFFFFFFFFFFFFFFFFFFFFF AND DUP2 PUSH20 0xFFFFFFFFFFFFFFFFFFFFFFFFFFFFFFFFFFFFFFFF AND EQ ISZERO ISZERO ISZERO PUSH2 0x8FA JUMPI PUSH1 0x0 DUP1 REVERT JUMPDEST DUP1 SWAP2 POP POP SWAP2 SWAP1 POP JUMP JUMPDEST PUSH1 0x0 DUP1 PUSH20 0xFFFFFFFFFFFFFFFFFFFFFFFFFFFFFFFFFFFFFFFF AND DUP3 PUSH20 0xFFFFFFFFFFFFFFFFFFFFFFFFFFFFFFFFFFFFFFFF AND EQ ISZERO ISZERO ISZERO PUSH2 0x940 JUMPI PUSH1 0x0 DUP1 REVERT JUMPDEST PUSH1 0x2 PUSH1 0x0 DUP4 PUSH20 0xFFFFFFFFFFFFFFFFFFFFFFFFFFFFFFFFFFFFFFFF AND PUSH20 0xFFFFFFFFFFFFFFFFFFFFFFFFFFFFFFFFFFFFFFFF AND DUP2 MSTORE PUSH1 0x20 ADD SWAP1 DUP2 MSTORE PUSH1 0x20 ADD PUSH1 0x0 KECCAK256 SLOAD SWAP1 POP SWAP2 SWAP1 POP JUMP JUMPDEST CALLER PUSH20 0xFFFFFFFFFFFFFFFFFFFFFFFFFFFFFFFFFFFFFFFF AND DUP3 PUSH20 0xFFFFFFFFFFFFFFFFFFFFFFFFFFFFFFFFFFFFFFFF AND EQ ISZERO ISZERO ISZERO PUSH2 0x9C2 JUMPI PUSH1 0x0 DUP1 REVERT JUMPDEST DUP1 PUSH1 0x3 PUSH1 0x0 CALLER PUSH20 0xFFFFFFFFFFFFFFFFFFFFFFFFFFFFFFFFFFFFFFFF AND PUSH20 0xFFFFFFFFFFFFFFFFFFFFFFFFFFFFFFFFFFFFFFFF AND DUP2 MSTORE PUSH1 0x20 ADD SWAP1 DUP2 MSTORE PUSH1 0x20 ADD PUSH1 0x0 KECCAK256 PUSH1 0x0 DUP5 PUSH20 0xFFFFFFFFFFFFFFFFFFFFFFFFFFFFFFFFFFFFFFFF AND PUSH20 0xFFFFFFFFFFFFFFFFFFFFFFFFFFFFFFFFFFFFFFFF AND DUP2 MSTORE PUSH1 0x20 ADD SWAP1 DUP2 MSTORE PUSH1 0x20 ADD PUSH1 0x0 KECCAK256 PUSH1 0x0 PUSH2 0x100 EXP DUP2 SLOAD DUP2 PUSH1 0xFF MUL NOT AND SWAP1 DUP4 ISZERO ISZERO MUL OR SWAP1 SSTORE POP DUP2 PUSH20 0xFFFFFFFFFFFFFFFFFFFFFFFFFFFFFFFFFFFFFFFF AND CALLER PUSH20 0xFFFFFFFFFFFFFFFFFFFFFFFFFFFFFFFFFFFFFFFF AND PUSH32 0x17307EAB39AB6107E8899845AD3D59BD9653F200F220920489CA2B5937696C31 DUP4 PUSH1 0x40 MLOAD DUP1 DUP3 ISZERO ISZERO ISZERO ISZERO DUP2 MSTORE PUSH1 0x20 ADD SWAP2 POP POP PUSH1 0x40 MLOAD DUP1 SWAP2 SUB SWAP1 LOG3 POP POP JUMP JUMPDEST DUP2 PUSH2 0xACE CALLER DUP3 PUSH2 0xB96 JUMP JUMPDEST ISZERO ISZERO PUSH2 0xAD9 JUMPI PUSH1 0x0 DUP1 REVERT JUMPDEST PUSH2 0xAE4 DUP6 DUP6 DUP6 PUSH2 0x6C6 JUMP JUMPDEST PUSH2 0xAF0 DUP6 DUP6 DUP6 DUP6 PUSH2 0x101A JUMP JUMPDEST ISZERO ISZERO PUSH2 0xAFB JUMPI PUSH1 0x0 DUP1 REVERT JUMPDEST POP POP POP POP POP JUMP JUMPDEST PUSH1 0x0 PUSH1 0x3 PUSH1 0x0 DUP5 PUSH20 0xFFFFFFFFFFFFFFFFFFFFFFFFFFFFFFFFFFFFFFFF AND PUSH20 0xFFFFFFFFFFFFFFFFFFFFFFFFFFFFFFFFFFFFFFFF AND DUP2 MSTORE PUSH1 0x20 ADD SWAP1 DUP2 MSTORE PUSH1 0x20 ADD PUSH1 0x0 KECCAK256 PUSH1 0x0 DUP4 PUSH20 0xFFFFFFFFFFFFFFFFFFFFFFFFFFFFFFFFFFFFFFFF AND PUSH20 0xFFFFFFFFFFFFFFFFFFFFFFFFFFFFFFFFFFFFFFFF AND DUP2 MSTORE PUSH1 0x20 ADD SWAP1 DUP2 MSTORE PUSH1 0x20 ADD PUSH1 0x0 KECCAK256 PUSH1 0x0 SWAP1 SLOAD SWAP1 PUSH2 0x100 EXP SWAP1 DIV PUSH1 0xFF AND SWAP1 POP SWAP3 SWAP2 POP POP JUMP JUMPDEST PUSH1 0x0 DUP1 PUSH2 0xBA2 DUP4 PUSH2 0x886 JUMP JUMPDEST SWAP1 POP DUP1 PUSH20 0xFFFFFFFFFFFFFFFFFFFFFFFFFFFFFFFFFFFFFFFF AND DUP5 PUSH20 0xFFFFFFFFFFFFFFFFFFFFFFFFFFFFFFFFFFFFFFFF AND EQ DUP1 PUSH2 0xC11 JUMPI POP DUP4 PUSH20 0xFFFFFFFFFFFFFFFFFFFFFFFFFFFFFFFFFFFFFFFF AND PUSH2 0xBF9 DUP5 PUSH2 0x4C3 JUMP JUMPDEST PUSH20 0xFFFFFFFFFFFFFFFFFFFFFFFFFFFFFFFFFFFFFFFF AND EQ JUMPDEST DUP1 PUSH2 0xC22 JUMPI POP PUSH2 0xC21 DUP2 DUP6 PUSH2 0xB02 JUMP JUMPDEST JUMPDEST SWAP2 POP POP SWAP3 SWAP2 POP POP JUMP JUMPDEST DUP2 PUSH20 0xFFFFFFFFFFFFFFFFFFFFFFFFFFFFFFFFFFFFFFFF AND PUSH2 0xC4B DUP3 PUSH2 0x886 JUMP JUMPDEST PUSH20 0xFFFFFFFFFFFFFFFFFFFFFFFFFFFFFFFFFFFFFFFF AND EQ ISZERO ISZERO PUSH2 0xC6D JUMPI PUSH1 0x0 DUP1 REVERT JUMPDEST PUSH1 0x0 PUSH20 0xFFFFFFFFFFFFFFFFFFFFFFFFFFFFFFFFFFFFFFFF AND PUSH1 0x1 PUSH1 0x0 DUP4 DUP2 MSTORE PUSH1 0x20 ADD SWAP1 DUP2 MSTORE PUSH1 0x20 ADD PUSH1 0x0 KECCAK256 PUSH1 0x0 SWAP1 SLOAD SWAP1 PUSH2 0x100 EXP SWAP1 DIV PUSH20 0xFFFFFFFFFFFFFFFFFFFFFFFFFFFFFFFFFFFFFFFF AND PUSH20 0xFFFFFFFFFFFFFFFFFFFFFFFFFFFFFFFFFFFFFFFF AND EQ ISZERO ISZERO PUSH2 0xD90 JUMPI PUSH1 0x0 PUSH1 0x1 PUSH1 0x0 DUP4 DUP2 MSTORE PUSH1 0x20 ADD SWAP1 DUP2 MSTORE PUSH1 0x20 ADD PUSH1 0x0 KECCAK256 PUSH1 0x0 PUSH2 0x100 EXP DUP2 SLOAD DUP2 PUSH20 0xFFFFFFFFFFFFFFFFFFFFFFFFFFFFFFFFFFFFFFFF MUL NOT AND SWAP1 DUP4 PUSH20 0xFFFFFFFFFFFFFFFFFFFFFFFFFFFFFFFFFFFFFFFF AND MUL OR SWAP1 SSTORE POP PUSH1 0x0 PUSH20 0xFFFFFFFFFFFFFFFFFFFFFFFFFFFFFFFFFFFFFFFF AND DUP3 PUSH20 0xFFFFFFFFFFFFFFFFFFFFFFFFFFFFFFFFFFFFFFFF AND PUSH32 0x8C5BE1E5EBEC7D5BD14F71427D1E84F3DD0314C0F7B2291E5B200AC8C7C3B925 DUP4 PUSH1 0x40 MLOAD DUP1 DUP3 DUP2 MSTORE PUSH1 0x20 ADD SWAP2 POP POP PUSH1 0x40 MLOAD DUP1 SWAP2 SUB SWAP1 LOG3 JUMPDEST POP POP JUMP JUMPDEST DUP2 PUSH20 0xFFFFFFFFFFFFFFFFFFFFFFFFFFFFFFFFFFFFFFFF AND PUSH2 0xDB4 DUP3 PUSH2 0x886 JUMP JUMPDEST PUSH20 0xFFFFFFFFFFFFFFFFFFFFFFFFFFFFFFFFFFFFFFFF AND EQ ISZERO ISZERO PUSH2 0xDD6 JUMPI PUSH1 0x0 DUP1 REVERT JUMPDEST PUSH2 0xE29 PUSH1 0x1 PUSH1 0x2 PUSH1 0x0 DUP6 PUSH20 0xFFFFFFFFFFFFFFFFFFFFFFFFFFFFFFFFFFFFFFFF AND PUSH20 0xFFFFFFFFFFFFFFFFFFFFFFFFFFFFFFFFFFFFFFFF AND DUP2 MSTORE PUSH1 0x20 ADD SWAP1 DUP2 MSTORE PUSH1 0x20 ADD PUSH1 0x0 KECCAK256 SLOAD PUSH2 0x1208 SWAP1 SWAP2 SWAP1 PUSH4 0xFFFFFFFF AND JUMP JUMPDEST PUSH1 0x2 PUSH1 0x0 DUP5 PUSH20 0xFFFFFFFFFFFFFFFFFFFFFFFFFFFFFFFFFFFFFFFF AND PUSH20 0xFFFFFFFFFFFFFFFFFFFFFFFFFFFFFFFFFFFFFFFF AND DUP2 MSTORE PUSH1 0x20 ADD SWAP1 DUP2 MSTORE PUSH1 0x20 ADD PUSH1 0x0 KECCAK256 DUP2 SWAP1 SSTORE POP PUSH1 0x0 DUP1 PUSH1 0x0 DUP4 DUP2 MSTORE PUSH1 0x20 ADD SWAP1 DUP2 MSTORE PUSH1 0x20 ADD PUSH1 0x0 KECCAK256 PUSH1 0x0 PUSH2 0x100 EXP DUP2 SLOAD DUP2 PUSH20 0xFFFFFFFFFFFFFFFFFFFFFFFFFFFFFFFFFFFFFFFF MUL NOT AND SWAP1 DUP4 PUSH20 0xFFFFFFFFFFFFFFFFFFFFFFFFFFFFFFFFFFFFFFFF AND MUL OR SWAP1 SSTORE POP POP POP JUMP JUMPDEST PUSH1 0x0 PUSH20 0xFFFFFFFFFFFFFFFFFFFFFFFFFFFFFFFFFFFFFFFF AND PUSH1 0x0 DUP1 DUP4 DUP2 MSTORE PUSH1 0x20 ADD SWAP1 DUP2 MSTORE PUSH1 0x20 ADD PUSH1 0x0 KECCAK256 PUSH1 0x0 SWAP1 SLOAD SWAP1 PUSH2 0x100 EXP SWAP1 DIV PUSH20 0xFFFFFFFFFFFFFFFFFFFFFFFFFFFFFFFFFFFFFFFF AND PUSH20 0xFFFFFFFFFFFFFFFFFFFFFFFFFFFFFFFFFFFFFFFF AND EQ ISZERO ISZERO PUSH2 0xF2F JUMPI PUSH1 0x0 DUP1 REVERT JUMPDEST DUP2 PUSH1 0x0 DUP1 DUP4 DUP2 MSTORE PUSH1 0x20 ADD SWAP1 DUP2 MSTORE PUSH1 0x20 ADD PUSH1 0x0 KECCAK256 PUSH1 0x0 PUSH2 0x100 EXP DUP2 SLOAD DUP2 PUSH20 0xFFFFFFFFFFFFFFFFFFFFFFFFFFFFFFFFFFFFFFFF MUL NOT AND SWAP1 DUP4 PUSH20 0xFFFFFFFFFFFFFFFFFFFFFFFFFFFFFFFFFFFFFFFF AND MUL OR SWAP1 SSTORE POP PUSH2 0xFD3 PUSH1 0x1 PUSH1 0x2 PUSH1 0x0 DUP6 PUSH20 0xFFFFFFFFFFFFFFFFFFFFFFFFFFFFFFFFFFFFFFFF AND PUSH20 0xFFFFFFFFFFFFFFFFFFFFFFFFFFFFFFFFFFFFFFFF AND DUP2 MSTORE PUSH1 0x20 ADD SWAP1 DUP2 MSTORE PUSH1 0x20 ADD PUSH1 0x0 KECCAK256 SLOAD PUSH2 0x1221 SWAP1 SWAP2 SWAP1 PUSH4 0xFFFFFFFF AND JUMP JUMPDEST PUSH1 0x2 PUSH1 0x0 DUP5 PUSH20 0xFFFFFFFFFFFFFFFFFFFFFFFFFFFFFFFFFFFFFFFF AND PUSH20 0xFFFFFFFFFFFFFFFFFFFFFFFFFFFFFFFFFFFFFFFF AND DUP2 MSTORE PUSH1 0x20 ADD SWAP1 DUP2 MSTORE PUSH1 0x20 ADD PUSH1 0x0 KECCAK256 DUP2 SWAP1 SSTORE POP POP POP JUMP JUMPDEST PUSH1 0x0 DUP1 PUSH2 0x103C DUP6 PUSH20 0xFFFFFFFFFFFFFFFFFFFFFFFFFFFFFFFFFFFFFFFF AND PUSH2 0x123F JUMP JUMPDEST ISZERO ISZERO PUSH2 0x104B JUMPI PUSH1 0x1 SWAP2 POP PUSH2 0x11FF JUMP JUMPDEST DUP5 PUSH20 0xFFFFFFFFFFFFFFFFFFFFFFFFFFFFFFFFFFFFFFFF AND PUSH4 0xF0B9E5BA DUP8 DUP7 DUP7 PUSH1 0x40 MLOAD DUP5 PUSH4 0xFFFFFFFF AND PUSH29 0x100000000000000000000000000000000000000000000000000000000 MUL DUP2 MSTORE PUSH1 0x4 ADD DUP1 DUP5 PUSH20 0xFFFFFFFFFFFFFFFFFFFFFFFFFFFFFFFFFFFFFFFF AND PUSH20 0xFFFFFFFFFFFFFFFFFFFFFFFFFFFFFFFFFFFFFFFF AND DUP2 MSTORE PUSH1 0x20 ADD DUP4 DUP2 MSTORE PUSH1 0x20 ADD DUP1 PUSH1 0x20 ADD DUP3 DUP2 SUB DUP3 MSTORE DUP4 DUP2 DUP2 MLOAD DUP2 MSTORE PUSH1 0x20 ADD SWAP2 POP DUP1 MLOAD SWAP1 PUSH1 0x20 ADD SWAP1 DUP1 DUP4 DUP4 PUSH1 0x0 JUMPDEST DUP4 DUP2 LT ISZERO PUSH2 0x110D JUMPI DUP1 DUP3 ADD MLOAD DUP2 DUP5 ADD MSTORE PUSH1 0x20 DUP2 ADD SWAP1 POP PUSH2 0x10F2 JUMP JUMPDEST POP POP POP POP SWAP1 POP SWAP1 DUP2 ADD SWAP1 PUSH1 0x1F AND DUP1 ISZERO PUSH2 0x113A JUMPI DUP1 DUP3 SUB DUP1 MLOAD PUSH1 0x1 DUP4 PUSH1 0x20 SUB PUSH2 0x100 EXP SUB NOT AND DUP2 MSTORE PUSH1 0x20 ADD SWAP2 POP JUMPDEST POP SWAP5 POP POP POP POP POP PUSH1 0x20 PUSH1 0x40 MLOAD DUP1 DUP4 SUB DUP2 PUSH1 0x0 DUP8 DUP1 EXTCODESIZE ISZERO DUP1 ISZERO PUSH2 0x115B JUMPI PUSH1 0x0 DUP1 REVERT JUMPDEST POP GAS CALL ISZERO DUP1 ISZERO PUSH2 0x116F JUMPI RETURNDATASIZE PUSH1 0x0 DUP1 RETURNDATACOPY RETURNDATASIZE PUSH1 0x0 REVERT JUMPDEST POP POP POP POP PUSH1 0x40 MLOAD RETURNDATASIZE PUSH1 0x20 DUP2 LT ISZERO PUSH2 0x1185 JUMPI PUSH1 0x0 DUP1 REVERT JUMPDEST DUP2 ADD SWAP1 DUP1 DUP1 MLOAD SWAP1 PUSH1 0x20 ADD SWAP1 SWAP3 SWAP2 SWAP1 POP POP POP SWAP1 POP PUSH4 0xF0B9E5BA PUSH29 0x100000000000000000000000000000000000000000000000000000000 MUL PUSH28 0xFFFFFFFFFFFFFFFFFFFFFFFFFFFFFFFFFFFFFFFFFFFFFFFFFFFFFFFF NOT AND DUP2 PUSH28 0xFFFFFFFFFFFFFFFFFFFFFFFFFFFFFFFFFFFFFFFFFFFFFFFFFFFFFFFF NOT AND EQ SWAP2 POP JUMPDEST POP SWAP5 SWAP4 POP POP POP POP JUMP JUMPDEST PUSH1 0x0 DUP3 DUP3 GT ISZERO ISZERO ISZERO PUSH2 0x1216 JUMPI INVALID JUMPDEST DUP2 DUP4 SUB SWAP1 POP SWAP3 SWAP2 POP POP JUMP JUMPDEST PUSH1 0x0 DUP1 DUP3 DUP5 ADD SWAP1 POP DUP4 DUP2 LT ISZERO ISZERO ISZERO PUSH2 0x1235 JUMPI INVALID JUMPDEST DUP1 SWAP2 POP POP SWAP3 SWAP2 POP POP JUMP JUMPDEST PUSH1 0x0 DUP1 DUP3 EXTCODESIZE SWAP1 POP PUSH1 0x0 DUP2 GT SWAP2 POP POP SWAP2 SWAP1 POP JUMP STOP LOG1 PUSH6 0x627A7A723058 KECCAK256 PUSH4 0x755AD0D6 DUP9 PUSH19 0x7BEEF12CB85199773136352475174C817BE3FC PUSH28 0x732FF440D0029000000000000000000000000000000000000000000 "
				},
				"gasEstimates": {
					"creation": {
						"codeDepositCost": "946800",
						"executionCost": "981",
						"totalCost": "947781"
					},
					"external": {
						"approve(address,uint256)": "23865",
						"balanceOf(address)": "735",
						"exists(uint256)": "711",
						"getApproved(uint256)": "589",
						"isApprovedForAll(address,address)": "930",
						"ownerOf(uint256)": "756",
						"safeTransferFrom(address,address,uint256)": "infinite",
						"safeTransferFrom(address,address,uint256,bytes)": "infinite",
						"setApprovalForAll(address,bool)": "22721",
						"transferFrom(address,address,uint256)": "infinite"
					},
					"internal": {
						"_burn(address,uint256)": "infinite",
						"_mint(address,uint256)": "infinite",
						"addTokenTo(address,uint256)": "infinite",
						"checkAndCallSafeTransfer(address,address,uint256,bytes memory)": "infinite",
						"clearApproval(address,uint256)": "infinite",
						"isApprovedOrOwner(address,uint256)": "1364",
						"removeTokenFrom(address,uint256)": "infinite"
					}
				},
				"methodIdentifiers": {
					"approve(address,uint256)": "095ea7b3",
					"balanceOf(address)": "70a08231",
					"exists(uint256)": "4f558e79",
					"getApproved(uint256)": "081812fc",
					"isApprovedForAll(address,address)": "e985e9c5",
					"ownerOf(uint256)": "6352211e",
					"safeTransferFrom(address,address,uint256)": "42842e0e",
					"safeTransferFrom(address,address,uint256,bytes)": "b88d4fde",
					"setApprovalForAll(address,bool)": "a22cb465",
					"transferFrom(address,address,uint256)": "23b872dd"
				}
			},
			"userdoc": {
				"methods": {}
			}
		}
	}
}