{
	"contracts/DeedRepository.sol": {
		"DeedRepository": {
			"abi": [
				{
					"constant": true,
					"inputs": [],
					"name": "name",
					"outputs": [
						{
							"name": "",
							"type": "string"
						}
					],
					"payable": false,
					"stateMutability": "view",
					"type": "function"
				},
				{
					"constant": true,
					"inputs": [
						{
							"name": "_tokenId",
							"type": "uint256"
						}
					],
					"name": "getApproved",
					"outputs": [
						{
							"name": "",
							"type": "address"
						}
					],
					"payable": false,
					"stateMutability": "view",
					"type": "function"
				},
				{
					"constant": false,
					"inputs": [
						{
							"name": "_to",
							"type": "address"
						},
						{
							"name": "_tokenId",
							"type": "uint256"
						}
					],
					"name": "approve",
					"outputs": [],
					"payable": false,
					"stateMutability": "nonpayable",
					"type": "function"
				},
				{
					"constant": true,
					"inputs": [],
					"name": "totalSupply",
					"outputs": [
						{
							"name": "",
							"type": "uint256"
						}
					],
					"payable": false,
					"stateMutability": "view",
					"type": "function"
				},
				{
					"constant": false,
					"inputs": [
						{
							"name": "_from",
							"type": "address"
						},
						{
							"name": "_to",
							"type": "address"
						},
						{
							"name": "_tokenId",
							"type": "uint256"
						}
					],
					"name": "transferFrom",
					"outputs": [],
					"payable": false,
					"stateMutability": "nonpayable",
					"type": "function"
				},
				{
					"constant": true,
					"inputs": [
						{
							"name": "_owner",
							"type": "address"
						},
						{
							"name": "_index",
							"type": "uint256"
						}
					],
					"name": "tokenOfOwnerByIndex",
					"outputs": [
						{
							"name": "",
							"type": "uint256"
						}
					],
					"payable": false,
					"stateMutability": "view",
					"type": "function"
				},
				{
					"constant": false,
					"inputs": [
						{
							"name": "_from",
							"type": "address"
						},
						{
							"name": "_to",
							"type": "address"
						},
						{
							"name": "_tokenId",
							"type": "uint256"
						}
					],
					"name": "safeTransferFrom",
					"outputs": [],
					"payable": false,
					"stateMutability": "nonpayable",
					"type": "function"
				},
				{
					"constant": true,
					"inputs": [
						{
							"name": "_tokenId",
							"type": "uint256"
						}
					],
					"name": "exists",
					"outputs": [
						{
							"name": "",
							"type": "bool"
						}
					],
					"payable": false,
					"stateMutability": "view",
					"type": "function"
				},
				{
					"constant": true,
					"inputs": [
						{
							"name": "_index",
							"type": "uint256"
						}
					],
					"name": "tokenByIndex",
					"outputs": [
						{
							"name": "",
							"type": "uint256"
						}
					],
					"payable": false,
					"stateMutability": "view",
					"type": "function"
				},
				{
					"constant": true,
					"inputs": [
						{
							"name": "_tokenId",
							"type": "uint256"
						}
					],
					"name": "ownerOf",
					"outputs": [
						{
							"name": "",
							"type": "address"
						}
					],
					"payable": false,
					"stateMutability": "view",
					"type": "function"
				},
				{
					"constant": true,
					"inputs": [
						{
							"name": "_owner",
							"type": "address"
						}
					],
					"name": "balanceOf",
					"outputs": [
						{
							"name": "",
							"type": "uint256"
						}
					],
					"payable": false,
					"stateMutability": "view",
					"type": "function"
				},
				{
					"constant": true,
					"inputs": [],
					"name": "symbol",
					"outputs": [
						{
							"name": "",
							"type": "string"
						}
					],
					"payable": false,
					"stateMutability": "view",
					"type": "function"
				},
				{
					"constant": false,
					"inputs": [
						{
							"name": "_to",
							"type": "address"
						},
						{
							"name": "_approved",
							"type": "bool"
						}
					],
					"name": "setApprovalForAll",
					"outputs": [],
					"payable": false,
					"stateMutability": "nonpayable",
					"type": "function"
				},
				{
					"constant": false,
					"inputs": [
						{
							"name": "_from",
							"type": "address"
						},
						{
							"name": "_to",
							"type": "address"
						},
						{
							"name": "_tokenId",
							"type": "uint256"
						},
						{
							"name": "_data",
							"type": "bytes"
						}
					],
					"name": "safeTransferFrom",
					"outputs": [],
					"payable": false,
					"stateMutability": "nonpayable",
					"type": "function"
				},
				{
					"constant": true,
					"inputs": [
						{
							"name": "_tokenId",
							"type": "uint256"
						}
					],
					"name": "tokenURI",
					"outputs": [
						{
							"name": "",
							"type": "string"
						}
					],
					"payable": false,
					"stateMutability": "view",
					"type": "function"
				},
				{
					"constant": false,
					"inputs": [
						{
							"name": "_tokenId",
							"type": "uint256"
						},
						{
							"name": "_uri",
							"type": "string"
						}
					],
					"name": "addDeedMetadata",
					"outputs": [
						{
							"name": "",
							"type": "bool"
						}
					],
					"payable": false,
					"stateMutability": "nonpayable",
					"type": "function"
				},
				{
					"constant": true,
					"inputs": [
						{
							"name": "_owner",
							"type": "address"
						},
						{
							"name": "_operator",
							"type": "address"
						}
					],
					"name": "isApprovedForAll",
					"outputs": [
						{
							"name": "",
							"type": "bool"
						}
					],
					"payable": false,
					"stateMutability": "view",
					"type": "function"
				},
				{
					"constant": false,
					"inputs": [
						{
							"name": "_tokenId",
							"type": "uint256"
						},
						{
							"name": "_uri",
							"type": "string"
						}
					],
					"name": "registerDeed",
					"outputs": [],
					"payable": false,
					"stateMutability": "nonpayable",
					"type": "function"
				},
				{
					"inputs": [
						{
							"name": "_name",
							"type": "string"
						},
						{
							"name": "_symbol",
							"type": "string"
						}
					],
					"payable": false,
					"stateMutability": "nonpayable",
					"type": "constructor"
				},
				{
					"anonymous": false,
					"inputs": [
						{
							"indexed": false,
							"name": "_by",
							"type": "address"
						},
						{
							"indexed": false,
							"name": "_tokenId",
							"type": "uint256"
						}
					],
					"name": "DeedRegistered",
					"type": "event"
				},
				{
					"anonymous": false,
					"inputs": [
						{
							"indexed": true,
							"name": "_from",
							"type": "address"
						},
						{
							"indexed": true,
							"name": "_to",
							"type": "address"
						},
						{
							"indexed": false,
							"name": "_tokenId",
							"type": "uint256"
						}
					],
					"name": "Transfer",
					"type": "event"
				},
				{
					"anonymous": false,
					"inputs": [
						{
							"indexed": true,
							"name": "_owner",
							"type": "address"
						},
						{
							"indexed": true,
							"name": "_approved",
							"type": "address"
						},
						{
							"indexed": false,
							"name": "_tokenId",
							"type": "uint256"
						}
					],
					"name": "Approval",
					"type": "event"
				},
				{
					"anonymous": false,
					"inputs": [
						{
							"indexed": true,
							"name": "_owner",
							"type": "address"
						},
						{
							"indexed": true,
							"name": "_operator",
							"type": "address"
						},
						{
							"indexed": false,
							"name": "_approved",
							"type": "bool"
						}
					],
					"name": "ApprovalForAll",
					"type": "event"
				}
			],
			"devdoc": {
				"methods": {
					"addDeedMetadata(uint256,string)": {
						"details": "公共函数用于向Deed添加元数据\r",
						"params": {
							"_tokenId": "表示特定Deed\r",
							"_uri": "描述给定Deed特征的文本\r"
						},
						"return": "Deed元数据是否被添加到仓库\r"
					},
					"approve(address,uint256)": {
						"details": "Approves another address to transfer the given token ID\rThe zero address indicates there is no approved address.\rThere can only be one approved address per token at a given time.\rCan only be called by the token owner or an approved operator.\r",
						"params": {
							"_to": "address to be approved for the given token ID\r",
							"_tokenId": "uint256 ID of the token to be approved\r"
						}
					},
					"balanceOf(address)": {
						"details": "Gets the balance of the specified address\r",
						"params": {
							"_owner": "address to query the balance of\r"
						},
						"return": "uint256 representing the amount owned by the passed address\r"
					},
					"exists(uint256)": {
						"details": "Returns whether the specified token exists\r",
						"params": {
							"_tokenId": "uint256 ID of the token to query the existance of\r"
						},
						"return": "whether the token exists\r"
					},
					"getApproved(uint256)": {
						"details": "Gets the approved address for a token ID, or zero if no address set\r",
						"params": {
							"_tokenId": "uint256 ID of the token to query the approval of\r"
						},
						"return": "address currently approved for a the given token ID\r"
					},
					"isApprovedForAll(address,address)": {
						"details": "Tells whether an operator is approved by a given owner\r",
						"params": {
							"_operator": "operator address which you want to query the approval of\r",
							"_owner": "owner address which you want to query the approval of\r"
						},
						"return": "bool whether the given operator is approved by the given owner\r"
					},
					"name()": {
						"details": "Gets the token name\r",
						"return": "string representing the token name\r"
					},
					"ownerOf(uint256)": {
						"details": "Gets the owner of the specified token ID\r",
						"params": {
							"_tokenId": "uint256 ID of the token to query the owner of\r"
						},
						"return": "owner address currently marked as the owner of the given token ID\r"
					},
					"registerDeed(uint256,string)": {
						"details": "公共函数用于注册新Deed\r调用ERC721Token Minter\r",
						"params": {
							"_tokenId": "uint256 表示特定Deed\r",
							"_uri": "string 包含元数据/uri\r"
						}
					},
					"safeTransferFrom(address,address,uint256)": {
						"details": "Safely transfers the ownership of a given token ID to another address\rIf the target address is a contract, it must implement `onERC721Received`,\r which is called upon a safe transfer, and return the magic value\r `bytes4(keccak256(\"onERC721Received(address,uint256,bytes)\"))`; otherwise,\r the transfer is reverted.\rRequires the msg sender to be the owner, approved, or operator\r",
						"params": {
							"_from": "current owner of the token\r",
							"_to": "address to receive the ownership of the given token ID\r",
							"_tokenId": "uint256 ID of the token to be transferred\r"
						}
					},
					"safeTransferFrom(address,address,uint256,bytes)": {
						"details": "Safely transfers the ownership of a given token ID to another address\rIf the target address is a contract, it must implement `onERC721Received`,\r which is called upon a safe transfer, and return the magic value\r `bytes4(keccak256(\"onERC721Received(address,uint256,bytes)\"))`; otherwise,\r the transfer is reverted.\rRequires the msg sender to be the owner, approved, or operator\r",
						"params": {
							"_data": "bytes data to send along with a safe transfer check\r",
							"_from": "current owner of the token\r",
							"_to": "address to receive the ownership of the given token ID\r",
							"_tokenId": "uint256 ID of the token to be transferred\r"
						}
					},
					"setApprovalForAll(address,bool)": {
						"details": "Sets or unsets the approval of a given operator\rAn operator is allowed to transfer all tokens of the sender on their behalf\r",
						"params": {
							"_approved": "representing the status of the approval to be set\r",
							"_to": "operator address to set the approval\r"
						}
					},
					"symbol()": {
						"details": "Gets the token symbol\r",
						"return": "string representing the token symbol\r"
					},
					"tokenByIndex(uint256)": {
						"details": "Gets the token ID at a given index of all the tokens in this contract\rReverts if the index is greater or equal to the total number of tokens\r",
						"params": {
							"_index": "uint256 representing the index to be accessed of the tokens list\r"
						},
						"return": "uint256 token ID at the given index of the tokens list\r"
					},
					"tokenOfOwnerByIndex(address,uint256)": {
						"details": "Gets the token ID at a given index of the tokens list of the requested owner\r",
						"params": {
							"_index": "uint256 representing the index to be accessed of the requested tokens list\r",
							"_owner": "address owning the tokens list to be accessed\r"
						},
						"return": "uint256 token ID at the given index of the tokens list owned by the requested address\r"
					},
					"tokenURI(uint256)": {
						"details": "Returns an URI for a given token ID\rThrows if the token ID does not exist. May return an empty string.\r",
						"params": {
							"_tokenId": "uint256 ID of the token to query\r"
						}
					},
					"totalSupply()": {
						"details": "Gets the total amount of tokens stored by the contract\r",
						"return": "uint256 representing the total amount of tokens\r"
					},
					"transferFrom(address,address,uint256)": {
						"details": "Transfers the ownership of a given token ID to another address\rUsage of this method is discouraged, use `safeTransferFrom` whenever possible\rRequires the msg sender to be the owner, approved, or operator\r",
						"params": {
							"_from": "current owner of the token\r",
							"_to": "address to receive the ownership of the given token ID\r",
							"_tokenId": "uint256 ID of the token to be transferred\r"
						}
					}
				},
				"title": "ERC721 Deeds仓库\r 这个合约包含用户注册的Deeds列表。\r 这是一个演示，展示如何将tokens（Deeds）mint并添加到仓库中。\r"
			},
			"evm": {
				"assembly": "    /* \"contracts/DeedRepository.sol\":242:1538  contract DeedRepository is ERC721Token {\r... */\n  mstore(0x40, 0x80)\n    /* \"contracts/DeedRepository.sol\":455:546  function DeedRepository(string _name, string _symbol) public ERC721Token(_name, _symbol) {} */\n  callvalue\n    /* \"--CODEGEN--\":8:17   */\n  dup1\n    /* \"--CODEGEN--\":5:7   */\n  iszero\n  tag_1\n  jumpi\n    /* \"--CODEGEN--\":30:31   */\n  0x0\n    /* \"--CODEGEN--\":27:28   */\n  dup1\n    /* \"--CODEGEN--\":20:32   */\n  revert\n    /* \"--CODEGEN--\":5:7   */\ntag_1:\n    /* \"contracts/DeedRepository.sol\":455:546  function DeedRepository(string _name, string _symbol) public ERC721Token(_name, _symbol) {} */\n  pop\n  mload(0x40)\n  sub(codesize, bytecodeSize)\n  dup1\n  bytecodeSize\n  dup4\n  codecopy\n  dup2\n  add\n  dup1\n  0x40\n  mstore\n  dup2\n  add\n  swap1\n  dup1\n  dup1\n  mload\n  dup3\n  add\n  swap3\n  swap2\n  swap1\n  0x20\n  add\n  dup1\n  mload\n  dup3\n  add\n  swap3\n  swap2\n  swap1\n  pop\n  pop\n  pop\n    /* \"contracts/DeedRepository.sol\":528:533  _name */\n  dup2\n    /* \"contracts/DeedRepository.sol\":535:542  _symbol */\n  dup2\n    /* \"contracts/ERC721/ERC721Token.sol\":1217:1222  _name */\n  dup2\n    /* \"contracts/ERC721/ERC721Token.sol\":1209:1214  name_ */\n  0x4\n    /* \"contracts/ERC721/ERC721Token.sol\":1209:1222  name_ = _name */\n  swap1\n  dup1\n  mload\n  swap1\n  0x20\n  add\n  swap1\n  tag_5\n  swap3\n  swap2\n  swap1\n  jump\t// in(tag_6)\ntag_5:\n  pop\n    /* \"contracts/ERC721/ERC721Token.sol\":1239:1246  _symbol */\n  dup1\n    /* \"contracts/ERC721/ERC721Token.sol\":1229:1236  symbol_ */\n  0x5\n    /* \"contracts/ERC721/ERC721Token.sol\":1229:1246  symbol_ = _symbol */\n  swap1\n  dup1\n  mload\n  swap1\n  0x20\n  add\n  swap1\n  tag_7\n  swap3\n  swap2\n  swap1\n  jump\t// in(tag_6)\ntag_7:\n  pop\n    /* \"contracts/ERC721/ERC721Token.sol\":1144:1252  function ERC721Token(string _name, string _symbol) public {\r... */\n  pop\n  pop\n    /* \"contracts/DeedRepository.sol\":455:546  function DeedRepository(string _name, string _symbol) public ERC721Token(_name, _symbol) {} */\n  pop\n  pop\n    /* \"contracts/DeedRepository.sol\":242:1538  contract DeedRepository is ERC721Token {\r... */\n  jump(tag_9)\ntag_6:\n  dup3\n  dup1\n  sload\n  0x1\n  dup2\n  0x1\n  and\n  iszero\n  0x100\n  mul\n  sub\n  and\n  0x2\n  swap1\n  div\n  swap1\n  0x0\n  mstore\n  keccak256(0x0, 0x20)\n  swap1\n  0x1f\n  add\n  0x20\n  swap1\n  div\n  dup2\n  add\n  swap3\n  dup3\n  0x1f\n  lt\n  tag_11\n  jumpi\n  dup1\n  mload\n  not(0xff)\n  and\n  dup4\n  dup1\n  add\n  or\n  dup6\n  sstore\n  jump(tag_10)\ntag_11:\n  dup3\n  dup1\n  add\n  0x1\n  add\n  dup6\n  sstore\n  dup3\n  iszero\n  tag_10\n  jumpi\n  swap2\n  dup3\n  add\ntag_12:\n  dup3\n  dup2\n  gt\n  iszero\n  tag_13\n  jumpi\n  dup3\n  mload\n  dup3\n  sstore\n  swap2\n  0x20\n  add\n  swap2\n  swap1\n  0x1\n  add\n  swap1\n  jump(tag_12)\ntag_13:\ntag_10:\n  pop\n  swap1\n  pop\n  tag_14\n  swap2\n  swap1\n  jump\t// in(tag_15)\ntag_14:\n  pop\n  swap1\n  jump\t// out\ntag_15:\n  tag_16\n  swap2\n  swap1\ntag_17:\n  dup1\n  dup3\n  gt\n  iszero\n  tag_18\n  jumpi\n  0x0\n  dup2\n  0x0\n  swap1\n  sstore\n  pop\n  0x1\n  add\n  jump(tag_17)\ntag_18:\n  pop\n  swap1\n  jump\ntag_16:\n  swap1\n  jump\t// out\ntag_9:\n  dataSize(sub_0)\n  dup1\n  dataOffset(sub_0)\n  0x0\n  codecopy\n  0x0\n  return\nstop\n\nsub_0: assembly {\n        /* \"contracts/DeedRepository.sol\":242:1538  contract DeedRepository is ERC721Token {\r... */\n      mstore(0x40, 0x80)\n      jumpi(tag_1, lt(calldatasize, 0x4))\n      calldataload(0x0)\n      0x100000000000000000000000000000000000000000000000000000000\n      swap1\n      div\n      0xffffffff\n      and\n      dup1\n      0x6fdde03\n      eq\n      tag_2\n      jumpi\n      dup1\n      0x81812fc\n      eq\n      tag_3\n      jumpi\n      dup1\n      0x95ea7b3\n      eq\n      tag_4\n      jumpi\n      dup1\n      0x18160ddd\n      eq\n      tag_5\n      jumpi\n      dup1\n      0x23b872dd\n      eq\n      tag_6\n      jumpi\n      dup1\n      0x2f745c59\n      eq\n      tag_7\n      jumpi\n      dup1\n      0x42842e0e\n      eq\n      tag_8\n      jumpi\n      dup1\n      0x4f558e79\n      eq\n      tag_9\n      jumpi\n      dup1\n      0x4f6ccce7\n      eq\n      tag_10\n      jumpi\n      dup1\n      0x6352211e\n      eq\n      tag_11\n      jumpi\n      dup1\n      0x70a08231\n      eq\n      tag_12\n      jumpi\n      dup1\n      0x95d89b41\n      eq\n      tag_13\n      jumpi\n      dup1\n      0xa22cb465\n      eq\n      tag_14\n      jumpi\n      dup1\n      0xb88d4fde\n      eq\n      tag_15\n      jumpi\n      dup1\n      0xc87b56dd\n      eq\n      tag_16\n      jumpi\n      dup1\n      0xda556033\n      eq\n      tag_17\n      jumpi\n      dup1\n      0xe985e9c5\n      eq\n      tag_18\n      jumpi\n      dup1\n      0xf72439dd\n      eq\n      tag_19\n      jumpi\n    tag_1:\n      0x0\n      dup1\n      revert\n        /* \"contracts/ERC721/ERC721Token.sol\":1349:1419  function name() public view returns (string) {\r... */\n    tag_2:\n      callvalue\n        /* \"--CODEGEN--\":8:17   */\n      dup1\n        /* \"--CODEGEN--\":5:7   */\n      iszero\n      tag_20\n      jumpi\n        /* \"--CODEGEN--\":30:31   */\n      0x0\n        /* \"--CODEGEN--\":27:28   */\n      dup1\n        /* \"--CODEGEN--\":20:32   */\n      revert\n        /* \"--CODEGEN--\":5:7   */\n    tag_20:\n        /* \"contracts/ERC721/ERC721Token.sol\":1349:1419  function name() public view returns (string) {\r... */\n      pop\n      tag_21\n      jump(tag_22)\n    tag_21:\n      mload(0x40)\n      dup1\n      dup1\n      0x20\n      add\n      dup3\n      dup2\n      sub\n      dup3\n      mstore\n      dup4\n      dup2\n      dup2\n      mload\n      dup2\n      mstore\n      0x20\n      add\n      swap2\n      pop\n      dup1\n      mload\n      swap1\n      0x20\n      add\n      swap1\n      dup1\n      dup4\n      dup4\n        /* \"--CODEGEN--\":23:24   */\n      0x0\n        /* \"--CODEGEN--\":8:108   */\n    tag_23:\n        /* \"--CODEGEN--\":33:36   */\n      dup4\n        /* \"--CODEGEN--\":30:31   */\n      dup2\n        /* \"--CODEGEN--\":27:37   */\n      lt\n        /* \"--CODEGEN--\":8:108   */\n      iszero\n      tag_24\n      jumpi\n        /* \"--CODEGEN--\":99:100   */\n      dup1\n        /* \"--CODEGEN--\":94:97   */\n      dup3\n        /* \"--CODEGEN--\":90:101   */\n      add\n        /* \"--CODEGEN--\":84:102   */\n      mload\n        /* \"--CODEGEN--\":80:81   */\n      dup2\n        /* \"--CODEGEN--\":75:78   */\n      dup5\n        /* \"--CODEGEN--\":71:82   */\n      add\n        /* \"--CODEGEN--\":64:103   */\n      mstore\n        /* \"--CODEGEN--\":52:54   */\n      0x20\n        /* \"--CODEGEN--\":49:50   */\n      dup2\n        /* \"--CODEGEN--\":45:55   */\n      add\n        /* \"--CODEGEN--\":40:55   */\n      swap1\n      pop\n        /* \"--CODEGEN--\":8:108   */\n      jump(tag_23)\n    tag_24:\n        /* \"--CODEGEN--\":12:26   */\n      pop\n        /* \"contracts/ERC721/ERC721Token.sol\":1349:1419  function name() public view returns (string) {\r... */\n      pop\n      pop\n      pop\n      swap1\n      pop\n      swap1\n      dup2\n      add\n      swap1\n      0x1f\n      and\n      dup1\n      iszero\n      tag_26\n      jumpi\n      dup1\n      dup3\n      sub\n      dup1\n      mload\n      0x1\n      dup4\n      0x20\n      sub\n      0x100\n      exp\n      sub\n      not\n      and\n      dup2\n      mstore\n      0x20\n      add\n      swap2\n      pop\n    tag_26:\n      pop\n      swap3\n      pop\n      pop\n      pop\n      mload(0x40)\n      dup1\n      swap2\n      sub\n      swap1\n      return\n        /* \"contracts/ERC721/ERC721BasicToken.sol\":3686:3799  function getApproved(uint256 _tokenId) public view returns (address) {\r... */\n    tag_3:\n      callvalue\n        /* \"--CODEGEN--\":8:17   */\n      dup1\n        /* \"--CODEGEN--\":5:7   */\n      iszero\n      tag_27\n      jumpi\n        /* \"--CODEGEN--\":30:31   */\n      0x0\n        /* \"--CODEGEN--\":27:28   */\n      dup1\n        /* \"--CODEGEN--\":20:32   */\n      revert\n        /* \"--CODEGEN--\":5:7   */\n    tag_27:\n        /* \"contracts/ERC721/ERC721BasicToken.sol\":3686:3799  function getApproved(uint256 _tokenId) public view returns (address) {\r... */\n      pop\n      tag_28\n      0x4\n      dup1\n      calldatasize\n      sub\n      dup2\n      add\n      swap1\n      dup1\n      dup1\n      calldataload\n      swap1\n      0x20\n      add\n      swap1\n      swap3\n      swap2\n      swap1\n      pop\n      pop\n      pop\n      jump(tag_29)\n    tag_28:\n      mload(0x40)\n      dup1\n      dup3\n      0xffffffffffffffffffffffffffffffffffffffff\n      and\n      0xffffffffffffffffffffffffffffffffffffffff\n      and\n      dup2\n      mstore\n      0x20\n      add\n      swap2\n      pop\n      pop\n      mload(0x40)\n      dup1\n      swap2\n      sub\n      swap1\n      return\n        /* \"contracts/ERC721/ERC721BasicToken.sol\":3091:3450  function approve(address _to, uint256 _tokenId) public {\r... */\n    tag_4:\n      callvalue\n        /* \"--CODEGEN--\":8:17   */\n      dup1\n        /* \"--CODEGEN--\":5:7   */\n      iszero\n      tag_30\n      jumpi\n        /* \"--CODEGEN--\":30:31   */\n      0x0\n        /* \"--CODEGEN--\":27:28   */\n      dup1\n        /* \"--CODEGEN--\":20:32   */\n      revert\n        /* \"--CODEGEN--\":5:7   */\n    tag_30:\n        /* \"contracts/ERC721/ERC721BasicToken.sol\":3091:3450  function approve(address _to, uint256 _tokenId) public {\r... */\n      pop\n      tag_31\n      0x4\n      dup1\n      calldatasize\n      sub\n      dup2\n      add\n      swap1\n      dup1\n      dup1\n      calldataload\n      0xffffffffffffffffffffffffffffffffffffffff\n      and\n      swap1\n      0x20\n      add\n      swap1\n      swap3\n      swap2\n      swap1\n      dup1\n      calldataload\n      swap1\n      0x20\n      add\n      swap1\n      swap3\n      swap2\n      swap1\n      pop\n      pop\n      pop\n      jump(tag_32)\n    tag_31:\n      stop\n        /* \"contracts/ERC721/ERC721Token.sol\":2615:2704  function totalSupply() public view returns (uint256) {\r... */\n    tag_5:\n      callvalue\n        /* \"--CODEGEN--\":8:17   */\n      dup1\n        /* \"--CODEGEN--\":5:7   */\n      iszero\n      tag_33\n      jumpi\n        /* \"--CODEGEN--\":30:31   */\n      0x0\n        /* \"--CODEGEN--\":27:28   */\n      dup1\n        /* \"--CODEGEN--\":20:32   */\n      revert\n        /* \"--CODEGEN--\":5:7   */\n    tag_33:\n        /* \"contracts/ERC721/ERC721Token.sol\":2615:2704  function totalSupply() public view returns (uint256) {\r... */\n      pop\n      tag_34\n      jump(tag_35)\n    tag_34:\n      mload(0x40)\n      dup1\n      dup3\n      dup2\n      mstore\n      0x20\n      add\n      swap2\n      pop\n      pop\n      mload(0x40)\n      dup1\n      swap2\n      sub\n      swap1\n      return\n        /* \"contracts/ERC721/ERC721BasicToken.sol\":5184:5504  function transferFrom(address _from, address _to, uint256 _tokenId) public canTransfer(_tokenId) {\r... */\n    tag_6:\n      callvalue\n        /* \"--CODEGEN--\":8:17   */\n      dup1\n        /* \"--CODEGEN--\":5:7   */\n      iszero\n      tag_36\n      jumpi\n        /* \"--CODEGEN--\":30:31   */\n      0x0\n        /* \"--CODEGEN--\":27:28   */\n      dup1\n        /* \"--CODEGEN--\":20:32   */\n      revert\n        /* \"--CODEGEN--\":5:7   */\n    tag_36:\n        /* \"contracts/ERC721/ERC721BasicToken.sol\":5184:5504  function transferFrom(address _from, address _to, uint256 _tokenId) public canTransfer(_tokenId) {\r... */\n      pop\n      tag_37\n      0x4\n      dup1\n      calldatasize\n      sub\n      dup2\n      add\n      swap1\n      dup1\n      dup1\n      calldataload\n      0xffffffffffffffffffffffffffffffffffffffff\n      and\n      swap1\n      0x20\n      add\n      swap1\n      swap3\n      swap2\n      swap1\n      dup1\n      calldataload\n      0xffffffffffffffffffffffffffffffffffffffff\n      and\n      swap1\n      0x20\n      add\n      swap1\n      swap3\n      swap2\n      swap1\n      dup1\n      calldataload\n      swap1\n      0x20\n      add\n      swap1\n      swap3\n      swap2\n      swap1\n      pop\n      pop\n      pop\n      jump(tag_38)\n    tag_37:\n      stop\n        /* \"contracts/ERC721/ERC721Token.sol\":2290:2470  function tokenOfOwnerByIndex(address _owner, uint256 _index) public view returns (uint256) {\r... */\n    tag_7:\n      callvalue\n        /* \"--CODEGEN--\":8:17   */\n      dup1\n        /* \"--CODEGEN--\":5:7   */\n      iszero\n      tag_39\n      jumpi\n        /* \"--CODEGEN--\":30:31   */\n      0x0\n        /* \"--CODEGEN--\":27:28   */\n      dup1\n        /* \"--CODEGEN--\":20:32   */\n      revert\n        /* \"--CODEGEN--\":5:7   */\n    tag_39:\n        /* \"contracts/ERC721/ERC721Token.sol\":2290:2470  function tokenOfOwnerByIndex(address _owner, uint256 _index) public view returns (uint256) {\r... */\n      pop\n      tag_40\n      0x4\n      dup1\n      calldatasize\n      sub\n      dup2\n      add\n      swap1\n      dup1\n      dup1\n      calldataload\n      0xffffffffffffffffffffffffffffffffffffffff\n      and\n      swap1\n      0x20\n      add\n      swap1\n      swap3\n      swap2\n      swap1\n      dup1\n      calldataload\n      swap1\n      0x20\n      add\n      swap1\n      swap3\n      swap2\n      swap1\n      pop\n      pop\n      pop\n      jump(tag_41)\n    tag_40:\n      mload(0x40)\n      dup1\n      dup3\n      dup2\n      mstore\n      0x20\n      add\n      swap2\n      pop\n      pop\n      mload(0x40)\n      dup1\n      swap2\n      sub\n      swap1\n      return\n        /* \"contracts/ERC721/ERC721BasicToken.sol\":6124:6313  function safeTransferFrom(\r... */\n    tag_8:\n      callvalue\n        /* \"--CODEGEN--\":8:17   */\n      dup1\n        /* \"--CODEGEN--\":5:7   */\n      iszero\n      tag_42\n      jumpi\n        /* \"--CODEGEN--\":30:31   */\n      0x0\n        /* \"--CODEGEN--\":27:28   */\n      dup1\n        /* \"--CODEGEN--\":20:32   */\n      revert\n        /* \"--CODEGEN--\":5:7   */\n    tag_42:\n        /* \"contracts/ERC721/ERC721BasicToken.sol\":6124:6313  function safeTransferFrom(\r... */\n      pop\n      tag_43\n      0x4\n      dup1\n      calldatasize\n      sub\n      dup2\n      add\n      swap1\n      dup1\n      dup1\n      calldataload\n      0xffffffffffffffffffffffffffffffffffffffff\n      and\n      swap1\n      0x20\n      add\n      swap1\n      swap3\n      swap2\n      swap1\n      dup1\n      calldataload\n      0xffffffffffffffffffffffffffffffffffffffff\n      and\n      swap1\n      0x20\n      add\n      swap1\n      swap3\n      swap2\n      swap1\n      dup1\n      calldataload\n      swap1\n      0x20\n      add\n      swap1\n      swap3\n      swap2\n      swap1\n      pop\n      pop\n      pop\n      jump(tag_44)\n    tag_43:\n      stop\n        /* \"contracts/ERC721/ERC721BasicToken.sol\":2525:2668  function exists(uint256 _tokenId) public view returns (bool) {\r... */\n    tag_9:\n      callvalue\n        /* \"--CODEGEN--\":8:17   */\n      dup1\n        /* \"--CODEGEN--\":5:7   */\n      iszero\n      tag_45\n      jumpi\n        /* \"--CODEGEN--\":30:31   */\n      0x0\n        /* \"--CODEGEN--\":27:28   */\n      dup1\n        /* \"--CODEGEN--\":20:32   */\n      revert\n        /* \"--CODEGEN--\":5:7   */\n    tag_45:\n        /* \"contracts/ERC721/ERC721BasicToken.sol\":2525:2668  function exists(uint256 _tokenId) public view returns (bool) {\r... */\n      pop\n      tag_46\n      0x4\n      dup1\n      calldatasize\n      sub\n      dup2\n      add\n      swap1\n      dup1\n      dup1\n      calldataload\n      swap1\n      0x20\n      add\n      swap1\n      swap3\n      swap2\n      swap1\n      pop\n      pop\n      pop\n      jump(tag_47)\n    tag_46:\n      mload(0x40)\n      dup1\n      dup3\n      iszero\n      iszero\n      iszero\n      iszero\n      dup2\n      mstore\n      0x20\n      add\n      swap2\n      pop\n      pop\n      mload(0x40)\n      dup1\n      swap2\n      sub\n      swap1\n      return\n        /* \"contracts/ERC721/ERC721Token.sol\":3036:3179  function tokenByIndex(uint256 _index) public view returns (uint256) {\r... */\n    tag_10:\n      callvalue\n        /* \"--CODEGEN--\":8:17   */\n      dup1\n        /* \"--CODEGEN--\":5:7   */\n      iszero\n      tag_48\n      jumpi\n        /* \"--CODEGEN--\":30:31   */\n      0x0\n        /* \"--CODEGEN--\":27:28   */\n      dup1\n        /* \"--CODEGEN--\":20:32   */\n      revert\n        /* \"--CODEGEN--\":5:7   */\n    tag_48:\n        /* \"contracts/ERC721/ERC721Token.sol\":3036:3179  function tokenByIndex(uint256 _index) public view returns (uint256) {\r... */\n      pop\n      tag_49\n      0x4\n      dup1\n      calldatasize\n      sub\n      dup2\n      add\n      swap1\n      dup1\n      dup1\n      calldataload\n      swap1\n      0x20\n      add\n      swap1\n      swap3\n      swap2\n      swap1\n      pop\n      pop\n      pop\n      jump(tag_50)\n    tag_49:\n      mload(0x40)\n      dup1\n      dup3\n      dup2\n      mstore\n      0x20\n      add\n      swap2\n      pop\n      pop\n      mload(0x40)\n      dup1\n      swap2\n      sub\n      swap1\n      return\n        /* \"contracts/ERC721/ERC721BasicToken.sol\":2176:2344  function ownerOf(uint256 _tokenId) public view returns (address) {\r... */\n    tag_11:\n      callvalue\n        /* \"--CODEGEN--\":8:17   */\n      dup1\n        /* \"--CODEGEN--\":5:7   */\n      iszero\n      tag_51\n      jumpi\n        /* \"--CODEGEN--\":30:31   */\n      0x0\n        /* \"--CODEGEN--\":27:28   */\n      dup1\n        /* \"--CODEGEN--\":20:32   */\n      revert\n        /* \"--CODEGEN--\":5:7   */\n    tag_51:\n        /* \"contracts/ERC721/ERC721BasicToken.sol\":2176:2344  function ownerOf(uint256 _tokenId) public view returns (address) {\r... */\n      pop\n      tag_52\n      0x4\n      dup1\n      calldatasize\n      sub\n      dup2\n      add\n      swap1\n      dup1\n      dup1\n      calldataload\n      swap1\n      0x20\n      add\n      swap1\n      swap3\n      swap2\n      swap1\n      pop\n      pop\n      pop\n      jump(tag_53)\n    tag_52:\n      mload(0x40)\n      dup1\n      dup3\n      0xffffffffffffffffffffffffffffffffffffffff\n      and\n      0xffffffffffffffffffffffffffffffffffffffff\n      and\n      dup2\n      mstore\n      0x20\n      add\n      swap2\n      pop\n      pop\n      mload(0x40)\n      dup1\n      swap2\n      sub\n      swap1\n      return\n        /* \"contracts/ERC721/ERC721BasicToken.sol\":1815:1960  function balanceOf(address _owner) public view returns (uint256) {\r... */\n    tag_12:\n      callvalue\n        /* \"--CODEGEN--\":8:17   */\n      dup1\n        /* \"--CODEGEN--\":5:7   */\n      iszero\n      tag_54\n      jumpi\n        /* \"--CODEGEN--\":30:31   */\n      0x0\n        /* \"--CODEGEN--\":27:28   */\n      dup1\n        /* \"--CODEGEN--\":20:32   */\n      revert\n        /* \"--CODEGEN--\":5:7   */\n    tag_54:\n        /* \"contracts/ERC721/ERC721BasicToken.sol\":1815:1960  function balanceOf(address _owner) public view returns (uint256) {\r... */\n      pop\n      tag_55\n      0x4\n      dup1\n      calldatasize\n      sub\n      dup2\n      add\n      swap1\n      dup1\n      dup1\n      calldataload\n      0xffffffffffffffffffffffffffffffffffffffff\n      and\n      swap1\n      0x20\n      add\n      swap1\n      swap3\n      swap2\n      swap1\n      pop\n      pop\n      pop\n      jump(tag_56)\n    tag_55:\n      mload(0x40)\n      dup1\n      dup3\n      dup2\n      mstore\n      0x20\n      add\n      swap2\n      pop\n      pop\n      mload(0x40)\n      dup1\n      swap2\n      sub\n      swap1\n      return\n        /* \"contracts/ERC721/ERC721Token.sol\":1520:1594  function symbol() public view returns (string) {\r... */\n    tag_13:\n      callvalue\n        /* \"--CODEGEN--\":8:17   */\n      dup1\n        /* \"--CODEGEN--\":5:7   */\n      iszero\n      tag_57\n      jumpi\n        /* \"--CODEGEN--\":30:31   */\n      0x0\n        /* \"--CODEGEN--\":27:28   */\n      dup1\n        /* \"--CODEGEN--\":20:32   */\n      revert\n        /* \"--CODEGEN--\":5:7   */\n    tag_57:\n        /* \"contracts/ERC721/ERC721Token.sol\":1520:1594  function symbol() public view returns (string) {\r... */\n      pop\n      tag_58\n      jump(tag_59)\n    tag_58:\n      mload(0x40)\n      dup1\n      dup1\n      0x20\n      add\n      dup3\n      dup2\n      sub\n      dup3\n      mstore\n      dup4\n      dup2\n      dup2\n      mload\n      dup2\n      mstore\n      0x20\n      add\n      swap2\n      pop\n      dup1\n      mload\n      swap1\n      0x20\n      add\n      swap1\n      dup1\n      dup4\n      dup4\n        /* \"--CODEGEN--\":23:24   */\n      0x0\n        /* \"--CODEGEN--\":8:108   */\n    tag_60:\n        /* \"--CODEGEN--\":33:36   */\n      dup4\n        /* \"--CODEGEN--\":30:31   */\n      dup2\n        /* \"--CODEGEN--\":27:37   */\n      lt\n        /* \"--CODEGEN--\":8:108   */\n      iszero\n      tag_61\n      jumpi\n        /* \"--CODEGEN--\":99:100   */\n      dup1\n        /* \"--CODEGEN--\":94:97   */\n      dup3\n        /* \"--CODEGEN--\":90:101   */\n      add\n        /* \"--CODEGEN--\":84:102   */\n      mload\n        /* \"--CODEGEN--\":80:81   */\n      dup2\n        /* \"--CODEGEN--\":75:78   */\n      dup5\n        /* \"--CODEGEN--\":71:82   */\n      add\n        /* \"--CODEGEN--\":64:103   */\n      mstore\n        /* \"--CODEGEN--\":52:54   */\n      0x20\n        /* \"--CODEGEN--\":49:50   */\n      dup2\n        /* \"--CODEGEN--\":45:55   */\n      add\n        /* \"--CODEGEN--\":40:55   */\n      swap1\n      pop\n        /* \"--CODEGEN--\":8:108   */\n      jump(tag_60)\n    tag_61:\n        /* \"--CODEGEN--\":12:26   */\n      pop\n        /* \"contracts/ERC721/ERC721Token.sol\":1520:1594  function symbol() public view returns (string) {\r... */\n      pop\n      pop\n      pop\n      swap1\n      pop\n      swap1\n      dup2\n      add\n      swap1\n      0x1f\n      and\n      dup1\n      iszero\n      tag_63\n      jumpi\n      dup1\n      dup3\n      sub\n      dup1\n      mload\n      0x1\n      dup4\n      0x20\n      sub\n      0x100\n      exp\n      sub\n      not\n      and\n      dup2\n      mstore\n      0x20\n      add\n      swap2\n      pop\n    tag_63:\n      pop\n      swap3\n      pop\n      pop\n      pop\n      mload(0x40)\n      dup1\n      swap2\n      sub\n      swap1\n      return\n        /* \"contracts/ERC721/ERC721BasicToken.sol\":4087:4291  function setApprovalForAll(address _to, bool _approved) public {\r... */\n    tag_14:\n      callvalue\n        /* \"--CODEGEN--\":8:17   */\n      dup1\n        /* \"--CODEGEN--\":5:7   */\n      iszero\n      tag_64\n      jumpi\n        /* \"--CODEGEN--\":30:31   */\n      0x0\n        /* \"--CODEGEN--\":27:28   */\n      dup1\n        /* \"--CODEGEN--\":20:32   */\n      revert\n        /* \"--CODEGEN--\":5:7   */\n    tag_64:\n        /* \"contracts/ERC721/ERC721BasicToken.sol\":4087:4291  function setApprovalForAll(address _to, bool _approved) public {\r... */\n      pop\n      tag_65\n      0x4\n      dup1\n      calldatasize\n      sub\n      dup2\n      add\n      swap1\n      dup1\n      dup1\n      calldataload\n      0xffffffffffffffffffffffffffffffffffffffff\n      and\n      swap1\n      0x20\n      add\n      swap1\n      swap3\n      swap2\n      swap1\n      dup1\n      calldataload\n      iszero\n      iszero\n      swap1\n      0x20\n      add\n      swap1\n      swap3\n      swap2\n      swap1\n      pop\n      pop\n      pop\n      jump(tag_66)\n    tag_65:\n      stop\n        /* \"contracts/ERC721/ERC721BasicToken.sol\":7003:7271  function safeTransferFrom(\r... */\n    tag_15:\n      callvalue\n        /* \"--CODEGEN--\":8:17   */\n      dup1\n        /* \"--CODEGEN--\":5:7   */\n      iszero\n      tag_67\n      jumpi\n        /* \"--CODEGEN--\":30:31   */\n      0x0\n        /* \"--CODEGEN--\":27:28   */\n      dup1\n        /* \"--CODEGEN--\":20:32   */\n      revert\n        /* \"--CODEGEN--\":5:7   */\n    tag_67:\n        /* \"contracts/ERC721/ERC721BasicToken.sol\":7003:7271  function safeTransferFrom(\r... */\n      pop\n      tag_68\n      0x4\n      dup1\n      calldatasize\n      sub\n      dup2\n      add\n      swap1\n      dup1\n      dup1\n      calldataload\n      0xffffffffffffffffffffffffffffffffffffffff\n      and\n      swap1\n      0x20\n      add\n      swap1\n      swap3\n      swap2\n      swap1\n      dup1\n      calldataload\n      0xffffffffffffffffffffffffffffffffffffffff\n      and\n      swap1\n      0x20\n      add\n      swap1\n      swap3\n      swap2\n      swap1\n      dup1\n      calldataload\n      swap1\n      0x20\n      add\n      swap1\n      swap3\n      swap2\n      swap1\n      dup1\n      calldataload\n      swap1\n      0x20\n      add\n      swap1\n      dup3\n      add\n      dup1\n      calldataload\n      swap1\n      0x20\n      add\n      swap1\n      dup1\n      dup1\n      0x1f\n      add\n      0x20\n      dup1\n      swap2\n      div\n      mul\n      0x20\n      add\n      mload(0x40)\n      swap1\n      dup2\n      add\n      0x40\n      mstore\n      dup1\n      swap4\n      swap3\n      swap2\n      swap1\n      dup2\n      dup2\n      mstore\n      0x20\n      add\n      dup4\n      dup4\n      dup1\n      dup3\n      dup5\n      calldatacopy\n      dup3\n      add\n      swap2\n      pop\n      pop\n      pop\n      pop\n      pop\n      pop\n      swap2\n      swap3\n      swap2\n      swap3\n      swap1\n      pop\n      pop\n      pop\n      jump(tag_69)\n    tag_68:\n      stop\n        /* \"contracts/ERC721/ERC721Token.sol\":1790:1926  function tokenURI(uint256 _tokenId) public view returns (string) {\r... */\n    tag_16:\n      callvalue\n        /* \"--CODEGEN--\":8:17   */\n      dup1\n        /* \"--CODEGEN--\":5:7   */\n      iszero\n      tag_70\n      jumpi\n        /* \"--CODEGEN--\":30:31   */\n      0x0\n        /* \"--CODEGEN--\":27:28   */\n      dup1\n        /* \"--CODEGEN--\":20:32   */\n      revert\n        /* \"--CODEGEN--\":5:7   */\n    tag_70:\n        /* \"contracts/ERC721/ERC721Token.sol\":1790:1926  function tokenURI(uint256 _tokenId) public view returns (string) {\r... */\n      pop\n      tag_71\n      0x4\n      dup1\n      calldatasize\n      sub\n      dup2\n      add\n      swap1\n      dup1\n      dup1\n      calldataload\n      swap1\n      0x20\n      add\n      swap1\n      swap3\n      swap2\n      swap1\n      pop\n      pop\n      pop\n      jump(tag_72)\n    tag_71:\n      mload(0x40)\n      dup1\n      dup1\n      0x20\n      add\n      dup3\n      dup2\n      sub\n      dup3\n      mstore\n      dup4\n      dup2\n      dup2\n      mload\n      dup2\n      mstore\n      0x20\n      add\n      swap2\n      pop\n      dup1\n      mload\n      swap1\n      0x20\n      add\n      swap1\n      dup1\n      dup4\n      dup4\n        /* \"--CODEGEN--\":23:24   */\n      0x0\n        /* \"--CODEGEN--\":8:108   */\n    tag_73:\n        /* \"--CODEGEN--\":33:36   */\n      dup4\n        /* \"--CODEGEN--\":30:31   */\n      dup2\n        /* \"--CODEGEN--\":27:37   */\n      lt\n        /* \"--CODEGEN--\":8:108   */\n      iszero\n      tag_74\n      jumpi\n        /* \"--CODEGEN--\":99:100   */\n      dup1\n        /* \"--CODEGEN--\":94:97   */\n      dup3\n        /* \"--CODEGEN--\":90:101   */\n      add\n        /* \"--CODEGEN--\":84:102   */\n      mload\n        /* \"--CODEGEN--\":80:81   */\n      dup2\n        /* \"--CODEGEN--\":75:78   */\n      dup5\n        /* \"--CODEGEN--\":71:82   */\n      add\n        /* \"--CODEGEN--\":64:103   */\n      mstore\n        /* \"--CODEGEN--\":52:54   */\n      0x20\n        /* \"--CODEGEN--\":49:50   */\n      dup2\n        /* \"--CODEGEN--\":45:55   */\n      add\n        /* \"--CODEGEN--\":40:55   */\n      swap1\n      pop\n        /* \"--CODEGEN--\":8:108   */\n      jump(tag_73)\n    tag_74:\n        /* \"--CODEGEN--\":12:26   */\n      pop\n        /* \"contracts/ERC721/ERC721Token.sol\":1790:1926  function tokenURI(uint256 _tokenId) public view returns (string) {\r... */\n      pop\n      pop\n      pop\n      swap1\n      pop\n      swap1\n      dup2\n      add\n      swap1\n      0x1f\n      and\n      dup1\n      iszero\n      tag_76\n      jumpi\n      dup1\n      dup3\n      sub\n      dup1\n      mload\n      0x1\n      dup4\n      0x20\n      sub\n      0x100\n      exp\n      sub\n      not\n      and\n      dup2\n      mstore\n      0x20\n      add\n      swap2\n      pop\n    tag_76:\n      pop\n      swap3\n      pop\n      pop\n      pop\n      mload(0x40)\n      dup1\n      swap2\n      sub\n      swap1\n      return\n        /* \"contracts/DeedRepository.sol\":1172:1317  function addDeedMetadata(uint256 _tokenId, string _uri) public returns(bool){\r... */\n    tag_17:\n      callvalue\n        /* \"--CODEGEN--\":8:17   */\n      dup1\n        /* \"--CODEGEN--\":5:7   */\n      iszero\n      tag_77\n      jumpi\n        /* \"--CODEGEN--\":30:31   */\n      0x0\n        /* \"--CODEGEN--\":27:28   */\n      dup1\n        /* \"--CODEGEN--\":20:32   */\n      revert\n        /* \"--CODEGEN--\":5:7   */\n    tag_77:\n        /* \"contracts/DeedRepository.sol\":1172:1317  function addDeedMetadata(uint256 _tokenId, string _uri) public returns(bool){\r... */\n      pop\n      tag_78\n      0x4\n      dup1\n      calldatasize\n      sub\n      dup2\n      add\n      swap1\n      dup1\n      dup1\n      calldataload\n      swap1\n      0x20\n      add\n      swap1\n      swap3\n      swap2\n      swap1\n      dup1\n      calldataload\n      swap1\n      0x20\n      add\n      swap1\n      dup3\n      add\n      dup1\n      calldataload\n      swap1\n      0x20\n      add\n      swap1\n      dup1\n      dup1\n      0x1f\n      add\n      0x20\n      dup1\n      swap2\n      div\n      mul\n      0x20\n      add\n      mload(0x40)\n      swap1\n      dup2\n      add\n      0x40\n      mstore\n      dup1\n      swap4\n      swap3\n      swap2\n      swap1\n      dup2\n      dup2\n      mstore\n      0x20\n      add\n      dup4\n      dup4\n      dup1\n      dup3\n      dup5\n      calldatacopy\n      dup3\n      add\n      swap2\n      pop\n      pop\n      pop\n      pop\n      pop\n      pop\n      swap2\n      swap3\n      swap2\n      swap3\n      swap1\n      pop\n      pop\n      pop\n      jump(tag_79)\n    tag_78:\n      mload(0x40)\n      dup1\n      dup3\n      iszero\n      iszero\n      iszero\n      iszero\n      dup2\n      mstore\n      0x20\n      add\n      swap2\n      pop\n      pop\n      mload(0x40)\n      dup1\n      swap2\n      sub\n      swap1\n      return\n        /* \"contracts/ERC721/ERC721BasicToken.sol\":4608:4752  function isApprovedForAll(address _owner, address _operator) public view returns (bool) {\r... */\n    tag_18:\n      callvalue\n        /* \"--CODEGEN--\":8:17   */\n      dup1\n        /* \"--CODEGEN--\":5:7   */\n      iszero\n      tag_80\n      jumpi\n        /* \"--CODEGEN--\":30:31   */\n      0x0\n        /* \"--CODEGEN--\":27:28   */\n      dup1\n        /* \"--CODEGEN--\":20:32   */\n      revert\n        /* \"--CODEGEN--\":5:7   */\n    tag_80:\n        /* \"contracts/ERC721/ERC721BasicToken.sol\":4608:4752  function isApprovedForAll(address _owner, address _operator) public view returns (bool) {\r... */\n      pop\n      tag_81\n      0x4\n      dup1\n      calldatasize\n      sub\n      dup2\n      add\n      swap1\n      dup1\n      dup1\n      calldataload\n      0xffffffffffffffffffffffffffffffffffffffff\n      and\n      swap1\n      0x20\n      add\n      swap1\n      swap3\n      swap2\n      swap1\n      dup1\n      calldataload\n      0xffffffffffffffffffffffffffffffffffffffff\n      and\n      swap1\n      0x20\n      add\n      swap1\n      swap3\n      swap2\n      swap1\n      pop\n      pop\n      pop\n      jump(tag_82)\n    tag_81:\n      mload(0x40)\n      dup1\n      dup3\n      iszero\n      iszero\n      iszero\n      iszero\n      dup2\n      mstore\n      0x20\n      add\n      swap2\n      pop\n      pop\n      mload(0x40)\n      dup1\n      swap2\n      sub\n      swap1\n      return\n        /* \"contracts/DeedRepository.sol\":750:950  function registerDeed(uint256 _tokenId, string _uri) public {\r... */\n    tag_19:\n      callvalue\n        /* \"--CODEGEN--\":8:17   */\n      dup1\n        /* \"--CODEGEN--\":5:7   */\n      iszero\n      tag_83\n      jumpi\n        /* \"--CODEGEN--\":30:31   */\n      0x0\n        /* \"--CODEGEN--\":27:28   */\n      dup1\n        /* \"--CODEGEN--\":20:32   */\n      revert\n        /* \"--CODEGEN--\":5:7   */\n    tag_83:\n        /* \"contracts/DeedRepository.sol\":750:950  function registerDeed(uint256 _tokenId, string _uri) public {\r... */\n      pop\n      tag_84\n      0x4\n      dup1\n      calldatasize\n      sub\n      dup2\n      add\n      swap1\n      dup1\n      dup1\n      calldataload\n      swap1\n      0x20\n      add\n      swap1\n      swap3\n      swap2\n      swap1\n      dup1\n      calldataload\n      swap1\n      0x20\n      add\n      swap1\n      dup3\n      add\n      dup1\n      calldataload\n      swap1\n      0x20\n      add\n      swap1\n      dup1\n      dup1\n      0x1f\n      add\n      0x20\n      dup1\n      swap2\n      div\n      mul\n      0x20\n      add\n      mload(0x40)\n      swap1\n      dup2\n      add\n      0x40\n      mstore\n      dup1\n      swap4\n      swap3\n      swap2\n      swap1\n      dup2\n      dup2\n      mstore\n      0x20\n      add\n      dup4\n      dup4\n      dup1\n      dup3\n      dup5\n      calldatacopy\n      dup3\n      add\n      swap2\n      pop\n      pop\n      pop\n      pop\n      pop\n      pop\n      swap2\n      swap3\n      swap2\n      swap3\n      swap1\n      pop\n      pop\n      pop\n      jump(tag_85)\n    tag_84:\n      stop\n        /* \"contracts/ERC721/ERC721Token.sol\":1349:1419  function name() public view returns (string) {\r... */\n    tag_22:\n        /* \"contracts/ERC721/ERC721Token.sol\":1386:1392  string */\n      0x60\n        /* \"contracts/ERC721/ERC721Token.sol\":1408:1413  name_ */\n      0x4\n        /* \"contracts/ERC721/ERC721Token.sol\":1401:1413  return name_ */\n      dup1\n      sload\n      0x1\n      dup2\n      0x1\n      and\n      iszero\n      0x100\n      mul\n      sub\n      and\n      0x2\n      swap1\n      div\n      dup1\n      0x1f\n      add\n      0x20\n      dup1\n      swap2\n      div\n      mul\n      0x20\n      add\n      mload(0x40)\n      swap1\n      dup2\n      add\n      0x40\n      mstore\n      dup1\n      swap3\n      swap2\n      swap1\n      dup2\n      dup2\n      mstore\n      0x20\n      add\n      dup3\n      dup1\n      sload\n      0x1\n      dup2\n      0x1\n      and\n      iszero\n      0x100\n      mul\n      sub\n      and\n      0x2\n      swap1\n      div\n      dup1\n      iszero\n      tag_87\n      jumpi\n      dup1\n      0x1f\n      lt\n      tag_88\n      jumpi\n      0x100\n      dup1\n      dup4\n      sload\n      div\n      mul\n      dup4\n      mstore\n      swap2\n      0x20\n      add\n      swap2\n      jump(tag_87)\n    tag_88:\n      dup3\n      add\n      swap2\n      swap1\n      0x0\n      mstore\n      keccak256(0x0, 0x20)\n      swap1\n    tag_89:\n      dup2\n      sload\n      dup2\n      mstore\n      swap1\n      0x1\n      add\n      swap1\n      0x20\n      add\n      dup1\n      dup4\n      gt\n      tag_89\n      jumpi\n      dup3\n      swap1\n      sub\n      0x1f\n      and\n      dup3\n      add\n      swap2\n    tag_87:\n      pop\n      pop\n      pop\n      pop\n      pop\n      swap1\n      pop\n        /* \"contracts/ERC721/ERC721Token.sol\":1349:1419  function name() public view returns (string) {\r... */\n      swap1\n      jump\t// out\n        /* \"contracts/ERC721/ERC721BasicToken.sol\":3686:3799  function getApproved(uint256 _tokenId) public view returns (address) {\r... */\n    tag_29:\n        /* \"contracts/ERC721/ERC721BasicToken.sol\":3746:3753  address */\n      0x0\n        /* \"contracts/ERC721/ERC721BasicToken.sol\":3769:3783  tokenApprovals */\n      0x1\n        /* \"contracts/ERC721/ERC721BasicToken.sol\":3769:3793  tokenApprovals[_tokenId] */\n      0x0\n        /* \"contracts/ERC721/ERC721BasicToken.sol\":3784:3792  _tokenId */\n      dup4\n        /* \"contracts/ERC721/ERC721BasicToken.sol\":3769:3793  tokenApprovals[_tokenId] */\n      dup2\n      mstore\n      0x20\n      add\n      swap1\n      dup2\n      mstore\n      0x20\n      add\n      0x0\n      keccak256\n      0x0\n      swap1\n      sload\n      swap1\n      0x100\n      exp\n      swap1\n      div\n      0xffffffffffffffffffffffffffffffffffffffff\n      and\n        /* \"contracts/ERC721/ERC721BasicToken.sol\":3762:3793  return tokenApprovals[_tokenId] */\n      swap1\n      pop\n        /* \"contracts/ERC721/ERC721BasicToken.sol\":3686:3799  function getApproved(uint256 _tokenId) public view returns (address) {\r... */\n      swap2\n      swap1\n      pop\n      jump\t// out\n        /* \"contracts/ERC721/ERC721BasicToken.sol\":3091:3450  function approve(address _to, uint256 _tokenId) public {\r... */\n    tag_32:\n        /* \"contracts/ERC721/ERC721BasicToken.sol\":3153:3166  address owner */\n      0x0\n        /* \"contracts/ERC721/ERC721BasicToken.sol\":3169:3186  ownerOf(_tokenId) */\n      tag_92\n        /* \"contracts/ERC721/ERC721BasicToken.sol\":3177:3185  _tokenId */\n      dup3\n        /* \"contracts/ERC721/ERC721BasicToken.sol\":3169:3176  ownerOf */\n      tag_53\n        /* \"contracts/ERC721/ERC721BasicToken.sol\":3169:3186  ownerOf(_tokenId) */\n      jump\t// in\n    tag_92:\n        /* \"contracts/ERC721/ERC721BasicToken.sol\":3153:3186  address owner = ownerOf(_tokenId) */\n      swap1\n      pop\n        /* \"contracts/ERC721/ERC721BasicToken.sol\":3208:3213  owner */\n      dup1\n        /* \"contracts/ERC721/ERC721BasicToken.sol\":3201:3213  _to != owner */\n      0xffffffffffffffffffffffffffffffffffffffff\n      and\n        /* \"contracts/ERC721/ERC721BasicToken.sol\":3201:3204  _to */\n      dup4\n        /* \"contracts/ERC721/ERC721BasicToken.sol\":3201:3213  _to != owner */\n      0xffffffffffffffffffffffffffffffffffffffff\n      and\n      eq\n      iszero\n        /* \"contracts/ERC721/ERC721BasicToken.sol\":3193:3214  require(_to != owner) */\n      iszero\n      iszero\n      tag_93\n      jumpi\n      0x0\n      dup1\n      revert\n    tag_93:\n        /* \"contracts/ERC721/ERC721BasicToken.sol\":3243:3248  owner */\n      dup1\n        /* \"contracts/ERC721/ERC721BasicToken.sol\":3229:3248  msg.sender == owner */\n      0xffffffffffffffffffffffffffffffffffffffff\n      and\n        /* \"contracts/ERC721/ERC721BasicToken.sol\":3229:3239  msg.sender */\n      caller\n        /* \"contracts/ERC721/ERC721BasicToken.sol\":3229:3248  msg.sender == owner */\n      0xffffffffffffffffffffffffffffffffffffffff\n      and\n      eq\n        /* \"contracts/ERC721/ERC721BasicToken.sol\":3229:3287  msg.sender == owner || isApprovedForAll(owner, msg.sender) */\n      dup1\n      tag_94\n      jumpi\n      pop\n        /* \"contracts/ERC721/ERC721BasicToken.sol\":3252:3287  isApprovedForAll(owner, msg.sender) */\n      tag_95\n        /* \"contracts/ERC721/ERC721BasicToken.sol\":3269:3274  owner */\n      dup2\n        /* \"contracts/ERC721/ERC721BasicToken.sol\":3276:3286  msg.sender */\n      caller\n        /* \"contracts/ERC721/ERC721BasicToken.sol\":3252:3268  isApprovedForAll */\n      tag_82\n        /* \"contracts/ERC721/ERC721BasicToken.sol\":3252:3287  isApprovedForAll(owner, msg.sender) */\n      jump\t// in\n    tag_95:\n        /* \"contracts/ERC721/ERC721BasicToken.sol\":3229:3287  msg.sender == owner || isApprovedForAll(owner, msg.sender) */\n    tag_94:\n        /* \"contracts/ERC721/ERC721BasicToken.sol\":3221:3288  require(msg.sender == owner || isApprovedForAll(owner, msg.sender)) */\n      iszero\n      iszero\n      tag_96\n      jumpi\n      0x0\n      dup1\n      revert\n    tag_96:\n        /* \"contracts/ERC721/ERC721BasicToken.sol\":3334:3335  0 */\n      0x0\n        /* \"contracts/ERC721/ERC721BasicToken.sol\":3301:3336  getApproved(_tokenId) != address(0) */\n      0xffffffffffffffffffffffffffffffffffffffff\n      and\n        /* \"contracts/ERC721/ERC721BasicToken.sol\":3301:3322  getApproved(_tokenId) */\n      tag_97\n        /* \"contracts/ERC721/ERC721BasicToken.sol\":3313:3321  _tokenId */\n      dup4\n        /* \"contracts/ERC721/ERC721BasicToken.sol\":3301:3312  getApproved */\n      tag_29\n        /* \"contracts/ERC721/ERC721BasicToken.sol\":3301:3322  getApproved(_tokenId) */\n      jump\t// in\n    tag_97:\n        /* \"contracts/ERC721/ERC721BasicToken.sol\":3301:3336  getApproved(_tokenId) != address(0) */\n      0xffffffffffffffffffffffffffffffffffffffff\n      and\n      eq\n      iszero\n        /* \"contracts/ERC721/ERC721BasicToken.sol\":3301:3357  getApproved(_tokenId) != address(0) || _to != address(0) */\n      dup1\n      tag_98\n      jumpi\n      pop\n        /* \"contracts/ERC721/ERC721BasicToken.sol\":3355:3356  0 */\n      0x0\n        /* \"contracts/ERC721/ERC721BasicToken.sol\":3340:3357  _to != address(0) */\n      0xffffffffffffffffffffffffffffffffffffffff\n      and\n        /* \"contracts/ERC721/ERC721BasicToken.sol\":3340:3343  _to */\n      dup4\n        /* \"contracts/ERC721/ERC721BasicToken.sol\":3340:3357  _to != address(0) */\n      0xffffffffffffffffffffffffffffffffffffffff\n      and\n      eq\n      iszero\n        /* \"contracts/ERC721/ERC721BasicToken.sol\":3301:3357  getApproved(_tokenId) != address(0) || _to != address(0) */\n    tag_98:\n        /* \"contracts/ERC721/ERC721BasicToken.sol\":3297:3445  if (getApproved(_tokenId) != address(0) || _to != address(0)) {\r... */\n      iszero\n      tag_99\n      jumpi\n        /* \"contracts/ERC721/ERC721BasicToken.sol\":3395:3398  _to */\n      dup3\n        /* \"contracts/ERC721/ERC721BasicToken.sol\":3368:3382  tokenApprovals */\n      0x1\n        /* \"contracts/ERC721/ERC721BasicToken.sol\":3368:3392  tokenApprovals[_tokenId] */\n      0x0\n        /* \"contracts/ERC721/ERC721BasicToken.sol\":3383:3391  _tokenId */\n      dup5\n        /* \"contracts/ERC721/ERC721BasicToken.sol\":3368:3392  tokenApprovals[_tokenId] */\n      dup2\n      mstore\n      0x20\n      add\n      swap1\n      dup2\n      mstore\n      0x20\n      add\n      0x0\n      keccak256\n      0x0\n        /* \"contracts/ERC721/ERC721BasicToken.sol\":3368:3398  tokenApprovals[_tokenId] = _to */\n      0x100\n      exp\n      dup2\n      sload\n      dup2\n      0xffffffffffffffffffffffffffffffffffffffff\n      mul\n      not\n      and\n      swap1\n      dup4\n      0xffffffffffffffffffffffffffffffffffffffff\n      and\n      mul\n      or\n      swap1\n      sstore\n      pop\n        /* \"contracts/ERC721/ERC721BasicToken.sol\":3423:3426  _to */\n      dup3\n        /* \"contracts/ERC721/ERC721BasicToken.sol\":3407:3437  Approval(owner, _to, _tokenId) */\n      0xffffffffffffffffffffffffffffffffffffffff\n      and\n        /* \"contracts/ERC721/ERC721BasicToken.sol\":3416:3421  owner */\n      dup2\n        /* \"contracts/ERC721/ERC721BasicToken.sol\":3407:3437  Approval(owner, _to, _tokenId) */\n      0xffffffffffffffffffffffffffffffffffffffff\n      and\n      0x8c5be1e5ebec7d5bd14f71427d1e84f3dd0314c0f7b2291e5b200ac8c7c3b925\n        /* \"contracts/ERC721/ERC721BasicToken.sol\":3428:3436  _tokenId */\n      dup5\n        /* \"contracts/ERC721/ERC721BasicToken.sol\":3407:3437  Approval(owner, _to, _tokenId) */\n      mload(0x40)\n      dup1\n      dup3\n      dup2\n      mstore\n      0x20\n      add\n      swap2\n      pop\n      pop\n      mload(0x40)\n      dup1\n      swap2\n      sub\n      swap1\n      log3\n        /* \"contracts/ERC721/ERC721BasicToken.sol\":3297:3445  if (getApproved(_tokenId) != address(0) || _to != address(0)) {\r... */\n    tag_99:\n        /* \"contracts/ERC721/ERC721BasicToken.sol\":3091:3450  function approve(address _to, uint256 _tokenId) public {\r... */\n      pop\n      pop\n      pop\n      jump\t// out\n        /* \"contracts/ERC721/ERC721Token.sol\":2615:2704  function totalSupply() public view returns (uint256) {\r... */\n    tag_35:\n        /* \"contracts/ERC721/ERC721Token.sol\":2659:2666  uint256 */\n      0x0\n        /* \"contracts/ERC721/ERC721Token.sol\":2682:2691  allTokens */\n      0x8\n        /* \"contracts/ERC721/ERC721Token.sol\":2682:2698  allTokens.length */\n      dup1\n      sload\n      swap1\n      pop\n        /* \"contracts/ERC721/ERC721Token.sol\":2675:2698  return allTokens.length */\n      swap1\n      pop\n        /* \"contracts/ERC721/ERC721Token.sol\":2615:2704  function totalSupply() public view returns (uint256) {\r... */\n      swap1\n      jump\t// out\n        /* \"contracts/ERC721/ERC721BasicToken.sol\":5184:5504  function transferFrom(address _from, address _to, uint256 _tokenId) public canTransfer(_tokenId) {\r... */\n    tag_38:\n        /* \"contracts/ERC721/ERC721BasicToken.sol\":5271:5279  _tokenId */\n      dup1\n        /* \"contracts/ERC721/ERC721BasicToken.sol\":1566:1605  isApprovedOrOwner(msg.sender, _tokenId) */\n      tag_102\n        /* \"contracts/ERC721/ERC721BasicToken.sol\":1584:1594  msg.sender */\n      caller\n        /* \"contracts/ERC721/ERC721BasicToken.sol\":1596:1604  _tokenId */\n      dup3\n        /* \"contracts/ERC721/ERC721BasicToken.sol\":1566:1583  isApprovedOrOwner */\n      tag_103\n        /* \"contracts/ERC721/ERC721BasicToken.sol\":1566:1605  isApprovedOrOwner(msg.sender, _tokenId) */\n      jump\t// in\n    tag_102:\n        /* \"contracts/ERC721/ERC721BasicToken.sol\":1558:1606  require(isApprovedOrOwner(msg.sender, _tokenId)) */\n      iszero\n      iszero\n      tag_104\n      jumpi\n      0x0\n      dup1\n      revert\n    tag_104:\n        /* \"contracts/ERC721/ERC721BasicToken.sol\":5313:5314  0 */\n      0x0\n        /* \"contracts/ERC721/ERC721BasicToken.sol\":5296:5315  _from != address(0) */\n      0xffffffffffffffffffffffffffffffffffffffff\n      and\n        /* \"contracts/ERC721/ERC721BasicToken.sol\":5296:5301  _from */\n      dup5\n        /* \"contracts/ERC721/ERC721BasicToken.sol\":5296:5315  _from != address(0) */\n      0xffffffffffffffffffffffffffffffffffffffff\n      and\n      eq\n      iszero\n        /* \"contracts/ERC721/ERC721BasicToken.sol\":5288:5316  require(_from != address(0)) */\n      iszero\n      iszero\n      tag_106\n      jumpi\n      0x0\n      dup1\n      revert\n    tag_106:\n        /* \"contracts/ERC721/ERC721BasicToken.sol\":5346:5347  0 */\n      0x0\n        /* \"contracts/ERC721/ERC721BasicToken.sol\":5331:5348  _to != address(0) */\n      0xffffffffffffffffffffffffffffffffffffffff\n      and\n        /* \"contracts/ERC721/ERC721BasicToken.sol\":5331:5334  _to */\n      dup4\n        /* \"contracts/ERC721/ERC721BasicToken.sol\":5331:5348  _to != address(0) */\n      0xffffffffffffffffffffffffffffffffffffffff\n      and\n      eq\n      iszero\n        /* \"contracts/ERC721/ERC721BasicToken.sol\":5323:5349  require(_to != address(0)) */\n      iszero\n      iszero\n      tag_107\n      jumpi\n      0x0\n      dup1\n      revert\n    tag_107:\n        /* \"contracts/ERC721/ERC721BasicToken.sol\":5358:5388  clearApproval(_from, _tokenId) */\n      tag_108\n        /* \"contracts/ERC721/ERC721BasicToken.sol\":5372:5377  _from */\n      dup5\n        /* \"contracts/ERC721/ERC721BasicToken.sol\":5379:5387  _tokenId */\n      dup4\n        /* \"contracts/ERC721/ERC721BasicToken.sol\":5358:5371  clearApproval */\n      tag_109\n        /* \"contracts/ERC721/ERC721BasicToken.sol\":5358:5388  clearApproval(_from, _tokenId) */\n      jump\t// in\n    tag_108:\n        /* \"contracts/ERC721/ERC721BasicToken.sol\":5395:5427  removeTokenFrom(_from, _tokenId) */\n      tag_110\n        /* \"contracts/ERC721/ERC721BasicToken.sol\":5411:5416  _from */\n      dup5\n        /* \"contracts/ERC721/ERC721BasicToken.sol\":5418:5426  _tokenId */\n      dup4\n        /* \"contracts/ERC721/ERC721BasicToken.sol\":5395:5410  removeTokenFrom */\n      tag_111\n        /* \"contracts/ERC721/ERC721BasicToken.sol\":5395:5427  removeTokenFrom(_from, _tokenId) */\n      jump\t// in\n    tag_110:\n        /* \"contracts/ERC721/ERC721BasicToken.sol\":5434:5459  addTokenTo(_to, _tokenId) */\n      tag_112\n        /* \"contracts/ERC721/ERC721BasicToken.sol\":5445:5448  _to */\n      dup4\n        /* \"contracts/ERC721/ERC721BasicToken.sol\":5450:5458  _tokenId */\n      dup4\n        /* \"contracts/ERC721/ERC721BasicToken.sol\":5434:5444  addTokenTo */\n      tag_113\n        /* \"contracts/ERC721/ERC721BasicToken.sol\":5434:5459  addTokenTo(_to, _tokenId) */\n      jump\t// in\n    tag_112:\n        /* \"contracts/ERC721/ERC721BasicToken.sol\":5484:5487  _to */\n      dup3\n        /* \"contracts/ERC721/ERC721BasicToken.sol\":5468:5498  Transfer(_from, _to, _tokenId) */\n      0xffffffffffffffffffffffffffffffffffffffff\n      and\n        /* \"contracts/ERC721/ERC721BasicToken.sol\":5477:5482  _from */\n      dup5\n        /* \"contracts/ERC721/ERC721BasicToken.sol\":5468:5498  Transfer(_from, _to, _tokenId) */\n      0xffffffffffffffffffffffffffffffffffffffff\n      and\n      0xddf252ad1be2c89b69c2b068fc378daa952ba7f163c4a11628f55a4df523b3ef\n        /* \"contracts/ERC721/ERC721BasicToken.sol\":5489:5497  _tokenId */\n      dup5\n        /* \"contracts/ERC721/ERC721BasicToken.sol\":5468:5498  Transfer(_from, _to, _tokenId) */\n      mload(0x40)\n      dup1\n      dup3\n      dup2\n      mstore\n      0x20\n      add\n      swap2\n      pop\n      pop\n      mload(0x40)\n      dup1\n      swap2\n      sub\n      swap1\n      log3\n        /* \"contracts/ERC721/ERC721BasicToken.sol\":5184:5504  function transferFrom(address _from, address _to, uint256 _tokenId) public canTransfer(_tokenId) {\r... */\n      pop\n      pop\n      pop\n      pop\n      jump\t// out\n        /* \"contracts/ERC721/ERC721Token.sol\":2290:2470  function tokenOfOwnerByIndex(address _owner, uint256 _index) public view returns (uint256) {\r... */\n    tag_41:\n        /* \"contracts/ERC721/ERC721Token.sol\":2372:2379  uint256 */\n      0x0\n        /* \"contracts/ERC721/ERC721Token.sol\":2405:2422  balanceOf(_owner) */\n      tag_115\n        /* \"contracts/ERC721/ERC721Token.sol\":2415:2421  _owner */\n      dup4\n        /* \"contracts/ERC721/ERC721Token.sol\":2405:2414  balanceOf */\n      tag_56\n        /* \"contracts/ERC721/ERC721Token.sol\":2405:2422  balanceOf(_owner) */\n      jump\t// in\n    tag_115:\n        /* \"contracts/ERC721/ERC721Token.sol\":2396:2402  _index */\n      dup3\n        /* \"contracts/ERC721/ERC721Token.sol\":2396:2422  _index < balanceOf(_owner) */\n      lt\n        /* \"contracts/ERC721/ERC721Token.sol\":2388:2423  require(_index < balanceOf(_owner)) */\n      iszero\n      iszero\n      tag_116\n      jumpi\n      0x0\n      dup1\n      revert\n    tag_116:\n        /* \"contracts/ERC721/ERC721Token.sol\":2437:2448  ownedTokens */\n      0x6\n        /* \"contracts/ERC721/ERC721Token.sol\":2437:2456  ownedTokens[_owner] */\n      0x0\n        /* \"contracts/ERC721/ERC721Token.sol\":2449:2455  _owner */\n      dup5\n        /* \"contracts/ERC721/ERC721Token.sol\":2437:2456  ownedTokens[_owner] */\n      0xffffffffffffffffffffffffffffffffffffffff\n      and\n      0xffffffffffffffffffffffffffffffffffffffff\n      and\n      dup2\n      mstore\n      0x20\n      add\n      swap1\n      dup2\n      mstore\n      0x20\n      add\n      0x0\n      keccak256\n        /* \"contracts/ERC721/ERC721Token.sol\":2457:2463  _index */\n      dup3\n        /* \"contracts/ERC721/ERC721Token.sol\":2437:2464  ownedTokens[_owner][_index] */\n      dup2\n      sload\n      dup2\n      lt\n      iszero\n      iszero\n      tag_117\n      jumpi\n      invalid\n    tag_117:\n      swap1\n      0x0\n      mstore\n      keccak256(0x0, 0x20)\n      add\n      sload\n        /* \"contracts/ERC721/ERC721Token.sol\":2430:2464  return ownedTokens[_owner][_index] */\n      swap1\n      pop\n        /* \"contracts/ERC721/ERC721Token.sol\":2290:2470  function tokenOfOwnerByIndex(address _owner, uint256 _index) public view returns (uint256) {\r... */\n      swap3\n      swap2\n      pop\n      pop\n      jump\t// out\n        /* \"contracts/ERC721/ERC721BasicToken.sol\":6124:6313  function safeTransferFrom(\r... */\n    tag_44:\n        /* \"contracts/ERC721/ERC721BasicToken.sol\":6245:6253  _tokenId */\n      dup1\n        /* \"contracts/ERC721/ERC721BasicToken.sol\":1566:1605  isApprovedOrOwner(msg.sender, _tokenId) */\n      tag_120\n        /* \"contracts/ERC721/ERC721BasicToken.sol\":1584:1594  msg.sender */\n      caller\n        /* \"contracts/ERC721/ERC721BasicToken.sol\":1596:1604  _tokenId */\n      dup3\n        /* \"contracts/ERC721/ERC721BasicToken.sol\":1566:1583  isApprovedOrOwner */\n      tag_103\n        /* \"contracts/ERC721/ERC721BasicToken.sol\":1566:1605  isApprovedOrOwner(msg.sender, _tokenId) */\n      jump\t// in\n    tag_120:\n        /* \"contracts/ERC721/ERC721BasicToken.sol\":1558:1606  require(isApprovedOrOwner(msg.sender, _tokenId)) */\n      iszero\n      iszero\n      tag_121\n      jumpi\n      0x0\n      dup1\n      revert\n    tag_121:\n        /* \"contracts/ERC721/ERC721BasicToken.sol\":6265:6307  safeTransferFrom(_from, _to, _tokenId, \"\") */\n      tag_123\n        /* \"contracts/ERC721/ERC721BasicToken.sol\":6282:6287  _from */\n      dup5\n        /* \"contracts/ERC721/ERC721BasicToken.sol\":6289:6292  _to */\n      dup5\n        /* \"contracts/ERC721/ERC721BasicToken.sol\":6294:6302  _tokenId */\n      dup5\n        /* \"contracts/ERC721/ERC721BasicToken.sol\":6265:6307  safeTransferFrom(_from, _to, _tokenId, \"\") */\n      0x20\n      mload(0x40)\n      swap1\n      dup2\n      add\n      0x40\n      mstore\n      dup1\n      0x0\n      dup2\n      mstore\n      pop\n        /* \"contracts/ERC721/ERC721BasicToken.sol\":6265:6281  safeTransferFrom */\n      tag_69\n        /* \"contracts/ERC721/ERC721BasicToken.sol\":6265:6307  safeTransferFrom(_from, _to, _tokenId, \"\") */\n      jump\t// in\n    tag_123:\n        /* \"contracts/ERC721/ERC721BasicToken.sol\":6124:6313  function safeTransferFrom(\r... */\n      pop\n      pop\n      pop\n      pop\n      jump\t// out\n        /* \"contracts/ERC721/ERC721BasicToken.sol\":2525:2668  function exists(uint256 _tokenId) public view returns (bool) {\r... */\n    tag_47:\n        /* \"contracts/ERC721/ERC721BasicToken.sol\":2580:2584  bool */\n      0x0\n        /* \"contracts/ERC721/ERC721BasicToken.sol\":2593:2606  address owner */\n      dup1\n        /* \"contracts/ERC721/ERC721BasicToken.sol\":2609:2619  tokenOwner */\n      0x0\n        /* \"contracts/ERC721/ERC721BasicToken.sol\":2609:2629  tokenOwner[_tokenId] */\n      dup1\n        /* \"contracts/ERC721/ERC721BasicToken.sol\":2620:2628  _tokenId */\n      dup5\n        /* \"contracts/ERC721/ERC721BasicToken.sol\":2609:2629  tokenOwner[_tokenId] */\n      dup2\n      mstore\n      0x20\n      add\n      swap1\n      dup2\n      mstore\n      0x20\n      add\n      0x0\n      keccak256\n      0x0\n      swap1\n      sload\n      swap1\n      0x100\n      exp\n      swap1\n      div\n      0xffffffffffffffffffffffffffffffffffffffff\n      and\n        /* \"contracts/ERC721/ERC721BasicToken.sol\":2593:2629  address owner = tokenOwner[_tokenId] */\n      swap1\n      pop\n        /* \"contracts/ERC721/ERC721BasicToken.sol\":2660:2661  0 */\n      0x0\n        /* \"contracts/ERC721/ERC721BasicToken.sol\":2643:2662  owner != address(0) */\n      0xffffffffffffffffffffffffffffffffffffffff\n      and\n        /* \"contracts/ERC721/ERC721BasicToken.sol\":2643:2648  owner */\n      dup2\n        /* \"contracts/ERC721/ERC721BasicToken.sol\":2643:2662  owner != address(0) */\n      0xffffffffffffffffffffffffffffffffffffffff\n      and\n      eq\n      iszero\n        /* \"contracts/ERC721/ERC721BasicToken.sol\":2636:2662  return owner != address(0) */\n      swap2\n      pop\n        /* \"contracts/ERC721/ERC721BasicToken.sol\":2525:2668  function exists(uint256 _tokenId) public view returns (bool) {\r... */\n      pop\n      swap2\n      swap1\n      pop\n      jump\t// out\n        /* \"contracts/ERC721/ERC721Token.sol\":3036:3179  function tokenByIndex(uint256 _index) public view returns (uint256) {\r... */\n    tag_50:\n        /* \"contracts/ERC721/ERC721Token.sol\":3095:3102  uint256 */\n      0x0\n        /* \"contracts/ERC721/ERC721Token.sol\":3128:3141  totalSupply() */\n      tag_126\n        /* \"contracts/ERC721/ERC721Token.sol\":3128:3139  totalSupply */\n      tag_35\n        /* \"contracts/ERC721/ERC721Token.sol\":3128:3141  totalSupply() */\n      jump\t// in\n    tag_126:\n        /* \"contracts/ERC721/ERC721Token.sol\":3119:3125  _index */\n      dup3\n        /* \"contracts/ERC721/ERC721Token.sol\":3119:3141  _index < totalSupply() */\n      lt\n        /* \"contracts/ERC721/ERC721Token.sol\":3111:3142  require(_index < totalSupply()) */\n      iszero\n      iszero\n      tag_127\n      jumpi\n      0x0\n      dup1\n      revert\n    tag_127:\n        /* \"contracts/ERC721/ERC721Token.sol\":3156:3165  allTokens */\n      0x8\n        /* \"contracts/ERC721/ERC721Token.sol\":3166:3172  _index */\n      dup3\n        /* \"contracts/ERC721/ERC721Token.sol\":3156:3173  allTokens[_index] */\n      dup2\n      sload\n      dup2\n      lt\n      iszero\n      iszero\n      tag_128\n      jumpi\n      invalid\n    tag_128:\n      swap1\n      0x0\n      mstore\n      keccak256(0x0, 0x20)\n      add\n      sload\n        /* \"contracts/ERC721/ERC721Token.sol\":3149:3173  return allTokens[_index] */\n      swap1\n      pop\n        /* \"contracts/ERC721/ERC721Token.sol\":3036:3179  function tokenByIndex(uint256 _index) public view returns (uint256) {\r... */\n      swap2\n      swap1\n      pop\n      jump\t// out\n        /* \"contracts/ERC721/ERC721BasicToken.sol\":2176:2344  function ownerOf(uint256 _tokenId) public view returns (address) {\r... */\n    tag_53:\n        /* \"contracts/ERC721/ERC721BasicToken.sol\":2232:2239  address */\n      0x0\n        /* \"contracts/ERC721/ERC721BasicToken.sol\":2248:2261  address owner */\n      dup1\n        /* \"contracts/ERC721/ERC721BasicToken.sol\":2264:2274  tokenOwner */\n      0x0\n        /* \"contracts/ERC721/ERC721BasicToken.sol\":2264:2284  tokenOwner[_tokenId] */\n      dup1\n        /* \"contracts/ERC721/ERC721BasicToken.sol\":2275:2283  _tokenId */\n      dup5\n        /* \"contracts/ERC721/ERC721BasicToken.sol\":2264:2284  tokenOwner[_tokenId] */\n      dup2\n      mstore\n      0x20\n      add\n      swap1\n      dup2\n      mstore\n      0x20\n      add\n      0x0\n      keccak256\n      0x0\n      swap1\n      sload\n      swap1\n      0x100\n      exp\n      swap1\n      div\n      0xffffffffffffffffffffffffffffffffffffffff\n      and\n        /* \"contracts/ERC721/ERC721BasicToken.sol\":2248:2284  address owner = tokenOwner[_tokenId] */\n      swap1\n      pop\n        /* \"contracts/ERC721/ERC721BasicToken.sol\":2316:2317  0 */\n      0x0\n        /* \"contracts/ERC721/ERC721BasicToken.sol\":2299:2318  owner != address(0) */\n      0xffffffffffffffffffffffffffffffffffffffff\n      and\n        /* \"contracts/ERC721/ERC721BasicToken.sol\":2299:2304  owner */\n      dup2\n        /* \"contracts/ERC721/ERC721BasicToken.sol\":2299:2318  owner != address(0) */\n      0xffffffffffffffffffffffffffffffffffffffff\n      and\n      eq\n      iszero\n        /* \"contracts/ERC721/ERC721BasicToken.sol\":2291:2319  require(owner != address(0)) */\n      iszero\n      iszero\n      tag_131\n      jumpi\n      0x0\n      dup1\n      revert\n    tag_131:\n        /* \"contracts/ERC721/ERC721BasicToken.sol\":2333:2338  owner */\n      dup1\n        /* \"contracts/ERC721/ERC721BasicToken.sol\":2326:2338  return owner */\n      swap2\n      pop\n        /* \"contracts/ERC721/ERC721BasicToken.sol\":2176:2344  function ownerOf(uint256 _tokenId) public view returns (address) {\r... */\n      pop\n      swap2\n      swap1\n      pop\n      jump\t// out\n        /* \"contracts/ERC721/ERC721BasicToken.sol\":1815:1960  function balanceOf(address _owner) public view returns (uint256) {\r... */\n    tag_56:\n        /* \"contracts/ERC721/ERC721BasicToken.sol\":1871:1878  uint256 */\n      0x0\n        /* \"contracts/ERC721/ERC721BasicToken.sol\":1913:1914  0 */\n      dup1\n        /* \"contracts/ERC721/ERC721BasicToken.sol\":1895:1915  _owner != address(0) */\n      0xffffffffffffffffffffffffffffffffffffffff\n      and\n        /* \"contracts/ERC721/ERC721BasicToken.sol\":1895:1901  _owner */\n      dup3\n        /* \"contracts/ERC721/ERC721BasicToken.sol\":1895:1915  _owner != address(0) */\n      0xffffffffffffffffffffffffffffffffffffffff\n      and\n      eq\n      iszero\n        /* \"contracts/ERC721/ERC721BasicToken.sol\":1887:1916  require(_owner != address(0)) */\n      iszero\n      iszero\n      tag_133\n      jumpi\n      0x0\n      dup1\n      revert\n    tag_133:\n        /* \"contracts/ERC721/ERC721BasicToken.sol\":1930:1946  ownedTokensCount */\n      0x2\n        /* \"contracts/ERC721/ERC721BasicToken.sol\":1930:1954  ownedTokensCount[_owner] */\n      0x0\n        /* \"contracts/ERC721/ERC721BasicToken.sol\":1947:1953  _owner */\n      dup4\n        /* \"contracts/ERC721/ERC721BasicToken.sol\":1930:1954  ownedTokensCount[_owner] */\n      0xffffffffffffffffffffffffffffffffffffffff\n      and\n      0xffffffffffffffffffffffffffffffffffffffff\n      and\n      dup2\n      mstore\n      0x20\n      add\n      swap1\n      dup2\n      mstore\n      0x20\n      add\n      0x0\n      keccak256\n      sload\n        /* \"contracts/ERC721/ERC721BasicToken.sol\":1923:1954  return ownedTokensCount[_owner] */\n      swap1\n      pop\n        /* \"contracts/ERC721/ERC721BasicToken.sol\":1815:1960  function balanceOf(address _owner) public view returns (uint256) {\r... */\n      swap2\n      swap1\n      pop\n      jump\t// out\n        /* \"contracts/ERC721/ERC721Token.sol\":1520:1594  function symbol() public view returns (string) {\r... */\n    tag_59:\n        /* \"contracts/ERC721/ERC721Token.sol\":1559:1565  string */\n      0x60\n        /* \"contracts/ERC721/ERC721Token.sol\":1581:1588  symbol_ */\n      0x5\n        /* \"contracts/ERC721/ERC721Token.sol\":1574:1588  return symbol_ */\n      dup1\n      sload\n      0x1\n      dup2\n      0x1\n      and\n      iszero\n      0x100\n      mul\n      sub\n      and\n      0x2\n      swap1\n      div\n      dup1\n      0x1f\n      add\n      0x20\n      dup1\n      swap2\n      div\n      mul\n      0x20\n      add\n      mload(0x40)\n      swap1\n      dup2\n      add\n      0x40\n      mstore\n      dup1\n      swap3\n      swap2\n      swap1\n      dup2\n      dup2\n      mstore\n      0x20\n      add\n      dup3\n      dup1\n      sload\n      0x1\n      dup2\n      0x1\n      and\n      iszero\n      0x100\n      mul\n      sub\n      and\n      0x2\n      swap1\n      div\n      dup1\n      iszero\n      tag_135\n      jumpi\n      dup1\n      0x1f\n      lt\n      tag_136\n      jumpi\n      0x100\n      dup1\n      dup4\n      sload\n      div\n      mul\n      dup4\n      mstore\n      swap2\n      0x20\n      add\n      swap2\n      jump(tag_135)\n    tag_136:\n      dup3\n      add\n      swap2\n      swap1\n      0x0\n      mstore\n      keccak256(0x0, 0x20)\n      swap1\n    tag_137:\n      dup2\n      sload\n      dup2\n      mstore\n      swap1\n      0x1\n      add\n      swap1\n      0x20\n      add\n      dup1\n      dup4\n      gt\n      tag_137\n      jumpi\n      dup3\n      swap1\n      sub\n      0x1f\n      and\n      dup3\n      add\n      swap2\n    tag_135:\n      pop\n      pop\n      pop\n      pop\n      pop\n      swap1\n      pop\n        /* \"contracts/ERC721/ERC721Token.sol\":1520:1594  function symbol() public view returns (string) {\r... */\n      swap1\n      jump\t// out\n        /* \"contracts/ERC721/ERC721BasicToken.sol\":4087:4291  function setApprovalForAll(address _to, bool _approved) public {\r... */\n    tag_66:\n        /* \"contracts/ERC721/ERC721BasicToken.sol\":4172:4182  msg.sender */\n      caller\n        /* \"contracts/ERC721/ERC721BasicToken.sol\":4165:4182  _to != msg.sender */\n      0xffffffffffffffffffffffffffffffffffffffff\n      and\n        /* \"contracts/ERC721/ERC721BasicToken.sol\":4165:4168  _to */\n      dup3\n        /* \"contracts/ERC721/ERC721BasicToken.sol\":4165:4182  _to != msg.sender */\n      0xffffffffffffffffffffffffffffffffffffffff\n      and\n      eq\n      iszero\n        /* \"contracts/ERC721/ERC721BasicToken.sol\":4157:4183  require(_to != msg.sender) */\n      iszero\n      iszero\n      tag_139\n      jumpi\n      0x0\n      dup1\n      revert\n    tag_139:\n        /* \"contracts/ERC721/ERC721BasicToken.sol\":4227:4236  _approved */\n      dup1\n        /* \"contracts/ERC721/ERC721BasicToken.sol\":4190:4207  operatorApprovals */\n      0x3\n        /* \"contracts/ERC721/ERC721BasicToken.sol\":4190:4219  operatorApprovals[msg.sender] */\n      0x0\n        /* \"contracts/ERC721/ERC721BasicToken.sol\":4208:4218  msg.sender */\n      caller\n        /* \"contracts/ERC721/ERC721BasicToken.sol\":4190:4219  operatorApprovals[msg.sender] */\n      0xffffffffffffffffffffffffffffffffffffffff\n      and\n      0xffffffffffffffffffffffffffffffffffffffff\n      and\n      dup2\n      mstore\n      0x20\n      add\n      swap1\n      dup2\n      mstore\n      0x20\n      add\n      0x0\n      keccak256\n        /* \"contracts/ERC721/ERC721BasicToken.sol\":4190:4224  operatorApprovals[msg.sender][_to] */\n      0x0\n        /* \"contracts/ERC721/ERC721BasicToken.sol\":4220:4223  _to */\n      dup5\n        /* \"contracts/ERC721/ERC721BasicToken.sol\":4190:4224  operatorApprovals[msg.sender][_to] */\n      0xffffffffffffffffffffffffffffffffffffffff\n      and\n      0xffffffffffffffffffffffffffffffffffffffff\n      and\n      dup2\n      mstore\n      0x20\n      add\n      swap1\n      dup2\n      mstore\n      0x20\n      add\n      0x0\n      keccak256\n      0x0\n        /* \"contracts/ERC721/ERC721BasicToken.sol\":4190:4236  operatorApprovals[msg.sender][_to] = _approved */\n      0x100\n      exp\n      dup2\n      sload\n      dup2\n      0xff\n      mul\n      not\n      and\n      swap1\n      dup4\n      iszero\n      iszero\n      mul\n      or\n      swap1\n      sstore\n      pop\n        /* \"contracts/ERC721/ERC721BasicToken.sol\":4270:4273  _to */\n      dup2\n        /* \"contracts/ERC721/ERC721BasicToken.sol\":4243:4285  ApprovalForAll(msg.sender, _to, _approved) */\n      0xffffffffffffffffffffffffffffffffffffffff\n      and\n        /* \"contracts/ERC721/ERC721BasicToken.sol\":4258:4268  msg.sender */\n      caller\n        /* \"contracts/ERC721/ERC721BasicToken.sol\":4243:4285  ApprovalForAll(msg.sender, _to, _approved) */\n      0xffffffffffffffffffffffffffffffffffffffff\n      and\n      0x17307eab39ab6107e8899845ad3d59bd9653f200f220920489ca2b5937696c31\n        /* \"contracts/ERC721/ERC721BasicToken.sol\":4275:4284  _approved */\n      dup4\n        /* \"contracts/ERC721/ERC721BasicToken.sol\":4243:4285  ApprovalForAll(msg.sender, _to, _approved) */\n      mload(0x40)\n      dup1\n      dup3\n      iszero\n      iszero\n      iszero\n      iszero\n      dup2\n      mstore\n      0x20\n      add\n      swap2\n      pop\n      pop\n      mload(0x40)\n      dup1\n      swap2\n      sub\n      swap1\n      log3\n        /* \"contracts/ERC721/ERC721BasicToken.sol\":4087:4291  function setApprovalForAll(address _to, bool _approved) public {\r... */\n      pop\n      pop\n      jump\t// out\n        /* \"contracts/ERC721/ERC721BasicToken.sol\":7003:7271  function safeTransferFrom(\r... */\n    tag_69:\n        /* \"contracts/ERC721/ERC721BasicToken.sol\":7142:7150  _tokenId */\n      dup2\n        /* \"contracts/ERC721/ERC721BasicToken.sol\":1566:1605  isApprovedOrOwner(msg.sender, _tokenId) */\n      tag_141\n        /* \"contracts/ERC721/ERC721BasicToken.sol\":1584:1594  msg.sender */\n      caller\n        /* \"contracts/ERC721/ERC721BasicToken.sol\":1596:1604  _tokenId */\n      dup3\n        /* \"contracts/ERC721/ERC721BasicToken.sol\":1566:1583  isApprovedOrOwner */\n      tag_103\n        /* \"contracts/ERC721/ERC721BasicToken.sol\":1566:1605  isApprovedOrOwner(msg.sender, _tokenId) */\n      jump\t// in\n    tag_141:\n        /* \"contracts/ERC721/ERC721BasicToken.sol\":1558:1606  require(isApprovedOrOwner(msg.sender, _tokenId)) */\n      iszero\n      iszero\n      tag_142\n      jumpi\n      0x0\n      dup1\n      revert\n    tag_142:\n        /* \"contracts/ERC721/ERC721BasicToken.sol\":7162:7196  transferFrom(_from, _to, _tokenId) */\n      tag_144\n        /* \"contracts/ERC721/ERC721BasicToken.sol\":7175:7180  _from */\n      dup6\n        /* \"contracts/ERC721/ERC721BasicToken.sol\":7182:7185  _to */\n      dup6\n        /* \"contracts/ERC721/ERC721BasicToken.sol\":7187:7195  _tokenId */\n      dup6\n        /* \"contracts/ERC721/ERC721BasicToken.sol\":7162:7174  transferFrom */\n      tag_38\n        /* \"contracts/ERC721/ERC721BasicToken.sol\":7162:7196  transferFrom(_from, _to, _tokenId) */\n      jump\t// in\n    tag_144:\n        /* \"contracts/ERC721/ERC721BasicToken.sol\":7211:7264  checkAndCallSafeTransfer(_from, _to, _tokenId, _data) */\n      tag_145\n        /* \"contracts/ERC721/ERC721BasicToken.sol\":7236:7241  _from */\n      dup6\n        /* \"contracts/ERC721/ERC721BasicToken.sol\":7243:7246  _to */\n      dup6\n        /* \"contracts/ERC721/ERC721BasicToken.sol\":7248:7256  _tokenId */\n      dup6\n        /* \"contracts/ERC721/ERC721BasicToken.sol\":7258:7263  _data */\n      dup6\n        /* \"contracts/ERC721/ERC721BasicToken.sol\":7211:7235  checkAndCallSafeTransfer */\n      tag_146\n        /* \"contracts/ERC721/ERC721BasicToken.sol\":7211:7264  checkAndCallSafeTransfer(_from, _to, _tokenId, _data) */\n      jump\t// in\n    tag_145:\n        /* \"contracts/ERC721/ERC721BasicToken.sol\":7203:7265  require(checkAndCallSafeTransfer(_from, _to, _tokenId, _data)) */\n      iszero\n      iszero\n      tag_147\n      jumpi\n      0x0\n      dup1\n      revert\n    tag_147:\n        /* \"contracts/ERC721/ERC721BasicToken.sol\":7003:7271  function safeTransferFrom(\r... */\n      pop\n      pop\n      pop\n      pop\n      pop\n      jump\t// out\n        /* \"contracts/ERC721/ERC721Token.sol\":1790:1926  function tokenURI(uint256 _tokenId) public view returns (string) {\r... */\n    tag_72:\n        /* \"contracts/ERC721/ERC721Token.sol\":1847:1853  string */\n      0x60\n        /* \"contracts/ERC721/ERC721Token.sol\":1870:1886  exists(_tokenId) */\n      tag_149\n        /* \"contracts/ERC721/ERC721Token.sol\":1877:1885  _tokenId */\n      dup3\n        /* \"contracts/ERC721/ERC721Token.sol\":1870:1876  exists */\n      tag_47\n        /* \"contracts/ERC721/ERC721Token.sol\":1870:1886  exists(_tokenId) */\n      jump\t// in\n    tag_149:\n        /* \"contracts/ERC721/ERC721Token.sol\":1862:1887  require(exists(_tokenId)) */\n      iszero\n      iszero\n      tag_150\n      jumpi\n      0x0\n      dup1\n      revert\n    tag_150:\n        /* \"contracts/ERC721/ERC721Token.sol\":1901:1910  tokenURIs */\n      0xa\n        /* \"contracts/ERC721/ERC721Token.sol\":1901:1920  tokenURIs[_tokenId] */\n      0x0\n        /* \"contracts/ERC721/ERC721Token.sol\":1911:1919  _tokenId */\n      dup4\n        /* \"contracts/ERC721/ERC721Token.sol\":1901:1920  tokenURIs[_tokenId] */\n      dup2\n      mstore\n      0x20\n      add\n      swap1\n      dup2\n      mstore\n      0x20\n      add\n      0x0\n      keccak256\n        /* \"contracts/ERC721/ERC721Token.sol\":1894:1920  return tokenURIs[_tokenId] */\n      dup1\n      sload\n      0x1\n      dup2\n      0x1\n      and\n      iszero\n      0x100\n      mul\n      sub\n      and\n      0x2\n      swap1\n      div\n      dup1\n      0x1f\n      add\n      0x20\n      dup1\n      swap2\n      div\n      mul\n      0x20\n      add\n      mload(0x40)\n      swap1\n      dup2\n      add\n      0x40\n      mstore\n      dup1\n      swap3\n      swap2\n      swap1\n      dup2\n      dup2\n      mstore\n      0x20\n      add\n      dup3\n      dup1\n      sload\n      0x1\n      dup2\n      0x1\n      and\n      iszero\n      0x100\n      mul\n      sub\n      and\n      0x2\n      swap1\n      div\n      dup1\n      iszero\n      tag_151\n      jumpi\n      dup1\n      0x1f\n      lt\n      tag_152\n      jumpi\n      0x100\n      dup1\n      dup4\n      sload\n      div\n      mul\n      dup4\n      mstore\n      swap2\n      0x20\n      add\n      swap2\n      jump(tag_151)\n    tag_152:\n      dup3\n      add\n      swap2\n      swap1\n      0x0\n      mstore\n      keccak256(0x0, 0x20)\n      swap1\n    tag_153:\n      dup2\n      sload\n      dup2\n      mstore\n      swap1\n      0x1\n      add\n      swap1\n      0x20\n      add\n      dup1\n      dup4\n      gt\n      tag_153\n      jumpi\n      dup3\n      swap1\n      sub\n      0x1f\n      and\n      dup3\n      add\n      swap2\n    tag_151:\n      pop\n      pop\n      pop\n      pop\n      pop\n      swap1\n      pop\n        /* \"contracts/ERC721/ERC721Token.sol\":1790:1926  function tokenURI(uint256 _tokenId) public view returns (string) {\r... */\n      swap2\n      swap1\n      pop\n      jump\t// out\n        /* \"contracts/DeedRepository.sol\":1172:1317  function addDeedMetadata(uint256 _tokenId, string _uri) public returns(bool){\r... */\n    tag_79:\n        /* \"contracts/DeedRepository.sol\":1243:1247  bool */\n      0x0\n        /* \"contracts/DeedRepository.sol\":1259:1287  _setTokenURI(_tokenId, _uri) */\n      tag_155\n        /* \"contracts/DeedRepository.sol\":1272:1280  _tokenId */\n      dup4\n        /* \"contracts/DeedRepository.sol\":1282:1286  _uri */\n      dup4\n        /* \"contracts/DeedRepository.sol\":1259:1271  _setTokenURI */\n      tag_156\n        /* \"contracts/DeedRepository.sol\":1259:1287  _setTokenURI(_tokenId, _uri) */\n      jump\t// in\n    tag_155:\n        /* \"contracts/DeedRepository.sol\":1305:1309  true */\n      0x1\n        /* \"contracts/DeedRepository.sol\":1298:1309  return true */\n      swap1\n      pop\n        /* \"contracts/DeedRepository.sol\":1172:1317  function addDeedMetadata(uint256 _tokenId, string _uri) public returns(bool){\r... */\n      swap3\n      swap2\n      pop\n      pop\n      jump\t// out\n        /* \"contracts/ERC721/ERC721BasicToken.sol\":4608:4752  function isApprovedForAll(address _owner, address _operator) public view returns (bool) {\r... */\n    tag_82:\n        /* \"contracts/ERC721/ERC721BasicToken.sol\":4690:4694  bool */\n      0x0\n        /* \"contracts/ERC721/ERC721BasicToken.sol\":4710:4727  operatorApprovals */\n      0x3\n        /* \"contracts/ERC721/ERC721BasicToken.sol\":4710:4735  operatorApprovals[_owner] */\n      0x0\n        /* \"contracts/ERC721/ERC721BasicToken.sol\":4728:4734  _owner */\n      dup5\n        /* \"contracts/ERC721/ERC721BasicToken.sol\":4710:4735  operatorApprovals[_owner] */\n      0xffffffffffffffffffffffffffffffffffffffff\n      and\n      0xffffffffffffffffffffffffffffffffffffffff\n      and\n      dup2\n      mstore\n      0x20\n      add\n      swap1\n      dup2\n      mstore\n      0x20\n      add\n      0x0\n      keccak256\n        /* \"contracts/ERC721/ERC721BasicToken.sol\":4710:4746  operatorApprovals[_owner][_operator] */\n      0x0\n        /* \"contracts/ERC721/ERC721BasicToken.sol\":4736:4745  _operator */\n      dup4\n        /* \"contracts/ERC721/ERC721BasicToken.sol\":4710:4746  operatorApprovals[_owner][_operator] */\n      0xffffffffffffffffffffffffffffffffffffffff\n      and\n      0xffffffffffffffffffffffffffffffffffffffff\n      and\n      dup2\n      mstore\n      0x20\n      add\n      swap1\n      dup2\n      mstore\n      0x20\n      add\n      0x0\n      keccak256\n      0x0\n      swap1\n      sload\n      swap1\n      0x100\n      exp\n      swap1\n      div\n      0xff\n      and\n        /* \"contracts/ERC721/ERC721BasicToken.sol\":4703:4746  return operatorApprovals[_owner][_operator] */\n      swap1\n      pop\n        /* \"contracts/ERC721/ERC721BasicToken.sol\":4608:4752  function isApprovedForAll(address _owner, address _operator) public view returns (bool) {\r... */\n      swap3\n      swap2\n      pop\n      pop\n      jump\t// out\n        /* \"contracts/DeedRepository.sol\":750:950  function registerDeed(uint256 _tokenId, string _uri) public {\r... */\n    tag_85:\n        /* \"contracts/DeedRepository.sol\":821:848  _mint(msg.sender, _tokenId) */\n      tag_159\n        /* \"contracts/DeedRepository.sol\":827:837  msg.sender */\n      caller\n        /* \"contracts/DeedRepository.sol\":839:847  _tokenId */\n      dup4\n        /* \"contracts/DeedRepository.sol\":821:826  _mint */\n      tag_160\n        /* \"contracts/DeedRepository.sol\":821:848  _mint(msg.sender, _tokenId) */\n      jump\t// in\n    tag_159:\n        /* \"contracts/DeedRepository.sol\":859:890  addDeedMetadata(_tokenId, _uri) */\n      tag_161\n        /* \"contracts/DeedRepository.sol\":875:883  _tokenId */\n      dup3\n        /* \"contracts/DeedRepository.sol\":885:889  _uri */\n      dup3\n        /* \"contracts/DeedRepository.sol\":859:874  addDeedMetadata */\n      tag_79\n        /* \"contracts/DeedRepository.sol\":859:890  addDeedMetadata(_tokenId, _uri) */\n      jump\t// in\n    tag_161:\n      pop\n        /* \"contracts/DeedRepository.sol\":906:942  DeedRegistered(msg.sender, _tokenId) */\n      0x32cc5b866d6a5990a7f987020b639157969cb963b9beb2cdf41df22ab152df35\n        /* \"contracts/DeedRepository.sol\":921:931  msg.sender */\n      caller\n        /* \"contracts/DeedRepository.sol\":933:941  _tokenId */\n      dup4\n        /* \"contracts/DeedRepository.sol\":906:942  DeedRegistered(msg.sender, _tokenId) */\n      mload(0x40)\n      dup1\n      dup4\n      0xffffffffffffffffffffffffffffffffffffffff\n      and\n      0xffffffffffffffffffffffffffffffffffffffff\n      and\n      dup2\n      mstore\n      0x20\n      add\n      dup3\n      dup2\n      mstore\n      0x20\n      add\n      swap3\n      pop\n      pop\n      pop\n      mload(0x40)\n      dup1\n      swap2\n      sub\n      swap1\n      log1\n        /* \"contracts/DeedRepository.sol\":750:950  function registerDeed(uint256 _tokenId, string _uri) public {\r... */\n      pop\n      pop\n      jump\t// out\n        /* \"contracts/ERC721/ERC721BasicToken.sol\":7627:7870  function isApprovedOrOwner(address _spender, uint256 _tokenId) internal view returns (bool) {\r... */\n    tag_103:\n        /* \"contracts/ERC721/ERC721BasicToken.sol\":7713:7717  bool */\n      0x0\n        /* \"contracts/ERC721/ERC721BasicToken.sol\":7726:7739  address owner */\n      dup1\n        /* \"contracts/ERC721/ERC721BasicToken.sol\":7742:7759  ownerOf(_tokenId) */\n      tag_163\n        /* \"contracts/ERC721/ERC721BasicToken.sol\":7750:7758  _tokenId */\n      dup4\n        /* \"contracts/ERC721/ERC721BasicToken.sol\":7742:7749  ownerOf */\n      tag_53\n        /* \"contracts/ERC721/ERC721BasicToken.sol\":7742:7759  ownerOf(_tokenId) */\n      jump\t// in\n    tag_163:\n        /* \"contracts/ERC721/ERC721BasicToken.sol\":7726:7759  address owner = ownerOf(_tokenId) */\n      swap1\n      pop\n        /* \"contracts/ERC721/ERC721BasicToken.sol\":7785:7790  owner */\n      dup1\n        /* \"contracts/ERC721/ERC721BasicToken.sol\":7773:7790  _spender == owner */\n      0xffffffffffffffffffffffffffffffffffffffff\n      and\n        /* \"contracts/ERC721/ERC721BasicToken.sol\":7773:7781  _spender */\n      dup5\n        /* \"contracts/ERC721/ERC721BasicToken.sol\":7773:7790  _spender == owner */\n      0xffffffffffffffffffffffffffffffffffffffff\n      and\n      eq\n        /* \"contracts/ERC721/ERC721BasicToken.sol\":7773:7827  _spender == owner || getApproved(_tokenId) == _spender */\n      dup1\n      tag_164\n      jumpi\n      pop\n        /* \"contracts/ERC721/ERC721BasicToken.sol\":7819:7827  _spender */\n      dup4\n        /* \"contracts/ERC721/ERC721BasicToken.sol\":7794:7827  getApproved(_tokenId) == _spender */\n      0xffffffffffffffffffffffffffffffffffffffff\n      and\n        /* \"contracts/ERC721/ERC721BasicToken.sol\":7794:7815  getApproved(_tokenId) */\n      tag_165\n        /* \"contracts/ERC721/ERC721BasicToken.sol\":7806:7814  _tokenId */\n      dup5\n        /* \"contracts/ERC721/ERC721BasicToken.sol\":7794:7805  getApproved */\n      tag_29\n        /* \"contracts/ERC721/ERC721BasicToken.sol\":7794:7815  getApproved(_tokenId) */\n      jump\t// in\n    tag_165:\n        /* \"contracts/ERC721/ERC721BasicToken.sol\":7794:7827  getApproved(_tokenId) == _spender */\n      0xffffffffffffffffffffffffffffffffffffffff\n      and\n      eq\n        /* \"contracts/ERC721/ERC721BasicToken.sol\":7773:7827  _spender == owner || getApproved(_tokenId) == _spender */\n    tag_164:\n        /* \"contracts/ERC721/ERC721BasicToken.sol\":7773:7864  _spender == owner || getApproved(_tokenId) == _spender || isApprovedForAll(owner, _spender) */\n      dup1\n      tag_166\n      jumpi\n      pop\n        /* \"contracts/ERC721/ERC721BasicToken.sol\":7831:7864  isApprovedForAll(owner, _spender) */\n      tag_167\n        /* \"contracts/ERC721/ERC721BasicToken.sol\":7848:7853  owner */\n      dup2\n        /* \"contracts/ERC721/ERC721BasicToken.sol\":7855:7863  _spender */\n      dup6\n        /* \"contracts/ERC721/ERC721BasicToken.sol\":7831:7847  isApprovedForAll */\n      tag_82\n        /* \"contracts/ERC721/ERC721BasicToken.sol\":7831:7864  isApprovedForAll(owner, _spender) */\n      jump\t// in\n    tag_167:\n        /* \"contracts/ERC721/ERC721BasicToken.sol\":7773:7864  _spender == owner || getApproved(_tokenId) == _spender || isApprovedForAll(owner, _spender) */\n    tag_166:\n        /* \"contracts/ERC721/ERC721BasicToken.sol\":7766:7864  return _spender == owner || getApproved(_tokenId) == _spender || isApprovedForAll(owner, _spender) */\n      swap2\n      pop\n        /* \"contracts/ERC721/ERC721BasicToken.sol\":7627:7870  function isApprovedOrOwner(address _spender, uint256 _tokenId) internal view returns (bool) {\r... */\n      pop\n      swap3\n      swap2\n      pop\n      pop\n      jump\t// out\n        /* \"contracts/ERC721/ERC721BasicToken.sol\":8946:9212  function clearApproval(address _owner, uint256 _tokenId) internal {\r... */\n    tag_109:\n        /* \"contracts/ERC721/ERC721BasicToken.sol\":9048:9054  _owner */\n      dup2\n        /* \"contracts/ERC721/ERC721BasicToken.sol\":9027:9054  ownerOf(_tokenId) == _owner */\n      0xffffffffffffffffffffffffffffffffffffffff\n      and\n        /* \"contracts/ERC721/ERC721BasicToken.sol\":9027:9044  ownerOf(_tokenId) */\n      tag_169\n        /* \"contracts/ERC721/ERC721BasicToken.sol\":9035:9043  _tokenId */\n      dup3\n        /* \"contracts/ERC721/ERC721BasicToken.sol\":9027:9034  ownerOf */\n      tag_53\n        /* \"contracts/ERC721/ERC721BasicToken.sol\":9027:9044  ownerOf(_tokenId) */\n      jump\t// in\n    tag_169:\n        /* \"contracts/ERC721/ERC721BasicToken.sol\":9027:9054  ownerOf(_tokenId) == _owner */\n      0xffffffffffffffffffffffffffffffffffffffff\n      and\n      eq\n        /* \"contracts/ERC721/ERC721BasicToken.sol\":9019:9055  require(ownerOf(_tokenId) == _owner) */\n      iszero\n      iszero\n      tag_170\n      jumpi\n      0x0\n      dup1\n      revert\n    tag_170:\n        /* \"contracts/ERC721/ERC721BasicToken.sol\":9102:9103  0 */\n      0x0\n        /* \"contracts/ERC721/ERC721BasicToken.sol\":9066:9104  tokenApprovals[_tokenId] != address(0) */\n      0xffffffffffffffffffffffffffffffffffffffff\n      and\n        /* \"contracts/ERC721/ERC721BasicToken.sol\":9066:9080  tokenApprovals */\n      0x1\n        /* \"contracts/ERC721/ERC721BasicToken.sol\":9066:9090  tokenApprovals[_tokenId] */\n      0x0\n        /* \"contracts/ERC721/ERC721BasicToken.sol\":9081:9089  _tokenId */\n      dup4\n        /* \"contracts/ERC721/ERC721BasicToken.sol\":9066:9090  tokenApprovals[_tokenId] */\n      dup2\n      mstore\n      0x20\n      add\n      swap1\n      dup2\n      mstore\n      0x20\n      add\n      0x0\n      keccak256\n      0x0\n      swap1\n      sload\n      swap1\n      0x100\n      exp\n      swap1\n      div\n      0xffffffffffffffffffffffffffffffffffffffff\n      and\n        /* \"contracts/ERC721/ERC721BasicToken.sol\":9066:9104  tokenApprovals[_tokenId] != address(0) */\n      0xffffffffffffffffffffffffffffffffffffffff\n      and\n      eq\n      iszero\n        /* \"contracts/ERC721/ERC721BasicToken.sol\":9062:9207  if (tokenApprovals[_tokenId] != address(0)) {\r... */\n      iszero\n      tag_171\n      jumpi\n        /* \"contracts/ERC721/ERC721BasicToken.sol\":9150:9151  0 */\n      0x0\n        /* \"contracts/ERC721/ERC721BasicToken.sol\":9115:9129  tokenApprovals */\n      0x1\n        /* \"contracts/ERC721/ERC721BasicToken.sol\":9115:9139  tokenApprovals[_tokenId] */\n      0x0\n        /* \"contracts/ERC721/ERC721BasicToken.sol\":9130:9138  _tokenId */\n      dup4\n        /* \"contracts/ERC721/ERC721BasicToken.sol\":9115:9139  tokenApprovals[_tokenId] */\n      dup2\n      mstore\n      0x20\n      add\n      swap1\n      dup2\n      mstore\n      0x20\n      add\n      0x0\n      keccak256\n      0x0\n        /* \"contracts/ERC721/ERC721BasicToken.sol\":9115:9152  tokenApprovals[_tokenId] = address(0) */\n      0x100\n      exp\n      dup2\n      sload\n      dup2\n      0xffffffffffffffffffffffffffffffffffffffff\n      mul\n      not\n      and\n      swap1\n      dup4\n      0xffffffffffffffffffffffffffffffffffffffff\n      and\n      mul\n      or\n      swap1\n      sstore\n      pop\n        /* \"contracts/ERC721/ERC721BasicToken.sol\":9186:9187  0 */\n      0x0\n        /* \"contracts/ERC721/ERC721BasicToken.sol\":9161:9199  Approval(_owner, address(0), _tokenId) */\n      0xffffffffffffffffffffffffffffffffffffffff\n      and\n        /* \"contracts/ERC721/ERC721BasicToken.sol\":9170:9176  _owner */\n      dup3\n        /* \"contracts/ERC721/ERC721BasicToken.sol\":9161:9199  Approval(_owner, address(0), _tokenId) */\n      0xffffffffffffffffffffffffffffffffffffffff\n      and\n      0x8c5be1e5ebec7d5bd14f71427d1e84f3dd0314c0f7b2291e5b200ac8c7c3b925\n        /* \"contracts/ERC721/ERC721BasicToken.sol\":9190:9198  _tokenId */\n      dup4\n        /* \"contracts/ERC721/ERC721BasicToken.sol\":9161:9199  Approval(_owner, address(0), _tokenId) */\n      mload(0x40)\n      dup1\n      dup3\n      dup2\n      mstore\n      0x20\n      add\n      swap2\n      pop\n      pop\n      mload(0x40)\n      dup1\n      swap2\n      sub\n      swap1\n      log3\n        /* \"contracts/ERC721/ERC721BasicToken.sol\":9062:9207  if (tokenApprovals[_tokenId] != address(0)) {\r... */\n    tag_171:\n        /* \"contracts/ERC721/ERC721BasicToken.sol\":8946:9212  function clearApproval(address _owner, uint256 _tokenId) internal {\r... */\n      pop\n      pop\n      jump\t// out\n        /* \"contracts/ERC721/ERC721Token.sol\":4324:5196  function removeTokenFrom(address _from, uint256 _tokenId) internal {\r... */\n    tag_111:\n        /* \"contracts/ERC721/ERC721Token.sol\":4445:4463  uint256 tokenIndex */\n      0x0\n        /* \"contracts/ERC721/ERC721Token.sol\":4499:4521  uint256 lastTokenIndex */\n      dup1\n        /* \"contracts/ERC721/ERC721Token.sol\":4563:4580  uint256 lastToken */\n      0x0\n        /* \"contracts/ERC721/ERC721Token.sol\":4398:4436  super.removeTokenFrom(_from, _tokenId) */\n      tag_173\n        /* \"contracts/ERC721/ERC721Token.sol\":4420:4425  _from */\n      dup6\n        /* \"contracts/ERC721/ERC721Token.sol\":4427:4435  _tokenId */\n      dup6\n        /* \"contracts/ERC721/ERC721Token.sol\":4398:4419  super.removeTokenFrom */\n      tag_174\n        /* \"contracts/ERC721/ERC721Token.sol\":4398:4436  super.removeTokenFrom(_from, _tokenId) */\n      jump\t// in\n    tag_173:\n        /* \"contracts/ERC721/ERC721Token.sol\":4466:4482  ownedTokensIndex */\n      0x7\n        /* \"contracts/ERC721/ERC721Token.sol\":4466:4492  ownedTokensIndex[_tokenId] */\n      0x0\n        /* \"contracts/ERC721/ERC721Token.sol\":4483:4491  _tokenId */\n      dup6\n        /* \"contracts/ERC721/ERC721Token.sol\":4466:4492  ownedTokensIndex[_tokenId] */\n      dup2\n      mstore\n      0x20\n      add\n      swap1\n      dup2\n      mstore\n      0x20\n      add\n      0x0\n      keccak256\n      sload\n        /* \"contracts/ERC721/ERC721Token.sol\":4445:4492  uint256 tokenIndex = ownedTokensIndex[_tokenId] */\n      swap3\n      pop\n        /* \"contracts/ERC721/ERC721Token.sol\":4524:4556  ownedTokens[_from].length.sub(1) */\n      tag_175\n        /* \"contracts/ERC721/ERC721Token.sol\":4554:4555  1 */\n      0x1\n        /* \"contracts/ERC721/ERC721Token.sol\":4524:4535  ownedTokens */\n      0x6\n        /* \"contracts/ERC721/ERC721Token.sol\":4524:4542  ownedTokens[_from] */\n      0x0\n        /* \"contracts/ERC721/ERC721Token.sol\":4536:4541  _from */\n      dup9\n        /* \"contracts/ERC721/ERC721Token.sol\":4524:4542  ownedTokens[_from] */\n      0xffffffffffffffffffffffffffffffffffffffff\n      and\n      0xffffffffffffffffffffffffffffffffffffffff\n      and\n      dup2\n      mstore\n      0x20\n      add\n      swap1\n      dup2\n      mstore\n      0x20\n      add\n      0x0\n      keccak256\n        /* \"contracts/ERC721/ERC721Token.sol\":4524:4549  ownedTokens[_from].length */\n      dup1\n      sload\n      swap1\n      pop\n        /* \"contracts/ERC721/ERC721Token.sol\":4524:4553  ownedTokens[_from].length.sub */\n      tag_176\n      swap1\n        /* \"contracts/ERC721/ERC721Token.sol\":4524:4556  ownedTokens[_from].length.sub(1) */\n      swap2\n      swap1\n      0xffffffff\n      and\n      jump\t// in\n    tag_175:\n        /* \"contracts/ERC721/ERC721Token.sol\":4499:4556  uint256 lastTokenIndex = ownedTokens[_from].length.sub(1) */\n      swap2\n      pop\n        /* \"contracts/ERC721/ERC721Token.sol\":4583:4594  ownedTokens */\n      0x6\n        /* \"contracts/ERC721/ERC721Token.sol\":4583:4601  ownedTokens[_from] */\n      0x0\n        /* \"contracts/ERC721/ERC721Token.sol\":4595:4600  _from */\n      dup7\n        /* \"contracts/ERC721/ERC721Token.sol\":4583:4601  ownedTokens[_from] */\n      0xffffffffffffffffffffffffffffffffffffffff\n      and\n      0xffffffffffffffffffffffffffffffffffffffff\n      and\n      dup2\n      mstore\n      0x20\n      add\n      swap1\n      dup2\n      mstore\n      0x20\n      add\n      0x0\n      keccak256\n        /* \"contracts/ERC721/ERC721Token.sol\":4602:4616  lastTokenIndex */\n      dup3\n        /* \"contracts/ERC721/ERC721Token.sol\":4583:4617  ownedTokens[_from][lastTokenIndex] */\n      dup2\n      sload\n      dup2\n      lt\n      iszero\n      iszero\n      tag_177\n      jumpi\n      invalid\n    tag_177:\n      swap1\n      0x0\n      mstore\n      keccak256(0x0, 0x20)\n      add\n      sload\n        /* \"contracts/ERC721/ERC721Token.sol\":4563:4617  uint256 lastToken = ownedTokens[_from][lastTokenIndex] */\n      swap1\n      pop\n        /* \"contracts/ERC721/ERC721Token.sol\":4659:4668  lastToken */\n      dup1\n        /* \"contracts/ERC721/ERC721Token.sol\":4626:4637  ownedTokens */\n      0x6\n        /* \"contracts/ERC721/ERC721Token.sol\":4626:4644  ownedTokens[_from] */\n      0x0\n        /* \"contracts/ERC721/ERC721Token.sol\":4638:4643  _from */\n      dup8\n        /* \"contracts/ERC721/ERC721Token.sol\":4626:4644  ownedTokens[_from] */\n      0xffffffffffffffffffffffffffffffffffffffff\n      and\n      0xffffffffffffffffffffffffffffffffffffffff\n      and\n      dup2\n      mstore\n      0x20\n      add\n      swap1\n      dup2\n      mstore\n      0x20\n      add\n      0x0\n      keccak256\n        /* \"contracts/ERC721/ERC721Token.sol\":4645:4655  tokenIndex */\n      dup5\n        /* \"contracts/ERC721/ERC721Token.sol\":4626:4656  ownedTokens[_from][tokenIndex] */\n      dup2\n      sload\n      dup2\n      lt\n      iszero\n      iszero\n      tag_179\n      jumpi\n      invalid\n    tag_179:\n      swap1\n      0x0\n      mstore\n      keccak256(0x0, 0x20)\n      add\n        /* \"contracts/ERC721/ERC721Token.sol\":4626:4668  ownedTokens[_from][tokenIndex] = lastToken */\n      dup2\n      swap1\n      sstore\n      pop\n        /* \"contracts/ERC721/ERC721Token.sol\":4712:4713  0 */\n      0x0\n        /* \"contracts/ERC721/ERC721Token.sol\":4675:4686  ownedTokens */\n      0x6\n        /* \"contracts/ERC721/ERC721Token.sol\":4675:4693  ownedTokens[_from] */\n      0x0\n        /* \"contracts/ERC721/ERC721Token.sol\":4687:4692  _from */\n      dup8\n        /* \"contracts/ERC721/ERC721Token.sol\":4675:4693  ownedTokens[_from] */\n      0xffffffffffffffffffffffffffffffffffffffff\n      and\n      0xffffffffffffffffffffffffffffffffffffffff\n      and\n      dup2\n      mstore\n      0x20\n      add\n      swap1\n      dup2\n      mstore\n      0x20\n      add\n      0x0\n      keccak256\n        /* \"contracts/ERC721/ERC721Token.sol\":4694:4708  lastTokenIndex */\n      dup4\n        /* \"contracts/ERC721/ERC721Token.sol\":4675:4709  ownedTokens[_from][lastTokenIndex] */\n      dup2\n      sload\n      dup2\n      lt\n      iszero\n      iszero\n      tag_181\n      jumpi\n      invalid\n    tag_181:\n      swap1\n      0x0\n      mstore\n      keccak256(0x0, 0x20)\n      add\n        /* \"contracts/ERC721/ERC721Token.sol\":4675:4713  ownedTokens[_from][lastTokenIndex] = 0 */\n      dup2\n      swap1\n      sstore\n      pop\n        /* \"contracts/ERC721/ERC721Token.sol\":5079:5090  ownedTokens */\n      0x6\n        /* \"contracts/ERC721/ERC721Token.sol\":5079:5097  ownedTokens[_from] */\n      0x0\n        /* \"contracts/ERC721/ERC721Token.sol\":5091:5096  _from */\n      dup7\n        /* \"contracts/ERC721/ERC721Token.sol\":5079:5097  ownedTokens[_from] */\n      0xffffffffffffffffffffffffffffffffffffffff\n      and\n      0xffffffffffffffffffffffffffffffffffffffff\n      and\n      dup2\n      mstore\n      0x20\n      add\n      swap1\n      dup2\n      mstore\n      0x20\n      add\n      0x0\n      keccak256\n        /* \"contracts/ERC721/ERC721Token.sol\":5079:5106  ownedTokens[_from].length-- */\n      dup1\n      sload\n      dup1\n      swap2\n      swap1\n      0x1\n      swap1\n      sub\n      tag_183\n      swap2\n      swap1\n      jump\t// in(tag_184)\n    tag_183:\n      pop\n        /* \"contracts/ERC721/ERC721Token.sol\":5142:5143  0 */\n      0x0\n        /* \"contracts/ERC721/ERC721Token.sol\":5113:5129  ownedTokensIndex */\n      0x7\n        /* \"contracts/ERC721/ERC721Token.sol\":5113:5139  ownedTokensIndex[_tokenId] */\n      0x0\n        /* \"contracts/ERC721/ERC721Token.sol\":5130:5138  _tokenId */\n      dup7\n        /* \"contracts/ERC721/ERC721Token.sol\":5113:5139  ownedTokensIndex[_tokenId] */\n      dup2\n      mstore\n      0x20\n      add\n      swap1\n      dup2\n      mstore\n      0x20\n      add\n      0x0\n      keccak256\n        /* \"contracts/ERC721/ERC721Token.sol\":5113:5143  ownedTokensIndex[_tokenId] = 0 */\n      dup2\n      swap1\n      sstore\n      pop\n        /* \"contracts/ERC721/ERC721Token.sol\":5180:5190  tokenIndex */\n      dup3\n        /* \"contracts/ERC721/ERC721Token.sol\":5150:5166  ownedTokensIndex */\n      0x7\n        /* \"contracts/ERC721/ERC721Token.sol\":5150:5177  ownedTokensIndex[lastToken] */\n      0x0\n        /* \"contracts/ERC721/ERC721Token.sol\":5167:5176  lastToken */\n      dup4\n        /* \"contracts/ERC721/ERC721Token.sol\":5150:5177  ownedTokensIndex[lastToken] */\n      dup2\n      mstore\n      0x20\n      add\n      swap1\n      dup2\n      mstore\n      0x20\n      add\n      0x0\n      keccak256\n        /* \"contracts/ERC721/ERC721Token.sol\":5150:5190  ownedTokensIndex[lastToken] = tokenIndex */\n      dup2\n      swap1\n      sstore\n      pop\n        /* \"contracts/ERC721/ERC721Token.sol\":4324:5196  function removeTokenFrom(address _from, uint256 _tokenId) internal {\r... */\n      pop\n      pop\n      pop\n      pop\n      pop\n      jump\t// out\n        /* \"contracts/ERC721/ERC721Token.sol\":3811:4042  function addTokenTo(address _to, uint256 _tokenId) internal {\r... */\n    tag_113:\n        /* \"contracts/ERC721/ERC721Token.sol\":3916:3930  uint256 length */\n      0x0\n        /* \"contracts/ERC721/ERC721Token.sol\":3878:3909  super.addTokenTo(_to, _tokenId) */\n      tag_186\n        /* \"contracts/ERC721/ERC721Token.sol\":3895:3898  _to */\n      dup4\n        /* \"contracts/ERC721/ERC721Token.sol\":3900:3908  _tokenId */\n      dup4\n        /* \"contracts/ERC721/ERC721Token.sol\":3878:3894  super.addTokenTo */\n      tag_187\n        /* \"contracts/ERC721/ERC721Token.sol\":3878:3909  super.addTokenTo(_to, _tokenId) */\n      jump\t// in\n    tag_186:\n        /* \"contracts/ERC721/ERC721Token.sol\":3933:3944  ownedTokens */\n      0x6\n        /* \"contracts/ERC721/ERC721Token.sol\":3933:3949  ownedTokens[_to] */\n      0x0\n        /* \"contracts/ERC721/ERC721Token.sol\":3945:3948  _to */\n      dup5\n        /* \"contracts/ERC721/ERC721Token.sol\":3933:3949  ownedTokens[_to] */\n      0xffffffffffffffffffffffffffffffffffffffff\n      and\n      0xffffffffffffffffffffffffffffffffffffffff\n      and\n      dup2\n      mstore\n      0x20\n      add\n      swap1\n      dup2\n      mstore\n      0x20\n      add\n      0x0\n      keccak256\n        /* \"contracts/ERC721/ERC721Token.sol\":3933:3956  ownedTokens[_to].length */\n      dup1\n      sload\n      swap1\n      pop\n        /* \"contracts/ERC721/ERC721Token.sol\":3916:3956  uint256 length = ownedTokens[_to].length */\n      swap1\n      pop\n        /* \"contracts/ERC721/ERC721Token.sol\":3963:3974  ownedTokens */\n      0x6\n        /* \"contracts/ERC721/ERC721Token.sol\":3963:3979  ownedTokens[_to] */\n      0x0\n        /* \"contracts/ERC721/ERC721Token.sol\":3975:3978  _to */\n      dup5\n        /* \"contracts/ERC721/ERC721Token.sol\":3963:3979  ownedTokens[_to] */\n      0xffffffffffffffffffffffffffffffffffffffff\n      and\n      0xffffffffffffffffffffffffffffffffffffffff\n      and\n      dup2\n      mstore\n      0x20\n      add\n      swap1\n      dup2\n      mstore\n      0x20\n      add\n      0x0\n      keccak256\n        /* \"contracts/ERC721/ERC721Token.sol\":3985:3993  _tokenId */\n      dup3\n        /* \"contracts/ERC721/ERC721Token.sol\":3963:3994  ownedTokens[_to].push(_tokenId) */\n      swap1\n      dup1\n        /* \"--CODEGEN--\":39:40   */\n      0x1\n        /* \"--CODEGEN--\":33:36   */\n      dup2\n        /* \"--CODEGEN--\":27:37   */\n      sload\n        /* \"--CODEGEN--\":23:41   */\n      add\n        /* \"--CODEGEN--\":57:67   */\n      dup1\n        /* \"--CODEGEN--\":52:55   */\n      dup3\n        /* \"--CODEGEN--\":45:68   */\n      sstore\n        /* \"--CODEGEN--\":79:89   */\n      dup1\n        /* \"--CODEGEN--\":72:89   */\n      swap2\n      pop\n        /* \"--CODEGEN--\":0:93   */\n      pop\n        /* \"contracts/ERC721/ERC721Token.sol\":3963:3994  ownedTokens[_to].push(_tokenId) */\n      swap1\n      0x1\n      dup3\n      sub\n      swap1\n      0x0\n      mstore\n      keccak256(0x0, 0x20)\n      add\n      0x0\n      swap1\n      swap2\n      swap3\n      swap1\n      swap2\n      swap1\n      swap2\n      pop\n      sstore\n      pop\n        /* \"contracts/ERC721/ERC721Token.sol\":4030:4036  length */\n      dup1\n        /* \"contracts/ERC721/ERC721Token.sol\":4001:4017  ownedTokensIndex */\n      0x7\n        /* \"contracts/ERC721/ERC721Token.sol\":4001:4027  ownedTokensIndex[_tokenId] */\n      0x0\n        /* \"contracts/ERC721/ERC721Token.sol\":4018:4026  _tokenId */\n      dup5\n        /* \"contracts/ERC721/ERC721Token.sol\":4001:4027  ownedTokensIndex[_tokenId] */\n      dup2\n      mstore\n      0x20\n      add\n      swap1\n      dup2\n      mstore\n      0x20\n      add\n      0x0\n      keccak256\n        /* \"contracts/ERC721/ERC721Token.sol\":4001:4036  ownedTokensIndex[_tokenId] = length */\n      dup2\n      swap1\n      sstore\n      pop\n        /* \"contracts/ERC721/ERC721Token.sol\":3811:4042  function addTokenTo(address _to, uint256 _tokenId) internal {\r... */\n      pop\n      pop\n      pop\n      jump\t// out\n        /* \"contracts/ERC721/ERC721BasicToken.sol\":10700:11042  function checkAndCallSafeTransfer(\r... */\n    tag_146:\n        /* \"contracts/ERC721/ERC721BasicToken.sol\":10846:10850  bool */\n      0x0\n        /* \"contracts/ERC721/ERC721BasicToken.sol\":10919:10932  bytes4 retval */\n      dup1\n        /* \"contracts/ERC721/ERC721BasicToken.sol\":10867:10883  _to.isContract() */\n      tag_190\n        /* \"contracts/ERC721/ERC721BasicToken.sol\":10867:10870  _to */\n      dup6\n        /* \"contracts/ERC721/ERC721BasicToken.sol\":10867:10881  _to.isContract */\n      0xffffffffffffffffffffffffffffffffffffffff\n      and\n      tag_191\n        /* \"contracts/ERC721/ERC721BasicToken.sol\":10867:10883  _to.isContract() */\n      jump\t// in\n    tag_190:\n        /* \"contracts/ERC721/ERC721BasicToken.sol\":10866:10883  !_to.isContract() */\n      iszero\n        /* \"contracts/ERC721/ERC721BasicToken.sol\":10862:10913  if (!_to.isContract()) {\r... */\n      iszero\n      tag_192\n      jumpi\n        /* \"contracts/ERC721/ERC721BasicToken.sol\":10901:10905  true */\n      0x1\n        /* \"contracts/ERC721/ERC721BasicToken.sol\":10894:10905  return true */\n      swap2\n      pop\n      jump(tag_189)\n        /* \"contracts/ERC721/ERC721BasicToken.sol\":10862:10913  if (!_to.isContract()) {\r... */\n    tag_192:\n        /* \"contracts/ERC721/ERC721BasicToken.sol\":10950:10953  _to */\n      dup5\n        /* \"contracts/ERC721/ERC721BasicToken.sol\":10935:10971  ERC721Receiver(_to).onERC721Received */\n      0xffffffffffffffffffffffffffffffffffffffff\n      and\n      0xf0b9e5ba\n        /* \"contracts/ERC721/ERC721BasicToken.sol\":10972:10977  _from */\n      dup8\n        /* \"contracts/ERC721/ERC721BasicToken.sol\":10979:10987  _tokenId */\n      dup7\n        /* \"contracts/ERC721/ERC721BasicToken.sol\":10989:10994  _data */\n      dup7\n        /* \"contracts/ERC721/ERC721BasicToken.sol\":10935:10995  ERC721Receiver(_to).onERC721Received(_from, _tokenId, _data) */\n      mload(0x40)\n      dup5\n      0xffffffff\n      and\n      0x100000000000000000000000000000000000000000000000000000000\n      mul\n      dup2\n      mstore\n      0x4\n      add\n      dup1\n      dup5\n      0xffffffffffffffffffffffffffffffffffffffff\n      and\n      0xffffffffffffffffffffffffffffffffffffffff\n      and\n      dup2\n      mstore\n      0x20\n      add\n      dup4\n      dup2\n      mstore\n      0x20\n      add\n      dup1\n      0x20\n      add\n      dup3\n      dup2\n      sub\n      dup3\n      mstore\n      dup4\n      dup2\n      dup2\n      mload\n      dup2\n      mstore\n      0x20\n      add\n      swap2\n      pop\n      dup1\n      mload\n      swap1\n      0x20\n      add\n      swap1\n      dup1\n      dup4\n      dup4\n        /* \"--CODEGEN--\":23:24   */\n      0x0\n        /* \"--CODEGEN--\":8:108   */\n    tag_193:\n        /* \"--CODEGEN--\":33:36   */\n      dup4\n        /* \"--CODEGEN--\":30:31   */\n      dup2\n        /* \"--CODEGEN--\":27:37   */\n      lt\n        /* \"--CODEGEN--\":8:108   */\n      iszero\n      tag_194\n      jumpi\n        /* \"--CODEGEN--\":99:100   */\n      dup1\n        /* \"--CODEGEN--\":94:97   */\n      dup3\n        /* \"--CODEGEN--\":90:101   */\n      add\n        /* \"--CODEGEN--\":84:102   */\n      mload\n        /* \"--CODEGEN--\":80:81   */\n      dup2\n        /* \"--CODEGEN--\":75:78   */\n      dup5\n        /* \"--CODEGEN--\":71:82   */\n      add\n        /* \"--CODEGEN--\":64:103   */\n      mstore\n        /* \"--CODEGEN--\":52:54   */\n      0x20\n        /* \"--CODEGEN--\":49:50   */\n      dup2\n        /* \"--CODEGEN--\":45:55   */\n      add\n        /* \"--CODEGEN--\":40:55   */\n      swap1\n      pop\n        /* \"--CODEGEN--\":8:108   */\n      jump(tag_193)\n    tag_194:\n        /* \"--CODEGEN--\":12:26   */\n      pop\n        /* \"contracts/ERC721/ERC721BasicToken.sol\":10935:10995  ERC721Receiver(_to).onERC721Received(_from, _tokenId, _data) */\n      pop\n      pop\n      pop\n      swap1\n      pop\n      swap1\n      dup2\n      add\n      swap1\n      0x1f\n      and\n      dup1\n      iszero\n      tag_196\n      jumpi\n      dup1\n      dup3\n      sub\n      dup1\n      mload\n      0x1\n      dup4\n      0x20\n      sub\n      0x100\n      exp\n      sub\n      not\n      and\n      dup2\n      mstore\n      0x20\n      add\n      swap2\n      pop\n    tag_196:\n      pop\n      swap5\n      pop\n      pop\n      pop\n      pop\n      pop\n      0x20\n      mload(0x40)\n      dup1\n      dup4\n      sub\n      dup2\n      0x0\n      dup8\n      dup1\n      extcodesize\n      iszero\n        /* \"--CODEGEN--\":8:17   */\n      dup1\n        /* \"--CODEGEN--\":5:7   */\n      iszero\n      tag_197\n      jumpi\n        /* \"--CODEGEN--\":30:31   */\n      0x0\n        /* \"--CODEGEN--\":27:28   */\n      dup1\n        /* \"--CODEGEN--\":20:32   */\n      revert\n        /* \"--CODEGEN--\":5:7   */\n    tag_197:\n        /* \"contracts/ERC721/ERC721BasicToken.sol\":10935:10995  ERC721Receiver(_to).onERC721Received(_from, _tokenId, _data) */\n      pop\n      gas\n      call\n      iszero\n        /* \"--CODEGEN--\":8:17   */\n      dup1\n        /* \"--CODEGEN--\":5:7   */\n      iszero\n      tag_198\n      jumpi\n        /* \"--CODEGEN--\":45:61   */\n      returndatasize\n        /* \"--CODEGEN--\":42:43   */\n      0x0\n        /* \"--CODEGEN--\":39:40   */\n      dup1\n        /* \"--CODEGEN--\":24:62   */\n      returndatacopy\n        /* \"--CODEGEN--\":77:93   */\n      returndatasize\n        /* \"--CODEGEN--\":74:75   */\n      0x0\n        /* \"--CODEGEN--\":67:94   */\n      revert\n        /* \"--CODEGEN--\":5:7   */\n    tag_198:\n        /* \"contracts/ERC721/ERC721BasicToken.sol\":10935:10995  ERC721Receiver(_to).onERC721Received(_from, _tokenId, _data) */\n      pop\n      pop\n      pop\n      pop\n      mload(0x40)\n      returndatasize\n        /* \"--CODEGEN--\":13:15   */\n      0x20\n        /* \"--CODEGEN--\":8:11   */\n      dup2\n        /* \"--CODEGEN--\":5:16   */\n      lt\n        /* \"--CODEGEN--\":2:4   */\n      iszero\n      tag_199\n      jumpi\n        /* \"--CODEGEN--\":29:30   */\n      0x0\n        /* \"--CODEGEN--\":26:27   */\n      dup1\n        /* \"--CODEGEN--\":19:31   */\n      revert\n        /* \"--CODEGEN--\":2:4   */\n    tag_199:\n        /* \"contracts/ERC721/ERC721BasicToken.sol\":10935:10995  ERC721Receiver(_to).onERC721Received(_from, _tokenId, _data) */\n      dup2\n      add\n      swap1\n      dup1\n      dup1\n      mload\n      swap1\n      0x20\n      add\n      swap1\n      swap3\n      swap2\n      swap1\n      pop\n      pop\n      pop\n        /* \"contracts/ERC721/ERC721BasicToken.sol\":10919:10995  bytes4 retval = ERC721Receiver(_to).onERC721Received(_from, _tokenId, _data) */\n      swap1\n      pop\n        /* \"contracts/ERC721/ERC721BasicToken.sol\":628:638  0xf0b9e5ba */\n      0xf0b9e5ba\n        /* \"contracts/ERC721/ERC721BasicToken.sol\":11020:11035  ERC721_RECEIVED */\n      0x100000000000000000000000000000000000000000000000000000000\n      mul\n        /* \"contracts/ERC721/ERC721BasicToken.sol\":11010:11035  retval == ERC721_RECEIVED */\n      not(0xffffffffffffffffffffffffffffffffffffffffffffffffffffffff)\n      and\n        /* \"contracts/ERC721/ERC721BasicToken.sol\":11010:11016  retval */\n      dup2\n        /* \"contracts/ERC721/ERC721BasicToken.sol\":11010:11035  retval == ERC721_RECEIVED */\n      not(0xffffffffffffffffffffffffffffffffffffffffffffffffffffffff)\n      and\n      eq\n        /* \"contracts/ERC721/ERC721BasicToken.sol\":11002:11036  return (retval == ERC721_RECEIVED) */\n      swap2\n      pop\n        /* \"contracts/ERC721/ERC721BasicToken.sol\":10700:11042  function checkAndCallSafeTransfer(\r... */\n    tag_189:\n      pop\n      swap5\n      swap4\n      pop\n      pop\n      pop\n      pop\n      jump\t// out\n        /* \"contracts/ERC721/ERC721Token.sol\":3412:3545  function _setTokenURI(uint256 _tokenId, string _uri) internal {\r... */\n    tag_156:\n        /* \"contracts/ERC721/ERC721Token.sol\":3489:3505  exists(_tokenId) */\n      tag_201\n        /* \"contracts/ERC721/ERC721Token.sol\":3496:3504  _tokenId */\n      dup3\n        /* \"contracts/ERC721/ERC721Token.sol\":3489:3495  exists */\n      tag_47\n        /* \"contracts/ERC721/ERC721Token.sol\":3489:3505  exists(_tokenId) */\n      jump\t// in\n    tag_201:\n        /* \"contracts/ERC721/ERC721Token.sol\":3481:3506  require(exists(_tokenId)) */\n      iszero\n      iszero\n      tag_202\n      jumpi\n      0x0\n      dup1\n      revert\n    tag_202:\n        /* \"contracts/ERC721/ERC721Token.sol\":3535:3539  _uri */\n      dup1\n        /* \"contracts/ERC721/ERC721Token.sol\":3513:3522  tokenURIs */\n      0xa\n        /* \"contracts/ERC721/ERC721Token.sol\":3513:3532  tokenURIs[_tokenId] */\n      0x0\n        /* \"contracts/ERC721/ERC721Token.sol\":3523:3531  _tokenId */\n      dup5\n        /* \"contracts/ERC721/ERC721Token.sol\":3513:3532  tokenURIs[_tokenId] */\n      dup2\n      mstore\n      0x20\n      add\n      swap1\n      dup2\n      mstore\n      0x20\n      add\n      0x0\n      keccak256\n        /* \"contracts/ERC721/ERC721Token.sol\":3513:3539  tokenURIs[_tokenId] = _uri */\n      swap1\n      dup1\n      mload\n      swap1\n      0x20\n      add\n      swap1\n      tag_203\n      swap3\n      swap2\n      swap1\n      jump\t// in(tag_204)\n    tag_203:\n      pop\n        /* \"contracts/ERC721/ERC721Token.sol\":3412:3545  function _setTokenURI(uint256 _tokenId, string _uri) internal {\r... */\n      pop\n      pop\n      jump\t// out\n        /* \"contracts/ERC721/ERC721Token.sol\":5465:5642  function _mint(address _to, uint256 _tokenId) internal {\r... */\n    tag_160:\n        /* \"contracts/ERC721/ERC721Token.sol\":5527:5553  super._mint(_to, _tokenId) */\n      tag_206\n        /* \"contracts/ERC721/ERC721Token.sol\":5539:5542  _to */\n      dup3\n        /* \"contracts/ERC721/ERC721Token.sol\":5544:5552  _tokenId */\n      dup3\n        /* \"contracts/ERC721/ERC721Token.sol\":5527:5538  super._mint */\n      tag_207\n        /* \"contracts/ERC721/ERC721Token.sol\":5527:5553  super._mint(_to, _tokenId) */\n      jump\t// in\n    tag_206:\n        /* \"contracts/ERC721/ERC721Token.sol\":5589:5598  allTokens */\n      0x8\n        /* \"contracts/ERC721/ERC721Token.sol\":5589:5605  allTokens.length */\n      dup1\n      sload\n      swap1\n      pop\n        /* \"contracts/ERC721/ERC721Token.sol\":5562:5576  allTokensIndex */\n      0x9\n        /* \"contracts/ERC721/ERC721Token.sol\":5562:5586  allTokensIndex[_tokenId] */\n      0x0\n        /* \"contracts/ERC721/ERC721Token.sol\":5577:5585  _tokenId */\n      dup4\n        /* \"contracts/ERC721/ERC721Token.sol\":5562:5586  allTokensIndex[_tokenId] */\n      dup2\n      mstore\n      0x20\n      add\n      swap1\n      dup2\n      mstore\n      0x20\n      add\n      0x0\n      keccak256\n        /* \"contracts/ERC721/ERC721Token.sol\":5562:5605  allTokensIndex[_tokenId] = allTokens.length */\n      dup2\n      swap1\n      sstore\n      pop\n        /* \"contracts/ERC721/ERC721Token.sol\":5612:5621  allTokens */\n      0x8\n        /* \"contracts/ERC721/ERC721Token.sol\":5627:5635  _tokenId */\n      dup2\n        /* \"contracts/ERC721/ERC721Token.sol\":5612:5636  allTokens.push(_tokenId) */\n      swap1\n      dup1\n        /* \"--CODEGEN--\":39:40   */\n      0x1\n        /* \"--CODEGEN--\":33:36   */\n      dup2\n        /* \"--CODEGEN--\":27:37   */\n      sload\n        /* \"--CODEGEN--\":23:41   */\n      add\n        /* \"--CODEGEN--\":57:67   */\n      dup1\n        /* \"--CODEGEN--\":52:55   */\n      dup3\n        /* \"--CODEGEN--\":45:68   */\n      sstore\n        /* \"--CODEGEN--\":79:89   */\n      dup1\n        /* \"--CODEGEN--\":72:89   */\n      swap2\n      pop\n        /* \"--CODEGEN--\":0:93   */\n      pop\n        /* \"contracts/ERC721/ERC721Token.sol\":5612:5636  allTokens.push(_tokenId) */\n      swap1\n      0x1\n      dup3\n      sub\n      swap1\n      0x0\n      mstore\n      keccak256(0x0, 0x20)\n      add\n      0x0\n      swap1\n      swap2\n      swap3\n      swap1\n      swap2\n      swap1\n      swap2\n      pop\n      sstore\n      pop\n        /* \"contracts/ERC721/ERC721Token.sol\":5465:5642  function _mint(address _to, uint256 _tokenId) internal {\r... */\n      pop\n      pop\n      jump\t// out\n        /* \"contracts/ERC721/ERC721BasicToken.sol\":9968:10186  function removeTokenFrom(address _from, uint256 _tokenId) internal {\r... */\n    tag_174:\n        /* \"contracts/ERC721/ERC721BasicToken.sol\":10071:10076  _from */\n      dup2\n        /* \"contracts/ERC721/ERC721BasicToken.sol\":10050:10076  ownerOf(_tokenId) == _from */\n      0xffffffffffffffffffffffffffffffffffffffff\n      and\n        /* \"contracts/ERC721/ERC721BasicToken.sol\":10050:10067  ownerOf(_tokenId) */\n      tag_210\n        /* \"contracts/ERC721/ERC721BasicToken.sol\":10058:10066  _tokenId */\n      dup3\n        /* \"contracts/ERC721/ERC721BasicToken.sol\":10050:10057  ownerOf */\n      tag_53\n        /* \"contracts/ERC721/ERC721BasicToken.sol\":10050:10067  ownerOf(_tokenId) */\n      jump\t// in\n    tag_210:\n        /* \"contracts/ERC721/ERC721BasicToken.sol\":10050:10076  ownerOf(_tokenId) == _from */\n      0xffffffffffffffffffffffffffffffffffffffff\n      and\n      eq\n        /* \"contracts/ERC721/ERC721BasicToken.sol\":10042:10077  require(ownerOf(_tokenId) == _from) */\n      iszero\n      iszero\n      tag_211\n      jumpi\n      0x0\n      dup1\n      revert\n    tag_211:\n        /* \"contracts/ERC721/ERC721BasicToken.sol\":10110:10140  ownedTokensCount[_from].sub(1) */\n      tag_212\n        /* \"contracts/ERC721/ERC721BasicToken.sol\":10138:10139  1 */\n      0x1\n        /* \"contracts/ERC721/ERC721BasicToken.sol\":10110:10126  ownedTokensCount */\n      0x2\n        /* \"contracts/ERC721/ERC721BasicToken.sol\":10110:10133  ownedTokensCount[_from] */\n      0x0\n        /* \"contracts/ERC721/ERC721BasicToken.sol\":10127:10132  _from */\n      dup6\n        /* \"contracts/ERC721/ERC721BasicToken.sol\":10110:10133  ownedTokensCount[_from] */\n      0xffffffffffffffffffffffffffffffffffffffff\n      and\n      0xffffffffffffffffffffffffffffffffffffffff\n      and\n      dup2\n      mstore\n      0x20\n      add\n      swap1\n      dup2\n      mstore\n      0x20\n      add\n      0x0\n      keccak256\n      sload\n        /* \"contracts/ERC721/ERC721BasicToken.sol\":10110:10137  ownedTokensCount[_from].sub */\n      tag_176\n      swap1\n        /* \"contracts/ERC721/ERC721BasicToken.sol\":10110:10140  ownedTokensCount[_from].sub(1) */\n      swap2\n      swap1\n      0xffffffff\n      and\n      jump\t// in\n    tag_212:\n        /* \"contracts/ERC721/ERC721BasicToken.sol\":10084:10100  ownedTokensCount */\n      0x2\n        /* \"contracts/ERC721/ERC721BasicToken.sol\":10084:10107  ownedTokensCount[_from] */\n      0x0\n        /* \"contracts/ERC721/ERC721BasicToken.sol\":10101:10106  _from */\n      dup5\n        /* \"contracts/ERC721/ERC721BasicToken.sol\":10084:10107  ownedTokensCount[_from] */\n      0xffffffffffffffffffffffffffffffffffffffff\n      and\n      0xffffffffffffffffffffffffffffffffffffffff\n      and\n      dup2\n      mstore\n      0x20\n      add\n      swap1\n      dup2\n      mstore\n      0x20\n      add\n      0x0\n      keccak256\n        /* \"contracts/ERC721/ERC721BasicToken.sol\":10084:10140  ownedTokensCount[_from] = ownedTokensCount[_from].sub(1) */\n      dup2\n      swap1\n      sstore\n      pop\n        /* \"contracts/ERC721/ERC721BasicToken.sol\":10178:10179  0 */\n      0x0\n        /* \"contracts/ERC721/ERC721BasicToken.sol\":10147:10157  tokenOwner */\n      dup1\n        /* \"contracts/ERC721/ERC721BasicToken.sol\":10147:10167  tokenOwner[_tokenId] */\n      0x0\n        /* \"contracts/ERC721/ERC721BasicToken.sol\":10158:10166  _tokenId */\n      dup4\n        /* \"contracts/ERC721/ERC721BasicToken.sol\":10147:10167  tokenOwner[_tokenId] */\n      dup2\n      mstore\n      0x20\n      add\n      swap1\n      dup2\n      mstore\n      0x20\n      add\n      0x0\n      keccak256\n      0x0\n        /* \"contracts/ERC721/ERC721BasicToken.sol\":10147:10180  tokenOwner[_tokenId] = address(0) */\n      0x100\n      exp\n      dup2\n      sload\n      dup2\n      0xffffffffffffffffffffffffffffffffffffffff\n      mul\n      not\n      and\n      swap1\n      dup4\n      0xffffffffffffffffffffffffffffffffffffffff\n      and\n      mul\n      or\n      swap1\n      sstore\n      pop\n        /* \"contracts/ERC721/ERC721BasicToken.sol\":9968:10186  function removeTokenFrom(address _from, uint256 _tokenId) internal {\r... */\n      pop\n      pop\n      jump\t// out\n        /* \"contracts/utils/math/SafeMath.sol\":876:989  function sub(uint256 a, uint256 b) internal pure returns (uint256) {\r... */\n    tag_176:\n        /* \"contracts/utils/math/SafeMath.sol\":934:941  uint256 */\n      0x0\n        /* \"contracts/utils/math/SafeMath.sol\":962:963  a */\n      dup3\n        /* \"contracts/utils/math/SafeMath.sol\":957:958  b */\n      dup3\n        /* \"contracts/utils/math/SafeMath.sol\":957:963  b <= a */\n      gt\n      iszero\n        /* \"contracts/utils/math/SafeMath.sol\":950:964  assert(b <= a) */\n      iszero\n      iszero\n      tag_214\n      jumpi\n      invalid\n    tag_214:\n        /* \"contracts/utils/math/SafeMath.sol\":982:983  b */\n      dup2\n        /* \"contracts/utils/math/SafeMath.sol\":978:979  a */\n      dup4\n        /* \"contracts/utils/math/SafeMath.sol\":978:983  a - b */\n      sub\n        /* \"contracts/utils/math/SafeMath.sol\":971:983  return a - b */\n      swap1\n      pop\n        /* \"contracts/utils/math/SafeMath.sol\":876:989  function sub(uint256 a, uint256 b) internal pure returns (uint256) {\r... */\n      swap3\n      swap2\n      pop\n      pop\n      jump\t// out\n        /* \"contracts/ERC721/ERC721BasicToken.sol\":9478:9686  function addTokenTo(address _to, uint256 _tokenId) internal {\r... */\n    tag_187:\n        /* \"contracts/ERC721/ERC721BasicToken.sol\":9585:9586  0 */\n      0x0\n        /* \"contracts/ERC721/ERC721BasicToken.sol\":9553:9587  tokenOwner[_tokenId] == address(0) */\n      0xffffffffffffffffffffffffffffffffffffffff\n      and\n        /* \"contracts/ERC721/ERC721BasicToken.sol\":9553:9563  tokenOwner */\n      0x0\n        /* \"contracts/ERC721/ERC721BasicToken.sol\":9553:9573  tokenOwner[_tokenId] */\n      dup1\n        /* \"contracts/ERC721/ERC721BasicToken.sol\":9564:9572  _tokenId */\n      dup4\n        /* \"contracts/ERC721/ERC721BasicToken.sol\":9553:9573  tokenOwner[_tokenId] */\n      dup2\n      mstore\n      0x20\n      add\n      swap1\n      dup2\n      mstore\n      0x20\n      add\n      0x0\n      keccak256\n      0x0\n      swap1\n      sload\n      swap1\n      0x100\n      exp\n      swap1\n      div\n      0xffffffffffffffffffffffffffffffffffffffff\n      and\n        /* \"contracts/ERC721/ERC721BasicToken.sol\":9553:9587  tokenOwner[_tokenId] == address(0) */\n      0xffffffffffffffffffffffffffffffffffffffff\n      and\n      eq\n        /* \"contracts/ERC721/ERC721BasicToken.sol\":9545:9588  require(tokenOwner[_tokenId] == address(0)) */\n      iszero\n      iszero\n      tag_216\n      jumpi\n      0x0\n      dup1\n      revert\n    tag_216:\n        /* \"contracts/ERC721/ERC721BasicToken.sol\":9618:9621  _to */\n      dup2\n        /* \"contracts/ERC721/ERC721BasicToken.sol\":9595:9605  tokenOwner */\n      0x0\n        /* \"contracts/ERC721/ERC721BasicToken.sol\":9595:9615  tokenOwner[_tokenId] */\n      dup1\n        /* \"contracts/ERC721/ERC721BasicToken.sol\":9606:9614  _tokenId */\n      dup4\n        /* \"contracts/ERC721/ERC721BasicToken.sol\":9595:9615  tokenOwner[_tokenId] */\n      dup2\n      mstore\n      0x20\n      add\n      swap1\n      dup2\n      mstore\n      0x20\n      add\n      0x0\n      keccak256\n      0x0\n        /* \"contracts/ERC721/ERC721BasicToken.sol\":9595:9621  tokenOwner[_tokenId] = _to */\n      0x100\n      exp\n      dup2\n      sload\n      dup2\n      0xffffffffffffffffffffffffffffffffffffffff\n      mul\n      not\n      and\n      swap1\n      dup4\n      0xffffffffffffffffffffffffffffffffffffffff\n      and\n      mul\n      or\n      swap1\n      sstore\n      pop\n        /* \"contracts/ERC721/ERC721BasicToken.sol\":9652:9680  ownedTokensCount[_to].add(1) */\n      tag_217\n        /* \"contracts/ERC721/ERC721BasicToken.sol\":9678:9679  1 */\n      0x1\n        /* \"contracts/ERC721/ERC721BasicToken.sol\":9652:9668  ownedTokensCount */\n      0x2\n        /* \"contracts/ERC721/ERC721BasicToken.sol\":9652:9673  ownedTokensCount[_to] */\n      0x0\n        /* \"contracts/ERC721/ERC721BasicToken.sol\":9669:9672  _to */\n      dup6\n        /* \"contracts/ERC721/ERC721BasicToken.sol\":9652:9673  ownedTokensCount[_to] */\n      0xffffffffffffffffffffffffffffffffffffffff\n      and\n      0xffffffffffffffffffffffffffffffffffffffff\n      and\n      dup2\n      mstore\n      0x20\n      add\n      swap1\n      dup2\n      mstore\n      0x20\n      add\n      0x0\n      keccak256\n      sload\n        /* \"contracts/ERC721/ERC721BasicToken.sol\":9652:9677  ownedTokensCount[_to].add */\n      tag_218\n      swap1\n        /* \"contracts/ERC721/ERC721BasicToken.sol\":9652:9680  ownedTokensCount[_to].add(1) */\n      swap2\n      swap1\n      0xffffffff\n      and\n      jump\t// in\n    tag_217:\n        /* \"contracts/ERC721/ERC721BasicToken.sol\":9628:9644  ownedTokensCount */\n      0x2\n        /* \"contracts/ERC721/ERC721BasicToken.sol\":9628:9649  ownedTokensCount[_to] */\n      0x0\n        /* \"contracts/ERC721/ERC721BasicToken.sol\":9645:9648  _to */\n      dup5\n        /* \"contracts/ERC721/ERC721BasicToken.sol\":9628:9649  ownedTokensCount[_to] */\n      0xffffffffffffffffffffffffffffffffffffffff\n      and\n      0xffffffffffffffffffffffffffffffffffffffff\n      and\n      dup2\n      mstore\n      0x20\n      add\n      swap1\n      dup2\n      mstore\n      0x20\n      add\n      0x0\n      keccak256\n        /* \"contracts/ERC721/ERC721BasicToken.sol\":9628:9680  ownedTokensCount[_to] = ownedTokensCount[_to].add(1) */\n      dup2\n      swap1\n      sstore\n      pop\n        /* \"contracts/ERC721/ERC721BasicToken.sol\":9478:9686  function addTokenTo(address _to, uint256 _tokenId) internal {\r... */\n      pop\n      pop\n      jump\t// out\n        /* \"contracts/utils/AddressUtils.sol\":453:1031  function isContract(address addr) internal view returns (bool) {\r... */\n    tag_191:\n        /* \"contracts/utils/AddressUtils.sol\":510:514  bool */\n      0x0\n        /* \"contracts/utils/AddressUtils.sol\":523:535  uint256 size */\n      dup1\n        /* \"contracts/utils/AddressUtils.sol\":945:949  addr */\n      dup3\n        /* \"contracts/utils/AddressUtils.sol\":933:950  extcodesize(addr) */\n      extcodesize\n        /* \"contracts/utils/AddressUtils.sol\":925:950  size := extcodesize(addr) */\n      swap1\n      pop\n        /* \"contracts/utils/AddressUtils.sol\":1024:1025  0 */\n      0x0\n        /* \"contracts/utils/AddressUtils.sol\":1017:1021  size */\n      dup2\n        /* \"contracts/utils/AddressUtils.sol\":1017:1025  size > 0 */\n      gt\n        /* \"contracts/utils/AddressUtils.sol\":1010:1025  return size > 0 */\n      swap2\n      pop\n        /* \"contracts/utils/AddressUtils.sol\":453:1031  function isContract(address addr) internal view returns (bool) {\r... */\n      pop\n      swap2\n      swap1\n      pop\n      jump\t// out\n        /* \"contracts/ERC721/ERC721BasicToken.sol\":8127:8295  function _mint(address _to, uint256 _tokenId) internal {\r... */\n    tag_207:\n        /* \"contracts/ERC721/ERC721BasicToken.sol\":8212:8213  0 */\n      0x0\n        /* \"contracts/ERC721/ERC721BasicToken.sol\":8197:8214  _to != address(0) */\n      0xffffffffffffffffffffffffffffffffffffffff\n      and\n        /* \"contracts/ERC721/ERC721BasicToken.sol\":8197:8200  _to */\n      dup3\n        /* \"contracts/ERC721/ERC721BasicToken.sol\":8197:8214  _to != address(0) */\n      0xffffffffffffffffffffffffffffffffffffffff\n      and\n      eq\n      iszero\n        /* \"contracts/ERC721/ERC721BasicToken.sol\":8189:8215  require(_to != address(0)) */\n      iszero\n      iszero\n      tag_221\n      jumpi\n      0x0\n      dup1\n      revert\n    tag_221:\n        /* \"contracts/ERC721/ERC721BasicToken.sol\":8222:8247  addTokenTo(_to, _tokenId) */\n      tag_222\n        /* \"contracts/ERC721/ERC721BasicToken.sol\":8233:8236  _to */\n      dup3\n        /* \"contracts/ERC721/ERC721BasicToken.sol\":8238:8246  _tokenId */\n      dup3\n        /* \"contracts/ERC721/ERC721BasicToken.sol\":8222:8232  addTokenTo */\n      tag_113\n        /* \"contracts/ERC721/ERC721BasicToken.sol\":8222:8247  addTokenTo(_to, _tokenId) */\n      jump\t// in\n    tag_222:\n        /* \"contracts/ERC721/ERC721BasicToken.sol\":8275:8278  _to */\n      dup2\n        /* \"contracts/ERC721/ERC721BasicToken.sol\":8254:8289  Transfer(address(0), _to, _tokenId) */\n      0xffffffffffffffffffffffffffffffffffffffff\n      and\n        /* \"contracts/ERC721/ERC721BasicToken.sol\":8271:8272  0 */\n      0x0\n        /* \"contracts/ERC721/ERC721BasicToken.sol\":8254:8289  Transfer(address(0), _to, _tokenId) */\n      0xffffffffffffffffffffffffffffffffffffffff\n      and\n      0xddf252ad1be2c89b69c2b068fc378daa952ba7f163c4a11628f55a4df523b3ef\n        /* \"contracts/ERC721/ERC721BasicToken.sol\":8280:8288  _tokenId */\n      dup4\n        /* \"contracts/ERC721/ERC721BasicToken.sol\":8254:8289  Transfer(address(0), _to, _tokenId) */\n      mload(0x40)\n      dup1\n      dup3\n      dup2\n      mstore\n      0x20\n      add\n      swap2\n      pop\n      pop\n      mload(0x40)\n      dup1\n      swap2\n      sub\n      swap1\n      log3\n        /* \"contracts/ERC721/ERC721BasicToken.sol\":8127:8295  function _mint(address _to, uint256 _tokenId) internal {\r... */\n      pop\n      pop\n      jump\t// out\n        /* \"contracts/utils/math/SafeMath.sol\":1056:1189  function add(uint256 a, uint256 b) internal pure returns (uint256) {\r... */\n    tag_218:\n        /* \"contracts/utils/math/SafeMath.sol\":1114:1121  uint256 */\n      0x0\n        /* \"contracts/utils/math/SafeMath.sol\":1130:1139  uint256 c */\n      dup1\n        /* \"contracts/utils/math/SafeMath.sol\":1146:1147  b */\n      dup3\n        /* \"contracts/utils/math/SafeMath.sol\":1142:1143  a */\n      dup5\n        /* \"contracts/utils/math/SafeMath.sol\":1142:1147  a + b */\n      add\n        /* \"contracts/utils/math/SafeMath.sol\":1130:1147  uint256 c = a + b */\n      swap1\n      pop\n        /* \"contracts/utils/math/SafeMath.sol\":1166:1167  a */\n      dup4\n        /* \"contracts/utils/math/SafeMath.sol\":1161:1162  c */\n      dup2\n        /* \"contracts/utils/math/SafeMath.sol\":1161:1167  c >= a */\n      lt\n      iszero\n        /* \"contracts/utils/math/SafeMath.sol\":1154:1168  assert(c >= a) */\n      iszero\n      iszero\n      tag_224\n      jumpi\n      invalid\n    tag_224:\n        /* \"contracts/utils/math/SafeMath.sol\":1182:1183  c */\n      dup1\n        /* \"contracts/utils/math/SafeMath.sol\":1175:1183  return c */\n      swap2\n      pop\n        /* \"contracts/utils/math/SafeMath.sol\":1056:1189  function add(uint256 a, uint256 b) internal pure returns (uint256) {\r... */\n      pop\n      swap3\n      swap2\n      pop\n      pop\n      jump\t// out\n        /* \"contracts/DeedRepository.sol\":242:1538  contract DeedRepository is ERC721Token {\r... */\n    tag_184:\n      dup2\n      sload\n      dup2\n      dup4\n      sstore\n      dup2\n      dup2\n      gt\n      iszero\n      tag_225\n      jumpi\n      dup2\n      dup4\n      0x0\n      mstore\n      keccak256(0x0, 0x20)\n      swap2\n      dup3\n      add\n      swap2\n      add\n      tag_226\n      swap2\n      swap1\n      jump\t// in(tag_227)\n    tag_226:\n    tag_225:\n      pop\n      pop\n      pop\n      jump\t// out\n    tag_204:\n      dup3\n      dup1\n      sload\n      0x1\n      dup2\n      0x1\n      and\n      iszero\n      0x100\n      mul\n      sub\n      and\n      0x2\n      swap1\n      div\n      swap1\n      0x0\n      mstore\n      keccak256(0x0, 0x20)\n      swap1\n      0x1f\n      add\n      0x20\n      swap1\n      div\n      dup2\n      add\n      swap3\n      dup3\n      0x1f\n      lt\n      tag_229\n      jumpi\n      dup1\n      mload\n      not(0xff)\n      and\n      dup4\n      dup1\n      add\n      or\n      dup6\n      sstore\n      jump(tag_228)\n    tag_229:\n      dup3\n      dup1\n      add\n      0x1\n      add\n      dup6\n      sstore\n      dup3\n      iszero\n      tag_228\n      jumpi\n      swap2\n      dup3\n      add\n    tag_230:\n      dup3\n      dup2\n      gt\n      iszero\n      tag_231\n      jumpi\n      dup3\n      mload\n      dup3\n      sstore\n      swap2\n      0x20\n      add\n      swap2\n      swap1\n      0x1\n      add\n      swap1\n      jump(tag_230)\n    tag_231:\n    tag_228:\n      pop\n      swap1\n      pop\n      tag_232\n      swap2\n      swap1\n      jump\t// in(tag_227)\n    tag_232:\n      pop\n      swap1\n      jump\t// out\n    tag_227:\n      tag_233\n      swap2\n      swap1\n    tag_234:\n      dup1\n      dup3\n      gt\n      iszero\n      tag_235\n      jumpi\n      0x0\n      dup2\n      0x0\n      swap1\n      sstore\n      pop\n      0x1\n      add\n      jump(tag_234)\n    tag_235:\n      pop\n      swap1\n      jump\n    tag_233:\n      swap1\n      jump\t// out\n\n    auxdata: 0xa165627a7a72305820fe608a801f73455fd8e05f092b14fbb6d3e4538774594e1ab036c24c2236eaf50029\n}\n",
				"bytecode": {
					"linkReferences": {},
					"object": "60806040523480156200001157600080fd5b506040516200200e3803806200200e8339810180604052810190808051820192919060200180518201929190505050818181600490805190602001906200005a9291906200007e565b508060059080519060200190620000739291906200007e565b50505050506200012d565b828054600181600116156101000203166002900490600052602060002090601f016020900481019282601f10620000c157805160ff1916838001178555620000f2565b82800160010185558215620000f2579182015b82811115620000f1578251825591602001919060010190620000d4565b5b50905062000101919062000105565b5090565b6200012a91905b80821115620001265760008160009055506001016200010c565b5090565b90565b611ed1806200013d6000396000f3006080604052600436106100fc576000357c0100000000000000000000000000000000000000000000000000000000900463ffffffff16806306fdde0314610101578063081812fc14610191578063095ea7b3146101fe57806318160ddd1461024b57806323b872dd146102765780632f745c59146102e357806342842e0e146103445780634f558e79146103b15780634f6ccce7146103f65780636352211e1461043757806370a08231146104a457806395d89b41146104fb578063a22cb4651461058b578063b88d4fde146105da578063c87b56dd1461068d578063da55603314610733578063e985e9c5146107be578063f72439dd14610839575b600080fd5b34801561010d57600080fd5b506101166108ac565b6040518080602001828103825283818151815260200191508051906020019080838360005b8381101561015657808201518184015260208101905061013b565b50505050905090810190601f1680156101835780820380516001836020036101000a031916815260200191505b509250505060405180910390f35b34801561019d57600080fd5b506101bc6004803603810190808035906020019092919050505061094e565b604051808273ffffffffffffffffffffffffffffffffffffffff1673ffffffffffffffffffffffffffffffffffffffff16815260200191505060405180910390f35b34801561020a57600080fd5b50610249600480360381019080803573ffffffffffffffffffffffffffffffffffffffff1690602001909291908035906020019092919050505061098b565b005b34801561025757600080fd5b50610260610b51565b6040518082815260200191505060405180910390f35b34801561028257600080fd5b506102e1600480360381019080803573ffffffffffffffffffffffffffffffffffffffff169060200190929190803573ffffffffffffffffffffffffffffffffffffffff16906020019092919080359060200190929190505050610b5e565b005b3480156102ef57600080fd5b5061032e600480360381019080803573ffffffffffffffffffffffffffffffffffffffff16906020019092919080359060200190929190505050610c75565b6040518082815260200191505060405180910390f35b34801561035057600080fd5b506103af600480360381019080803573ffffffffffffffffffffffffffffffffffffffff169060200190929190803573ffffffffffffffffffffffffffffffffffffffff16906020019092919080359060200190929190505050610cec565b005b3480156103bd57600080fd5b506103dc60048036038101908080359060200190929190505050610d24565b604051808215151515815260200191505060405180910390f35b34801561040257600080fd5b5061042160048036038101908080359060200190929190505050610d95565b6040518082815260200191505060405180910390f35b34801561044357600080fd5b5061046260048036038101908080359060200190929190505050610dcd565b604051808273ffffffffffffffffffffffffffffffffffffffff1673ffffffffffffffffffffffffffffffffffffffff16815260200191505060405180910390f35b3480156104b057600080fd5b506104e5600480360381019080803573ffffffffffffffffffffffffffffffffffffffff169060200190929190505050610e4a565b6040518082815260200191505060405180910390f35b34801561050757600080fd5b50610510610ece565b6040518080602001828103825283818151815260200191508051906020019080838360005b83811015610550578082015181840152602081019050610535565b50505050905090810190601f16801561057d5780820380516001836020036101000a031916815260200191505b509250505060405180910390f35b34801561059757600080fd5b506105d8600480360381019080803573ffffffffffffffffffffffffffffffffffffffff169060200190929190803515159060200190929190505050610f70565b005b3480156105e657600080fd5b5061068b600480360381019080803573ffffffffffffffffffffffffffffffffffffffff169060200190929190803573ffffffffffffffffffffffffffffffffffffffff16906020019092919080359060200190929190803590602001908201803590602001908080601f01602080910402602001604051908101604052809392919081815260200183838082843782019150505050505091929192905050506110ac565b005b34801561069957600080fd5b506106b8600480360381019080803590602001909291905050506110eb565b6040518080602001828103825283818151815260200191508051906020019080838360005b838110156106f85780820151818401526020810190506106dd565b50505050905090810190601f1680156107255780820380516001836020036101000a031916815260200191505b509250505060405180910390f35b34801561073f57600080fd5b506107a460048036038101908080359060200190929190803590602001908201803590602001908080601f01602080910402602001604051908101604052809392919081815260200183838082843782019150505050505091929192905050506111b4565b604051808215151515815260200191505060405180910390f35b3480156107ca57600080fd5b5061081f600480360381019080803573ffffffffffffffffffffffffffffffffffffffff169060200190929190803573ffffffffffffffffffffffffffffffffffffffff1690602001909291905050506111ca565b604051808215151515815260200191505060405180910390f35b34801561084557600080fd5b506108aa60048036038101908080359060200190929190803590602001908201803590602001908080601f016020809104026020016040519081016040528093929190818152602001838380828437820191505050505050919291929050505061125e565b005b606060048054600181600116156101000203166002900480601f0160208091040260200160405190810160405280929190818152602001828054600181600116156101000203166002900480156109445780601f1061091957610100808354040283529160200191610944565b820191906000526020600020905b81548152906001019060200180831161092757829003601f168201915b5050505050905090565b60006001600083815260200190815260200160002060009054906101000a900473ffffffffffffffffffffffffffffffffffffffff169050919050565b600061099682610dcd565b90508073ffffffffffffffffffffffffffffffffffffffff168373ffffffffffffffffffffffffffffffffffffffff16141515156109d357600080fd5b8073ffffffffffffffffffffffffffffffffffffffff163373ffffffffffffffffffffffffffffffffffffffff161480610a135750610a1281336111ca565b5b1515610a1e57600080fd5b600073ffffffffffffffffffffffffffffffffffffffff16610a3f8361094e565b73ffffffffffffffffffffffffffffffffffffffff16141580610a8f5750600073ffffffffffffffffffffffffffffffffffffffff168373ffffffffffffffffffffffffffffffffffffffff1614155b15610b4c57826001600084815260200190815260200160002060006101000a81548173ffffffffffffffffffffffffffffffffffffffff021916908373ffffffffffffffffffffffffffffffffffffffff1602179055508273ffffffffffffffffffffffffffffffffffffffff168173ffffffffffffffffffffffffffffffffffffffff167f8c5be1e5ebec7d5bd14f71427d1e84f3dd0314c0f7b2291e5b200ac8c7c3b925846040518082815260200191505060405180910390a35b505050565b6000600880549050905090565b80610b6933826112e2565b1515610b7457600080fd5b600073ffffffffffffffffffffffffffffffffffffffff168473ffffffffffffffffffffffffffffffffffffffff1614151515610bb057600080fd5b600073ffffffffffffffffffffffffffffffffffffffff168373ffffffffffffffffffffffffffffffffffffffff1614151515610bec57600080fd5b610bf68483611377565b610c0084836114e0565b610c0a83836116f8565b8273ffffffffffffffffffffffffffffffffffffffff168473ffffffffffffffffffffffffffffffffffffffff167fddf252ad1be2c89b69c2b068fc378daa952ba7f163c4a11628f55a4df523b3ef846040518082815260200191505060405180910390a350505050565b6000610c8083610e4a565b82101515610c8d57600080fd5b600660008473ffffffffffffffffffffffffffffffffffffffff1673ffffffffffffffffffffffffffffffffffffffff16815260200190815260200160002082815481101515610cd957fe5b9060005260206000200154905092915050565b80610cf733826112e2565b1515610d0257600080fd5b610d1e84848460206040519081016040528060008152506110ac565b50505050565b60008060008084815260200190815260200160002060009054906101000a900473ffffffffffffffffffffffffffffffffffffffff169050600073ffffffffffffffffffffffffffffffffffffffff168173ffffffffffffffffffffffffffffffffffffffff161415915050919050565b6000610d9f610b51565b82101515610dac57600080fd5b600882815481101515610dbb57fe5b90600052602060002001549050919050565b60008060008084815260200190815260200160002060009054906101000a900473ffffffffffffffffffffffffffffffffffffffff169050600073ffffffffffffffffffffffffffffffffffffffff168173ffffffffffffffffffffffffffffffffffffffff1614151515610e4157600080fd5b80915050919050565b60008073ffffffffffffffffffffffffffffffffffffffff168273ffffffffffffffffffffffffffffffffffffffff1614151515610e8757600080fd5b600260008373ffffffffffffffffffffffffffffffffffffffff1673ffffffffffffffffffffffffffffffffffffffff168152602001908152602001600020549050919050565b606060058054600181600116156101000203166002900480601f016020809104026020016040519081016040528092919081815260200182805460018160011615610100020316600290048015610f665780601f10610f3b57610100808354040283529160200191610f66565b820191906000526020600020905b815481529060010190602001808311610f4957829003601f168201915b5050505050905090565b3373ffffffffffffffffffffffffffffffffffffffff168273ffffffffffffffffffffffffffffffffffffffff1614151515610fab57600080fd5b80600360003373ffffffffffffffffffffffffffffffffffffffff1673ffffffffffffffffffffffffffffffffffffffff16815260200190815260200160002060008473ffffffffffffffffffffffffffffffffffffffff1673ffffffffffffffffffffffffffffffffffffffff16815260200190815260200160002060006101000a81548160ff0219169083151502179055508173ffffffffffffffffffffffffffffffffffffffff163373ffffffffffffffffffffffffffffffffffffffff167f17307eab39ab6107e8899845ad3d59bd9653f200f220920489ca2b5937696c3183604051808215151515815260200191505060405180910390a35050565b816110b733826112e2565b15156110c257600080fd5b6110cd858585610b5e565b6110d9858585856117cf565b15156110e457600080fd5b5050505050565b60606110f682610d24565b151561110157600080fd5b600a60008381526020019081526020016000208054600181600116156101000203166002900480601f0160208091040260200160405190810160405280929190818152602001828054600181600116156101000203166002900480156111a85780601f1061117d576101008083540402835291602001916111a8565b820191906000526020600020905b81548152906001019060200180831161118b57829003601f168201915b50505050509050919050565b60006111c083836119bd565b6001905092915050565b6000600360008473ffffffffffffffffffffffffffffffffffffffff1673ffffffffffffffffffffffffffffffffffffffff16815260200190815260200160002060008373ffffffffffffffffffffffffffffffffffffffff1673ffffffffffffffffffffffffffffffffffffffff16815260200190815260200160002060009054906101000a900460ff16905092915050565b61126833836119fd565b61127282826111b4565b507f32cc5b866d6a5990a7f987020b639157969cb963b9beb2cdf41df22ab152df353383604051808373ffffffffffffffffffffffffffffffffffffffff1673ffffffffffffffffffffffffffffffffffffffff1681526020018281526020019250505060405180910390a15050565b6000806112ee83610dcd565b90508073ffffffffffffffffffffffffffffffffffffffff168473ffffffffffffffffffffffffffffffffffffffff16148061135d57508373ffffffffffffffffffffffffffffffffffffffff166113458461094e565b73ffffffffffffffffffffffffffffffffffffffff16145b8061136e575061136d81856111ca565b5b91505092915050565b8173ffffffffffffffffffffffffffffffffffffffff1661139782610dcd565b73ffffffffffffffffffffffffffffffffffffffff161415156113b957600080fd5b600073ffffffffffffffffffffffffffffffffffffffff166001600083815260200190815260200160002060009054906101000a900473ffffffffffffffffffffffffffffffffffffffff1673ffffffffffffffffffffffffffffffffffffffff161415156114dc5760006001600083815260200190815260200160002060006101000a81548173ffffffffffffffffffffffffffffffffffffffff021916908373ffffffffffffffffffffffffffffffffffffffff160217905550600073ffffffffffffffffffffffffffffffffffffffff168273ffffffffffffffffffffffffffffffffffffffff167f8c5be1e5ebec7d5bd14f71427d1e84f3dd0314c0f7b2291e5b200ac8c7c3b925836040518082815260200191505060405180910390a35b5050565b60008060006114ef8585611a54565b6007600085815260200190815260200160002054925061155b6001600660008873ffffffffffffffffffffffffffffffffffffffff1673ffffffffffffffffffffffffffffffffffffffff16815260200190815260200160002080549050611b8290919063ffffffff16565b9150600660008673ffffffffffffffffffffffffffffffffffffffff1673ffffffffffffffffffffffffffffffffffffffff168152602001908152602001600020828154811015156115a957fe5b9060005260206000200154905080600660008773ffffffffffffffffffffffffffffffffffffffff1673ffffffffffffffffffffffffffffffffffffffff1681526020019081526020016000208481548110151561160357fe5b90600052602060002001819055506000600660008773ffffffffffffffffffffffffffffffffffffffff1673ffffffffffffffffffffffffffffffffffffffff1681526020019081526020016000208381548110151561165f57fe5b9060005260206000200181905550600660008673ffffffffffffffffffffffffffffffffffffffff1673ffffffffffffffffffffffffffffffffffffffff1681526020019081526020016000208054809190600190036116bf9190611dd4565b50600060076000868152602001908152602001600020819055508260076000838152602001908152602001600020819055505050505050565b60006117048383611b9b565b600660008473ffffffffffffffffffffffffffffffffffffffff1673ffffffffffffffffffffffffffffffffffffffff168152602001908152602001600020805490509050600660008473ffffffffffffffffffffffffffffffffffffffff1673ffffffffffffffffffffffffffffffffffffffff168152602001908152602001600020829080600181540180825580915050906001820390600052602060002001600090919290919091505550806007600084815260200190815260200160002081905550505050565b6000806117f18573ffffffffffffffffffffffffffffffffffffffff16611cf3565b151561180057600191506119b4565b8473ffffffffffffffffffffffffffffffffffffffff1663f0b9e5ba8786866040518463ffffffff167c0100000000000000000000000000000000000000000000000000000000028152600401808473ffffffffffffffffffffffffffffffffffffffff1673ffffffffffffffffffffffffffffffffffffffff16815260200183815260200180602001828103825283818151815260200191508051906020019080838360005b838110156118c25780820151818401526020810190506118a7565b50505050905090810190601f1680156118ef5780820380516001836020036101000a031916815260200191505b50945050505050602060405180830381600087803b15801561191057600080fd5b505af1158015611924573d6000803e3d6000fd5b505050506040513d602081101561193a57600080fd5b8101908080519060200190929190505050905063f0b9e5ba7c0100000000000000000000000000000000000000000000000000000000027bffffffffffffffffffffffffffffffffffffffffffffffffffffffff1916817bffffffffffffffffffffffffffffffffffffffffffffffffffffffff19161491505b50949350505050565b6119c682610d24565b15156119d157600080fd5b80600a600084815260200190815260200160002090805190602001906119f8929190611e00565b505050565b611a078282611d06565b600880549050600960008381526020019081526020016000208190555060088190806001815401808255809150509060018203906000526020600020016000909192909190915055505050565b8173ffffffffffffffffffffffffffffffffffffffff16611a7482610dcd565b73ffffffffffffffffffffffffffffffffffffffff16141515611a9657600080fd5b611ae96001600260008573ffffffffffffffffffffffffffffffffffffffff1673ffffffffffffffffffffffffffffffffffffffff16815260200190815260200160002054611b8290919063ffffffff16565b600260008473ffffffffffffffffffffffffffffffffffffffff1673ffffffffffffffffffffffffffffffffffffffff16815260200190815260200160002081905550600080600083815260200190815260200160002060006101000a81548173ffffffffffffffffffffffffffffffffffffffff021916908373ffffffffffffffffffffffffffffffffffffffff1602179055505050565b6000828211151515611b9057fe5b818303905092915050565b600073ffffffffffffffffffffffffffffffffffffffff1660008083815260200190815260200160002060009054906101000a900473ffffffffffffffffffffffffffffffffffffffff1673ffffffffffffffffffffffffffffffffffffffff16141515611c0857600080fd5b8160008083815260200190815260200160002060006101000a81548173ffffffffffffffffffffffffffffffffffffffff021916908373ffffffffffffffffffffffffffffffffffffffff160217905550611cac6001600260008573ffffffffffffffffffffffffffffffffffffffff1673ffffffffffffffffffffffffffffffffffffffff16815260200190815260200160002054611db690919063ffffffff16565b600260008473ffffffffffffffffffffffffffffffffffffffff1673ffffffffffffffffffffffffffffffffffffffff168152602001908152602001600020819055505050565b600080823b905060008111915050919050565b600073ffffffffffffffffffffffffffffffffffffffff168273ffffffffffffffffffffffffffffffffffffffff1614151515611d4257600080fd5b611d4c82826116f8565b8173ffffffffffffffffffffffffffffffffffffffff16600073ffffffffffffffffffffffffffffffffffffffff167fddf252ad1be2c89b69c2b068fc378daa952ba7f163c4a11628f55a4df523b3ef836040518082815260200191505060405180910390a35050565b6000808284019050838110151515611dca57fe5b8091505092915050565b815481835581811115611dfb57818360005260206000209182019101611dfa9190611e80565b5b505050565b828054600181600116156101000203166002900490600052602060002090601f016020900481019282601f10611e4157805160ff1916838001178555611e6f565b82800160010185558215611e6f579182015b82811115611e6e578251825591602001919060010190611e53565b5b509050611e7c9190611e80565b5090565b611ea291905b80821115611e9e576000816000905550600101611e86565b5090565b905600a165627a7a72305820fe608a801f73455fd8e05f092b14fbb6d3e4538774594e1ab036c24c2236eaf50029",
					"opcodes": "PUSH1 0x80 PUSH1 0x40 MSTORE CALLVALUE DUP1 ISZERO PUSH3 0x11 JUMPI PUSH1 0x0 DUP1 REVERT JUMPDEST POP PUSH1 0x40 MLOAD PUSH3 0x200E CODESIZE SUB DUP1 PUSH3 0x200E DUP4 CODECOPY DUP2 ADD DUP1 PUSH1 0x40 MSTORE DUP2 ADD SWAP1 DUP1 DUP1 MLOAD DUP3 ADD SWAP3 SWAP2 SWAP1 PUSH1 0x20 ADD DUP1 MLOAD DUP3 ADD SWAP3 SWAP2 SWAP1 POP POP POP DUP2 DUP2 DUP2 PUSH1 0x4 SWAP1 DUP1 MLOAD SWAP1 PUSH1 0x20 ADD SWAP1 PUSH3 0x5A SWAP3 SWAP2 SWAP1 PUSH3 0x7E JUMP JUMPDEST POP DUP1 PUSH1 0x5 SWAP1 DUP1 MLOAD SWAP1 PUSH1 0x20 ADD SWAP1 PUSH3 0x73 SWAP3 SWAP2 SWAP1 PUSH3 0x7E JUMP JUMPDEST POP POP POP POP POP PUSH3 0x12D JUMP JUMPDEST DUP3 DUP1 SLOAD PUSH1 0x1 DUP2 PUSH1 0x1 AND ISZERO PUSH2 0x100 MUL SUB AND PUSH1 0x2 SWAP1 DIV SWAP1 PUSH1 0x0 MSTORE PUSH1 0x20 PUSH1 0x0 KECCAK256 SWAP1 PUSH1 0x1F ADD PUSH1 0x20 SWAP1 DIV DUP2 ADD SWAP3 DUP3 PUSH1 0x1F LT PUSH3 0xC1 JUMPI DUP1 MLOAD PUSH1 0xFF NOT AND DUP4 DUP1 ADD OR DUP6 SSTORE PUSH3 0xF2 JUMP JUMPDEST DUP3 DUP1 ADD PUSH1 0x1 ADD DUP6 SSTORE DUP3 ISZERO PUSH3 0xF2 JUMPI SWAP2 DUP3 ADD JUMPDEST DUP3 DUP2 GT ISZERO PUSH3 0xF1 JUMPI DUP3 MLOAD DUP3 SSTORE SWAP2 PUSH1 0x20 ADD SWAP2 SWAP1 PUSH1 0x1 ADD SWAP1 PUSH3 0xD4 JUMP JUMPDEST JUMPDEST POP SWAP1 POP PUSH3 0x101 SWAP2 SWAP1 PUSH3 0x105 JUMP JUMPDEST POP SWAP1 JUMP JUMPDEST PUSH3 0x12A SWAP2 SWAP1 JUMPDEST DUP1 DUP3 GT ISZERO PUSH3 0x126 JUMPI PUSH1 0x0 DUP2 PUSH1 0x0 SWAP1 SSTORE POP PUSH1 0x1 ADD PUSH3 0x10C JUMP JUMPDEST POP SWAP1 JUMP JUMPDEST SWAP1 JUMP JUMPDEST PUSH2 0x1ED1 DUP1 PUSH3 0x13D PUSH1 0x0 CODECOPY PUSH1 0x0 RETURN STOP PUSH1 0x80 PUSH1 0x40 MSTORE PUSH1 0x4 CALLDATASIZE LT PUSH2 0xFC JUMPI PUSH1 0x0 CALLDATALOAD PUSH29 0x100000000000000000000000000000000000000000000000000000000 SWAP1 DIV PUSH4 0xFFFFFFFF AND DUP1 PUSH4 0x6FDDE03 EQ PUSH2 0x101 JUMPI DUP1 PUSH4 0x81812FC EQ PUSH2 0x191 JUMPI DUP1 PUSH4 0x95EA7B3 EQ PUSH2 0x1FE JUMPI DUP1 PUSH4 0x18160DDD EQ PUSH2 0x24B JUMPI DUP1 PUSH4 0x23B872DD EQ PUSH2 0x276 JUMPI DUP1 PUSH4 0x2F745C59 EQ PUSH2 0x2E3 JUMPI DUP1 PUSH4 0x42842E0E EQ PUSH2 0x344 JUMPI DUP1 PUSH4 0x4F558E79 EQ PUSH2 0x3B1 JUMPI DUP1 PUSH4 0x4F6CCCE7 EQ PUSH2 0x3F6 JUMPI DUP1 PUSH4 0x6352211E EQ PUSH2 0x437 JUMPI DUP1 PUSH4 0x70A08231 EQ PUSH2 0x4A4 JUMPI DUP1 PUSH4 0x95D89B41 EQ PUSH2 0x4FB JUMPI DUP1 PUSH4 0xA22CB465 EQ PUSH2 0x58B JUMPI DUP1 PUSH4 0xB88D4FDE EQ PUSH2 0x5DA JUMPI DUP1 PUSH4 0xC87B56DD EQ PUSH2 0x68D JUMPI DUP1 PUSH4 0xDA556033 EQ PUSH2 0x733 JUMPI DUP1 PUSH4 0xE985E9C5 EQ PUSH2 0x7BE JUMPI DUP1 PUSH4 0xF72439DD EQ PUSH2 0x839 JUMPI JUMPDEST PUSH1 0x0 DUP1 REVERT JUMPDEST CALLVALUE DUP1 ISZERO PUSH2 0x10D JUMPI PUSH1 0x0 DUP1 REVERT JUMPDEST POP PUSH2 0x116 PUSH2 0x8AC JUMP JUMPDEST PUSH1 0x40 MLOAD DUP1 DUP1 PUSH1 0x20 ADD DUP3 DUP2 SUB DUP3 MSTORE DUP4 DUP2 DUP2 MLOAD DUP2 MSTORE PUSH1 0x20 ADD SWAP2 POP DUP1 MLOAD SWAP1 PUSH1 0x20 ADD SWAP1 DUP1 DUP4 DUP4 PUSH1 0x0 JUMPDEST DUP4 DUP2 LT ISZERO PUSH2 0x156 JUMPI DUP1 DUP3 ADD MLOAD DUP2 DUP5 ADD MSTORE PUSH1 0x20 DUP2 ADD SWAP1 POP PUSH2 0x13B JUMP JUMPDEST POP POP POP POP SWAP1 POP SWAP1 DUP2 ADD SWAP1 PUSH1 0x1F AND DUP1 ISZERO PUSH2 0x183 JUMPI DUP1 DUP3 SUB DUP1 MLOAD PUSH1 0x1 DUP4 PUSH1 0x20 SUB PUSH2 0x100 EXP SUB NOT AND DUP2 MSTORE PUSH1 0x20 ADD SWAP2 POP JUMPDEST POP SWAP3 POP POP POP PUSH1 0x40 MLOAD DUP1 SWAP2 SUB SWAP1 RETURN JUMPDEST CALLVALUE DUP1 ISZERO PUSH2 0x19D JUMPI PUSH1 0x0 DUP1 REVERT JUMPDEST POP PUSH2 0x1BC PUSH1 0x4 DUP1 CALLDATASIZE SUB DUP2 ADD SWAP1 DUP1 DUP1 CALLDATALOAD SWAP1 PUSH1 0x20 ADD SWAP1 SWAP3 SWAP2 SWAP1 POP POP POP PUSH2 0x94E JUMP JUMPDEST PUSH1 0x40 MLOAD DUP1 DUP3 PUSH20 0xFFFFFFFFFFFFFFFFFFFFFFFFFFFFFFFFFFFFFFFF AND PUSH20 0xFFFFFFFFFFFFFFFFFFFFFFFFFFFFFFFFFFFFFFFF AND DUP2 MSTORE PUSH1 0x20 ADD SWAP2 POP POP PUSH1 0x40 MLOAD DUP1 SWAP2 SUB SWAP1 RETURN JUMPDEST CALLVALUE DUP1 ISZERO PUSH2 0x20A JUMPI PUSH1 0x0 DUP1 REVERT JUMPDEST POP PUSH2 0x249 PUSH1 0x4 DUP1 CALLDATASIZE SUB DUP2 ADD SWAP1 DUP1 DUP1 CALLDATALOAD PUSH20 0xFFFFFFFFFFFFFFFFFFFFFFFFFFFFFFFFFFFFFFFF AND SWAP1 PUSH1 0x20 ADD SWAP1 SWAP3 SWAP2 SWAP1 DUP1 CALLDATALOAD SWAP1 PUSH1 0x20 ADD SWAP1 SWAP3 SWAP2 SWAP1 POP POP POP PUSH2 0x98B JUMP JUMPDEST STOP JUMPDEST CALLVALUE DUP1 ISZERO PUSH2 0x257 JUMPI PUSH1 0x0 DUP1 REVERT JUMPDEST POP PUSH2 0x260 PUSH2 0xB51 JUMP JUMPDEST PUSH1 0x40 MLOAD DUP1 DUP3 DUP2 MSTORE PUSH1 0x20 ADD SWAP2 POP POP PUSH1 0x40 MLOAD DUP1 SWAP2 SUB SWAP1 RETURN JUMPDEST CALLVALUE DUP1 ISZERO PUSH2 0x282 JUMPI PUSH1 0x0 DUP1 REVERT JUMPDEST POP PUSH2 0x2E1 PUSH1 0x4 DUP1 CALLDATASIZE SUB DUP2 ADD SWAP1 DUP1 DUP1 CALLDATALOAD PUSH20 0xFFFFFFFFFFFFFFFFFFFFFFFFFFFFFFFFFFFFFFFF AND SWAP1 PUSH1 0x20 ADD SWAP1 SWAP3 SWAP2 SWAP1 DUP1 CALLDATALOAD PUSH20 0xFFFFFFFFFFFFFFFFFFFFFFFFFFFFFFFFFFFFFFFF AND SWAP1 PUSH1 0x20 ADD SWAP1 SWAP3 SWAP2 SWAP1 DUP1 CALLDATALOAD SWAP1 PUSH1 0x20 ADD SWAP1 SWAP3 SWAP2 SWAP1 POP POP POP PUSH2 0xB5E JUMP JUMPDEST STOP JUMPDEST CALLVALUE DUP1 ISZERO PUSH2 0x2EF JUMPI PUSH1 0x0 DUP1 REVERT JUMPDEST POP PUSH2 0x32E PUSH1 0x4 DUP1 CALLDATASIZE SUB DUP2 ADD SWAP1 DUP1 DUP1 CALLDATALOAD PUSH20 0xFFFFFFFFFFFFFFFFFFFFFFFFFFFFFFFFFFFFFFFF AND SWAP1 PUSH1 0x20 ADD SWAP1 SWAP3 SWAP2 SWAP1 DUP1 CALLDATALOAD SWAP1 PUSH1 0x20 ADD SWAP1 SWAP3 SWAP2 SWAP1 POP POP POP PUSH2 0xC75 JUMP JUMPDEST PUSH1 0x40 MLOAD DUP1 DUP3 DUP2 MSTORE PUSH1 0x20 ADD SWAP2 POP POP PUSH1 0x40 MLOAD DUP1 SWAP2 SUB SWAP1 RETURN JUMPDEST CALLVALUE DUP1 ISZERO PUSH2 0x350 JUMPI PUSH1 0x0 DUP1 REVERT JUMPDEST POP PUSH2 0x3AF PUSH1 0x4 DUP1 CALLDATASIZE SUB DUP2 ADD SWAP1 DUP1 DUP1 CALLDATALOAD PUSH20 0xFFFFFFFFFFFFFFFFFFFFFFFFFFFFFFFFFFFFFFFF AND SWAP1 PUSH1 0x20 ADD SWAP1 SWAP3 SWAP2 SWAP1 DUP1 CALLDATALOAD PUSH20 0xFFFFFFFFFFFFFFFFFFFFFFFFFFFFFFFFFFFFFFFF AND SWAP1 PUSH1 0x20 ADD SWAP1 SWAP3 SWAP2 SWAP1 DUP1 CALLDATALOAD SWAP1 PUSH1 0x20 ADD SWAP1 SWAP3 SWAP2 SWAP1 POP POP POP PUSH2 0xCEC JUMP JUMPDEST STOP JUMPDEST CALLVALUE DUP1 ISZERO PUSH2 0x3BD JUMPI PUSH1 0x0 DUP1 REVERT JUMPDEST POP PUSH2 0x3DC PUSH1 0x4 DUP1 CALLDATASIZE SUB DUP2 ADD SWAP1 DUP1 DUP1 CALLDATALOAD SWAP1 PUSH1 0x20 ADD SWAP1 SWAP3 SWAP2 SWAP1 POP POP POP PUSH2 0xD24 JUMP JUMPDEST PUSH1 0x40 MLOAD DUP1 DUP3 ISZERO ISZERO ISZERO ISZERO DUP2 MSTORE PUSH1 0x20 ADD SWAP2 POP POP PUSH1 0x40 MLOAD DUP1 SWAP2 SUB SWAP1 RETURN JUMPDEST CALLVALUE DUP1 ISZERO PUSH2 0x402 JUMPI PUSH1 0x0 DUP1 REVERT JUMPDEST POP PUSH2 0x421 PUSH1 0x4 DUP1 CALLDATASIZE SUB DUP2 ADD SWAP1 DUP1 DUP1 CALLDATALOAD SWAP1 PUSH1 0x20 ADD SWAP1 SWAP3 SWAP2 SWAP1 POP POP POP PUSH2 0xD95 JUMP JUMPDEST PUSH1 0x40 MLOAD DUP1 DUP3 DUP2 MSTORE PUSH1 0x20 ADD SWAP2 POP POP PUSH1 0x40 MLOAD DUP1 SWAP2 SUB SWAP1 RETURN JUMPDEST CALLVALUE DUP1 ISZERO PUSH2 0x443 JUMPI PUSH1 0x0 DUP1 REVERT JUMPDEST POP PUSH2 0x462 PUSH1 0x4 DUP1 CALLDATASIZE SUB DUP2 ADD SWAP1 DUP1 DUP1 CALLDATALOAD SWAP1 PUSH1 0x20 ADD SWAP1 SWAP3 SWAP2 SWAP1 POP POP POP PUSH2 0xDCD JUMP JUMPDEST PUSH1 0x40 MLOAD DUP1 DUP3 PUSH20 0xFFFFFFFFFFFFFFFFFFFFFFFFFFFFFFFFFFFFFFFF AND PUSH20 0xFFFFFFFFFFFFFFFFFFFFFFFFFFFFFFFFFFFFFFFF AND DUP2 MSTORE PUSH1 0x20 ADD SWAP2 POP POP PUSH1 0x40 MLOAD DUP1 SWAP2 SUB SWAP1 RETURN JUMPDEST CALLVALUE DUP1 ISZERO PUSH2 0x4B0 JUMPI PUSH1 0x0 DUP1 REVERT JUMPDEST POP PUSH2 0x4E5 PUSH1 0x4 DUP1 CALLDATASIZE SUB DUP2 ADD SWAP1 DUP1 DUP1 CALLDATALOAD PUSH20 0xFFFFFFFFFFFFFFFFFFFFFFFFFFFFFFFFFFFFFFFF AND SWAP1 PUSH1 0x20 ADD SWAP1 SWAP3 SWAP2 SWAP1 POP POP POP PUSH2 0xE4A JUMP JUMPDEST PUSH1 0x40 MLOAD DUP1 DUP3 DUP2 MSTORE PUSH1 0x20 ADD SWAP2 POP POP PUSH1 0x40 MLOAD DUP1 SWAP2 SUB SWAP1 RETURN JUMPDEST CALLVALUE DUP1 ISZERO PUSH2 0x507 JUMPI PUSH1 0x0 DUP1 REVERT JUMPDEST POP PUSH2 0x510 PUSH2 0xECE JUMP JUMPDEST PUSH1 0x40 MLOAD DUP1 DUP1 PUSH1 0x20 ADD DUP3 DUP2 SUB DUP3 MSTORE DUP4 DUP2 DUP2 MLOAD DUP2 MSTORE PUSH1 0x20 ADD SWAP2 POP DUP1 MLOAD SWAP1 PUSH1 0x20 ADD SWAP1 DUP1 DUP4 DUP4 PUSH1 0x0 JUMPDEST DUP4 DUP2 LT ISZERO PUSH2 0x550 JUMPI DUP1 DUP3 ADD MLOAD DUP2 DUP5 ADD MSTORE PUSH1 0x20 DUP2 ADD SWAP1 POP PUSH2 0x535 JUMP JUMPDEST POP POP POP POP SWAP1 POP SWAP1 DUP2 ADD SWAP1 PUSH1 0x1F AND DUP1 ISZERO PUSH2 0x57D JUMPI DUP1 DUP3 SUB DUP1 MLOAD PUSH1 0x1 DUP4 PUSH1 0x20 SUB PUSH2 0x100 EXP SUB NOT AND DUP2 MSTORE PUSH1 0x20 ADD SWAP2 POP JUMPDEST POP SWAP3 POP POP POP PUSH1 0x40 MLOAD DUP1 SWAP2 SUB SWAP1 RETURN JUMPDEST CALLVALUE DUP1 ISZERO PUSH2 0x597 JUMPI PUSH1 0x0 DUP1 REVERT JUMPDEST POP PUSH2 0x5D8 PUSH1 0x4 DUP1 CALLDATASIZE SUB DUP2 ADD SWAP1 DUP1 DUP1 CALLDATALOAD PUSH20 0xFFFFFFFFFFFFFFFFFFFFFFFFFFFFFFFFFFFFFFFF AND SWAP1 PUSH1 0x20 ADD SWAP1 SWAP3 SWAP2 SWAP1 DUP1 CALLDATALOAD ISZERO ISZERO SWAP1 PUSH1 0x20 ADD SWAP1 SWAP3 SWAP2 SWAP1 POP POP POP PUSH2 0xF70 JUMP JUMPDEST STOP JUMPDEST CALLVALUE DUP1 ISZERO PUSH2 0x5E6 JUMPI PUSH1 0x0 DUP1 REVERT JUMPDEST POP PUSH2 0x68B PUSH1 0x4 DUP1 CALLDATASIZE SUB DUP2 ADD SWAP1 DUP1 DUP1 CALLDATALOAD PUSH20 0xFFFFFFFFFFFFFFFFFFFFFFFFFFFFFFFFFFFFFFFF AND SWAP1 PUSH1 0x20 ADD SWAP1 SWAP3 SWAP2 SWAP1 DUP1 CALLDATALOAD PUSH20 0xFFFFFFFFFFFFFFFFFFFFFFFFFFFFFFFFFFFFFFFF AND SWAP1 PUSH1 0x20 ADD SWAP1 SWAP3 SWAP2 SWAP1 DUP1 CALLDATALOAD SWAP1 PUSH1 0x20 ADD SWAP1 SWAP3 SWAP2 SWAP1 DUP1 CALLDATALOAD SWAP1 PUSH1 0x20 ADD SWAP1 DUP3 ADD DUP1 CALLDATALOAD SWAP1 PUSH1 0x20 ADD SWAP1 DUP1 DUP1 PUSH1 0x1F ADD PUSH1 0x20 DUP1 SWAP2 DIV MUL PUSH1 0x20 ADD PUSH1 0x40 MLOAD SWAP1 DUP2 ADD PUSH1 0x40 MSTORE DUP1 SWAP4 SWAP3 SWAP2 SWAP1 DUP2 DUP2 MSTORE PUSH1 0x20 ADD DUP4 DUP4 DUP1 DUP3 DUP5 CALLDATACOPY DUP3 ADD SWAP2 POP POP POP POP POP POP SWAP2 SWAP3 SWAP2 SWAP3 SWAP1 POP POP POP PUSH2 0x10AC JUMP JUMPDEST STOP JUMPDEST CALLVALUE DUP1 ISZERO PUSH2 0x699 JUMPI PUSH1 0x0 DUP1 REVERT JUMPDEST POP PUSH2 0x6B8 PUSH1 0x4 DUP1 CALLDATASIZE SUB DUP2 ADD SWAP1 DUP1 DUP1 CALLDATALOAD SWAP1 PUSH1 0x20 ADD SWAP1 SWAP3 SWAP2 SWAP1 POP POP POP PUSH2 0x10EB JUMP JUMPDEST PUSH1 0x40 MLOAD DUP1 DUP1 PUSH1 0x20 ADD DUP3 DUP2 SUB DUP3 MSTORE DUP4 DUP2 DUP2 MLOAD DUP2 MSTORE PUSH1 0x20 ADD SWAP2 POP DUP1 MLOAD SWAP1 PUSH1 0x20 ADD SWAP1 DUP1 DUP4 DUP4 PUSH1 0x0 JUMPDEST DUP4 DUP2 LT ISZERO PUSH2 0x6F8 JUMPI DUP1 DUP3 ADD MLOAD DUP2 DUP5 ADD MSTORE PUSH1 0x20 DUP2 ADD SWAP1 POP PUSH2 0x6DD JUMP JUMPDEST POP POP POP POP SWAP1 POP SWAP1 DUP2 ADD SWAP1 PUSH1 0x1F AND DUP1 ISZERO PUSH2 0x725 JUMPI DUP1 DUP3 SUB DUP1 MLOAD PUSH1 0x1 DUP4 PUSH1 0x20 SUB PUSH2 0x100 EXP SUB NOT AND DUP2 MSTORE PUSH1 0x20 ADD SWAP2 POP JUMPDEST POP SWAP3 POP POP POP PUSH1 0x40 MLOAD DUP1 SWAP2 SUB SWAP1 RETURN JUMPDEST CALLVALUE DUP1 ISZERO PUSH2 0x73F JUMPI PUSH1 0x0 DUP1 REVERT JUMPDEST POP PUSH2 0x7A4 PUSH1 0x4 DUP1 CALLDATASIZE SUB DUP2 ADD SWAP1 DUP1 DUP1 CALLDATALOAD SWAP1 PUSH1 0x20 ADD SWAP1 SWAP3 SWAP2 SWAP1 DUP1 CALLDATALOAD SWAP1 PUSH1 0x20 ADD SWAP1 DUP3 ADD DUP1 CALLDATALOAD SWAP1 PUSH1 0x20 ADD SWAP1 DUP1 DUP1 PUSH1 0x1F ADD PUSH1 0x20 DUP1 SWAP2 DIV MUL PUSH1 0x20 ADD PUSH1 0x40 MLOAD SWAP1 DUP2 ADD PUSH1 0x40 MSTORE DUP1 SWAP4 SWAP3 SWAP2 SWAP1 DUP2 DUP2 MSTORE PUSH1 0x20 ADD DUP4 DUP4 DUP1 DUP3 DUP5 CALLDATACOPY DUP3 ADD SWAP2 POP POP POP POP POP POP SWAP2 SWAP3 SWAP2 SWAP3 SWAP1 POP POP POP PUSH2 0x11B4 JUMP JUMPDEST PUSH1 0x40 MLOAD DUP1 DUP3 ISZERO ISZERO ISZERO ISZERO DUP2 MSTORE PUSH1 0x20 ADD SWAP2 POP POP PUSH1 0x40 MLOAD DUP1 SWAP2 SUB SWAP1 RETURN JUMPDEST CALLVALUE DUP1 ISZERO PUSH2 0x7CA JUMPI PUSH1 0x0 DUP1 REVERT JUMPDEST POP PUSH2 0x81F PUSH1 0x4 DUP1 CALLDATASIZE SUB DUP2 ADD SWAP1 DUP1 DUP1 CALLDATALOAD PUSH20 0xFFFFFFFFFFFFFFFFFFFFFFFFFFFFFFFFFFFFFFFF AND SWAP1 PUSH1 0x20 ADD SWAP1 SWAP3 SWAP2 SWAP1 DUP1 CALLDATALOAD PUSH20 0xFFFFFFFFFFFFFFFFFFFFFFFFFFFFFFFFFFFFFFFF AND SWAP1 PUSH1 0x20 ADD SWAP1 SWAP3 SWAP2 SWAP1 POP POP POP PUSH2 0x11CA JUMP JUMPDEST PUSH1 0x40 MLOAD DUP1 DUP3 ISZERO ISZERO ISZERO ISZERO DUP2 MSTORE PUSH1 0x20 ADD SWAP2 POP POP PUSH1 0x40 MLOAD DUP1 SWAP2 SUB SWAP1 RETURN JUMPDEST CALLVALUE DUP1 ISZERO PUSH2 0x845 JUMPI PUSH1 0x0 DUP1 REVERT JUMPDEST POP PUSH2 0x8AA PUSH1 0x4 DUP1 CALLDATASIZE SUB DUP2 ADD SWAP1 DUP1 DUP1 CALLDATALOAD SWAP1 PUSH1 0x20 ADD SWAP1 SWAP3 SWAP2 SWAP1 DUP1 CALLDATALOAD SWAP1 PUSH1 0x20 ADD SWAP1 DUP3 ADD DUP1 CALLDATALOAD SWAP1 PUSH1 0x20 ADD SWAP1 DUP1 DUP1 PUSH1 0x1F ADD PUSH1 0x20 DUP1 SWAP2 DIV MUL PUSH1 0x20 ADD PUSH1 0x40 MLOAD SWAP1 DUP2 ADD PUSH1 0x40 MSTORE DUP1 SWAP4 SWAP3 SWAP2 SWAP1 DUP2 DUP2 MSTORE PUSH1 0x20 ADD DUP4 DUP4 DUP1 DUP3 DUP5 CALLDATACOPY DUP3 ADD SWAP2 POP POP POP POP POP POP SWAP2 SWAP3 SWAP2 SWAP3 SWAP1 POP POP POP PUSH2 0x125E JUMP JUMPDEST STOP JUMPDEST PUSH1 0x60 PUSH1 0x4 DUP1 SLOAD PUSH1 0x1 DUP2 PUSH1 0x1 AND ISZERO PUSH2 0x100 MUL SUB AND PUSH1 0x2 SWAP1 DIV DUP1 PUSH1 0x1F ADD PUSH1 0x20 DUP1 SWAP2 DIV MUL PUSH1 0x20 ADD PUSH1 0x40 MLOAD SWAP1 DUP2 ADD PUSH1 0x40 MSTORE DUP1 SWAP3 SWAP2 SWAP1 DUP2 DUP2 MSTORE PUSH1 0x20 ADD DUP3 DUP1 SLOAD PUSH1 0x1 DUP2 PUSH1 0x1 AND ISZERO PUSH2 0x100 MUL SUB AND PUSH1 0x2 SWAP1 DIV DUP1 ISZERO PUSH2 0x944 JUMPI DUP1 PUSH1 0x1F LT PUSH2 0x919 JUMPI PUSH2 0x100 DUP1 DUP4 SLOAD DIV MUL DUP4 MSTORE SWAP2 PUSH1 0x20 ADD SWAP2 PUSH2 0x944 JUMP JUMPDEST DUP3 ADD SWAP2 SWAP1 PUSH1 0x0 MSTORE PUSH1 0x20 PUSH1 0x0 KECCAK256 SWAP1 JUMPDEST DUP2 SLOAD DUP2 MSTORE SWAP1 PUSH1 0x1 ADD SWAP1 PUSH1 0x20 ADD DUP1 DUP4 GT PUSH2 0x927 JUMPI DUP3 SWAP1 SUB PUSH1 0x1F AND DUP3 ADD SWAP2 JUMPDEST POP POP POP POP POP SWAP1 POP SWAP1 JUMP JUMPDEST PUSH1 0x0 PUSH1 0x1 PUSH1 0x0 DUP4 DUP2 MSTORE PUSH1 0x20 ADD SWAP1 DUP2 MSTORE PUSH1 0x20 ADD PUSH1 0x0 KECCAK256 PUSH1 0x0 SWAP1 SLOAD SWAP1 PUSH2 0x100 EXP SWAP1 DIV PUSH20 0xFFFFFFFFFFFFFFFFFFFFFFFFFFFFFFFFFFFFFFFF AND SWAP1 POP SWAP2 SWAP1 POP JUMP JUMPDEST PUSH1 0x0 PUSH2 0x996 DUP3 PUSH2 0xDCD JUMP JUMPDEST SWAP1 POP DUP1 PUSH20 0xFFFFFFFFFFFFFFFFFFFFFFFFFFFFFFFFFFFFFFFF AND DUP4 PUSH20 0xFFFFFFFFFFFFFFFFFFFFFFFFFFFFFFFFFFFFFFFF AND EQ ISZERO ISZERO ISZERO PUSH2 0x9D3 JUMPI PUSH1 0x0 DUP1 REVERT JUMPDEST DUP1 PUSH20 0xFFFFFFFFFFFFFFFFFFFFFFFFFFFFFFFFFFFFFFFF AND CALLER PUSH20 0xFFFFFFFFFFFFFFFFFFFFFFFFFFFFFFFFFFFFFFFF AND EQ DUP1 PUSH2 0xA13 JUMPI POP PUSH2 0xA12 DUP2 CALLER PUSH2 0x11CA JUMP JUMPDEST JUMPDEST ISZERO ISZERO PUSH2 0xA1E JUMPI PUSH1 0x0 DUP1 REVERT JUMPDEST PUSH1 0x0 PUSH20 0xFFFFFFFFFFFFFFFFFFFFFFFFFFFFFFFFFFFFFFFF AND PUSH2 0xA3F DUP4 PUSH2 0x94E JUMP JUMPDEST PUSH20 0xFFFFFFFFFFFFFFFFFFFFFFFFFFFFFFFFFFFFFFFF AND EQ ISZERO DUP1 PUSH2 0xA8F JUMPI POP PUSH1 0x0 PUSH20 0xFFFFFFFFFFFFFFFFFFFFFFFFFFFFFFFFFFFFFFFF AND DUP4 PUSH20 0xFFFFFFFFFFFFFFFFFFFFFFFFFFFFFFFFFFFFFFFF AND EQ ISZERO JUMPDEST ISZERO PUSH2 0xB4C JUMPI DUP3 PUSH1 0x1 PUSH1 0x0 DUP5 DUP2 MSTORE PUSH1 0x20 ADD SWAP1 DUP2 MSTORE PUSH1 0x20 ADD PUSH1 0x0 KECCAK256 PUSH1 0x0 PUSH2 0x100 EXP DUP2 SLOAD DUP2 PUSH20 0xFFFFFFFFFFFFFFFFFFFFFFFFFFFFFFFFFFFFFFFF MUL NOT AND SWAP1 DUP4 PUSH20 0xFFFFFFFFFFFFFFFFFFFFFFFFFFFFFFFFFFFFFFFF AND MUL OR SWAP1 SSTORE POP DUP3 PUSH20 0xFFFFFFFFFFFFFFFFFFFFFFFFFFFFFFFFFFFFFFFF AND DUP2 PUSH20 0xFFFFFFFFFFFFFFFFFFFFFFFFFFFFFFFFFFFFFFFF AND PUSH32 0x8C5BE1E5EBEC7D5BD14F71427D1E84F3DD0314C0F7B2291E5B200AC8C7C3B925 DUP5 PUSH1 0x40 MLOAD DUP1 DUP3 DUP2 MSTORE PUSH1 0x20 ADD SWAP2 POP POP PUSH1 0x40 MLOAD DUP1 SWAP2 SUB SWAP1 LOG3 JUMPDEST POP POP POP JUMP JUMPDEST PUSH1 0x0 PUSH1 0x8 DUP1 SLOAD SWAP1 POP SWAP1 POP SWAP1 JUMP JUMPDEST DUP1 PUSH2 0xB69 CALLER DUP3 PUSH2 0x12E2 JUMP JUMPDEST ISZERO ISZERO PUSH2 0xB74 JUMPI PUSH1 0x0 DUP1 REVERT JUMPDEST PUSH1 0x0 PUSH20 0xFFFFFFFFFFFFFFFFFFFFFFFFFFFFFFFFFFFFFFFF AND DUP5 PUSH20 0xFFFFFFFFFFFFFFFFFFFFFFFFFFFFFFFFFFFFFFFF AND EQ ISZERO ISZERO ISZERO PUSH2 0xBB0 JUMPI PUSH1 0x0 DUP1 REVERT JUMPDEST PUSH1 0x0 PUSH20 0xFFFFFFFFFFFFFFFFFFFFFFFFFFFFFFFFFFFFFFFF AND DUP4 PUSH20 0xFFFFFFFFFFFFFFFFFFFFFFFFFFFFFFFFFFFFFFFF AND EQ ISZERO ISZERO ISZERO PUSH2 0xBEC JUMPI PUSH1 0x0 DUP1 REVERT JUMPDEST PUSH2 0xBF6 DUP5 DUP4 PUSH2 0x1377 JUMP JUMPDEST PUSH2 0xC00 DUP5 DUP4 PUSH2 0x14E0 JUMP JUMPDEST PUSH2 0xC0A DUP4 DUP4 PUSH2 0x16F8 JUMP JUMPDEST DUP3 PUSH20 0xFFFFFFFFFFFFFFFFFFFFFFFFFFFFFFFFFFFFFFFF AND DUP5 PUSH20 0xFFFFFFFFFFFFFFFFFFFFFFFFFFFFFFFFFFFFFFFF AND PUSH32 0xDDF252AD1BE2C89B69C2B068FC378DAA952BA7F163C4A11628F55A4DF523B3EF DUP5 PUSH1 0x40 MLOAD DUP1 DUP3 DUP2 MSTORE PUSH1 0x20 ADD SWAP2 POP POP PUSH1 0x40 MLOAD DUP1 SWAP2 SUB SWAP1 LOG3 POP POP POP POP JUMP JUMPDEST PUSH1 0x0 PUSH2 0xC80 DUP4 PUSH2 0xE4A JUMP JUMPDEST DUP3 LT ISZERO ISZERO PUSH2 0xC8D JUMPI PUSH1 0x0 DUP1 REVERT JUMPDEST PUSH1 0x6 PUSH1 0x0 DUP5 PUSH20 0xFFFFFFFFFFFFFFFFFFFFFFFFFFFFFFFFFFFFFFFF AND PUSH20 0xFFFFFFFFFFFFFFFFFFFFFFFFFFFFFFFFFFFFFFFF AND DUP2 MSTORE PUSH1 0x20 ADD SWAP1 DUP2 MSTORE PUSH1 0x20 ADD PUSH1 0x0 KECCAK256 DUP3 DUP2 SLOAD DUP2 LT ISZERO ISZERO PUSH2 0xCD9 JUMPI INVALID JUMPDEST SWAP1 PUSH1 0x0 MSTORE PUSH1 0x20 PUSH1 0x0 KECCAK256 ADD SLOAD SWAP1 POP SWAP3 SWAP2 POP POP JUMP JUMPDEST DUP1 PUSH2 0xCF7 CALLER DUP3 PUSH2 0x12E2 JUMP JUMPDEST ISZERO ISZERO PUSH2 0xD02 JUMPI PUSH1 0x0 DUP1 REVERT JUMPDEST PUSH2 0xD1E DUP5 DUP5 DUP5 PUSH1 0x20 PUSH1 0x40 MLOAD SWAP1 DUP2 ADD PUSH1 0x40 MSTORE DUP1 PUSH1 0x0 DUP2 MSTORE POP PUSH2 0x10AC JUMP JUMPDEST POP POP POP POP JUMP JUMPDEST PUSH1 0x0 DUP1 PUSH1 0x0 DUP1 DUP5 DUP2 MSTORE PUSH1 0x20 ADD SWAP1 DUP2 MSTORE PUSH1 0x20 ADD PUSH1 0x0 KECCAK256 PUSH1 0x0 SWAP1 SLOAD SWAP1 PUSH2 0x100 EXP SWAP1 DIV PUSH20 0xFFFFFFFFFFFFFFFFFFFFFFFFFFFFFFFFFFFFFFFF AND SWAP1 POP PUSH1 0x0 PUSH20 0xFFFFFFFFFFFFFFFFFFFFFFFFFFFFFFFFFFFFFFFF AND DUP2 PUSH20 0xFFFFFFFFFFFFFFFFFFFFFFFFFFFFFFFFFFFFFFFF AND EQ ISZERO SWAP2 POP POP SWAP2 SWAP1 POP JUMP JUMPDEST PUSH1 0x0 PUSH2 0xD9F PUSH2 0xB51 JUMP JUMPDEST DUP3 LT ISZERO ISZERO PUSH2 0xDAC JUMPI PUSH1 0x0 DUP1 REVERT JUMPDEST PUSH1 0x8 DUP3 DUP2 SLOAD DUP2 LT ISZERO ISZERO PUSH2 0xDBB JUMPI INVALID JUMPDEST SWAP1 PUSH1 0x0 MSTORE PUSH1 0x20 PUSH1 0x0 KECCAK256 ADD SLOAD SWAP1 POP SWAP2 SWAP1 POP JUMP JUMPDEST PUSH1 0x0 DUP1 PUSH1 0x0 DUP1 DUP5 DUP2 MSTORE PUSH1 0x20 ADD SWAP1 DUP2 MSTORE PUSH1 0x20 ADD PUSH1 0x0 KECCAK256 PUSH1 0x0 SWAP1 SLOAD SWAP1 PUSH2 0x100 EXP SWAP1 DIV PUSH20 0xFFFFFFFFFFFFFFFFFFFFFFFFFFFFFFFFFFFFFFFF AND SWAP1 POP PUSH1 0x0 PUSH20 0xFFFFFFFFFFFFFFFFFFFFFFFFFFFFFFFFFFFFFFFF AND DUP2 PUSH20 0xFFFFFFFFFFFFFFFFFFFFFFFFFFFFFFFFFFFFFFFF AND EQ ISZERO ISZERO ISZERO PUSH2 0xE41 JUMPI PUSH1 0x0 DUP1 REVERT JUMPDEST DUP1 SWAP2 POP POP SWAP2 SWAP1 POP JUMP JUMPDEST PUSH1 0x0 DUP1 PUSH20 0xFFFFFFFFFFFFFFFFFFFFFFFFFFFFFFFFFFFFFFFF AND DUP3 PUSH20 0xFFFFFFFFFFFFFFFFFFFFFFFFFFFFFFFFFFFFFFFF AND EQ ISZERO ISZERO ISZERO PUSH2 0xE87 JUMPI PUSH1 0x0 DUP1 REVERT JUMPDEST PUSH1 0x2 PUSH1 0x0 DUP4 PUSH20 0xFFFFFFFFFFFFFFFFFFFFFFFFFFFFFFFFFFFFFFFF AND PUSH20 0xFFFFFFFFFFFFFFFFFFFFFFFFFFFFFFFFFFFFFFFF AND DUP2 MSTORE PUSH1 0x20 ADD SWAP1 DUP2 MSTORE PUSH1 0x20 ADD PUSH1 0x0 KECCAK256 SLOAD SWAP1 POP SWAP2 SWAP1 POP JUMP JUMPDEST PUSH1 0x60 PUSH1 0x5 DUP1 SLOAD PUSH1 0x1 DUP2 PUSH1 0x1 AND ISZERO PUSH2 0x100 MUL SUB AND PUSH1 0x2 SWAP1 DIV DUP1 PUSH1 0x1F ADD PUSH1 0x20 DUP1 SWAP2 DIV MUL PUSH1 0x20 ADD PUSH1 0x40 MLOAD SWAP1 DUP2 ADD PUSH1 0x40 MSTORE DUP1 SWAP3 SWAP2 SWAP1 DUP2 DUP2 MSTORE PUSH1 0x20 ADD DUP3 DUP1 SLOAD PUSH1 0x1 DUP2 PUSH1 0x1 AND ISZERO PUSH2 0x100 MUL SUB AND PUSH1 0x2 SWAP1 DIV DUP1 ISZERO PUSH2 0xF66 JUMPI DUP1 PUSH1 0x1F LT PUSH2 0xF3B JUMPI PUSH2 0x100 DUP1 DUP4 SLOAD DIV MUL DUP4 MSTORE SWAP2 PUSH1 0x20 ADD SWAP2 PUSH2 0xF66 JUMP JUMPDEST DUP3 ADD SWAP2 SWAP1 PUSH1 0x0 MSTORE PUSH1 0x20 PUSH1 0x0 KECCAK256 SWAP1 JUMPDEST DUP2 SLOAD DUP2 MSTORE SWAP1 PUSH1 0x1 ADD SWAP1 PUSH1 0x20 ADD DUP1 DUP4 GT PUSH2 0xF49 JUMPI DUP3 SWAP1 SUB PUSH1 0x1F AND DUP3 ADD SWAP2 JUMPDEST POP POP POP POP POP SWAP1 POP SWAP1 JUMP JUMPDEST CALLER PUSH20 0xFFFFFFFFFFFFFFFFFFFFFFFFFFFFFFFFFFFFFFFF AND DUP3 PUSH20 0xFFFFFFFFFFFFFFFFFFFFFFFFFFFFFFFFFFFFFFFF AND EQ ISZERO ISZERO ISZERO PUSH2 0xFAB JUMPI PUSH1 0x0 DUP1 REVERT JUMPDEST DUP1 PUSH1 0x3 PUSH1 0x0 CALLER PUSH20 0xFFFFFFFFFFFFFFFFFFFFFFFFFFFFFFFFFFFFFFFF AND PUSH20 0xFFFFFFFFFFFFFFFFFFFFFFFFFFFFFFFFFFFFFFFF AND DUP2 MSTORE PUSH1 0x20 ADD SWAP1 DUP2 MSTORE PUSH1 0x20 ADD PUSH1 0x0 KECCAK256 PUSH1 0x0 DUP5 PUSH20 0xFFFFFFFFFFFFFFFFFFFFFFFFFFFFFFFFFFFFFFFF AND PUSH20 0xFFFFFFFFFFFFFFFFFFFFFFFFFFFFFFFFFFFFFFFF AND DUP2 MSTORE PUSH1 0x20 ADD SWAP1 DUP2 MSTORE PUSH1 0x20 ADD PUSH1 0x0 KECCAK256 PUSH1 0x0 PUSH2 0x100 EXP DUP2 SLOAD DUP2 PUSH1 0xFF MUL NOT AND SWAP1 DUP4 ISZERO ISZERO MUL OR SWAP1 SSTORE POP DUP2 PUSH20 0xFFFFFFFFFFFFFFFFFFFFFFFFFFFFFFFFFFFFFFFF AND CALLER PUSH20 0xFFFFFFFFFFFFFFFFFFFFFFFFFFFFFFFFFFFFFFFF AND PUSH32 0x17307EAB39AB6107E8899845AD3D59BD9653F200F220920489CA2B5937696C31 DUP4 PUSH1 0x40 MLOAD DUP1 DUP3 ISZERO ISZERO ISZERO ISZERO DUP2 MSTORE PUSH1 0x20 ADD SWAP2 POP POP PUSH1 0x40 MLOAD DUP1 SWAP2 SUB SWAP1 LOG3 POP POP JUMP JUMPDEST DUP2 PUSH2 0x10B7 CALLER DUP3 PUSH2 0x12E2 JUMP JUMPDEST ISZERO ISZERO PUSH2 0x10C2 JUMPI PUSH1 0x0 DUP1 REVERT JUMPDEST PUSH2 0x10CD DUP6 DUP6 DUP6 PUSH2 0xB5E JUMP JUMPDEST PUSH2 0x10D9 DUP6 DUP6 DUP6 DUP6 PUSH2 0x17CF JUMP JUMPDEST ISZERO ISZERO PUSH2 0x10E4 JUMPI PUSH1 0x0 DUP1 REVERT JUMPDEST POP POP POP POP POP JUMP JUMPDEST PUSH1 0x60 PUSH2 0x10F6 DUP3 PUSH2 0xD24 JUMP JUMPDEST ISZERO ISZERO PUSH2 0x1101 JUMPI PUSH1 0x0 DUP1 REVERT JUMPDEST PUSH1 0xA PUSH1 0x0 DUP4 DUP2 MSTORE PUSH1 0x20 ADD SWAP1 DUP2 MSTORE PUSH1 0x20 ADD PUSH1 0x0 KECCAK256 DUP1 SLOAD PUSH1 0x1 DUP2 PUSH1 0x1 AND ISZERO PUSH2 0x100 MUL SUB AND PUSH1 0x2 SWAP1 DIV DUP1 PUSH1 0x1F ADD PUSH1 0x20 DUP1 SWAP2 DIV MUL PUSH1 0x20 ADD PUSH1 0x40 MLOAD SWAP1 DUP2 ADD PUSH1 0x40 MSTORE DUP1 SWAP3 SWAP2 SWAP1 DUP2 DUP2 MSTORE PUSH1 0x20 ADD DUP3 DUP1 SLOAD PUSH1 0x1 DUP2 PUSH1 0x1 AND ISZERO PUSH2 0x100 MUL SUB AND PUSH1 0x2 SWAP1 DIV DUP1 ISZERO PUSH2 0x11A8 JUMPI DUP1 PUSH1 0x1F LT PUSH2 0x117D JUMPI PUSH2 0x100 DUP1 DUP4 SLOAD DIV MUL DUP4 MSTORE SWAP2 PUSH1 0x20 ADD SWAP2 PUSH2 0x11A8 JUMP JUMPDEST DUP3 ADD SWAP2 SWAP1 PUSH1 0x0 MSTORE PUSH1 0x20 PUSH1 0x0 KECCAK256 SWAP1 JUMPDEST DUP2 SLOAD DUP2 MSTORE SWAP1 PUSH1 0x1 ADD SWAP1 PUSH1 0x20 ADD DUP1 DUP4 GT PUSH2 0x118B JUMPI DUP3 SWAP1 SUB PUSH1 0x1F AND DUP3 ADD SWAP2 JUMPDEST POP POP POP POP POP SWAP1 POP SWAP2 SWAP1 POP JUMP JUMPDEST PUSH1 0x0 PUSH2 0x11C0 DUP4 DUP4 PUSH2 0x19BD JUMP JUMPDEST PUSH1 0x1 SWAP1 POP SWAP3 SWAP2 POP POP JUMP JUMPDEST PUSH1 0x0 PUSH1 0x3 PUSH1 0x0 DUP5 PUSH20 0xFFFFFFFFFFFFFFFFFFFFFFFFFFFFFFFFFFFFFFFF AND PUSH20 0xFFFFFFFFFFFFFFFFFFFFFFFFFFFFFFFFFFFFFFFF AND DUP2 MSTORE PUSH1 0x20 ADD SWAP1 DUP2 MSTORE PUSH1 0x20 ADD PUSH1 0x0 KECCAK256 PUSH1 0x0 DUP4 PUSH20 0xFFFFFFFFFFFFFFFFFFFFFFFFFFFFFFFFFFFFFFFF AND PUSH20 0xFFFFFFFFFFFFFFFFFFFFFFFFFFFFFFFFFFFFFFFF AND DUP2 MSTORE PUSH1 0x20 ADD SWAP1 DUP2 MSTORE PUSH1 0x20 ADD PUSH1 0x0 KECCAK256 PUSH1 0x0 SWAP1 SLOAD SWAP1 PUSH2 0x100 EXP SWAP1 DIV PUSH1 0xFF AND SWAP1 POP SWAP3 SWAP2 POP POP JUMP JUMPDEST PUSH2 0x1268 CALLER DUP4 PUSH2 0x19FD JUMP JUMPDEST PUSH2 0x1272 DUP3 DUP3 PUSH2 0x11B4 JUMP JUMPDEST POP PUSH32 0x32CC5B866D6A5990A7F987020B639157969CB963B9BEB2CDF41DF22AB152DF35 CALLER DUP4 PUSH1 0x40 MLOAD DUP1 DUP4 PUSH20 0xFFFFFFFFFFFFFFFFFFFFFFFFFFFFFFFFFFFFFFFF AND PUSH20 0xFFFFFFFFFFFFFFFFFFFFFFFFFFFFFFFFFFFFFFFF AND DUP2 MSTORE PUSH1 0x20 ADD DUP3 DUP2 MSTORE PUSH1 0x20 ADD SWAP3 POP POP POP PUSH1 0x40 MLOAD DUP1 SWAP2 SUB SWAP1 LOG1 POP POP JUMP JUMPDEST PUSH1 0x0 DUP1 PUSH2 0x12EE DUP4 PUSH2 0xDCD JUMP JUMPDEST SWAP1 POP DUP1 PUSH20 0xFFFFFFFFFFFFFFFFFFFFFFFFFFFFFFFFFFFFFFFF AND DUP5 PUSH20 0xFFFFFFFFFFFFFFFFFFFFFFFFFFFFFFFFFFFFFFFF AND EQ DUP1 PUSH2 0x135D JUMPI POP DUP4 PUSH20 0xFFFFFFFFFFFFFFFFFFFFFFFFFFFFFFFFFFFFFFFF AND PUSH2 0x1345 DUP5 PUSH2 0x94E JUMP JUMPDEST PUSH20 0xFFFFFFFFFFFFFFFFFFFFFFFFFFFFFFFFFFFFFFFF AND EQ JUMPDEST DUP1 PUSH2 0x136E JUMPI POP PUSH2 0x136D DUP2 DUP6 PUSH2 0x11CA JUMP JUMPDEST JUMPDEST SWAP2 POP POP SWAP3 SWAP2 POP POP JUMP JUMPDEST DUP2 PUSH20 0xFFFFFFFFFFFFFFFFFFFFFFFFFFFFFFFFFFFFFFFF AND PUSH2 0x1397 DUP3 PUSH2 0xDCD JUMP JUMPDEST PUSH20 0xFFFFFFFFFFFFFFFFFFFFFFFFFFFFFFFFFFFFFFFF AND EQ ISZERO ISZERO PUSH2 0x13B9 JUMPI PUSH1 0x0 DUP1 REVERT JUMPDEST PUSH1 0x0 PUSH20 0xFFFFFFFFFFFFFFFFFFFFFFFFFFFFFFFFFFFFFFFF AND PUSH1 0x1 PUSH1 0x0 DUP4 DUP2 MSTORE PUSH1 0x20 ADD SWAP1 DUP2 MSTORE PUSH1 0x20 ADD PUSH1 0x0 KECCAK256 PUSH1 0x0 SWAP1 SLOAD SWAP1 PUSH2 0x100 EXP SWAP1 DIV PUSH20 0xFFFFFFFFFFFFFFFFFFFFFFFFFFFFFFFFFFFFFFFF AND PUSH20 0xFFFFFFFFFFFFFFFFFFFFFFFFFFFFFFFFFFFFFFFF AND EQ ISZERO ISZERO PUSH2 0x14DC JUMPI PUSH1 0x0 PUSH1 0x1 PUSH1 0x0 DUP4 DUP2 MSTORE PUSH1 0x20 ADD SWAP1 DUP2 MSTORE PUSH1 0x20 ADD PUSH1 0x0 KECCAK256 PUSH1 0x0 PUSH2 0x100 EXP DUP2 SLOAD DUP2 PUSH20 0xFFFFFFFFFFFFFFFFFFFFFFFFFFFFFFFFFFFFFFFF MUL NOT AND SWAP1 DUP4 PUSH20 0xFFFFFFFFFFFFFFFFFFFFFFFFFFFFFFFFFFFFFFFF AND MUL OR SWAP1 SSTORE POP PUSH1 0x0 PUSH20 0xFFFFFFFFFFFFFFFFFFFFFFFFFFFFFFFFFFFFFFFF AND DUP3 PUSH20 0xFFFFFFFFFFFFFFFFFFFFFFFFFFFFFFFFFFFFFFFF AND PUSH32 0x8C5BE1E5EBEC7D5BD14F71427D1E84F3DD0314C0F7B2291E5B200AC8C7C3B925 DUP4 PUSH1 0x40 MLOAD DUP1 DUP3 DUP2 MSTORE PUSH1 0x20 ADD SWAP2 POP POP PUSH1 0x40 MLOAD DUP1 SWAP2 SUB SWAP1 LOG3 JUMPDEST POP POP JUMP JUMPDEST PUSH1 0x0 DUP1 PUSH1 0x0 PUSH2 0x14EF DUP6 DUP6 PUSH2 0x1A54 JUMP JUMPDEST PUSH1 0x7 PUSH1 0x0 DUP6 DUP2 MSTORE PUSH1 0x20 ADD SWAP1 DUP2 MSTORE PUSH1 0x20 ADD PUSH1 0x0 KECCAK256 SLOAD SWAP3 POP PUSH2 0x155B PUSH1 0x1 PUSH1 0x6 PUSH1 0x0 DUP9 PUSH20 0xFFFFFFFFFFFFFFFFFFFFFFFFFFFFFFFFFFFFFFFF AND PUSH20 0xFFFFFFFFFFFFFFFFFFFFFFFFFFFFFFFFFFFFFFFF AND DUP2 MSTORE PUSH1 0x20 ADD SWAP1 DUP2 MSTORE PUSH1 0x20 ADD PUSH1 0x0 KECCAK256 DUP1 SLOAD SWAP1 POP PUSH2 0x1B82 SWAP1 SWAP2 SWAP1 PUSH4 0xFFFFFFFF AND JUMP JUMPDEST SWAP2 POP PUSH1 0x6 PUSH1 0x0 DUP7 PUSH20 0xFFFFFFFFFFFFFFFFFFFFFFFFFFFFFFFFFFFFFFFF AND PUSH20 0xFFFFFFFFFFFFFFFFFFFFFFFFFFFFFFFFFFFFFFFF AND DUP2 MSTORE PUSH1 0x20 ADD SWAP1 DUP2 MSTORE PUSH1 0x20 ADD PUSH1 0x0 KECCAK256 DUP3 DUP2 SLOAD DUP2 LT ISZERO ISZERO PUSH2 0x15A9 JUMPI INVALID JUMPDEST SWAP1 PUSH1 0x0 MSTORE PUSH1 0x20 PUSH1 0x0 KECCAK256 ADD SLOAD SWAP1 POP DUP1 PUSH1 0x6 PUSH1 0x0 DUP8 PUSH20 0xFFFFFFFFFFFFFFFFFFFFFFFFFFFFFFFFFFFFFFFF AND PUSH20 0xFFFFFFFFFFFFFFFFFFFFFFFFFFFFFFFFFFFFFFFF AND DUP2 MSTORE PUSH1 0x20 ADD SWAP1 DUP2 MSTORE PUSH1 0x20 ADD PUSH1 0x0 KECCAK256 DUP5 DUP2 SLOAD DUP2 LT ISZERO ISZERO PUSH2 0x1603 JUMPI INVALID JUMPDEST SWAP1 PUSH1 0x0 MSTORE PUSH1 0x20 PUSH1 0x0 KECCAK256 ADD DUP2 SWAP1 SSTORE POP PUSH1 0x0 PUSH1 0x6 PUSH1 0x0 DUP8 PUSH20 0xFFFFFFFFFFFFFFFFFFFFFFFFFFFFFFFFFFFFFFFF AND PUSH20 0xFFFFFFFFFFFFFFFFFFFFFFFFFFFFFFFFFFFFFFFF AND DUP2 MSTORE PUSH1 0x20 ADD SWAP1 DUP2 MSTORE PUSH1 0x20 ADD PUSH1 0x0 KECCAK256 DUP4 DUP2 SLOAD DUP2 LT ISZERO ISZERO PUSH2 0x165F JUMPI INVALID JUMPDEST SWAP1 PUSH1 0x0 MSTORE PUSH1 0x20 PUSH1 0x0 KECCAK256 ADD DUP2 SWAP1 SSTORE POP PUSH1 0x6 PUSH1 0x0 DUP7 PUSH20 0xFFFFFFFFFFFFFFFFFFFFFFFFFFFFFFFFFFFFFFFF AND PUSH20 0xFFFFFFFFFFFFFFFFFFFFFFFFFFFFFFFFFFFFFFFF AND DUP2 MSTORE PUSH1 0x20 ADD SWAP1 DUP2 MSTORE PUSH1 0x20 ADD PUSH1 0x0 KECCAK256 DUP1 SLOAD DUP1 SWAP2 SWAP1 PUSH1 0x1 SWAP1 SUB PUSH2 0x16BF SWAP2 SWAP1 PUSH2 0x1DD4 JUMP JUMPDEST POP PUSH1 0x0 PUSH1 0x7 PUSH1 0x0 DUP7 DUP2 MSTORE PUSH1 0x20 ADD SWAP1 DUP2 MSTORE PUSH1 0x20 ADD PUSH1 0x0 KECCAK256 DUP2 SWAP1 SSTORE POP DUP3 PUSH1 0x7 PUSH1 0x0 DUP4 DUP2 MSTORE PUSH1 0x20 ADD SWAP1 DUP2 MSTORE PUSH1 0x20 ADD PUSH1 0x0 KECCAK256 DUP2 SWAP1 SSTORE POP POP POP POP POP POP JUMP JUMPDEST PUSH1 0x0 PUSH2 0x1704 DUP4 DUP4 PUSH2 0x1B9B JUMP JUMPDEST PUSH1 0x6 PUSH1 0x0 DUP5 PUSH20 0xFFFFFFFFFFFFFFFFFFFFFFFFFFFFFFFFFFFFFFFF AND PUSH20 0xFFFFFFFFFFFFFFFFFFFFFFFFFFFFFFFFFFFFFFFF AND DUP2 MSTORE PUSH1 0x20 ADD SWAP1 DUP2 MSTORE PUSH1 0x20 ADD PUSH1 0x0 KECCAK256 DUP1 SLOAD SWAP1 POP SWAP1 POP PUSH1 0x6 PUSH1 0x0 DUP5 PUSH20 0xFFFFFFFFFFFFFFFFFFFFFFFFFFFFFFFFFFFFFFFF AND PUSH20 0xFFFFFFFFFFFFFFFFFFFFFFFFFFFFFFFFFFFFFFFF AND DUP2 MSTORE PUSH1 0x20 ADD SWAP1 DUP2 MSTORE PUSH1 0x20 ADD PUSH1 0x0 KECCAK256 DUP3 SWAP1 DUP1 PUSH1 0x1 DUP2 SLOAD ADD DUP1 DUP3 SSTORE DUP1 SWAP2 POP POP SWAP1 PUSH1 0x1 DUP3 SUB SWAP1 PUSH1 0x0 MSTORE PUSH1 0x20 PUSH1 0x0 KECCAK256 ADD PUSH1 0x0 SWAP1 SWAP2 SWAP3 SWAP1 SWAP2 SWAP1 SWAP2 POP SSTORE POP DUP1 PUSH1 0x7 PUSH1 0x0 DUP5 DUP2 MSTORE PUSH1 0x20 ADD SWAP1 DUP2 MSTORE PUSH1 0x20 ADD PUSH1 0x0 KECCAK256 DUP2 SWAP1 SSTORE POP POP POP POP JUMP JUMPDEST PUSH1 0x0 DUP1 PUSH2 0x17F1 DUP6 PUSH20 0xFFFFFFFFFFFFFFFFFFFFFFFFFFFFFFFFFFFFFFFF AND PUSH2 0x1CF3 JUMP JUMPDEST ISZERO ISZERO PUSH2 0x1800 JUMPI PUSH1 0x1 SWAP2 POP PUSH2 0x19B4 JUMP JUMPDEST DUP5 PUSH20 0xFFFFFFFFFFFFFFFFFFFFFFFFFFFFFFFFFFFFFFFF AND PUSH4 0xF0B9E5BA DUP8 DUP7 DUP7 PUSH1 0x40 MLOAD DUP5 PUSH4 0xFFFFFFFF AND PUSH29 0x100000000000000000000000000000000000000000000000000000000 MUL DUP2 MSTORE PUSH1 0x4 ADD DUP1 DUP5 PUSH20 0xFFFFFFFFFFFFFFFFFFFFFFFFFFFFFFFFFFFFFFFF AND PUSH20 0xFFFFFFFFFFFFFFFFFFFFFFFFFFFFFFFFFFFFFFFF AND DUP2 MSTORE PUSH1 0x20 ADD DUP4 DUP2 MSTORE PUSH1 0x20 ADD DUP1 PUSH1 0x20 ADD DUP3 DUP2 SUB DUP3 MSTORE DUP4 DUP2 DUP2 MLOAD DUP2 MSTORE PUSH1 0x20 ADD SWAP2 POP DUP1 MLOAD SWAP1 PUSH1 0x20 ADD SWAP1 DUP1 DUP4 DUP4 PUSH1 0x0 JUMPDEST DUP4 DUP2 LT ISZERO PUSH2 0x18C2 JUMPI DUP1 DUP3 ADD MLOAD DUP2 DUP5 ADD MSTORE PUSH1 0x20 DUP2 ADD SWAP1 POP PUSH2 0x18A7 JUMP JUMPDEST POP POP POP POP SWAP1 POP SWAP1 DUP2 ADD SWAP1 PUSH1 0x1F AND DUP1 ISZERO PUSH2 0x18EF JUMPI DUP1 DUP3 SUB DUP1 MLOAD PUSH1 0x1 DUP4 PUSH1 0x20 SUB PUSH2 0x100 EXP SUB NOT AND DUP2 MSTORE PUSH1 0x20 ADD SWAP2 POP JUMPDEST POP SWAP5 POP POP POP POP POP PUSH1 0x20 PUSH1 0x40 MLOAD DUP1 DUP4 SUB DUP2 PUSH1 0x0 DUP8 DUP1 EXTCODESIZE ISZERO DUP1 ISZERO PUSH2 0x1910 JUMPI PUSH1 0x0 DUP1 REVERT JUMPDEST POP GAS CALL ISZERO DUP1 ISZERO PUSH2 0x1924 JUMPI RETURNDATASIZE PUSH1 0x0 DUP1 RETURNDATACOPY RETURNDATASIZE PUSH1 0x0 REVERT JUMPDEST POP POP POP POP PUSH1 0x40 MLOAD RETURNDATASIZE PUSH1 0x20 DUP2 LT ISZERO PUSH2 0x193A JUMPI PUSH1 0x0 DUP1 REVERT JUMPDEST DUP2 ADD SWAP1 DUP1 DUP1 MLOAD SWAP1 PUSH1 0x20 ADD SWAP1 SWAP3 SWAP2 SWAP1 POP POP POP SWAP1 POP PUSH4 0xF0B9E5BA PUSH29 0x100000000000000000000000000000000000000000000000000000000 MUL PUSH28 0xFFFFFFFFFFFFFFFFFFFFFFFFFFFFFFFFFFFFFFFFFFFFFFFFFFFFFFFF NOT AND DUP2 PUSH28 0xFFFFFFFFFFFFFFFFFFFFFFFFFFFFFFFFFFFFFFFFFFFFFFFFFFFFFFFF NOT AND EQ SWAP2 POP JUMPDEST POP SWAP5 SWAP4 POP POP POP POP JUMP JUMPDEST PUSH2 0x19C6 DUP3 PUSH2 0xD24 JUMP JUMPDEST ISZERO ISZERO PUSH2 0x19D1 JUMPI PUSH1 0x0 DUP1 REVERT JUMPDEST DUP1 PUSH1 0xA PUSH1 0x0 DUP5 DUP2 MSTORE PUSH1 0x20 ADD SWAP1 DUP2 MSTORE PUSH1 0x20 ADD PUSH1 0x0 KECCAK256 SWAP1 DUP1 MLOAD SWAP1 PUSH1 0x20 ADD SWAP1 PUSH2 0x19F8 SWAP3 SWAP2 SWAP1 PUSH2 0x1E00 JUMP JUMPDEST POP POP POP JUMP JUMPDEST PUSH2 0x1A07 DUP3 DUP3 PUSH2 0x1D06 JUMP JUMPDEST PUSH1 0x8 DUP1 SLOAD SWAP1 POP PUSH1 0x9 PUSH1 0x0 DUP4 DUP2 MSTORE PUSH1 0x20 ADD SWAP1 DUP2 MSTORE PUSH1 0x20 ADD PUSH1 0x0 KECCAK256 DUP2 SWAP1 SSTORE POP PUSH1 0x8 DUP2 SWAP1 DUP1 PUSH1 0x1 DUP2 SLOAD ADD DUP1 DUP3 SSTORE DUP1 SWAP2 POP POP SWAP1 PUSH1 0x1 DUP3 SUB SWAP1 PUSH1 0x0 MSTORE PUSH1 0x20 PUSH1 0x0 KECCAK256 ADD PUSH1 0x0 SWAP1 SWAP2 SWAP3 SWAP1 SWAP2 SWAP1 SWAP2 POP SSTORE POP POP POP JUMP JUMPDEST DUP2 PUSH20 0xFFFFFFFFFFFFFFFFFFFFFFFFFFFFFFFFFFFFFFFF AND PUSH2 0x1A74 DUP3 PUSH2 0xDCD JUMP JUMPDEST PUSH20 0xFFFFFFFFFFFFFFFFFFFFFFFFFFFFFFFFFFFFFFFF AND EQ ISZERO ISZERO PUSH2 0x1A96 JUMPI PUSH1 0x0 DUP1 REVERT JUMPDEST PUSH2 0x1AE9 PUSH1 0x1 PUSH1 0x2 PUSH1 0x0 DUP6 PUSH20 0xFFFFFFFFFFFFFFFFFFFFFFFFFFFFFFFFFFFFFFFF AND PUSH20 0xFFFFFFFFFFFFFFFFFFFFFFFFFFFFFFFFFFFFFFFF AND DUP2 MSTORE PUSH1 0x20 ADD SWAP1 DUP2 MSTORE PUSH1 0x20 ADD PUSH1 0x0 KECCAK256 SLOAD PUSH2 0x1B82 SWAP1 SWAP2 SWAP1 PUSH4 0xFFFFFFFF AND JUMP JUMPDEST PUSH1 0x2 PUSH1 0x0 DUP5 PUSH20 0xFFFFFFFFFFFFFFFFFFFFFFFFFFFFFFFFFFFFFFFF AND PUSH20 0xFFFFFFFFFFFFFFFFFFFFFFFFFFFFFFFFFFFFFFFF AND DUP2 MSTORE PUSH1 0x20 ADD SWAP1 DUP2 MSTORE PUSH1 0x20 ADD PUSH1 0x0 KECCAK256 DUP2 SWAP1 SSTORE POP PUSH1 0x0 DUP1 PUSH1 0x0 DUP4 DUP2 MSTORE PUSH1 0x20 ADD SWAP1 DUP2 MSTORE PUSH1 0x20 ADD PUSH1 0x0 KECCAK256 PUSH1 0x0 PUSH2 0x100 EXP DUP2 SLOAD DUP2 PUSH20 0xFFFFFFFFFFFFFFFFFFFFFFFFFFFFFFFFFFFFFFFF MUL NOT AND SWAP1 DUP4 PUSH20 0xFFFFFFFFFFFFFFFFFFFFFFFFFFFFFFFFFFFFFFFF AND MUL OR SWAP1 SSTORE POP POP POP JUMP JUMPDEST PUSH1 0x0 DUP3 DUP3 GT ISZERO ISZERO ISZERO PUSH2 0x1B90 JUMPI INVALID JUMPDEST DUP2 DUP4 SUB SWAP1 POP SWAP3 SWAP2 POP POP JUMP JUMPDEST PUSH1 0x0 PUSH20 0xFFFFFFFFFFFFFFFFFFFFFFFFFFFFFFFFFFFFFFFF AND PUSH1 0x0 DUP1 DUP4 DUP2 MSTORE PUSH1 0x20 ADD SWAP1 DUP2 MSTORE PUSH1 0x20 ADD PUSH1 0x0 KECCAK256 PUSH1 0x0 SWAP1 SLOAD SWAP1 PUSH2 0x100 EXP SWAP1 DIV PUSH20 0xFFFFFFFFFFFFFFFFFFFFFFFFFFFFFFFFFFFFFFFF AND PUSH20 0xFFFFFFFFFFFFFFFFFFFFFFFFFFFFFFFFFFFFFFFF AND EQ ISZERO ISZERO PUSH2 0x1C08 JUMPI PUSH1 0x0 DUP1 REVERT JUMPDEST DUP2 PUSH1 0x0 DUP1 DUP4 DUP2 MSTORE PUSH1 0x20 ADD SWAP1 DUP2 MSTORE PUSH1 0x20 ADD PUSH1 0x0 KECCAK256 PUSH1 0x0 PUSH2 0x100 EXP DUP2 SLOAD DUP2 PUSH20 0xFFFFFFFFFFFFFFFFFFFFFFFFFFFFFFFFFFFFFFFF MUL NOT AND SWAP1 DUP4 PUSH20 0xFFFFFFFFFFFFFFFFFFFFFFFFFFFFFFFFFFFFFFFF AND MUL OR SWAP1 SSTORE POP PUSH2 0x1CAC PUSH1 0x1 PUSH1 0x2 PUSH1 0x0 DUP6 PUSH20 0xFFFFFFFFFFFFFFFFFFFFFFFFFFFFFFFFFFFFFFFF AND PUSH20 0xFFFFFFFFFFFFFFFFFFFFFFFFFFFFFFFFFFFFFFFF AND DUP2 MSTORE PUSH1 0x20 ADD SWAP1 DUP2 MSTORE PUSH1 0x20 ADD PUSH1 0x0 KECCAK256 SLOAD PUSH2 0x1DB6 SWAP1 SWAP2 SWAP1 PUSH4 0xFFFFFFFF AND JUMP JUMPDEST PUSH1 0x2 PUSH1 0x0 DUP5 PUSH20 0xFFFFFFFFFFFFFFFFFFFFFFFFFFFFFFFFFFFFFFFF AND PUSH20 0xFFFFFFFFFFFFFFFFFFFFFFFFFFFFFFFFFFFFFFFF AND DUP2 MSTORE PUSH1 0x20 ADD SWAP1 DUP2 MSTORE PUSH1 0x20 ADD PUSH1 0x0 KECCAK256 DUP2 SWAP1 SSTORE POP POP POP JUMP JUMPDEST PUSH1 0x0 DUP1 DUP3 EXTCODESIZE SWAP1 POP PUSH1 0x0 DUP2 GT SWAP2 POP POP SWAP2 SWAP1 POP JUMP JUMPDEST PUSH1 0x0 PUSH20 0xFFFFFFFFFFFFFFFFFFFFFFFFFFFFFFFFFFFFFFFF AND DUP3 PUSH20 0xFFFFFFFFFFFFFFFFFFFFFFFFFFFFFFFFFFFFFFFF AND EQ ISZERO ISZERO ISZERO PUSH2 0x1D42 JUMPI PUSH1 0x0 DUP1 REVERT JUMPDEST PUSH2 0x1D4C DUP3 DUP3 PUSH2 0x16F8 JUMP JUMPDEST DUP2 PUSH20 0xFFFFFFFFFFFFFFFFFFFFFFFFFFFFFFFFFFFFFFFF AND PUSH1 0x0 PUSH20 0xFFFFFFFFFFFFFFFFFFFFFFFFFFFFFFFFFFFFFFFF AND PUSH32 0xDDF252AD1BE2C89B69C2B068FC378DAA952BA7F163C4A11628F55A4DF523B3EF DUP4 PUSH1 0x40 MLOAD DUP1 DUP3 DUP2 MSTORE PUSH1 0x20 ADD SWAP2 POP POP PUSH1 0x40 MLOAD DUP1 SWAP2 SUB SWAP1 LOG3 POP POP JUMP JUMPDEST PUSH1 0x0 DUP1 DUP3 DUP5 ADD SWAP1 POP DUP4 DUP2 LT ISZERO ISZERO ISZERO PUSH2 0x1DCA JUMPI INVALID JUMPDEST DUP1 SWAP2 POP POP SWAP3 SWAP2 POP POP JUMP JUMPDEST DUP2 SLOAD DUP2 DUP4 SSTORE DUP2 DUP2 GT ISZERO PUSH2 0x1DFB JUMPI DUP2 DUP4 PUSH1 0x0 MSTORE PUSH1 0x20 PUSH1 0x0 KECCAK256 SWAP2 DUP3 ADD SWAP2 ADD PUSH2 0x1DFA SWAP2 SWAP1 PUSH2 0x1E80 JUMP JUMPDEST JUMPDEST POP POP POP JUMP JUMPDEST DUP3 DUP1 SLOAD PUSH1 0x1 DUP2 PUSH1 0x1 AND ISZERO PUSH2 0x100 MUL SUB AND PUSH1 0x2 SWAP1 DIV SWAP1 PUSH1 0x0 MSTORE PUSH1 0x20 PUSH1 0x0 KECCAK256 SWAP1 PUSH1 0x1F ADD PUSH1 0x20 SWAP1 DIV DUP2 ADD SWAP3 DUP3 PUSH1 0x1F LT PUSH2 0x1E41 JUMPI DUP1 MLOAD PUSH1 0xFF NOT AND DUP4 DUP1 ADD OR DUP6 SSTORE PUSH2 0x1E6F JUMP JUMPDEST DUP3 DUP1 ADD PUSH1 0x1 ADD DUP6 SSTORE DUP3 ISZERO PUSH2 0x1E6F JUMPI SWAP2 DUP3 ADD JUMPDEST DUP3 DUP2 GT ISZERO PUSH2 0x1E6E JUMPI DUP3 MLOAD DUP3 SSTORE SWAP2 PUSH1 0x20 ADD SWAP2 SWAP1 PUSH1 0x1 ADD SWAP1 PUSH2 0x1E53 JUMP JUMPDEST JUMPDEST POP SWAP1 POP PUSH2 0x1E7C SWAP2 SWAP1 PUSH2 0x1E80 JUMP JUMPDEST POP SWAP1 JUMP JUMPDEST PUSH2 0x1EA2 SWAP2 SWAP1 JUMPDEST DUP1 DUP3 GT ISZERO PUSH2 0x1E9E JUMPI PUSH1 0x0 DUP2 PUSH1 0x0 SWAP1 SSTORE POP PUSH1 0x1 ADD PUSH2 0x1E86 JUMP JUMPDEST POP SWAP1 JUMP JUMPDEST SWAP1 JUMP STOP LOG1 PUSH6 0x627A7A723058 KECCAK256 INVALID PUSH1 0x8A DUP1 0x1f PUSH20 0x455FD8E05F092B14FBB6D3E4538774594E1AB036 0xc2 0x4c 0x22 CALLDATASIZE 0xea 0xf5 STOP 0x29 "
				},
				"gasEstimates": {
					"creation": {
						"codeDepositCost": "1577800",
						"executionCost": "infinite",
						"totalCost": "infinite"
					},
					"external": {
						"addDeedMetadata(uint256,string)": "infinite",
						"approve(address,uint256)": "23887",
						"balanceOf(address)": "823",
						"exists(uint256)": "777",
						"getApproved(uint256)": "611",
						"isApprovedForAll(address,address)": "1084",
						"name()": "infinite",
						"ownerOf(uint256)": "844",
						"registerDeed(uint256,string)": "infinite",
						"safeTransferFrom(address,address,uint256)": "infinite",
						"safeTransferFrom(address,address,uint256,bytes)": "infinite",
						"setApprovalForAll(address,bool)": "22831",
						"symbol()": "infinite",
						"tokenByIndex(uint256)": "1197",
						"tokenOfOwnerByIndex(address,uint256)": "1390",
						"tokenURI(uint256)": "infinite",
						"totalSupply()": "476",
						"transferFrom(address,address,uint256)": "infinite"
					}
				},
				"methodIdentifiers": {
					"addDeedMetadata(uint256,string)": "da556033",
					"approve(address,uint256)": "095ea7b3",
					"balanceOf(address)": "70a08231",
					"exists(uint256)": "4f558e79",
					"getApproved(uint256)": "081812fc",
					"isApprovedForAll(address,address)": "e985e9c5",
					"name()": "06fdde03",
					"ownerOf(uint256)": "6352211e",
					"registerDeed(uint256,string)": "f72439dd",
					"safeTransferFrom(address,address,uint256)": "42842e0e",
					"safeTransferFrom(address,address,uint256,bytes)": "b88d4fde",
					"setApprovalForAll(address,bool)": "a22cb465",
					"symbol()": "95d89b41",
					"tokenByIndex(uint256)": "4f6ccce7",
					"tokenOfOwnerByIndex(address,uint256)": "2f745c59",
					"tokenURI(uint256)": "c87b56dd",
					"totalSupply()": "18160ddd",
					"transferFrom(address,address,uint256)": "23b872dd"
				}
			},
			"userdoc": {
				"methods": {}
			}
		}
	}
}